8=FIX.4.2|9=67|35=A|34=1|49=BAADER|52=20181028-07:16:50.964|56=CATSOS|98=0|108=30|10=121|8=FIX.4.2|9=55|35=5|34=2|49=BAADER|52=20181028-07:16:51.034|56=CATSOS|10=071|8=FIX.4.2|9=67|35=A|34=3|49=BAADER|52=20181028-07:20:39.068|56=CATSOS|98=0|108=30|10=120|8=FIX.4.2|9=55|35=5|34=4|49=BAADER|52=20181028-07:20:39.158|56=CATSOS|10=081|8=FIX.4.2|9=67|35=A|34=1|49=BAADER|52=20181028-07:16:50.964|56=CATSOS|98=0|108=30|10=121|8=FIX.4.2|9=55|35=5|34=2|49=BAADER|52=20181028-07:16:51.034|56=CATSOS|10=071|8=FIX.4.2|9=67|35=A|34=3|49=BAADER|52=20181028-07:20:39.068|56=CATSOS|98=0|108=30|10=120|8=FIX.4.2|9=55|35=5|34=4|49=BAADER|52=20181028-07:20:39.158|56=CATSOS|10=081|8=FIX.4.2|9=67|35=A|34=1|49=BAADER|52=20181028-07:16:50.964|56=CATSOS|98=0|108=30|10=121|8=FIX.4.2|9=55|35=5|34=2|49=BAADER|52=20181028-07:16:51.034|56=CATSOS|10=071|8=FIX.4.2|9=67|35=A|34=3|49=BAADER|52=20181028-07:20:39.068|56=CATSOS|98=0|108=30|10=120|8=FIX.4.2|9=55|35=5|34=4|49=BAADER|52=20181028-07:20:39.158|56=CATSOS|10=081|8=FIX.4.2|9=67|35=A|34=1|49=BAADER|52=20181028-07:16:50.964|56=CATSOS|98=0|108=30|10=121|8=FIX.4.2|9=55|35=5|34=2|49=BAADER|52=20181028-07:16:51.034|56=CATSOS|10=071|8=FIX.4.2|9=67|35=A|34=3|49=BAADER|52=20181028-07:20:39.068|56=CATSOS|98=0|108=30|10=120|8=FIX.4.2|9=55|35=5|34=4|49=BAADER|52=20181028-07:20:39.158|56=CATSOS|10=081|8=FIX.4.2|9=67|35=A|34=1|49=BAADER|52=20181028-07:16:50.964|56=CATSOS|98=0|108=30|10=121|8=FIX.4.2|9=55|35=5|34=2|49=BAADER|52=20181028-07:16:51.034|56=CATSOS|10=071|8=FIX.4.2|9=67|35=A|34=3|49=BAADER|52=20181028-07:20:39.068|56=CATSOS|98=0|108=30|10=120|8=FIX.4.2|9=55|35=5|34=4|49=BAADER|52=20181028-07:20:39.158|56=CATSOS|10=081|8=FIX.4.2|9=67|35=A|34=1|49=BAADER|52=20181028-07:16:50.964|56=CATSOS|98=0|108=30|10=121|8=FIX.4.2|9=55|35=5|34=2|49=BAADER|52=20181028-07:16:51.034|56=CATSOS|10=071|8=FIX.4.2|9=67|35=A|34=3|49=BAADER|52=20181028-07:20:39.068|56=CATSOS|98=0|108=30|10=120|8=FIX.4.2|9=55|35=5|34=4|49=BAADER|52=20181028-07:20:39.158|56=CATSOS|10=081|8=FIX.4.2|9=67|35=A|34=1|49=BAADER|52=20181028-07:16:50.964|56=CATSOS|98=0|108=30|10=121|8=FIX.4.2|9=55|35=5|34=2|49=BAADER|52=20181028-07:16:51.034|56=CATSOS|10=071|8=FIX.4.2|9=67|35=A|34=3|49=BAADER|52=20181028-07:20:39.068|56=CATSOS|98=0|108=30|10=120|8=FIX.4.2|9=55|35=5|34=4|49=BAADER|52=20181028-07:20:39.158|56=CATSOS|10=081|8=FIX.4.2|9=67|35=A|34=1|49=BAADER|52=20181028-07:16:50.964|56=CATSOS|98=0|108=30|10=121|8=FIX.4.2|9=55|35=5|34=2|49=BAADER|52=20181028-07:16:51.034|56=CATSOS|10=071|8=FIX.4.2|9=67|35=A|34=3|49=BAADER|52=20181028-07:20:39.068|56=CATSOS|98=0|108=30|10=120|8=FIX.4.2|9=55|35=5|34=4|49=BAADER|52=20181028-07:20:39.158|56=CATSOS|10=081|8=FIX.4.2|9=67|35=A|34=1|49=BAADER|52=20181028-07:16:50.964|56=CATSOS|98=0|108=30|10=121|8=FIX.4.2|9=55|35=5|34=2|49=BAADER|52=20181028-07:16:51.034|56=CATSOS|10=071|8=FIX.4.2|9=67|35=A|34=3|49=BAADER|52=20181028-07:20:39.068|56=CATSOS|98=0|108=30|10=120|8=FIX.4.2|9=55|35=5|34=4|49=BAADER|52=20181028-07:20:39.158|56=CATSOS|10=081|8=FIX.4.2|9=67|35=A|34=1|49=BAADER|52=20181028-07:16:50.964|56=CATSOS|98=0|108=30|10=121|8=FIX.4.2|9=55|35=5|34=2|49=BAADER|52=20181028-07:16:51.034|56=CATSOS|10=071|8=FIX.4.2|9=67|35=A|34=3|49=BAADER|52=20181028-07:20:39.068|56=CATSOS|98=0|108=30|10=120|8=FIX.4.2|9=55|35=5|34=4|49=BAADER|52=20181028-07:20:39.158|56=CATSOS|10=081|8=FIX.4.2|9=67|35=A|34=1|49=BAADER|52=20181028-07:16:50.964|56=CATSOS|98=0|108=30|10=121|8=FIX.4.2|9=55|35=5|34=2|49=BAADER|52=20181028-07:16:51.034|56=CATSOS|10=071|8=FIX.4.2|9=67|35=A|34=3|49=BAADER|52=20181028-07:20:39.068|56=CATSOS|98=0|108=30|10=120|8=FIX.4.2|9=55|35=5|34=4|49=BAADER|52=20181028-07:20:39.158|56=CATSOS|10=081|8=FIX.4.2|9=67|35=A|34=1|49=BAADER|52=20181028-07:16:50.964|56=CATSOS|98=0|108=30|10=121|8=FIX.4.2|9=55|35=5|34=2|49=BAADER|52=20181028-07:16:51.034|56=CATSOS|10=071|8=FIX.4.2|9=67|35=A|34=3|49=BAADER|52=20181028-07:20:39.068|56=CATSOS|98=0|108=30|10=120|8=FIX.4.2|9=55|35=5|34=4|49=BAADER|52=20181028-07:20:39.158|56=CATSOS|10=081|8=FIX.4.2|9=67|35=A|34=1|49=BAADER|52=20181028-07:16:50.964|56=CATSOS|98=0|108=30|10=121|8=FIX.4.2|9=55|35=5|34=2|49=BAADER|52=20181028-07:16:51.034|56=CATSOS|10=071|8=FIX.4.2|9=67|35=A|34=3|49=BAADER|52=20181028-07:20:39.068|56=CATSOS|98=0|108=30|10=120|8=FIX.4.2|9=55|35=5|34=4|49=BAADER|52=20181028-07:20:39.158|56=CATSOS|10=081|8=FIX.4.2|9=67|35=A|34=1|49=BAADER|52=20181028-07:16:50.964|56=CATSOS|98=0|108=30|10=121|8=FIX.4.2|9=55|35=5|34=2|49=BAADER|52=20181028-07:16:51.034|56=CATSOS|10=071|8=FIX.4.2|9=67|35=A|34=3|49=BAADER|52=20181028-07:20:39.068|56=CATSOS|98=0|108=30|10=120|8=FIX.4.2|9=55|35=5|34=4|49=BAADER|52=20181028-07:20:39.158|56=CATSOS|10=081|8=FIX.4.2|9=67|35=A|34=1|49=BAADER|52=20181028-07:16:50.964|56=CATSOS|98=0|108=30|10=121|8=FIX.4.2|9=55|35=5|34=2|49=BAADER|52=20181028-07:16:51.034|56=CATSOS|10=071|8=FIX.4.2|9=67|35=A|34=3|49=BAADER|52=20181028-07:20:39.068|56=CATSOS|98=0|108=30|10=120|8=FIX.4.2|9=55|35=5|34=4|49=BAADER|52=20181028-07:20:39.158|56=CATSOS|10=081|8=FIX.4.2|9=67|35=A|34=1|49=BAADER|52=20181028-07:16:50.964|56=CATSOS|98=0|108=30|10=121|8=FIX.4.2|9=55|35=5|34=2|49=BAADER|52=20181028-07:16:51.034|56=CATSOS|10=071|8=FIX.4.2|9=67|35=A|34=3|49=BAADER|52=20181028-07:20:39.068|56=CATSOS|98=0|108=30|10=120|8=FIX.4.2|9=55|35=5|34=4|49=BAADER|52=20181028-07:20:39.158|56=CATSOS|10=081|8=FIX.4.2|9=67|35=A|34=1|49=BAADER|52=20181028-07:16:50.964|56=CATSOS|98=0|108=30|10=121|8=FIX.4.2|9=55|35=5|34=2|49=BAADER|52=20181028-07:16:51.034|56=CATSOS|10=071|8=FIX.4.2|9=67|35=A|34=3|49=BAADER|52=20181028-07:20:39.068|56=CATSOS|98=0|108=30|10=120|8=FIX.4.2|9=55|35=5|34=4|49=BAADER|52=20181028-07:20:39.158|56=CATSOS|10=081|8=FIX.4.2|9=67|35=A|34=1|49=BAADER|52=20181028-07:16:50.964|56=CATSOS|98=0|108=30|10=121|8=FIX.4.2|9=55|35=5|34=2|49=BAADER|52=20181028-07:16:51.034|56=CATSOS|10=071|8=FIX.4.2|9=67|35=A|34=3|49=BAADER|52=20181028-07:20:39.068|56=CATSOS|98=0|108=30|10=120|8=FIX.4.2|9=55|35=5|34=4|49=BAADER|52=20181028-07:20:39.158|56=CATSOS|10=081|8=FIX.4.2|9=67|35=A|34=1|49=BAADER|52=20181028-07:16:50.964|56=CATSOS|98=0|108=30|10=121|8=FIX.4.2|9=55|35=5|34=2|49=BAADER|52=20181028-07:16:51.034|56=CATSOS|10=071|8=FIX.4.2|9=67|35=A|34=3|49=BAADER|52=20181028-07:20:39.068|56=CATSOS|98=0|108=30|10=120|8=FIX.4.2|9=55|35=5|34=4|49=BAADER|52=20181028-07:20:39.158|56=CATSOS|10=081|8=FIX.4.2|9=67|35=A|34=1|49=BAADER|52=20181028-07:16:50.964|56=CATSOS|98=0|108=30|10=121|8=FIX.4.2|9=55|35=5|34=2|49=BAADER|52=20181028-07:16:51.034|56=CATSOS|10=071|8=FIX.4.2|9=67|35=A|34=3|49=BAADER|52=20181028-07:20:39.068|56=CATSOS|98=0|108=30|10=120|8=FIX.4.2|9=55|35=5|34=4|49=BAADER|52=20181028-07:20:39.158|56=CATSOS|10=081|8=FIX.4.2|9=67|35=A|34=1|49=BAADER|52=20181028-07:16:50.964|56=CATSOS|98=0|108=30|10=121|8=FIX.4.2|9=55|35=5|34=2|49=BAADER|52=20181028-07:16:51.034|56=CATSOS|10=071|8=FIX.4.2|9=67|35=A|34=3|49=BAADER|52=20181028-07:20:39.068|56=CATSOS|98=0|108=30|10=120|8=FIX.4.2|9=55|35=5|34=4|49=BAADER|52=20181028-07:20:39.158|56=CATSOS|10=081|8=FIX.4.2|9=67|35=A|34=1|49=BAADER|52=20181028-07:16:50.964|56=CATSOS|98=0|108=30|10=121|8=FIX.4.2|9=55|35=5|34=2|49=BAADER|52=20181028-07:16:51.034|56=CATSOS|10=071|8=FIX.4.2|9=67|35=A|34=3|49=BAADER|52=20181028-07:20:39.068|56=CATSOS|98=0|108=30|10=120|8=FIX.4.2|9=55|35=5|34=4|49=BAADER|52=20181028-07:20:39.158|56=CATSOS|10=081|8=FIX.4.2|9=67|35=A|34=1|49=BAADER|52=20181028-07:16:50.964|56=CATSOS|98=0|108=30|10=121|8=FIX.4.2|9=55|35=5|34=2|49=BAADER|52=20181028-07:16:51.034|56=CATSOS|10=071|8=FIX.4.2|9=67|35=A|34=3|49=BAADER|52=20181028-07:20:39.068|56=CATSOS|98=0|108=30|10=120|8=FIX.4.2|9=55|35=5|34=4|49=BAADER|52=20181028-07:20:39.158|56=CATSOS|10=081|8=FIX.4.2|9=67|35=A|34=1|49=BAADER|52=20181028-07:16:50.964|56=CATSOS|98=0|108=30|10=121|8=FIX.4.2|9=55|35=5|34=2|49=BAADER|52=20181028-07:16:51.034|56=CATSOS|10=071|8=FIX.4.2|9=67|35=A|34=3|49=BAADER|52=20181028-07:20:39.068|56=CATSOS|98=0|108=30|10=120|8=FIX.4.2|9=55|35=5|34=4|49=BAADER|52=20181028-07:20:39.158|56=CATSOS|10=081|8=FIX.4.2|9=67|35=A|34=1|49=BAADER|52=20181028-07:16:50.964|56=CATSOS|98=0|108=30|10=121|8=FIX.4.2|9=55|35=5|34=2|49=BAADER|52=20181028-07:16:51.034|56=CATSOS|10=071|8=FIX.4.2|9=67|35=A|34=3|49=BAADER|52=20181028-07:20:39.068|56=CATSOS|98=0|108=30|10=120|8=FIX.4.2|9=55|35=5|34=4|49=BAADER|52=20181028-07:20:39.158|56=CATSOS|10=081|8=FIX.4.2|9=67|35=A|34=1|49=BAADER|52=20181028-07:16:50.964|56=CATSOS|98=0|108=30|10=121|8=FIX.4.2|9=55|35=5|34=2|49=BAADER|52=20181028-07:16:51.034|56=CATSOS|10=071|8=FIX.4.2|9=67|35=A|34=3|49=BAADER|52=20181028-07:20:39.068|56=CATSOS|98=0|108=30|10=120|8=FIX.4.2|9=55|35=5|34=4|49=BAADER|52=20181028-07:20:39.158|56=CATSOS|10=081|8=FIX.4.2|9=67|35=A|34=1|49=BAADER|52=20181028-07:16:50.964|56=CATSOS|98=0|108=30|10=121|8=FIX.4.2|9=55|35=5|34=2|49=BAADER|52=20181028-07:16:51.034|56=CATSOS|10=071|8=FIX.4.2|9=67|35=A|34=3|49=BAADER|52=20181028-07:20:39.068|56=CATSOS|98=0|108=30|10=120|8=FIX.4.2|9=55|35=5|34=4|49=BAADER|52=20181028-07:20:39.158|56=CATSOS|10=081|8=FIX.4.2|9=67|35=A|34=1|49=BAADER|52=20181028-07:16:50.964|56=CATSOS|98=0|108=30|10=121|8=FIX.4.2|9=55|35=5|34=2|49=BAADER|52=20181028-07:16:51.034|56=CATSOS|10=071|8=FIX.4.2|9=67|35=A|34=3|49=BAADER|52=20181028-07:20:39.068|56=CATSOS|98=0|108=30|10=120|8=FIX.4.2|9=55|35=5|34=4|49=BAADER|52=20181028-07:20:39.158|56=CATSOS|10=081|8=FIX.4.2|9=67|35=A|34=1|49=BAADER|52=20181028-07:16:50.964|56=CATSOS|98=0|108=30|10=121|8=FIX.4.2|9=55|35=5|34=2|49=BAADER|52=20181028-07:16:51.034|56=CATSOS|10=071|8=FIX.4.2|9=67|35=A|34=3|49=BAADER|52=20181028-07:20:39.068|56=CATSOS|98=0|108=30|10=120|8=FIX.4.2|9=55|35=5|34=4|49=BAADER|52=20181028-07:20:39.158|56=CATSOS|10=081|8=FIX.4.2|9=67|35=A|34=1|49=BAADER|52=20181028-07:16:50.964|56=CATSOS|98=0|108=30|10=121|8=FIX.4.2|9=55|35=5|34=2|49=BAADER|52=20181028-07:16:51.034|56=CATSOS|10=071|8=FIX.4.2|9=67|35=A|34=3|49=BAADER|52=20181028-07:20:39.068|56=CATSOS|98=0|108=30|10=120|8=FIX.4.2|9=55|35=5|34=4|49=BAADER|52=20181028-07:20:39.158|56=CATSOS|10=081|8=FIX.4.2|9=67|35=A|34=5|49=BAADER|52=20181028-07:22:28.154|56=CATSOS|98=0|108=30|10=118|8=FIX.4.2|9=55|35=5|34=6|49=BAADER|52=20181028-07:22:28.254|56=CATSOS|10=080|8=FIX.4.2|9=67|35=A|34=1|49=BAADER|52=20181028-07:16:50.964|56=CATSOS|98=0|108=30|10=121|8=FIX.4.2|9=55|35=5|34=2|49=BAADER|52=20181028-07:16:51.034|56=CATSOS|10=071|8=FIX.4.2|9=67|35=A|34=3|49=BAADER|52=20181028-07:20:39.068|56=CATSOS|98=0|108=30|10=120|8=FIX.4.2|9=55|35=5|34=4|49=BAADER|52=20181028-07:20:39.158|56=CATSOS|10=081|8=FIX.4.2|9=67|35=A|34=1|49=BAADER|52=20181028-07:16:50.964|56=CATSOS|98=0|108=30|10=121|8=FIX.4.2|9=55|35=5|34=2|49=BAADER|52=20181028-07:16:51.034|56=CATSOS|10=071|8=FIX.4.2|9=67|35=A|34=3|49=BAADER|52=20181028-07:20:39.068|56=CATSOS|98=0|108=30|10=120|8=FIX.4.2|9=55|35=5|34=4|49=BAADER|52=20181028-07:20:39.158|56=CATSOS|10=081|8=FIX.4.2|9=67|35=A|34=1|49=BAADER|52=20181028-07:16:50.964|56=CATSOS|98=0|108=30|10=121|8=FIX.4.2|9=55|35=5|34=2|49=BAADER|52=20181028-07:16:51.034|56=CATSOS|10=071|8=FIX.4.2|9=67|35=A|34=3|49=BAADER|52=20181028-07:20:39.068|56=CATSOS|98=0|108=30|10=120|8=FIX.4.2|9=55|35=5|34=4|49=BAADER|52=20181028-07:20:39.158|56=CATSOS|10=081|8=FIX.4.2|9=67|35=A|34=1|49=BAADER|52=20181028-07:16:50.964|56=CATSOS|98=0|108=30|10=121|8=FIX.4.2|9=55|35=5|34=2|49=BAADER|52=20181028-07:16:51.034|56=CATSOS|10=071|8=FIX.4.2|9=67|35=A|34=3|49=BAADER|52=20181028-07:20:39.068|56=CATSOS|98=0|108=30|10=120|8=FIX.4.2|9=55|35=5|34=4|49=BAADER|52=20181028-07:20:39.158|56=CATSOS|10=081|8=FIX.4.2|9=67|35=A|34=1|49=BAADER|52=20181028-07:16:50.964|56=CATSOS|98=0|108=30|10=121|8=FIX.4.2|9=55|35=5|34=2|49=BAADER|52=20181028-07:16:51.034|56=CATSOS|10=071|8=FIX.4.2|9=67|35=A|34=3|49=BAADER|52=20181028-07:20:39.068|56=CATSOS|98=0|108=30|10=120|8=FIX.4.2|9=55|35=5|34=4|49=BAADER|52=20181028-07:20:39.158|56=CATSOS|10=081|8=FIX.4.2|9=67|35=A|34=1|49=BAADER|52=20181028-07:16:50.964|56=CATSOS|98=0|108=30|10=121|8=FIX.4.2|9=55|35=5|34=2|49=BAADER|52=20181028-07:16:51.034|56=CATSOS|10=071|8=FIX.4.2|9=67|35=A|34=3|49=BAADER|52=20181028-07:20:39.068|56=CATSOS|98=0|108=30|10=120|8=FIX.4.2|9=55|35=5|34=4|49=BAADER|52=20181028-07:20:39.158|56=CATSOS|10=081|8=FIX.4.2|9=67|35=A|34=1|49=BAADER|52=20181028-07:16:50.964|56=CATSOS|98=0|108=30|10=121|8=FIX.4.2|9=55|35=5|34=2|49=BAADER|52=20181028-07:16:51.034|56=CATSOS|10=071|8=FIX.4.2|9=67|35=A|34=3|49=BAADER|52=20181028-07:20:39.068|56=CATSOS|98=0|108=30|10=120|8=FIX.4.2|9=55|35=5|34=4|49=BAADER|52=20181028-07:20:39.158|56=CATSOS|10=081|8=FIX.4.2|9=67|35=A|34=1|49=BAADER|52=20181028-07:16:50.964|56=CATSOS|98=0|108=30|10=121|8=FIX.4.2|9=55|35=5|34=2|49=BAADER|52=20181028-07:16:51.034|56=CATSOS|10=071|8=FIX.4.2|9=67|35=A|34=3|49=BAADER|52=20181028-07:20:39.068|56=CATSOS|98=0|108=30|10=120|8=FIX.4.2|9=55|35=5|34=4|49=BAADER|52=20181028-07:20:39.158|56=CATSOS|10=081|8=FIX.4.2|9=67|35=A|34=1|49=BAADER|52=20181028-07:16:50.964|56=CATSOS|98=0|108=30|10=121|8=FIX.4.2|9=55|35=5|34=2|49=BAADER|52=20181028-07:16:51.034|56=CATSOS|10=071|8=FIX.4.2|9=67|35=A|34=3|49=BAADER|52=20181028-07:20:39.068|56=CATSOS|98=0|108=30|10=120|8=FIX.4.2|9=55|35=5|34=4|49=BAADER|52=20181028-07:20:39.158|56=CATSOS|10=081|8=FIX.4.2|9=67|35=A|34=1|49=BAADER|52=20181028-07:16:50.964|56=CATSOS|98=0|108=30|10=121|8=FIX.4.2|9=55|35=5|34=2|49=BAADER|52=20181028-07:16:51.034|56=CATSOS|10=071|8=FIX.4.2|9=67|35=A|34=3|49=BAADER|52=20181028-07:20:39.068|56=CATSOS|98=0|108=30|10=120|8=FIX.4.2|9=55|35=5|34=4|49=BAADER|52=20181028-07:20:39.158|56=CATSOS|10=081|8=FIX.4.2|9=67|35=A|34=1|49=BAADER|52=20181028-07:16:50.964|56=CATSOS|98=0|108=30|10=121|8=FIX.4.2|9=55|35=5|34=2|49=BAADER|52=20181028-07:16:51.034|56=CATSOS|10=071|8=FIX.4.2|9=67|35=A|34=3|49=BAADER|52=20181028-07:20:39.068|56=CATSOS|98=0|108=30|10=120|8=FIX.4.2|9=55|35=5|34=4|49=BAADER|52=20181028-07:20:39.158|56=CATSOS|10=081|8=FIX.4.2|9=67|35=A|34=1|49=BAADER|52=20181028-07:16:50.964|56=CATSOS|98=0|108=30|10=121|8=FIX.4.2|9=55|35=5|34=2|49=BAADER|52=20181028-07:16:51.034|56=CATSOS|10=071|8=FIX.4.2|9=67|35=A|34=3|49=BAADER|52=20181028-07:20:39.068|56=CATSOS|98=0|108=30|10=120|8=FIX.4.2|9=55|35=5|34=4|49=BAADER|52=20181028-07:20:39.158|56=CATSOS|10=081|8=FIX.4.2|9=67|35=A|34=1|49=BAADER|52=20181028-07:16:50.964|56=CATSOS|98=0|108=30|10=121|8=FIX.4.2|9=55|35=5|34=2|49=BAADER|52=20181028-07:16:51.034|56=CATSOS|10=071|8=FIX.4.2|9=67|35=A|34=3|49=BAADER|52=20181028-07:20:39.068|56=CATSOS|98=0|108=30|10=120|8=FIX.4.2|9=55|35=5|34=4|49=BAADER|52=20181028-07:20:39.158|56=CATSOS|10=081|8=FIX.4.2|9=67|35=A|34=1|49=BAADER|52=20181028-07:16:50.964|56=CATSOS|98=0|108=30|10=121|8=FIX.4.2|9=55|35=5|34=2|49=BAADER|52=20181028-07:16:51.034|56=CATSOS|10=071|8=FIX.4.2|9=67|35=A|34=3|49=BAADER|52=20181028-07:20:39.068|56=CATSOS|98=0|108=30|10=120|8=FIX.4.2|9=55|35=5|34=4|49=BAADER|52=20181028-07:20:39.158|56=CATSOS|10=081|8=FIX.4.2|9=67|35=A|34=1|49=BAADER|52=20181028-07:16:50.964|56=CATSOS|98=0|108=30|10=121|8=FIX.4.2|9=55|35=5|34=2|49=BAADER|52=20181028-07:16:51.034|56=CATSOS|10=071|8=FIX.4.2|9=67|35=A|34=3|49=BAADER|52=20181028-07:20:39.068|56=CATSOS|98=0|108=30|10=120|8=FIX.4.2|9=55|35=5|34=4|49=BAADER|52=20181028-07:20:39.158|56=CATSOS|10=081|8=FIX.4.2|9=67|35=A|34=1|49=BAADER|52=20181028-07:16:50.964|56=CATSOS|98=0|108=30|10=121|8=FIX.4.2|9=55|35=5|34=2|49=BAADER|52=20181028-07:16:51.034|56=CATSOS|10=071|8=FIX.4.2|9=67|35=A|34=3|49=BAADER|52=20181028-07:20:39.068|56=CATSOS|98=0|108=30|10=120|8=FIX.4.2|9=55|35=5|34=4|49=BAADER|52=20181028-07:20:39.158|56=CATSOS|10=081|8=FIX.4.2|9=67|35=A|34=1|49=BAADER|52=20181028-07:16:50.964|56=CATSOS|98=0|108=30|10=121|8=FIX.4.2|9=55|35=5|34=2|49=BAADER|52=20181028-07:16:51.034|56=CATSOS|10=071|8=FIX.4.2|9=67|35=A|34=3|49=BAADER|52=20181028-07:20:39.068|56=CATSOS|98=0|108=30|10=120|8=FIX.4.2|9=55|35=5|34=4|49=BAADER|52=20181028-07:20:39.158|56=CATSOS|10=081|8=FIX.4.2|9=67|35=A|34=1|49=BAADER|52=20181028-07:16:50.964|56=CATSOS|98=0|108=30|10=121|8=FIX.4.2|9=55|35=5|34=2|49=BAADER|52=20181028-07:16:51.034|56=CATSOS|10=071|8=FIX.4.2|9=67|35=A|34=3|49=BAADER|52=20181028-07:20:39.068|56=CATSOS|98=0|108=30|10=120|8=FIX.4.2|9=55|35=5|34=4|49=BAADER|52=20181028-07:20:39.158|56=CATSOS|10=081|8=FIX.4.2|9=67|35=A|34=1|49=BAADER|52=20181028-07:16:50.964|56=CATSOS|98=0|108=30|10=121|8=FIX.4.2|9=55|35=5|34=2|49=BAADER|52=20181028-07:16:51.034|56=CATSOS|10=071|8=FIX.4.2|9=67|35=A|34=3|49=BAADER|52=20181028-07:20:39.068|56=CATSOS|98=0|108=30|10=120|8=FIX.4.2|9=55|35=5|34=4|49=BAADER|52=20181028-07:20:39.158|56=CATSOS|10=081|8=FIX.4.2|9=67|35=A|34=1|49=BAADER|52=20181028-07:16:50.964|56=CATSOS|98=0|108=30|10=121|8=FIX.4.2|9=55|35=5|34=2|49=BAADER|52=20181028-07:16:51.034|56=CATSOS|10=071|8=FIX.4.2|9=67|35=A|34=3|49=BAADER|52=20181028-07:20:39.068|56=CATSOS|98=0|108=30|10=120|8=FIX.4.2|9=55|35=5|34=4|49=BAADER|52=20181028-07:20:39.158|56=CATSOS|10=081|8=FIX.4.2|9=67|35=A|34=1|49=BAADER|52=20181028-07:16:50.964|56=CATSOS|98=0|108=30|10=121|8=FIX.4.2|9=55|35=5|34=2|49=BAADER|52=20181028-07:16:51.034|56=CATSOS|10=071|8=FIX.4.2|9=67|35=A|34=3|49=BAADER|52=20181028-07:20:39.068|56=CATSOS|98=0|108=30|10=120|8=FIX.4.2|9=55|35=5|34=4|49=BAADER|52=20181028-07:20:39.158|56=CATSOS|10=081|8=FIX.4.2|9=67|35=A|34=1|49=BAADER|52=20181028-07:16:50.964|56=CATSOS|98=0|108=30|10=121|8=FIX.4.2|9=55|35=5|34=2|49=BAADER|52=20181028-07:16:51.034|56=CATSOS|10=071|8=FIX.4.2|9=67|35=A|34=3|49=BAADER|52=20181028-07:20:39.068|56=CATSOS|98=0|108=30|10=120|8=FIX.4.2|9=55|35=5|34=4|49=BAADER|52=20181028-07:20:39.158|56=CATSOS|10=081|8=FIX.4.2|9=67|35=A|34=1|49=BAADER|52=20181028-07:16:50.964|56=CATSOS|98=0|108=30|10=121|8=FIX.4.2|9=55|35=5|34=2|49=BAADER|52=20181028-07:16:51.034|56=CATSOS|10=071|8=FIX.4.2|9=67|35=A|34=3|49=BAADER|52=20181028-07:20:39.068|56=CATSOS|98=0|108=30|10=120|8=FIX.4.2|9=55|35=5|34=4|49=BAADER|52=20181028-07:20:39.158|56=CATSOS|10=081|8=FIX.4.2|9=67|35=A|34=1|49=BAADER|52=20181028-07:16:50.964|56=CATSOS|98=0|108=30|10=121|8=FIX.4.2|9=55|35=5|34=2|49=BAADER|52=20181028-07:16:51.034|56=CATSOS|10=071|8=FIX.4.2|9=67|35=A|34=3|49=BAADER|52=20181028-07:20:39.068|56=CATSOS|98=0|108=30|10=120|8=FIX.4.2|9=55|35=5|34=4|49=BAADER|52=20181028-07:20:39.158|56=CATSOS|10=081|8=FIX.4.2|9=67|35=A|34=1|49=BAADER|52=20181028-07:16:50.964|56=CATSOS|98=0|108=30|10=121|8=FIX.4.2|9=55|35=5|34=2|49=BAADER|52=20181028-07:16:51.034|56=CATSOS|10=071|8=FIX.4.2|9=67|35=A|34=3|49=BAADER|52=20181028-07:20:39.068|56=CATSOS|98=0|108=30|10=120|8=FIX.4.2|9=55|35=5|34=4|49=BAADER|52=20181028-07:20:39.158|56=CATSOS|10=081|8=FIX.4.2|9=67|35=A|34=1|49=BAADER|52=20181028-07:16:50.964|56=CATSOS|98=0|108=30|10=121|8=FIX.4.2|9=55|35=5|34=2|49=BAADER|52=20181028-07:16:51.034|56=CATSOS|10=071|8=FIX.4.2|9=67|35=A|34=3|49=BAADER|52=20181028-07:20:39.068|56=CATSOS|98=0|108=30|10=120|8=FIX.4.2|9=55|35=5|34=4|49=BAADER|52=20181028-07:20:39.158|56=CATSOS|10=081|8=FIX.4.2|9=67|35=A|34=1|49=BAADER|52=20181028-07:16:50.964|56=CATSOS|98=0|108=30|10=121|8=FIX.4.2|9=55|35=5|34=2|49=BAADER|52=20181028-07:16:51.034|56=CATSOS|10=071|8=FIX.4.2|9=67|35=A|34=3|49=BAADER|52=20181028-07:20:39.068|56=CATSOS|98=0|108=30|10=120|8=FIX.4.2|9=55|35=5|34=4|49=BAADER|52=20181028-07:20:39.158|56=CATSOS|10=081|8=FIX.4.2|9=67|35=A|34=1|49=BAADER|52=20181028-07:16:50.964|56=CATSOS|98=0|108=30|10=121|8=FIX.4.2|9=55|35=5|34=2|49=BAADER|52=20181028-07:16:51.034|56=CATSOS|10=071|8=FIX.4.2|9=67|35=A|34=3|49=BAADER|52=20181028-07:20:39.068|56=CATSOS|98=0|108=30|10=120|8=FIX.4.2|9=55|35=5|34=4|49=BAADER|52=20181028-07:20:39.158|56=CATSOS|10=081|8=FIX.4.2|9=67|35=A|34=1|49=BAADER|52=20181028-07:16:50.964|56=CATSOS|98=0|108=30|10=121|8=FIX.4.2|9=55|35=5|34=2|49=BAADER|52=20181028-07:16:51.034|56=CATSOS|10=071|8=FIX.4.2|9=67|35=A|34=3|49=BAADER|52=20181028-07:20:39.068|56=CATSOS|98=0|108=30|10=120|8=FIX.4.2|9=55|35=5|34=4|49=BAADER|52=20181028-07:20:39.158|56=CATSOS|10=081|8=FIX.4.2|9=67|35=A|34=1|49=BAADER|52=20181028-07:16:50.964|56=CATSOS|98=0|108=30|10=121|8=FIX.4.2|9=55|35=5|34=2|49=BAADER|52=20181028-07:16:51.034|56=CATSOS|10=071|8=FIX.4.2|9=67|35=A|34=3|49=BAADER|52=20181028-07:20:39.068|56=CATSOS|98=0|108=30|10=120|8=FIX.4.2|9=55|35=5|34=4|49=BAADER|52=20181028-07:20:39.158|56=CATSOS|10=081|8=FIX.4.2|9=67|35=A|34=1|49=BAADER|52=20181028-07:16:50.964|56=CATSOS|98=0|108=30|10=121|8=FIX.4.2|9=55|35=5|34=2|49=BAADER|52=20181028-07:16:51.034|56=CATSOS|10=071|8=FIX.4.2|9=67|35=A|34=3|49=BAADER|52=20181028-07:20:39.068|56=CATSOS|98=0|108=30|10=120|8=FIX.4.2|9=55|35=5|34=4|49=BAADER|52=20181028-07:20:39.158|56=CATSOS|10=081|8=FIX.4.2|9=67|35=A|34=1|49=BAADER|52=20181028-07:16:50.964|56=CATSOS|98=0|108=30|10=121|8=FIX.4.2|9=55|35=5|34=2|49=BAADER|52=20181028-07:16:51.034|56=CATSOS|10=071|8=FIX.4.2|9=67|35=A|34=3|49=BAADER|52=20181028-07:20:39.068|56=CATSOS|98=0|108=30|10=120|8=FIX.4.2|9=55|35=5|34=4|49=BAADER|52=20181028-07:20:39.158|56=CATSOS|10=081|8=FIX.4.2|9=67|35=A|34=1|49=BAADER|52=20181028-07:16:50.964|56=CATSOS|98=0|108=30|10=121|8=FIX.4.2|9=55|35=5|34=2|49=BAADER|52=20181028-07:16:51.034|56=CATSOS|10=071|8=FIX.4.2|9=67|35=A|34=3|49=BAADER|52=20181028-07:20:39.068|56=CATSOS|98=0|108=30|10=120|8=FIX.4.2|9=55|35=5|34=4|49=BAADER|52=20181028-07:20:39.158|56=CATSOS|10=081|8=FIX.4.2|9=67|35=A|34=1|49=BAADER|52=20181028-07:16:50.964|56=CATSOS|98=0|108=30|10=121|8=FIX.4.2|9=55|35=5|34=2|49=BAADER|52=20181028-07:16:51.034|56=CATSOS|10=071|8=FIX.4.2|9=67|35=A|34=3|49=BAADER|52=20181028-07:20:39.068|56=CATSOS|98=0|108=30|10=120|8=FIX.4.2|9=55|35=5|34=4|49=BAADER|52=20181028-07:20:39.158|56=CATSOS|10=081|8=FIX.4.2|9=67|35=A|34=1|49=BAADER|52=20181028-07:16:50.964|56=CATSOS|98=0|108=30|10=121|8=FIX.4.2|9=55|35=5|34=2|49=BAADER|52=20181028-07:16:51.034|56=CATSOS|10=071|8=FIX.4.2|9=67|35=A|34=3|49=BAADER|52=20181028-07:20:39.068|56=CATSOS|98=0|108=30|10=120|8=FIX.4.2|9=55|35=5|34=4|49=BAADER|52=20181028-07:20:39.158|56=CATSOS|10=081|8=FIX.4.2|9=67|35=A|34=1|49=BAADER|52=20181028-07:16:50.964|56=CATSOS|98=0|108=30|10=121|8=FIX.4.2|9=55|35=5|34=2|49=BAADER|52=20181028-07:16:51.034|56=CATSOS|10=071|8=FIX.4.2|9=67|35=A|34=3|49=BAADER|52=20181028-07:20:39.068|56=CATSOS|98=0|108=30|10=120|8=FIX.4.2|9=55|35=5|34=4|49=BAADER|52=20181028-07:20:39.158|56=CATSOS|10=081|8=FIX.4.2|9=67|35=A|34=1|49=BAADER|52=20181028-07:16:50.964|56=CATSOS|98=0|108=30|10=121|8=FIX.4.2|9=55|35=5|34=2|49=BAADER|52=20181028-07:16:51.034|56=CATSOS|10=071|8=FIX.4.2|9=67|35=A|34=3|49=BAADER|52=20181028-07:20:39.068|56=CATSOS|98=0|108=30|10=120|8=FIX.4.2|9=55|35=5|34=4|49=BAADER|52=20181028-07:20:39.158|56=CATSOS|10=081|8=FIX.4.2|9=67|35=A|34=1|49=BAADER|52=20181028-07:16:50.964|56=CATSOS|98=0|108=30|10=121|8=FIX.4.2|9=55|35=5|34=2|49=BAADER|52=20181028-07:16:51.034|56=CATSOS|10=071|8=FIX.4.2|9=67|35=A|34=3|49=BAADER|52=20181028-07:20:39.068|56=CATSOS|98=0|108=30|10=120|8=FIX.4.2|9=55|35=5|34=4|49=BAADER|52=20181028-07:20:39.158|56=CATSOS|10=081|8=FIX.4.2|9=67|35=A|34=1|49=BAADER|52=20181028-07:16:50.964|56=CATSOS|98=0|108=30|10=121|8=FIX.4.2|9=55|35=5|34=2|49=BAADER|52=20181028-07:16:51.034|56=CATSOS|10=071|8=FIX.4.2|9=67|35=A|34=3|49=BAADER|52=20181028-07:20:39.068|56=CATSOS|98=0|108=30|10=120|8=FIX.4.2|9=55|35=5|34=4|49=BAADER|52=20181028-07:20:39.158|56=CATSOS|10=081|8=FIX.4.2|9=67|35=A|34=1|49=BAADER|52=20181028-07:16:50.964|56=CATSOS|98=0|108=30|10=121|8=FIX.4.2|9=55|35=5|34=2|49=BAADER|52=20181028-07:16:51.034|56=CATSOS|10=071|8=FIX.4.2|9=67|35=A|34=3|49=BAADER|52=20181028-07:20:39.068|56=CATSOS|98=0|108=30|10=120|8=FIX.4.2|9=55|35=5|34=4|49=BAADER|52=20181028-07:20:39.158|56=CATSOS|10=081|8=FIX.4.2|9=67|35=A|34=1|49=BAADER|52=20181028-07:16:50.964|56=CATSOS|98=0|108=30|10=121|8=FIX.4.2|9=55|35=5|34=2|49=BAADER|52=20181028-07:16:51.034|56=CATSOS|10=071|8=FIX.4.2|9=67|35=A|34=3|49=BAADER|52=20181028-07:20:39.068|56=CATSOS|98=0|108=30|10=120|8=FIX.4.2|9=55|35=5|34=4|49=BAADER|52=20181028-07:20:39.158|56=CATSOS|10=081|8=FIX.4.2|9=67|35=A|34=1|49=BAADER|52=20181028-07:16:50.964|56=CATSOS|98=0|108=30|10=121|8=FIX.4.2|9=55|35=5|34=2|49=BAADER|52=20181028-07:16:51.034|56=CATSOS|10=071|8=FIX.4.2|9=67|35=A|34=3|49=BAADER|52=20181028-07:20:39.068|56=CATSOS|98=0|108=30|10=120|8=FIX.4.2|9=55|35=5|34=4|49=BAADER|52=20181028-07:20:39.158|56=CATSOS|10=081|8=FIX.4.2|9=67|35=A|34=1|49=BAADER|52=20181028-07:16:50.964|56=CATSOS|98=0|108=30|10=121|8=FIX.4.2|9=55|35=5|34=2|49=BAADER|52=20181028-07:16:51.034|56=CATSOS|10=071|8=FIX.4.2|9=67|35=A|34=3|49=BAADER|52=20181028-07:20:39.068|56=CATSOS|98=0|108=30|10=120|8=FIX.4.2|9=55|35=5|34=4|49=BAADER|52=20181028-07:20:39.158|56=CATSOS|10=081|8=FIX.4.2|9=67|35=A|34=1|49=BAADER|52=20181028-07:16:50.964|56=CATSOS|98=0|108=30|10=121|8=FIX.4.2|9=55|35=5|34=2|49=BAADER|52=20181028-07:16:51.034|56=CATSOS|10=071|8=FIX.4.2|9=67|35=A|34=3|49=BAADER|52=20181028-07:20:39.068|56=CATSOS|98=0|108=30|10=120|8=FIX.4.2|9=55|35=5|34=4|49=BAADER|52=20181028-07:20:39.158|56=CATSOS|10=081|8=FIX.4.2|9=67|35=A|34=1|49=BAADER|52=20181028-07:16:50.964|56=CATSOS|98=0|108=30|10=121|8=FIX.4.2|9=55|35=5|34=2|49=BAADER|52=20181028-07:16:51.034|56=CATSOS|10=071|8=FIX.4.2|9=67|35=A|34=3|49=BAADER|52=20181028-07:20:39.068|56=CATSOS|98=0|108=30|10=120|8=FIX.4.2|9=55|35=5|34=4|49=BAADER|52=20181028-07:20:39.158|56=CATSOS|10=081|8=FIX.4.2|9=67|35=A|34=1|49=BAADER|52=20181028-07:16:50.964|56=CATSOS|98=0|108=30|10=121|8=FIX.4.2|9=55|35=5|34=2|49=BAADER|52=20181028-07:16:51.034|56=CATSOS|10=071|8=FIX.4.2|9=67|35=A|34=3|49=BAADER|52=20181028-07:20:39.068|56=CATSOS|98=0|108=30|10=120|8=FIX.4.2|9=55|35=5|34=4|49=BAADER|52=20181028-07:20:39.158|56=CATSOS|10=081|8=FIX.4.2|9=67|35=A|34=1|49=BAADER|52=20181028-07:16:50.964|56=CATSOS|98=0|108=30|10=121|8=FIX.4.2|9=55|35=5|34=2|49=BAADER|52=20181028-07:16:51.034|56=CATSOS|10=071|8=FIX.4.2|9=67|35=A|34=3|49=BAADER|52=20181028-07:20:39.068|56=CATSOS|98=0|108=30|10=120|8=FIX.4.2|9=55|35=5|34=4|49=BAADER|52=20181028-07:20:39.158|56=CATSOS|10=081|8=FIX.4.2|9=67|35=A|34=1|49=BAADER|52=20181028-07:16:50.964|56=CATSOS|98=0|108=30|10=121|8=FIX.4.2|9=55|35=5|34=2|49=BAADER|52=20181028-07:16:51.034|56=CATSOS|10=071|8=FIX.4.2|9=67|35=A|34=3|49=BAADER|52=20181028-07:20:39.068|56=CATSOS|98=0|108=30|10=120|8=FIX.4.2|9=55|35=5|34=4|49=BAADER|52=20181028-07:20:39.158|56=CATSOS|10=081|8=FIX.4.2|9=67|35=A|34=1|49=BAADER|52=20181028-07:16:50.964|56=CATSOS|98=0|108=30|10=121|8=FIX.4.2|9=55|35=5|34=2|49=BAADER|52=20181028-07:16:51.034|56=CATSOS|10=071|8=FIX.4.2|9=67|35=A|34=3|49=BAADER|52=20181028-07:20:39.068|56=CATSOS|98=0|108=30|10=120|8=FIX.4.2|9=55|35=5|34=4|49=BAADER|52=20181028-07:20:39.158|56=CATSOS|10=081|8=FIX.4.2|9=67|35=A|34=1|49=BAADER|52=20181028-07:16:50.964|56=CATSOS|98=0|108=30|10=121|8=FIX.4.2|9=55|35=5|34=2|49=BAADER|52=20181028-07:16:51.034|56=CATSOS|10=071|8=FIX.4.2|9=67|35=A|34=3|49=BAADER|52=20181028-07:20:39.068|56=CATSOS|98=0|108=30|10=120|8=FIX.4.2|9=55|35=5|34=4|49=BAADER|52=20181028-07:20:39.158|56=CATSOS|10=081|8=FIX.4.2|9=67|35=A|34=1|49=BAADER|52=20181028-07:16:50.964|56=CATSOS|98=0|108=30|10=121|8=FIX.4.2|9=55|35=5|34=2|49=BAADER|52=20181028-07:16:51.034|56=CATSOS|10=071|8=FIX.4.2|9=67|35=A|34=3|49=BAADER|52=20181028-07:20:39.068|56=CATSOS|98=0|108=30|10=120|8=FIX.4.2|9=55|35=5|34=4|49=BAADER|52=20181028-07:20:39.158|56=CATSOS|10=081|8=FIX.4.2|9=67|35=A|34=1|49=BAADER|52=20181028-07:16:50.964|56=CATSOS|98=0|108=30|10=121|8=FIX.4.2|9=55|35=5|34=2|49=BAADER|52=20181028-07:16:51.034|56=CATSOS|10=071|8=FIX.4.2|9=67|35=A|34=3|49=BAADER|52=20181028-07:20:39.068|56=CATSOS|98=0|108=30|10=120|8=FIX.4.2|9=55|35=5|34=4|49=BAADER|52=20181028-07:20:39.158|56=CATSOS|10=081|8=FIX.4.2|9=67|35=A|34=1|49=BAADER|52=20181028-07:16:50.964|56=CATSOS|98=0|108=30|10=121|8=FIX.4.2|9=55|35=5|34=2|49=BAADER|52=20181028-07:16:51.034|56=CATSOS|10=071|8=FIX.4.2|9=67|35=A|34=3|49=BAADER|52=20181028-07:20:39.068|56=CATSOS|98=0|108=30|10=120|8=FIX.4.2|9=55|35=5|34=4|49=BAADER|52=20181028-07:20:39.158|56=CATSOS|10=081|8=FIX.4.2|9=67|35=A|34=1|49=BAADER|52=20181028-07:16:50.964|56=CATSOS|98=0|108=30|10=121|8=FIX.4.2|9=55|35=5|34=2|49=BAADER|52=20181028-07:16:51.034|56=CATSOS|10=071|8=FIX.4.2|9=67|35=A|34=3|49=BAADER|52=20181028-07:20:39.068|56=CATSOS|98=0|108=30|10=120|8=FIX.4.2|9=55|35=5|34=4|49=BAADER|52=20181028-07:20:39.158|56=CATSOS|10=081|8=FIX.4.2|9=67|35=A|34=1|49=BAADER|52=20181028-07:16:50.964|56=CATSOS|98=0|108=30|10=121|8=FIX.4.2|9=55|35=5|34=2|49=BAADER|52=20181028-07:16:51.034|56=CATSOS|10=071|8=FIX.4.2|9=67|35=A|34=3|49=BAADER|52=20181028-07:20:39.068|56=CATSOS|98=0|108=30|10=120|8=FIX.4.2|9=55|35=5|34=4|49=BAADER|52=20181028-07:20:39.158|56=CATSOS|10=081|8=FIX.4.2|9=67|35=A|34=1|49=BAADER|52=20181028-07:16:50.964|56=CATSOS|98=0|108=30|10=121|8=FIX.4.2|9=55|35=5|34=2|49=BAADER|52=20181028-07:16:51.034|56=CATSOS|10=071|8=FIX.4.2|9=67|35=A|34=3|49=BAADER|52=20181028-07:20:39.068|56=CATSOS|98=0|108=30|10=120|8=FIX.4.2|9=55|35=5|34=4|49=BAADER|52=20181028-07:20:39.158|56=CATSOS|10=081|8=FIX.4.2|9=67|35=A|34=1|49=BAADER|52=20181028-07:16:50.964|56=CATSOS|98=0|108=30|10=121|8=FIX.4.2|9=55|35=5|34=2|49=BAADER|52=20181028-07:16:51.034|56=CATSOS|10=071|8=FIX.4.2|9=67|35=A|34=3|49=BAADER|52=20181028-07:20:39.068|56=CATSOS|98=0|108=30|10=120|8=FIX.4.2|9=55|35=5|34=4|49=BAADER|52=20181028-07:20:39.158|56=CATSOS|10=081|8=FIX.4.2|9=67|35=A|34=1|49=BAADER|52=20181028-07:16:50.964|56=CATSOS|98=0|108=30|10=121|8=FIX.4.2|9=55|35=5|34=2|49=BAADER|52=20181028-07:16:51.034|56=CATSOS|10=071|8=FIX.4.2|9=67|35=A|34=3|49=BAADER|52=20181028-07:20:39.068|56=CATSOS|98=0|108=30|10=120|8=FIX.4.2|9=55|35=5|34=4|49=BAADER|52=20181028-07:20:39.158|56=CATSOS|10=081|8=FIX.4.2|9=67|35=A|34=1|49=BAADER|52=20181028-07:16:50.964|56=CATSOS|98=0|108=30|10=121|8=FIX.4.2|9=55|35=5|34=2|49=BAADER|52=20181028-07:16:51.034|56=CATSOS|10=071|8=FIX.4.2|9=67|35=A|34=3|49=BAADER|52=20181028-07:20:39.068|56=CATSOS|98=0|108=30|10=120|8=FIX.4.2|9=55|35=5|34=4|49=BAADER|52=20181028-07:20:39.158|56=CATSOS|10=081|8=FIX.4.2|9=67|35=A|34=1|49=BAADER|52=20181028-07:16:50.964|56=CATSOS|98=0|108=30|10=121|8=FIX.4.2|9=55|35=5|34=2|49=BAADER|52=20181028-07:16:51.034|56=CATSOS|10=071|8=FIX.4.2|9=67|35=A|34=3|49=BAADER|52=20181028-07:20:39.068|56=CATSOS|98=0|108=30|10=120|8=FIX.4.2|9=55|35=5|34=4|49=BAADER|52=20181028-07:20:39.158|56=CATSOS|10=081|8=FIX.4.2|9=67|35=A|34=1|49=BAADER|52=20181028-07:16:50.964|56=CATSOS|98=0|108=30|10=121|8=FIX.4.2|9=55|35=5|34=2|49=BAADER|52=20181028-07:16:51.034|56=CATSOS|10=071|8=FIX.4.2|9=67|35=A|34=3|49=BAADER|52=20181028-07:20:39.068|56=CATSOS|98=0|108=30|10=120|8=FIX.4.2|9=55|35=5|34=4|49=BAADER|52=20181028-07:20:39.158|56=CATSOS|10=081|8=FIX.4.2|9=67|35=A|34=1|49=BAADER|52=20181028-07:16:50.964|56=CATSOS|98=0|108=30|10=121|8=FIX.4.2|9=55|35=5|34=2|49=BAADER|52=20181028-07:16:51.034|56=CATSOS|10=071|8=FIX.4.2|9=67|35=A|34=3|49=BAADER|52=20181028-07:20:39.068|56=CATSOS|98=0|108=30|10=120|8=FIX.4.2|9=55|35=5|34=4|49=BAADER|52=20181028-07:20:39.158|56=CATSOS|10=081|8=FIX.4.2|9=67|35=A|34=1|49=BAADER|52=20181028-07:16:50.964|56=CATSOS|98=0|108=30|10=121|8=FIX.4.2|9=55|35=5|34=2|49=BAADER|52=20181028-07:16:51.034|56=CATSOS|10=071|8=FIX.4.2|9=67|35=A|34=3|49=BAADER|52=20181028-07:20:39.068|56=CATSOS|98=0|108=30|10=120|8=FIX.4.2|9=55|35=5|34=4|49=BAADER|52=20181028-07:20:39.158|56=CATSOS|10=081|8=FIX.4.2|9=67|35=A|34=1|49=BAADER|52=20181028-07:16:50.964|56=CATSOS|98=0|108=30|10=121|8=FIX.4.2|9=55|35=5|34=2|49=BAADER|52=20181028-07:16:51.034|56=CATSOS|10=071|8=FIX.4.2|9=67|35=A|34=3|49=BAADER|52=20181028-07:20:39.068|56=CATSOS|98=0|108=30|10=120|8=FIX.4.2|9=55|35=5|34=4|49=BAADER|52=20181028-07:20:39.158|56=CATSOS|10=081|8=FIX.4.2|9=67|35=A|34=1|49=BAADER|52=20181028-07:16:50.964|56=CATSOS|98=0|108=30|10=121|8=FIX.4.2|9=55|35=5|34=2|49=BAADER|52=20181028-07:16:51.034|56=CATSOS|10=071|8=FIX.4.2|9=67|35=A|34=3|49=BAADER|52=20181028-07:20:39.068|56=CATSOS|98=0|108=30|10=120|8=FIX.4.2|9=55|35=5|34=4|49=BAADER|52=20181028-07:20:39.158|56=CATSOS|10=081|8=FIX.4.2|9=67|35=A|34=1|49=BAADER|52=20181028-07:16:50.964|56=CATSOS|98=0|108=30|10=121|8=FIX.4.2|9=55|35=5|34=2|49=BAADER|52=20181028-07:16:51.034|56=CATSOS|10=071|8=FIX.4.2|9=67|35=A|34=3|49=BAADER|52=20181028-07:20:39.068|56=CATSOS|98=0|108=30|10=120|8=FIX.4.2|9=55|35=5|34=4|49=BAADER|52=20181028-07:20:39.158|56=CATSOS|10=081|8=FIX.4.2|9=67|35=A|34=1|49=BAADER|52=20181028-07:16:50.964|56=CATSOS|98=0|108=30|10=121|8=FIX.4.2|9=55|35=5|34=2|49=BAADER|52=20181028-07:16:51.034|56=CATSOS|10=071|8=FIX.4.2|9=67|35=A|34=3|49=BAADER|52=20181028-07:20:39.068|56=CATSOS|98=0|108=30|10=120|8=FIX.4.2|9=55|35=5|34=4|49=BAADER|52=20181028-07:20:39.158|56=CATSOS|10=081|8=FIX.4.2|9=67|35=A|34=1|49=BAADER|52=20181028-07:16:50.964|56=CATSOS|98=0|108=30|10=121|8=FIX.4.2|9=55|35=5|34=2|49=BAADER|52=20181028-07:16:51.034|56=CATSOS|10=071|8=FIX.4.2|9=67|35=A|34=3|49=BAADER|52=20181028-07:20:39.068|56=CATSOS|98=0|108=30|10=120|8=FIX.4.2|9=55|35=5|34=4|49=BAADER|52=20181028-07:20:39.158|56=CATSOS|10=081|8=FIX.4.2|9=67|35=A|34=1|49=BAADER|52=20181028-07:16:50.964|56=CATSOS|98=0|108=30|10=121|8=FIX.4.2|9=55|35=5|34=2|49=BAADER|52=20181028-07:16:51.034|56=CATSOS|10=071|8=FIX.4.2|9=67|35=A|34=3|49=BAADER|52=20181028-07:20:39.068|56=CATSOS|98=0|108=30|10=120|8=FIX.4.2|9=55|35=5|34=4|49=BAADER|52=20181028-07:20:39.158|56=CATSOS|10=081|8=FIX.4.2|9=67|35=A|34=1|49=BAADER|52=20181028-07:16:50.964|56=CATSOS|98=0|108=30|10=121|8=FIX.4.2|9=55|35=5|34=2|49=BAADER|52=20181028-07:16:51.034|56=CATSOS|10=071|8=FIX.4.2|9=67|35=A|34=3|49=BAADER|52=20181028-07:20:39.068|56=CATSOS|98=0|108=30|10=120|8=FIX.4.2|9=55|35=5|34=4|49=BAADER|52=20181028-07:20:39.158|56=CATSOS|10=081|8=FIX.4.2|9=67|35=A|34=1|49=BAADER|52=20181028-07:16:50.964|56=CATSOS|98=0|108=30|10=121|8=FIX.4.2|9=55|35=5|34=2|49=BAADER|52=20181028-07:16:51.034|56=CATSOS|10=071|8=FIX.4.2|9=67|35=A|34=3|49=BAADER|52=20181028-07:20:39.068|56=CATSOS|98=0|108=30|10=120|8=FIX.4.2|9=55|35=5|34=4|49=BAADER|52=20181028-07:20:39.158|56=CATSOS|10=081|8=FIX.4.2|9=67|35=A|34=1|49=BAADER|52=20181028-07:16:50.964|56=CATSOS|98=0|108=30|10=121|8=FIX.4.2|9=55|35=5|34=2|49=BAADER|52=20181028-07:16:51.034|56=CATSOS|10=071|8=FIX.4.2|9=67|35=A|34=3|49=BAADER|52=20181028-07:20:39.068|56=CATSOS|98=0|108=30|10=120|8=FIX.4.2|9=55|35=5|34=4|49=BAADER|52=20181028-07:20:39.158|56=CATSOS|10=081|8=FIX.4.2|9=67|35=A|34=1|49=BAADER|52=20181028-07:16:50.964|56=CATSOS|98=0|108=30|10=121|8=FIX.4.2|9=55|35=5|34=2|49=BAADER|52=20181028-07:16:51.034|56=CATSOS|10=071|8=FIX.4.2|9=67|35=A|34=3|49=BAADER|52=20181028-07:20:39.068|56=CATSOS|98=0|108=30|10=120|8=FIX.4.2|9=55|35=5|34=4|49=BAADER|52=20181028-07:20:39.158|56=CATSOS|10=081|8=FIX.4.2|9=67|35=A|34=1|49=BAADER|52=20181028-07:16:50.964|56=CATSOS|98=0|108=30|10=121|8=FIX.4.2|9=55|35=5|34=2|49=BAADER|52=20181028-07:16:51.034|56=CATSOS|10=071|8=FIX.4.2|9=67|35=A|34=3|49=BAADER|52=20181028-07:20:39.068|56=CATSOS|98=0|108=30|10=120|8=FIX.4.2|9=55|35=5|34=4|49=BAADER|52=20181028-07:20:39.158|56=CATSOS|10=081|8=FIX.4.2|9=67|35=A|34=1|49=BAADER|52=20181028-07:16:50.964|56=CATSOS|98=0|108=30|10=121|8=FIX.4.2|9=55|35=5|34=2|49=BAADER|52=20181028-07:16:51.034|56=CATSOS|10=071|8=FIX.4.2|9=67|35=A|34=3|49=BAADER|52=20181028-07:20:39.068|56=CATSOS|98=0|108=30|10=120|8=FIX.4.2|9=55|35=5|34=4|49=BAADER|52=20181028-07:20:39.158|56=CATSOS|10=081|8=FIX.4.2|9=67|35=A|34=1|49=BAADER|52=20181028-07:16:50.964|56=CATSOS|98=0|108=30|10=121|8=FIX.4.2|9=55|35=5|34=2|49=BAADER|52=20181028-07:16:51.034|56=CATSOS|10=071|8=FIX.4.2|9=67|35=A|34=3|49=BAADER|52=20181028-07:20:39.068|56=CATSOS|98=0|108=30|10=120|8=FIX.4.2|9=55|35=5|34=4|49=BAADER|52=20181028-07:20:39.158|56=CATSOS|10=081|8=FIX.4.2|9=67|35=A|34=1|49=BAADER|52=20181028-07:16:50.964|56=CATSOS|98=0|108=30|10=121|8=FIX.4.2|9=55|35=5|34=2|49=BAADER|52=20181028-07:16:51.034|56=CATSOS|10=071|8=FIX.4.2|9=67|35=A|34=3|49=BAADER|52=20181028-07:20:39.068|56=CATSOS|98=0|108=30|10=120|8=FIX.4.2|9=55|35=5|34=4|49=BAADER|52=20181028-07:20:39.158|56=CATSOS|10=081|8=FIX.4.2|9=67|35=A|34=1|49=BAADER|52=20181028-07:16:50.964|56=CATSOS|98=0|108=30|10=121|8=FIX.4.2|9=55|35=5|34=2|49=BAADER|52=20181028-07:16:51.034|56=CATSOS|10=071|8=FIX.4.2|9=67|35=A|34=3|49=BAADER|52=20181028-07:20:39.068|56=CATSOS|98=0|108=30|10=120|8=FIX.4.2|9=55|35=5|34=4|49=BAADER|52=20181028-07:20:39.158|56=CATSOS|10=081|8=FIX.4.2|9=67|35=A|34=1|49=BAADER|52=20181028-07:16:50.964|56=CATSOS|98=0|108=30|10=121|8=FIX.4.2|9=55|35=5|34=2|49=BAADER|52=20181028-07:16:51.034|56=CATSOS|10=071|8=FIX.4.2|9=67|35=A|34=3|49=BAADER|52=20181028-07:20:39.068|56=CATSOS|98=0|108=30|10=120|8=FIX.4.2|9=55|35=5|34=4|49=BAADER|52=20181028-07:20:39.158|56=CATSOS|10=081|8=FIX.4.2|9=67|35=A|34=1|49=BAADER|52=20181028-07:16:50.964|56=CATSOS|98=0|108=30|10=121|8=FIX.4.2|9=55|35=5|34=2|49=BAADER|52=20181028-07:16:51.034|56=CATSOS|10=071|8=FIX.4.2|9=67|35=A|34=3|49=BAADER|52=20181028-07:20:39.068|56=CATSOS|98=0|108=30|10=120|8=FIX.4.2|9=55|35=5|34=4|49=BAADER|52=20181028-07:20:39.158|56=CATSOS|10=081|8=FIX.4.2|9=67|35=A|34=1|49=BAADER|52=20181028-07:16:50.964|56=CATSOS|98=0|108=30|10=121|8=FIX.4.2|9=55|35=5|34=2|49=BAADER|52=20181028-07:16:51.034|56=CATSOS|10=071|8=FIX.4.2|9=67|35=A|34=3|49=BAADER|52=20181028-07:20:39.068|56=CATSOS|98=0|108=30|10=120|8=FIX.4.2|9=55|35=5|34=4|49=BAADER|52=20181028-07:20:39.158|56=CATSOS|10=081|8=FIX.4.2|9=67|35=A|34=1|49=BAADER|52=20181028-07:16:50.964|56=CATSOS|98=0|108=30|10=121|8=FIX.4.2|9=55|35=5|34=2|49=BAADER|52=20181028-07:16:51.034|56=CATSOS|10=071|8=FIX.4.2|9=67|35=A|34=3|49=BAADER|52=20181028-07:20:39.068|56=CATSOS|98=0|108=30|10=120|8=FIX.4.2|9=55|35=5|34=4|49=BAADER|52=20181028-07:20:39.158|56=CATSOS|10=081|8=FIX.4.2|9=67|35=A|34=1|49=BAADER|52=20181028-07:16:50.964|56=CATSOS|98=0|108=30|10=121|8=FIX.4.2|9=55|35=5|34=2|49=BAADER|52=20181028-07:16:51.034|56=CATSOS|10=071|8=FIX.4.2|9=67|35=A|34=3|49=BAADER|52=20181028-07:20:39.068|56=CATSOS|98=0|108=30|10=120|8=FIX.4.2|9=55|35=5|34=4|49=BAADER|52=20181028-07:20:39.158|56=CATSOS|10=081|8=FIX.4.2|9=67|35=A|34=1|49=BAADER|52=20181028-07:16:50.964|56=CATSOS|98=0|108=30|10=121|8=FIX.4.2|9=55|35=5|34=2|49=BAADER|52=20181028-07:16:51.034|56=CATSOS|10=071|8=FIX.4.2|9=67|35=A|34=3|49=BAADER|52=20181028-07:20:39.068|56=CATSOS|98=0|108=30|10=120|8=FIX.4.2|9=55|35=5|34=4|49=BAADER|52=20181028-07:20:39.158|56=CATSOS|10=081|8=FIX.4.2|9=67|35=A|34=1|49=BAADER|52=20181028-07:16:50.964|56=CATSOS|98=0|108=30|10=121|8=FIX.4.2|9=55|35=5|34=2|49=BAADER|52=20181028-07:16:51.034|56=CATSOS|10=071|8=FIX.4.2|9=67|35=A|34=3|49=BAADER|52=20181028-07:20:39.068|56=CATSOS|98=0|108=30|10=120|8=FIX.4.2|9=55|35=5|34=4|49=BAADER|52=20181028-07:20:39.158|56=CATSOS|10=081|8=FIX.4.2|9=67|35=A|34=1|49=BAADER|52=20181028-07:16:50.964|56=CATSOS|98=0|108=30|10=121|8=FIX.4.2|9=55|35=5|34=2|49=BAADER|52=20181028-07:16:51.034|56=CATSOS|10=071|8=FIX.4.2|9=67|35=A|34=3|49=BAADER|52=20181028-07:20:39.068|56=CATSOS|98=0|108=30|10=120|8=FIX.4.2|9=55|35=5|34=4|49=BAADER|52=20181028-07:20:39.158|56=CATSOS|10=081|8=FIX.4.2|9=67|35=A|34=1|49=BAADER|52=20181028-07:16:50.964|56=CATSOS|98=0|108=30|10=121|8=FIX.4.2|9=55|35=5|34=2|49=BAADER|52=20181028-07:16:51.034|56=CATSOS|10=071|8=FIX.4.2|9=67|35=A|34=3|49=BAADER|52=20181028-07:20:39.068|56=CATSOS|98=0|108=30|10=120|8=FIX.4.2|9=55|35=5|34=4|49=BAADER|52=20181028-07:20:39.158|56=CATSOS|10=081|8=FIX.4.2|9=67|35=A|34=1|49=BAADER|52=20181028-07:16:50.964|56=CATSOS|98=0|108=30|10=121|8=FIX.4.2|9=55|35=5|34=2|49=BAADER|52=20181028-07:16:51.034|56=CATSOS|10=071|8=FIX.4.2|9=67|35=A|34=3|49=BAADER|52=20181028-07:20:39.068|56=CATSOS|98=0|108=30|10=120|8=FIX.4.2|9=55|35=5|34=4|49=BAADER|52=20181028-07:20:39.158|56=CATSOS|10=081|8=FIX.4.2|9=67|35=A|34=1|49=BAADER|52=20181028-07:16:50.964|56=CATSOS|98=0|108=30|10=121|8=FIX.4.2|9=55|35=5|34=2|49=BAADER|52=20181028-07:16:51.034|56=CATSOS|10=071|8=FIX.4.2|9=67|35=A|34=3|49=BAADER|52=20181028-07:20:39.068|56=CATSOS|98=0|108=30|10=120|8=FIX.4.2|9=55|35=5|34=4|49=BAADER|52=20181028-07:20:39.158|56=CATSOS|10=081|8=FIX.4.2|9=67|35=A|34=7|49=BAADER|52=20181028-07:23:02.908|56=CATSOS|98=0|108=30|10=120|8=FIX.4.2|9=55|35=5|34=8|49=BAADER|52=20181028-07:23:03.004|56=CATSOS|10=069|8=FIX.4.2|9=67|35=A|34=9|49=BAADER|52=20181028-07:23:18.977|56=CATSOS|98=0|108=30|10=135|8=FIX.4.2|9=56|35=5|34=10|49=BAADER|52=20181028-07:23:19.067|56=CATSOS|10=127|8=FIX.4.2|9=68|35=A|34=11|49=BAADER|52=20181028-07:23:49.334|56=CATSOS|98=0|108=30|10=168|8=FIX.4.2|9=56|35=5|34=12|49=BAADER|52=20181028-07:23:49.417|56=CATSOS|10=131|8=FIX.4.2|9=68|35=A|34=13|49=BAADER|52=20181028-07:24:19.292|56=CATSOS|98=0|108=30|10=171|8=FIX.4.2|9=56|35=5|34=14|49=BAADER|52=20181028-07:24:19.306|56=CATSOS|10=128|8=FIX.4.2|9=68|35=A|34=15|49=BAADER|52=20181028-07:24:41.782|56=CATSOS|98=0|108=30|10=172|8=FIX.4.2|9=65|35=2|34=16|49=BAADER|52=20181028-07:24:41.877|56=CATSOS|7=1|16=0|10=002|8=FIX.4.2|9=56|35=0|34=17|49=BAADER|52=20181028-07:25:11.998|56=CATSOS|10=136|8=FIX.4.2|9=68|35=A|34=18|49=BAADER|52=20181028-07:25:42.874|56=CATSOS|98=0|108=30|10=179|8=FIX.4.2|9=56|35=0|34=19|49=BAADER|52=20181028-07:26:13.863|56=CATSOS|10=132|8=FIX.4.2|9=152|35=R|34=20|49=BAADER|52=20181028-07:26:24.323|56=CATSOS|128=CITIDE|131=HackStuttgart1540711584316|146=1|55=BAADERBK|22=4|38=123|48=DE0005140008|167=OPT|10=240|8=FIX.4.2|9=56|35=0|34=21|49=BAADER|52=20181028-07:26:54.852|56=CATSOS|10=128|8=FIX.4.2|9=56|35=0|34=22|49=BAADER|52=20181028-07:27:24.864|56=CATSOS|10=130|8=FIX.4.2|9=152|35=R|34=23|49=BAADER|52=20181028-07:27:32.293|56=CATSOS|128=CITIDE|131=HackStuttgart1540711652293|146=1|55=BAADERBK|22=4|38=123|48=DE0005140008|167=OPT|10=249|8=FIX.4.2|9=68|35=A|34=24|49=BAADER|52=20181028-07:29:46.013|56=CATSOS|98=0|108=30|10=169|8=FIX.4.2|9=67|35=2|34=25|49=BAADER|52=20181028-07:29:46.092|56=CATSOS|7=423|16=0|10=107|8=FIX.4.2|9=68|35=A|34=26|49=BAADER|52=20181028-07:30:19.273|56=CATSOS|98=0|108=30|10=171|8=FIX.4.2|9=56|35=0|34=27|49=BAADER|52=20181028-07:30:49.386|56=CATSOS|10=135|8=FIX.4.2|9=152|35=R|34=28|49=BAADER|52=20181028-07:30:59.693|56=CATSOS|128=CITIDE|131=HackStuttgart1540711859683|146=1|55=BAADERBK|22=4|38=123|48=DE0005140008|167=OPT|10=017|8=FIX.4.2|9=68|35=A|34=29|49=BAADER|52=20181028-07:31:52.302|56=CATSOS|98=0|108=30|10=165|8=FIX.4.2|9=67|35=2|34=30|49=BAADER|52=20181028-07:31:52.407|56=CATSOS|7=427|16=0|10=097|8=FIX.4.2|9=152|35=R|34=31|49=BAADER|52=20181028-07:32:01.262|56=CATSOS|128=CITIDE|131=HackStuttgart1540711921257|146=1|55=BAADERBK|22=4|38=123|48=DE0005140008|167=OPT|10=235|8=FIX.4.2|9=56|35=0|34=32|49=BAADER|52=20181028-07:32:31.263|56=CATSOS|10=118|8=FIX.4.2|9=56|35=0|34=33|49=BAADER|52=20181028-07:33:01.263|56=CATSOS|10=117|8=FIX.4.2|9=68|35=A|34=34|49=BAADER|52=20181028-07:33:20.747|56=CATSOS|98=0|108=30|10=171|8=FIX.4.2|9=152|35=R|34=35|49=BAADER|52=20181028-07:33:31.943|56=CATSOS|128=CITIDE|131=HackStuttgart1540712011943|146=1|55=BAADERBK|22=4|38=123|48=DE0005140008|167=OPT|10=242|8=FIX.4.2|9=68|35=A|34=36|49=BAADER|52=20181028-07:34:29.966|56=CATSOS|98=0|108=30|10=186|8=FIX.4.2|9=67|35=2|34=37|49=BAADER|52=20181028-07:34:30.043|56=CATSOS|7=432|16=0|10=095|8=FIX.4.2|9=152|35=R|34=38|49=BAADER|52=20181028-07:34:41.163|56=CATSOS|128=CITIDE|131=HackStuttgart1540712081163|146=1|55=BAADERBK|22=4|38=123|48=DE0005140008|167=OPT|10=242|8=FIX.4.2|9=56|35=0|34=39|49=BAADER|52=20181028-07:35:11.913|56=CATSOS|10=128|8=FIX.4.2|9=68|35=A|34=40|49=BAADER|52=20181028-07:35:37.956|56=CATSOS|98=0|108=30|10=180|8=FIX.4.2|9=152|35=R|34=41|49=BAADER|52=20181028-07:35:44.597|56=CATSOS|128=CITIDE|131=HackStuttgart1540712144593|146=1|55=BAADERBK|22=4|38=123|48=DE0005140008|167=OPT|10=002|8=FIX.4.2|9=56|35=0|34=42|49=BAADER|52=20181028-07:36:14.913|56=CATSOS|10=126|8=FIX.4.2|9=68|35=A|34=43|49=BAADER|52=20181028-07:36:39.523|56=CATSOS|98=0|108=30|10=176|8=FIX.4.2|9=152|35=R|34=44|49=BAADER|52=20181028-07:36:44.656|56=CATSOS|128=CITIDE|131=HackStuttgart1540712204656|146=1|55=BAADERBK|22=4|38=123|48=DE0005140008|167=OPT|10=255|8=FIX.4.2|9=152|35=R|34=45|49=BAADER|52=20181028-07:37:05.807|56=CATSOS|128=CITIDE|131=HackStuttgart1540712225807|146=1|55=BAADERBK|22=4|38=123|48=DE0005140008|167=OPT|10=253|8=FIX.4.2|9=56|35=0|34=46|49=BAADER|52=20181028-07:37:36.483|56=CATSOS|10=137|8=FIX.4.2|9=68|35=A|34=47|49=BAADER|52=20181028-07:37:47.078|56=CATSOS|98=0|108=30|10=185|8=FIX.4.2|9=152|35=R|34=48|49=BAADER|52=20181028-07:37:53.753|56=CATSOS|128=CITIDE|131=HackStuttgart1540712273753|146=1|55=BAADERBK|22=4|38=123|48=DE0005140008|167=OPT|10=006|8=FIX.4.2|9=68|35=A|34=49|49=BAADER|52=20181028-07:40:53.881|56=CATSOS|98=0|108=30|10=180|8=FIX.4.2|9=67|35=2|34=50|49=BAADER|52=20181028-07:40:53.962|56=CATSOS|7=443|16=0|10=104|8=FIX.4.2|9=152|35=R|34=51|49=BAADER|52=20181028-07:40:58.243|56=CATSOS|128=CITIDE|131=HackStuttgart1540712458243|146=1|55=BAADERBK|22=4|38=123|48=DE0005140008|167=OPT|10=248|8=FIX.4.2|9=56|35=0|34=52|49=BAADER|52=20181028-07:41:28.853|56=CATSOS|10=131|8=FIX.4.2|9=56|35=0|34=53|49=BAADER|52=20181028-07:41:58.853|56=CATSOS|10=135|8=FIX.4.2|9=56|35=0|34=54|49=BAADER|52=20181028-07:42:28.863|56=CATSOS|10=135|8=FIX.4.2|9=56|35=0|34=55|49=BAADER|52=20181028-07:42:58.861|56=CATSOS|10=137|8=FIX.4.2|9=56|35=0|34=56|49=BAADER|52=20181028-07:43:28.852|56=CATSOS|10=136|8=FIX.4.2|9=56|35=0|34=57|49=BAADER|52=20181028-07:43:58.853|56=CATSOS|10=141|8=FIX.4.2|9=56|35=0|34=58|49=BAADER|52=20181028-07:44:28.866|56=CATSOS|10=144|8=FIX.4.2|9=56|35=0|34=59|49=BAADER|52=20181028-07:44:58.863|56=CATSOS|10=145|8=FIX.4.2|9=56|35=0|34=60|49=BAADER|52=20181028-07:45:28.863|56=CATSOS|10=135|8=FIX.4.2|9=56|35=0|34=61|49=BAADER|52=20181028-07:45:58.863|56=CATSOS|10=139|8=FIX.4.2|9=56|35=0|34=62|49=BAADER|52=20181028-07:46:28.862|56=CATSOS|10=137|8=FIX.4.2|9=56|35=0|34=63|49=BAADER|52=20181028-07:46:58.865|56=CATSOS|10=144|8=FIX.4.2|9=56|35=0|34=64|49=BAADER|52=20181028-07:47:28.863|56=CATSOS|10=141|8=FIX.4.2|9=56|35=0|34=65|49=BAADER|52=20181028-07:47:58.862|56=CATSOS|10=144|8=FIX.4.2|9=56|35=0|34=66|49=BAADER|52=20181028-07:48:29.862|56=CATSOS|10=144|8=FIX.4.2|9=88|35=0|34=67|49=BAADER|52=20181028-07:48:29.872|56=CATSOS|112=Appia-20181028-07:49:23.562|10=188|8=FIX.4.2|9=56|35=0|34=68|49=BAADER|52=20181028-07:48:59.876|56=CATSOS|10=154|8=FIX.4.2|9=56|35=0|34=69|49=BAADER|52=20181028-07:49:29.879|56=CATSOS|10=156|8=FIX.4.2|9=56|35=0|34=70|49=BAADER|52=20181028-07:49:59.879|56=CATSOS|10=151|8=FIX.4.2|9=56|35=0|34=71|49=BAADER|52=20181028-07:50:29.880|56=CATSOS|10=133|8=FIX.4.2|9=56|35=0|34=72|49=BAADER|52=20181028-07:50:59.878|56=CATSOS|10=144|8=FIX.4.2|9=56|35=0|34=73|49=BAADER|52=20181028-07:51:29.879|56=CATSOS|10=144|8=FIX.4.2|9=152|35=R|34=74|49=BAADER|52=20181028-07:51:31.352|56=CATSOS|128=CITIDE|131=HackStuttgart1540713091352|146=1|55=BAADERBK|22=4|38=123|48=DE0005140008|167=OPT|10=242|8=FIX.4.2|9=56|35=0|34=75|49=BAADER|52=20181028-07:52:01.852|56=CATSOS|10=128|8=FIX.4.2|9=56|35=0|34=76|49=BAADER|52=20181028-07:52:31.865|56=CATSOS|10=136|8=FIX.4.2|9=56|35=0|34=77|49=BAADER|52=20181028-07:53:01.862|56=CATSOS|10=132|8=FIX.4.2|9=56|35=0|34=78|49=BAADER|52=20181028-07:53:31.862|56=CATSOS|10=136|8=FIX.4.2|9=56|35=0|34=79|49=BAADER|52=20181028-07:54:02.852|56=CATSOS|10=135|8=FIX.4.2|9=56|35=0|34=80|49=BAADER|52=20181028-07:54:32.863|56=CATSOS|10=132|8=FIX.4.2|9=56|35=0|34=81|49=BAADER|52=20181028-07:55:03.852|56=CATSOS|10=130|8=FIX.4.2|9=56|35=0|34=82|49=BAADER|52=20181028-07:55:33.862|56=CATSOS|10=135|8=FIX.4.2|9=56|35=0|34=83|49=BAADER|52=20181028-07:56:04.852|56=CATSOS|10=134|8=FIX.4.2|9=56|35=0|34=84|49=BAADER|52=20181028-07:56:34.852|56=CATSOS|10=138|8=FIX.4.2|9=56|35=0|34=85|49=BAADER|52=20181028-07:57:04.852|56=CATSOS|10=137|8=FIX.4.2|9=56|35=0|34=86|49=BAADER|52=20181028-07:57:34.852|56=CATSOS|10=141|8=FIX.4.2|9=56|35=0|34=87|49=BAADER|52=20181028-07:58:04.850|56=CATSOS|10=138|8=FIX.4.2|9=152|35=R|34=88|49=BAADER|52=20181028-07:58:19.916|56=CATSOS|128=CITIDE|131=HackStuttgart1540713499916|146=1|55=BAADERBK|22=4|38=123|48=DE0005140008|167=OPT|10=028|8=FIX.4.2|9=56|35=0|34=89|49=BAADER|52=20181028-07:58:50.025|56=CATSOS|10=135|8=FIX.4.2|9=56|35=0|34=90|49=BAADER|52=20181028-07:59:20.862|56=CATSOS|10=134|8=FIX.4.2|9=56|35=0|34=91|49=BAADER|52=20181028-07:59:50.862|56=CATSOS|10=138|8=FIX.4.2|9=56|35=0|34=92|49=BAADER|52=20181028-08:00:20.862|56=CATSOS|10=123|8=FIX.4.2|9=56|35=0|34=93|49=BAADER|52=20181028-08:00:51.848|56=CATSOS|10=132|8=FIX.4.2|9=56|35=0|34=94|49=BAADER|52=20181028-08:01:21.852|56=CATSOS|10=126|8=FIX.4.2|9=56|35=0|34=95|49=BAADER|52=20181028-08:01:51.851|56=CATSOS|10=129|8=FIX.4.2|9=56|35=0|34=96|49=BAADER|52=20181028-08:02:21.861|56=CATSOS|10=129|8=FIX.4.2|9=56|35=0|34=97|49=BAADER|52=20181028-08:02:51.852|56=CATSOS|10=133|8=FIX.4.2|9=56|35=0|34=98|49=BAADER|52=20181028-08:03:21.862|56=CATSOS|10=133|8=FIX.4.2|9=56|35=0|34=99|49=BAADER|52=20181028-08:03:52.855|56=CATSOS|10=140|8=FIX.4.2|9=57|35=0|34=100|49=BAADER|52=20181028-08:04:22.852|56=CATSOS|10=167|8=FIX.4.2|9=57|35=0|34=101|49=BAADER|52=20181028-08:04:52.862|56=CATSOS|10=172|8=FIX.4.2|9=57|35=0|34=102|49=BAADER|52=20181028-08:05:23.850|56=CATSOS|10=169|8=FIX.4.2|9=57|35=0|34=103|49=BAADER|52=20181028-08:05:53.852|56=CATSOS|10=175|8=FIX.4.2|9=57|35=0|34=104|49=BAADER|52=20181028-08:06:23.851|56=CATSOS|10=173|8=FIX.4.2|9=57|35=0|34=105|49=BAADER|52=20181028-08:06:53.862|56=CATSOS|10=179|8=FIX.4.2|9=57|35=0|34=106|49=BAADER|52=20181028-08:07:24.852|56=CATSOS|10=178|8=FIX.4.2|9=57|35=0|34=107|49=BAADER|52=20181028-08:07:54.862|56=CATSOS|10=183|8=FIX.4.2|9=57|35=0|34=108|49=BAADER|52=20181028-08:08:25.862|56=CATSOS|10=183|8=FIX.4.2|9=89|35=0|34=109|49=BAADER|52=20181028-08:08:25.881|56=CATSOS|112=Appia-20181028-08:09:19.583|10=232|8=FIX.4.2|9=57|35=0|34=110|49=BAADER|52=20181028-08:08:55.881|56=CATSOS|10=180|8=FIX.4.2|9=57|35=0|34=111|49=BAADER|52=20181028-08:09:25.885|56=CATSOS|10=183|8=FIX.4.2|9=57|35=0|34=112|49=BAADER|52=20181028-08:09:55.884|56=CATSOS|10=186|8=FIX.4.2|9=57|35=0|34=113|49=BAADER|52=20181028-08:10:25.881|56=CATSOS|10=173|8=FIX.4.2|9=57|35=0|34=114|49=BAADER|52=20181028-08:10:55.885|56=CATSOS|10=181|8=FIX.4.2|9=57|35=0|34=115|49=BAADER|52=20181028-08:11:25.883|56=CATSOS|10=178|8=FIX.4.2|9=57|35=0|34=116|49=BAADER|52=20181028-08:11:55.884|56=CATSOS|10=183|8=FIX.4.2|9=57|35=0|34=117|49=BAADER|52=20181028-08:12:25.886|56=CATSOS|10=184|8=FIX.4.2|9=57|35=0|34=118|49=BAADER|52=20181028-08:12:55.880|56=CATSOS|10=182|8=FIX.4.2|9=57|35=0|34=119|49=BAADER|52=20181028-08:13:25.887|56=CATSOS|10=188|8=FIX.4.2|9=57|35=0|34=120|49=BAADER|52=20181028-08:13:55.887|56=CATSOS|10=183|8=FIX.4.2|9=57|35=0|34=121|49=BAADER|52=20181028-08:14:25.889|56=CATSOS|10=184|8=FIX.4.2|9=57|35=0|34=122|49=BAADER|52=20181028-08:14:55.887|56=CATSOS|10=186|8=FIX.4.2|9=57|35=0|34=123|49=BAADER|52=20181028-08:15:25.887|56=CATSOS|10=185|8=FIX.4.2|9=57|35=0|34=124|49=BAADER|52=20181028-08:15:55.894|56=CATSOS|10=187|8=FIX.4.2|9=57|35=0|34=125|49=BAADER|52=20181028-08:16:25.889|56=CATSOS|10=190|8=FIX.4.2|9=57|35=0|34=126|49=BAADER|52=20181028-08:16:55.888|56=CATSOS|10=193|8=FIX.4.2|9=57|35=0|34=127|49=BAADER|52=20181028-08:17:25.889|56=CATSOS|10=193|8=FIX.4.2|9=57|35=0|34=128|49=BAADER|52=20181028-08:17:55.889|56=CATSOS|10=197|8=FIX.4.2|9=57|35=0|34=129|49=BAADER|52=20181028-08:18:25.890|56=CATSOS|10=188|8=FIX.4.2|9=57|35=0|34=130|49=BAADER|52=20181028-08:18:55.890|56=CATSOS|10=183|8=FIX.4.2|9=57|35=0|34=131|49=BAADER|52=20181028-08:19:25.914|56=CATSOS|10=179|8=FIX.4.2|9=57|35=0|34=132|49=BAADER|52=20181028-08:19:56.857|56=CATSOS|10=190|8=FIX.4.2|9=57|35=0|34=133|49=BAADER|52=20181028-08:20:27.857|56=CATSOS|10=181|8=FIX.4.2|9=89|35=0|34=134|49=BAADER|52=20181028-08:20:27.866|56=CATSOS|112=Appia-20181028-08:21:21.585|10=218|8=FIX.4.2|9=57|35=0|34=135|49=BAADER|52=20181028-08:20:57.872|56=CATSOS|10=183|8=FIX.4.2|9=57|35=0|34=136|49=BAADER|52=20181028-08:21:27.872|56=CATSOS|10=182|8=FIX.4.2|9=57|35=0|34=137|49=BAADER|52=20181028-08:21:57.873|56=CATSOS|10=187|8=FIX.4.2|9=153|35=R|34=138|49=BAADER|52=20181028-08:22:22.836|56=CATSOS|128=CITIDE|131=HackStuttgart1540714942836|146=1|55=BAADERBK|22=4|38=123|48=DE0005140008|167=OPT|10=055|8=FIX.4.2|9=57|35=0|34=139|49=BAADER|52=20181028-08:22:52.847|56=CATSOS|10=186|8=FIX.4.2|9=57|35=0|34=140|49=BAADER|52=20181028-08:23:22.846|56=CATSOS|10=175|8=FIX.4.2|9=57|35=0|34=141|49=BAADER|52=20181028-08:23:52.846|56=CATSOS|10=179|8=FIX.4.2|9=57|35=0|34=142|49=BAADER|52=20181028-08:24:22.857|56=CATSOS|10=180|8=FIX.4.2|9=57|35=0|34=143|49=BAADER|52=20181028-08:24:52.856|56=CATSOS|10=183|8=FIX.4.2|9=57|35=0|34=144|49=BAADER|52=20181028-08:25:22.852|56=CATSOS|10=178|8=FIX.4.2|9=57|35=0|34=145|49=BAADER|52=20181028-08:25:52.848|56=CATSOS|10=187|8=FIX.4.2|9=57|35=0|34=146|49=BAADER|52=20181028-08:26:22.903|56=CATSOS|10=178|8=FIX.4.2|9=57|35=0|34=147|49=BAADER|52=20181028-08:26:53.845|56=CATSOS|10=188|8=FIX.4.2|9=57|35=0|34=148|49=BAADER|52=20181028-08:27:23.851|56=CATSOS|10=184|8=FIX.4.2|9=57|35=0|34=149|49=BAADER|52=20181028-08:27:53.849|56=CATSOS|10=195|8=FIX.4.2|9=57|35=0|34=150|49=BAADER|52=20181028-08:28:23.846|56=CATSOS|10=182|8=FIX.4.2|9=57|35=0|34=151|49=BAADER|52=20181028-08:28:53.846|56=CATSOS|10=186|8=FIX.4.2|9=57|35=0|34=152|49=BAADER|52=20181028-08:29:23.858|56=CATSOS|10=188|8=FIX.4.2|9=57|35=0|34=153|49=BAADER|52=20181028-08:29:53.855|56=CATSOS|10=189|8=FIX.4.2|9=57|35=0|34=154|49=BAADER|52=20181028-08:30:23.848|56=CATSOS|10=181|8=FIX.4.2|9=153|35=R|34=155|49=BAADER|52=20181028-08:30:36.270|56=CATSOS|128=CITIDE|131=HackStuttgart1540715436270|146=1|55=BAADERBK|22=4|38=123|48=DE0005140008|167=OPT|10=041|8=FIX.4.2|9=57|35=0|34=156|49=BAADER|52=20181028-08:31:06.845|56=CATSOS|10=182|8=FIX.4.2|9=57|35=0|34=157|49=BAADER|52=20181028-08:31:36.859|56=CATSOS|10=191|8=FIX.4.2|9=57|35=0|34=158|49=BAADER|52=20181028-08:32:06.858|56=CATSOS|10=189|8=FIX.4.2|9=57|35=0|34=159|49=BAADER|52=20181028-08:32:37.849|56=CATSOS|10=194|8=FIX.4.2|9=57|35=0|34=160|49=BAADER|52=20181028-08:33:07.847|56=CATSOS|10=182|8=FIX.4.2|9=57|35=0|34=161|49=BAADER|52=20181028-08:33:37.846|56=CATSOS|10=185|8=FIX.4.2|9=57|35=0|34=162|49=BAADER|52=20181028-08:34:07.862|56=CATSOS|10=182|8=FIX.4.2|9=57|35=0|34=163|49=BAADER|52=20181028-08:34:37.857|56=CATSOS|10=190|8=FIX.4.2|9=57|35=0|34=164|49=BAADER|52=20181028-08:35:07.856|56=CATSOS|10=188|8=FIX.4.2|9=57|35=0|34=165|49=BAADER|52=20181028-08:35:37.857|56=CATSOS|10=193|8=FIX.4.2|9=57|35=0|34=166|49=BAADER|52=20181028-08:36:07.856|56=CATSOS|10=191|8=FIX.4.2|9=57|35=0|34=167|49=BAADER|52=20181028-08:36:37.863|56=CATSOS|10=193|8=FIX.4.2|9=57|35=0|34=168|49=BAADER|52=20181028-08:37:08.850|56=CATSOS|10=189|8=FIX.4.2|9=57|35=0|34=169|49=BAADER|52=20181028-08:37:38.858|56=CATSOS|10=201|8=FIX.4.2|9=57|35=0|34=170|49=BAADER|52=20181028-08:38:08.857|56=CATSOS|10=190|8=FIX.4.2|9=57|35=0|34=171|49=BAADER|52=20181028-08:38:38.849|56=CATSOS|10=195|8=FIX.4.2|9=57|35=0|34=172|49=BAADER|52=20181028-08:39:08.853|56=CATSOS|10=189|8=FIX.4.2|9=57|35=0|34=173|49=BAADER|52=20181028-08:39:38.855|56=CATSOS|10=195|8=FIX.4.2|9=57|35=0|34=174|49=BAADER|52=20181028-08:40:08.846|56=CATSOS|10=185|8=FIX.4.2|9=153|35=R|34=175|49=BAADER|52=20181028-08:40:12.522|56=CATSOS|128=CITIDE|131=HackStuttgart1540716012520|146=1|55=BAADERBK|22=4|38=123|48=DE0005140008|167=OPT|10=027|8=FIX.4.2|9=57|35=0|34=176|49=BAADER|52=20181028-08:40:42.852|56=CATSOS|10=182|8=FIX.4.2|9=57|35=0|34=177|49=BAADER|52=20181028-08:41:12.862|56=CATSOS|10=182|8=FIX.4.2|9=57|35=0|34=178|49=BAADER|52=20181028-08:41:43.847|56=CATSOS|10=190|8=FIX.4.2|9=57|35=0|34=179|49=BAADER|52=20181028-08:42:13.859|56=CATSOS|10=192|8=FIX.4.2|9=57|35=0|34=180|49=BAADER|52=20181028-08:42:43.855|56=CATSOS|10=183|8=FIX.4.2|9=57|35=0|34=181|49=BAADER|52=20181028-08:43:13.858|56=CATSOS|10=185|8=FIX.4.2|9=57|35=0|34=182|49=BAADER|52=20181028-08:43:43.859|56=CATSOS|10=190|8=FIX.4.2|9=57|35=0|34=183|49=BAADER|52=20181028-08:44:13.865|56=CATSOS|10=186|8=FIX.4.2|9=57|35=0|34=184|49=BAADER|52=20181028-08:44:44.848|56=CATSOS|10=192|8=FIX.4.2|9=57|35=0|34=185|49=BAADER|52=20181028-08:45:14.847|56=CATSOS|10=190|8=FIX.4.2|9=57|35=0|34=186|49=BAADER|52=20181028-08:45:44.851|56=CATSOS|10=189|8=FIX.4.2|9=57|35=0|34=187|49=BAADER|52=20181028-08:46:14.860|56=CATSOS|10=188|8=FIX.4.2|9=57|35=0|34=188|49=BAADER|52=20181028-08:46:45.860|56=CATSOS|10=193|8=FIX.4.2|9=57|35=0|34=189|49=BAADER|52=20181028-08:47:16.860|56=CATSOS|10=193|8=FIX.4.2|9=57|35=0|34=190|49=BAADER|52=20181028-08:47:47.856|56=CATSOS|10=194|8=FIX.4.2|9=57|35=0|34=191|49=BAADER|52=20181028-08:48:18.857|56=CATSOS|10=195|8=FIX.4.2|9=89|35=0|34=192|49=BAADER|52=20181028-08:48:18.869|56=CATSOS|112=Appia-20181028-08:49:12.610|10=234|8=FIX.4.2|9=57|35=0|34=193|49=BAADER|52=20181028-08:48:48.874|56=CATSOS|10=199|8=FIX.4.2|9=57|35=0|34=194|49=BAADER|52=20181028-08:49:18.874|56=CATSOS|10=198|8=FIX.4.2|9=57|35=0|34=195|49=BAADER|52=20181028-08:49:48.873|56=CATSOS|10=201|8=FIX.4.2|9=69|35=A|34=196|49=BAADER|52=20181028-08:50:27.418|56=CATSOS|98=0|108=30|10=231|8=FIX.4.2|9=57|35=0|34=197|49=BAADER|52=20181028-08:50:57.530|56=CATSOS|10=185|8=FIX.4.2|9=153|35=R|34=198|49=BAADER|52=20181028-08:51:09.887|56=CATSOS|128=CITIDE|131=HackStuttgart1540716669885|146=1|55=BAADERBK|22=4|38=123|48=DE0005140008|167=OPT|10=086|8=FIX.4.2|9=57|35=0|34=199|49=BAADER|52=20181028-08:51:40.379|56=CATSOS|10=191|8=FIX.4.2|9=153|35=R|34=200|49=BAADER|52=20181028-08:52:02.779|56=CATSOS|128=CITIDE|131=HackStuttgart1540716722779|146=1|55=BAADERBK|22=4|38=123|48=DE0005140008|167=OPT|10=056|8=FIX.4.2|9=153|35=R|34=201|49=BAADER|52=20181028-08:52:03.799|56=CATSOS|128=CITIDE|131=HackStuttgart1540716723799|146=1|55=BAADERBK|22=4|38=123|48=DE0005140008|167=OPT|10=063|8=FIX.4.2|9=57|35=0|34=202|49=BAADER|52=20181028-08:52:34.367|56=CATSOS|10=177|8=FIX.4.2|9=57|35=0|34=203|49=BAADER|52=20181028-08:53:04.366|56=CATSOS|10=175|8=FIX.4.2|9=57|35=0|34=204|49=BAADER|52=20181028-08:53:34.371|56=CATSOS|10=175|8=FIX.4.2|9=57|35=0|34=205|49=BAADER|52=20181028-08:54:04.374|56=CATSOS|10=177|8=FIX.4.2|9=153|35=R|34=206|49=BAADER|52=20181028-08:54:12.220|56=CATSOS|128=CITIDE|131=HackStuttgart1540716852220|146=1|55=BAADERBK|22=4|38=123|48=DE0005140008|167=OPT|10=031|8=FIX.4.2|9=153|35=R|34=207|49=BAADER|52=20181028-08:54:13.211|56=CATSOS|128=CITIDE|131=HackStuttgart1540716853211|146=1|55=BAADERBK|22=4|38=123|48=DE0005140008|167=OPT|10=034|8=FIX.4.2|9=153|35=R|34=208|49=BAADER|52=20181028-08:54:14.241|56=CATSOS|128=CITIDE|131=HackStuttgart1540716854241|146=1|55=BAADERBK|22=4|38=123|48=DE0005140008|167=OPT|10=043|8=FIX.4.2|9=153|35=R|34=209|49=BAADER|52=20181028-08:54:16.880|56=CATSOS|128=CITIDE|131=HackStuttgart1540716856880|146=1|55=BAADERBK|22=4|38=123|48=DE0005140008|167=OPT|10=066|8=FIX.4.2|9=153|35=R|34=210|49=BAADER|52=20181028-08:54:17.892|56=CATSOS|128=CITIDE|131=HackStuttgart1540716857891|146=1|55=BAADERBK|22=4|38=123|48=DE0005140008|167=OPT|10=065|8=FIX.4.2|9=153|35=R|34=211|49=BAADER|52=20181028-08:54:21.818|56=CATSOS|128=CITIDE|131=HackStuttgart1540716861818|146=1|55=BAADERBK|22=4|38=123|48=DE0005140008|167=OPT|10=053|8=FIX.4.2|9=57|35=0|34=212|49=BAADER|52=20181028-08:54:52.365|56=CATSOS|10=178|8=FIX.4.2|9=57|35=0|34=213|49=BAADER|52=20181028-08:55:22.375|56=CATSOS|10=178|8=FIX.4.2|9=153|35=R|34=214|49=BAADER|52=20181028-08:55:35.544|56=CATSOS|128=CITIDE|131=HackStuttgart1540716935544|146=1|55=BAADERBK|22=4|38=123|48=DE0005140008|167=OPT|10=056|8=FIX.4.2|9=57|35=0|34=215|49=BAADER|52=20181028-08:56:06.366|56=CATSOS|10=183|8=FIX.4.2|9=57|35=0|34=216|49=BAADER|52=20181028-08:56:36.365|56=CATSOS|10=186|8=FIX.4.2|9=57|35=0|34=217|49=BAADER|52=20181028-08:57:06.372|56=CATSOS|10=183|8=FIX.4.2|9=57|35=0|34=218|49=BAADER|52=20181028-08:57:36.384|56=CATSOS|10=190|8=FIX.4.2|9=57|35=0|34=219|49=BAADER|52=20181028-08:58:07.387|56=CATSOS|10=193|8=FIX.4.2|9=89|35=0|34=220|49=BAADER|52=20181028-08:58:07.394|56=CATSOS|112=Appia-20181028-08:59:01.145|10=220|8=FIX.4.2|9=57|35=0|34=221|49=BAADER|52=20181028-08:58:37.386|56=CATSOS|10=188|8=FIX.4.2|9=57|35=0|34=222|49=BAADER|52=20181028-08:59:07.401|56=CATSOS|10=175|8=FIX.4.2|9=57|35=0|34=223|49=BAADER|52=20181028-08:59:37.399|56=CATSOS|10=195|8=FIX.4.2|9=57|35=0|34=224|49=BAADER|52=20181028-09:00:07.399|56=CATSOS|10=180|8=FIX.4.2|9=57|35=0|34=225|49=BAADER|52=20181028-09:00:37.400|56=CATSOS|10=167|8=FIX.4.2|9=57|35=0|34=226|49=BAADER|52=20181028-09:01:07.398|56=CATSOS|10=182|8=FIX.4.2|9=57|35=0|34=227|49=BAADER|52=20181028-09:01:37.400|56=CATSOS|10=170|8=FIX.4.2|9=57|35=0|34=228|49=BAADER|52=20181028-09:02:07.400|56=CATSOS|10=169|8=FIX.4.2|9=57|35=0|34=229|49=BAADER|52=20181028-09:02:37.399|56=CATSOS|10=190|8=FIX.4.2|9=57|35=0|34=230|49=BAADER|52=20181028-09:03:07.400|56=CATSOS|10=163|8=FIX.4.2|9=57|35=0|34=231|49=BAADER|52=20181028-09:03:37.815|56=CATSOS|10=177|8=FIX.4.2|9=57|35=0|34=232|49=BAADER|52=20181028-09:04:08.372|56=CATSOS|10=175|8=FIX.4.2|9=57|35=0|34=233|49=BAADER|52=20181028-09:04:38.376|56=CATSOS|10=183|8=FIX.4.2|9=57|35=0|34=234|49=BAADER|52=20181028-09:05:08.376|56=CATSOS|10=182|8=FIX.4.2|9=57|35=0|34=235|49=BAADER|52=20181028-09:05:38.377|56=CATSOS|10=187|8=FIX.4.2|9=57|35=0|34=236|49=BAADER|52=20181028-09:06:09.380|56=CATSOS|10=181|8=FIX.4.2|9=89|35=0|34=237|49=BAADER|52=20181028-09:06:09.396|56=CATSOS|112=Appia-20181028-09:07:03.145|10=222|8=FIX.4.2|9=153|35=R|34=238|49=BAADER|52=20181028-09:06:11.978|56=CATSOS|128=CITIDE|131=HackStuttgart1540717571978|146=1|55=BAADERBK|22=4|38=123|48=DE0005140008|167=OPT|10=072|8=FIX.4.2|9=153|35=R|34=239|49=BAADER|52=20181028-09:06:12.981|56=CATSOS|128=CITIDE|131=HackStuttgart1540717572981|146=1|55=BAADERBK|22=4|38=123|48=DE0005140008|167=OPT|10=063|8=FIX.4.2|9=57|35=0|34=240|49=BAADER|52=20181028-09:06:43.376|56=CATSOS|10=179|8=FIX.4.2|9=153|35=R|34=241|49=BAADER|52=20181028-09:06:56.249|56=CATSOS|128=CITIDE|131=HackStuttgart1540717616249|146=1|55=BAADERBK|22=4|38=123|48=DE0005140008|167=OPT|10=057|8=FIX.4.2|9=153|35=R|34=242|49=BAADER|52=20181028-09:06:57.269|56=CATSOS|128=CITIDE|131=HackStuttgart1540717617269|146=1|55=BAADERBK|22=4|38=123|48=DE0005140008|167=OPT|10=064|8=FIX.4.2|9=153|35=R|34=243|49=BAADER|52=20181028-09:06:58.333|56=CATSOS|128=CITIDE|131=HackStuttgart1540717618333|146=1|55=BAADERBK|22=4|38=123|48=DE0005140008|167=OPT|10=051|8=FIX.4.2|9=153|35=R|34=244|49=BAADER|52=20181028-09:06:59.346|56=CATSOS|128=CITIDE|131=HackStuttgart1540717619346|146=1|55=BAADERBK|22=4|38=123|48=DE0005140008|167=OPT|10=062|8=FIX.4.2|9=57|35=0|34=245|49=BAADER|52=20181028-09:07:29.369|56=CATSOS|10=191|8=FIX.4.2|9=69|35=A|34=246|49=BAADER|52=20181028-09:07:52.440|56=CATSOS|98=0|108=30|10=223|8=FIX.4.2|9=153|35=R|34=247|49=BAADER|52=20181028-09:08:09.041|56=CATSOS|128=CITIDE|131=HackStuttgart1540717689036|146=1|55=BAADERBK|22=4|38=123|48=DE0005140008|167=OPT|10=057|8=FIX.4.2|9=153|35=R|34=248|49=BAADER|52=20181028-09:08:19.734|56=CATSOS|128=CITIDE|131=HackStuttgart1540717699734|146=1|55=BAADERBK|22=4|38=123|48=DE0005140008|167=OPT|10=074|8=FIX.4.2|9=57|35=0|34=249|49=BAADER|52=20181028-09:08:50.420|56=CATSOS|10=178|8=FIX.4.2|9=57|35=0|34=250|49=BAADER|52=20181028-09:09:20.416|56=CATSOS|10=173|8=FIX.4.2|9=57|35=0|34=251|49=BAADER|52=20181028-09:09:50.410|56=CATSOS|10=171|8=FIX.4.2|9=57|35=0|34=252|49=BAADER|52=20181028-09:10:20.414|56=CATSOS|10=165|8=FIX.4.2|9=153|35=R|34=253|49=BAADER|52=20181028-09:10:42.945|56=CATSOS|128=CITIDE|131=HackStuttgart1540717842944|146=1|55=BAADERBK|22=4|38=123|48=DE0005140008|167=OPT|10=056|8=FIX.4.2|9=153|35=R|34=254|49=BAADER|52=20181028-09:10:43.963|56=CATSOS|128=CITIDE|131=HackStuttgart1540717843963|146=1|55=BAADERBK|22=4|38=123|48=DE0005140008|167=OPT|10=060|8=FIX.4.2|9=153|35=R|34=255|49=BAADER|52=20181028-09:10:44.977|56=CATSOS|128=CITIDE|131=HackStuttgart1540717844977|146=1|55=BAADERBK|22=4|38=123|48=DE0005140008|167=OPT|10=073|8=FIX.4.2|9=153|35=R|34=256|49=BAADER|52=20181028-09:10:46.000|56=CATSOS|128=CITIDE|131=HackStuttgart1540717845999|146=1|55=BAADERBK|22=4|38=123|48=DE0005140008|167=OPT|10=058|8=FIX.4.2|9=153|35=R|34=257|49=BAADER|52=20181028-09:10:47.006|56=CATSOS|128=CITIDE|131=HackStuttgart1540717847005|146=1|55=BAADERBK|22=4|38=123|48=DE0005140008|167=OPT|10=046|8=FIX.4.2|9=153|35=R|34=258|49=BAADER|52=20181028-09:10:48.046|56=CATSOS|128=CITIDE|131=HackStuttgart1540717848046|146=1|55=BAADERBK|22=4|38=123|48=DE0005140008|167=OPT|10=058|8=FIX.4.2|9=153|35=R|34=259|49=BAADER|52=20181028-09:10:49.101|56=CATSOS|128=CITIDE|131=HackStuttgart1540717849101|146=1|55=BAADERBK|22=4|38=123|48=DE0005140008|167=OPT|10=045|8=FIX.4.2|9=153|35=R|34=260|49=BAADER|52=20181028-09:10:50.117|56=CATSOS|128=CITIDE|131=HackStuttgart1540717850117|146=1|55=BAADERBK|22=4|38=123|48=DE0005140008|167=OPT|10=035|8=FIX.4.2|9=153|35=R|34=261|49=BAADER|52=20181028-09:10:51.119|56=CATSOS|128=CITIDE|131=HackStuttgart1540717851119|146=1|55=BAADERBK|22=4|38=123|48=DE0005140008|167=OPT|10=042|8=FIX.4.2|9=153|35=R|34=262|49=BAADER|52=20181028-09:10:52.155|56=CATSOS|128=CITIDE|131=HackStuttgart1540717852154|146=1|55=BAADERBK|22=4|38=123|48=DE0005140008|167=OPT|10=044|8=FIX.4.2|9=153|35=R|34=263|49=BAADER|52=20181028-09:10:53.172|56=CATSOS|128=CITIDE|131=HackStuttgart1540717853172|146=1|55=BAADERBK|22=4|38=123|48=DE0005140008|167=OPT|10=046|8=FIX.4.2|9=153|35=R|34=264|49=BAADER|52=20181028-09:10:54.199|56=CATSOS|128=CITIDE|131=HackStuttgart1540717854198|146=1|55=BAADERBK|22=4|38=123|48=DE0005140008|167=OPT|10=066|8=FIX.4.2|9=153|35=R|34=265|49=BAADER|52=20181028-09:10:55.257|56=CATSOS|128=CITIDE|131=HackStuttgart1540717855257|146=1|55=BAADERBK|22=4|38=123|48=DE0005140008|167=OPT|10=060|8=FIX.4.2|9=153|35=R|34=266|49=BAADER|52=20181028-09:10:56.233|56=CATSOS|128=CITIDE|131=HackStuttgart1540717856231|146=1|55=BAADERBK|22=4|38=123|48=DE0005140008|167=OPT|10=049|8=FIX.4.2|9=153|35=R|34=267|49=BAADER|52=20181028-09:11:04.692|56=CATSOS|128=CITIDE|131=HackStuttgart1540717864692|146=1|55=BAADERBK|22=4|38=123|48=DE0005140008|167=OPT|10=063|8=FIX.4.2|9=153|35=R|34=268|49=BAADER|52=20181028-09:11:05.745|56=CATSOS|128=CITIDE|131=HackStuttgart1540717865745|146=1|55=BAADERBK|22=4|38=123|48=DE0005140008|167=OPT|10=064|8=FIX.4.2|9=153|35=R|34=269|49=BAADER|52=20181028-09:11:06.740|56=CATSOS|128=CITIDE|131=HackStuttgart1540717866740|146=1|55=BAADERBK|22=4|38=123|48=DE0005140008|167=OPT|10=057|8=FIX.4.2|9=57|35=0|34=270|49=BAADER|52=20181028-09:11:37.428|56=CATSOS|10=179|8=FIX.4.2|9=57|35=0|34=271|49=BAADER|52=20181028-09:12:08.415|56=CATSOS|10=175|8=FIX.4.2|9=153|35=R|34=272|49=BAADER|52=20181028-09:12:10.315|56=CATSOS|128=CITIDE|131=HackStuttgart1540717930314|146=1|55=BAADERBK|22=4|38=123|48=DE0005140008|167=OPT|10=034|8=FIX.4.2|9=153|35=R|34=273|49=BAADER|52=20181028-09:12:11.327|56=CATSOS|128=CITIDE|131=HackStuttgart1540717931327|146=1|55=BAADERBK|22=4|38=123|48=DE0005140008|167=OPT|10=044|8=FIX.4.2|9=153|35=R|34=274|49=BAADER|52=20181028-09:12:12.581|56=CATSOS|128=CITIDE|131=HackStuttgart1540717932581|146=1|55=BAADERBK|22=4|38=123|48=DE0005140008|167=OPT|10=051|8=FIX.4.2|9=153|35=R|34=275|49=BAADER|52=20181028-09:12:13.396|56=CATSOS|128=CITIDE|131=HackStuttgart1540717933396|146=1|55=BAADERBK|22=4|38=123|48=DE0005140008|167=OPT|10=062|8=FIX.4.2|9=153|35=R|34=276|49=BAADER|52=20181028-09:12:14.395|56=CATSOS|128=CITIDE|131=HackStuttgart1540717934395|146=1|55=BAADERBK|22=4|38=123|48=DE0005140008|167=OPT|10=063|8=FIX.4.2|9=153|35=R|34=277|49=BAADER|52=20181028-09:12:15.419|56=CATSOS|128=CITIDE|131=HackStuttgart1540717935415|146=1|55=BAADERBK|22=4|38=123|48=DE0005140008|167=OPT|10=056|8=FIX.4.2|9=153|35=R|34=278|49=BAADER|52=20181028-09:12:16.477|56=CATSOS|128=CITIDE|131=HackStuttgart1540717936477|146=1|55=BAADERBK|22=4|38=123|48=DE0005140008|167=OPT|10=071|8=FIX.4.2|9=153|35=R|34=279|49=BAADER|52=20181028-09:12:17.466|56=CATSOS|128=CITIDE|131=HackStuttgart1540717937466|146=1|55=BAADERBK|22=4|38=123|48=DE0005140008|167=OPT|10=070|8=FIX.4.2|9=57|35=0|34=280|49=BAADER|52=20181028-09:12:48.424|56=CATSOS|10=179|8=FIX.4.2|9=57|35=0|34=281|49=BAADER|52=20181028-09:13:19.416|56=CATSOS|10=180|8=FIX.4.2|9=57|35=0|34=282|49=BAADER|52=20181028-09:13:49.414|56=CATSOS|10=182|8=FIX.4.2|9=69|35=A|34=283|49=BAADER|52=20181028-09:14:19.037|56=CATSOS|98=0|108=30|10=227|8=FIX.4.2|9=153|35=R|34=284|49=BAADER|52=20181028-09:14:33.065|56=CATSOS|128=CITIDE|131=HackStuttgart1540718073065|146=1|55=BAADERBK|22=4|38=123|48=DE0005140008|167=OPT|10=048|8=FIX.4.2|9=153|35=R|34=285|49=BAADER|52=20181028-09:14:33.991|56=CATSOS|128=CITIDE|131=HackStuttgart1540718073991|146=1|55=BAADERBK|22=4|38=123|48=DE0005140008|167=OPT|10=065|8=FIX.4.2|9=153|35=R|34=286|49=BAADER|52=20181028-09:14:35.086|56=CATSOS|128=CITIDE|131=HackStuttgart1540718075086|146=1|55=BAADERBK|22=4|38=123|48=DE0005140008|167=OPT|10=060|8=FIX.4.2|9=153|35=R|34=287|49=BAADER|52=20181028-09:14:35.969|56=CATSOS|128=CITIDE|131=HackStuttgart1540718075969|146=1|55=BAADERBK|22=4|38=123|48=DE0005140008|167=OPT|10=081|8=FIX.4.2|9=153|35=R|34=288|49=BAADER|52=20181028-09:14:37.011|56=CATSOS|128=CITIDE|131=HackStuttgart1540718077011|146=1|55=BAADERBK|22=4|38=123|48=DE0005140008|167=OPT|10=042|8=FIX.4.2|9=153|35=R|34=289|49=BAADER|52=20181028-09:14:38.040|56=CATSOS|128=CITIDE|131=HackStuttgart1540718078039|146=1|55=BAADERBK|22=4|38=123|48=DE0005140008|167=OPT|10=057|8=FIX.4.2|9=153|35=R|34=290|49=BAADER|52=20181028-09:14:39.089|56=CATSOS|128=CITIDE|131=HackStuttgart1540718079088|146=1|55=BAADERBK|22=4|38=123|48=DE0005140008|167=OPT|10=068|8=FIX.4.2|9=153|35=R|34=291|49=BAADER|52=20181028-09:14:40.147|56=CATSOS|128=CITIDE|131=HackStuttgart1540718080147|146=1|55=BAADERBK|22=4|38=123|48=DE0005140008|167=OPT|10=044|8=FIX.4.2|9=153|35=R|34=292|49=BAADER|52=20181028-09:14:41.130|56=CATSOS|128=CITIDE|131=HackStuttgart1540718081129|146=1|55=BAADERBK|22=4|38=123|48=DE0005140008|167=OPT|10=039|8=FIX.4.2|9=153|35=R|34=293|49=BAADER|52=20181028-09:14:42.125|56=CATSOS|128=CITIDE|131=HackStuttgart1540718082125|146=1|55=BAADERBK|22=4|38=123|48=DE0005140008|167=OPT|10=042|8=FIX.4.2|9=153|35=R|34=294|49=BAADER|52=20181028-09:14:43.068|56=CATSOS|128=CITIDE|131=HackStuttgart1540718083068|146=1|55=BAADERBK|22=4|38=123|48=DE0005140008|167=OPT|10=057|8=FIX.4.2|9=153|35=R|34=295|49=BAADER|52=20181028-09:14:44.227|56=CATSOS|128=CITIDE|131=HackStuttgart1540718084227|146=1|55=BAADERBK|22=4|38=123|48=DE0005140008|167=OPT|10=054|8=FIX.4.2|9=153|35=R|34=296|49=BAADER|52=20181028-09:14:45.233|56=CATSOS|128=CITIDE|131=HackStuttgart1540718085232|146=1|55=BAADERBK|22=4|38=123|48=DE0005140008|167=OPT|10=050|8=FIX.4.2|9=153|35=R|34=297|49=BAADER|52=20181028-09:14:46.165|56=CATSOS|128=CITIDE|131=HackStuttgart1540718086165|146=1|55=BAADERBK|22=4|38=123|48=DE0005140008|167=OPT|10=062|8=FIX.4.2|9=153|35=R|34=298|49=BAADER|52=20181028-09:14:47.355|56=CATSOS|128=CITIDE|131=HackStuttgart1540718087355|146=1|55=BAADERBK|22=4|38=123|48=DE0005140008|167=OPT|10=067|8=FIX.4.2|9=153|35=R|34=299|49=BAADER|52=20181028-09:14:48.306|56=CATSOS|128=CITIDE|131=HackStuttgart1540718088306|146=1|55=BAADERBK|22=4|38=123|48=DE0005140008|167=OPT|10=062|8=FIX.4.2|9=153|35=R|34=300|49=BAADER|52=20181028-09:14:49.259|56=CATSOS|128=CITIDE|131=HackStuttgart1540718089259|146=1|55=BAADERBK|22=4|38=123|48=DE0005140008|167=OPT|10=061|8=FIX.4.2|9=153|35=R|34=301|49=BAADER|52=20181028-09:14:50.302|56=CATSOS|128=CITIDE|131=HackStuttgart1540718090302|146=1|55=BAADERBK|22=4|38=123|48=DE0005140008|167=OPT|10=024|8=FIX.4.2|9=153|35=R|34=302|49=BAADER|52=20181028-09:14:51.351|56=CATSOS|128=CITIDE|131=HackStuttgart1540718091350|146=1|55=BAADERBK|22=4|38=123|48=DE0005140008|167=OPT|10=034|8=FIX.4.2|9=153|35=R|34=303|49=BAADER|52=20181028-09:14:52.386|56=CATSOS|128=CITIDE|131=HackStuttgart1540718092386|146=1|55=BAADERBK|22=4|38=123|48=DE0005140008|167=OPT|10=054|8=FIX.4.2|9=153|35=R|34=304|49=BAADER|52=20181028-09:14:53.434|56=CATSOS|128=CITIDE|131=HackStuttgart1540718093434|146=1|55=BAADERBK|22=4|38=123|48=DE0005140008|167=OPT|10=045|8=FIX.4.2|9=69|35=A|34=305|49=BAADER|52=20181028-09:15:37.148|56=CATSOS|98=0|108=30|10=226|8=FIX.4.2|9=68|35=2|34=306|49=BAADER|52=20181028-09:15:37.238|56=CATSOS|7=693|16=0|10=166|8=FIX.4.2|9=57|35=0|34=307|49=BAADER|52=20181028-09:16:07.255|56=CATSOS|10=180|8=FIX.4.2|9=57|35=0|34=308|49=BAADER|52=20181028-09:16:37.255|56=CATSOS|10=184|8=FIX.4.2|9=57|35=0|34=309|49=BAADER|52=20181028-09:17:07.253|56=CATSOS|10=181|8=FIX.4.2|9=57|35=0|34=310|49=BAADER|52=20181028-09:17:37.258|56=CATSOS|10=181|8=FIX.4.2|9=57|35=0|34=311|49=BAADER|52=20181028-09:18:07.257|56=CATSOS|10=179|8=FIX.4.2|9=57|35=0|34=312|49=BAADER|52=20181028-09:18:37.256|56=CATSOS|10=182|8=FIX.4.2|9=69|35=A|34=313|49=BAADER|52=20181028-09:19:13.114|56=CATSOS|98=0|108=30|10=216|8=FIX.4.2|9=153|35=R|34=314|49=BAADER|52=20181028-09:19:30.889|56=CATSOS|128=CITIDE|131=HackStuttgart1540718370884|146=1|55=BAADERBK|22=4|38=123|48=DE0005140008|167=OPT|10=067|8=FIX.4.2|9=153|35=R|34=315|49=BAADER|52=20181028-09:19:53.090|56=CATSOS|128=CITIDE|131=HackStuttgart1540718393089|146=1|55=BAADERBK|22=4|38=123|48=DE0005140008|167=OPT|10=059|8=FIX.4.2|9=153|35=R|34=316|49=BAADER|52=20181028-09:19:54.056|56=CATSOS|128=CITIDE|131=HackStuttgart1540718394056|146=1|55=BAADERBK|22=4|38=123|48=DE0005140008|167=OPT|10=058|8=FIX.4.2|9=153|35=R|34=317|49=BAADER|52=20181028-09:19:55.303|56=CATSOS|128=CITIDE|131=HackStuttgart1540718395303|146=1|55=BAADERBK|22=4|38=123|48=DE0005140008|167=OPT|10=051|8=FIX.4.2|9=153|35=R|34=318|49=BAADER|52=20181028-09:19:56.131|56=CATSOS|128=CITIDE|131=HackStuttgart1540718396131|146=1|55=BAADERBK|22=4|38=123|48=DE0005140008|167=OPT|10=052|8=FIX.4.2|9=153|35=R|34=319|49=BAADER|52=20181028-09:19:57.046|56=CATSOS|128=CITIDE|131=HackStuttgart1540718397046|146=1|55=BAADERBK|22=4|38=123|48=DE0005140008|167=OPT|10=065|8=FIX.4.2|9=153|35=R|34=320|49=BAADER|52=20181028-09:19:58.248|56=CATSOS|128=CITIDE|131=HackStuttgart1540718398248|146=1|55=BAADERBK|22=4|38=123|48=DE0005140008|167=OPT|10=067|8=FIX.4.2|9=153|35=R|34=321|49=BAADER|52=20181028-09:19:59.126|56=CATSOS|128=CITIDE|131=HackStuttgart1540718399126|146=1|55=BAADERBK|22=4|38=123|48=DE0005140008|167=OPT|10=060|8=FIX.4.2|9=153|35=R|34=322|49=BAADER|52=20181028-09:20:00.295|56=CATSOS|128=CITIDE|131=HackStuttgart1540718400295|146=1|55=BAADERBK|22=4|38=123|48=DE0005140008|167=OPT|10=036|8=FIX.4.2|9=57|35=0|34=323|49=BAADER|52=20181028-09:20:31.080|56=CATSOS|10=166|8=FIX.4.2|9=57|35=0|34=324|49=BAADER|52=20181028-09:21:01.084|56=CATSOS|10=169|8=FIX.4.2|9=57|35=0|34=325|49=BAADER|52=20181028-09:21:32.073|56=CATSOS|10=172|8=FIX.4.2|9=153|35=R|34=326|49=BAADER|52=20181028-09:21:48.471|56=CATSOS|128=CITIDE|131=HackStuttgart1540718508471|146=1|55=BAADERBK|22=4|38=123|48=DE0005140008|167=OPT|10=054|8=FIX.4.2|9=57|35=0|34=327|49=BAADER|52=20181028-09:22:19.075|56=CATSOS|10=182|8=FIX.4.2|9=69|35=A|34=328|49=BAADER|52=20181028-09:23:18.603|56=CATSOS|98=0|108=30|10=225|8=FIX.4.2|9=57|35=0|34=329|49=BAADER|52=20181028-09:23:48.598|56=CATSOS|10=197|8=FIX.4.2|9=57|35=0|34=330|49=BAADER|52=20181028-09:24:18.597|56=CATSOS|10=186|8=FIX.4.2|9=57|35=0|34=331|49=BAADER|52=20181028-09:24:48.591|56=CATSOS|10=184|8=FIX.4.2|9=57|35=0|34=332|49=BAADER|52=20181028-09:25:18.585|56=CATSOS|10=186|8=FIX.4.2|9=57|35=0|34=333|49=BAADER|52=20181028-09:25:48.604|56=CATSOS|10=182|8=FIX.4.2|9=153|35=R|34=334|49=BAADER|52=20181028-09:26:16.849|56=CATSOS|128=CITIDE|131=HackStuttgart1540718776841|146=1|55=BAADERBK|22=4|38=123|48=DE0005140008|167=OPT|10=070|8=FIX.4.2|9=153|35=R|34=335|49=BAADER|52=20181028-09:26:20.841|56=CATSOS|128=CITIDE|131=HackStuttgart1540718780841|146=1|55=BAADERBK|22=4|38=123|48=DE0005140008|167=OPT|10=053|8=FIX.4.2|9=153|35=R|34=336|49=BAADER|52=20181028-09:26:23.587|56=CATSOS|128=CITIDE|131=HackStuttgart1540718783586|146=1|55=BAADERBK|22=4|38=123|48=DE0005140008|167=OPT|10=073|8=FIX.4.2|9=57|35=0|34=337|49=BAADER|52=20181028-09:26:53.595|56=CATSOS|10=192|8=FIX.4.2|9=153|35=R|34=338|49=BAADER|52=20181028-09:27:12.898|56=CATSOS|128=CITIDE|131=HackStuttgart1540718832898|146=1|55=BAADERBK|22=4|38=123|48=DE0005140008|167=OPT|10=080|8=FIX.4.2|9=57|35=0|34=339|49=BAADER|52=20181028-09:27:43.583|56=CATSOS|10=191|8=FIX.4.2|9=57|35=0|34=340|49=BAADER|52=20181028-09:28:13.594|56=CATSOS|10=183|8=FIX.4.2|9=69|35=A|34=341|49=BAADER|52=20181028-09:28:25.559|56=CATSOS|98=0|108=30|10=233|8=FIX.4.2|9=69|35=A|34=342|49=BAADER|52=20181028-09:28:51.047|56=CATSOS|98=0|108=30|10=225|8=FIX.4.2|9=153|35=R|34=343|49=BAADER|52=20181028-09:28:58.838|56=CATSOS|128=CITIDE|131=HackStuttgart1540718938836|146=1|55=BAADERBK|22=4|38=123|48=DE0005140008|167=OPT|10=080|8=FIX.4.2|9=57|35=0|34=344|49=BAADER|52=20181028-09:29:28.996|56=CATSOS|10=200|8=FIX.4.2|9=69|35=A|34=345|49=BAADER|52=20181028-09:29:38.919|56=CATSOS|98=0|108=30|10=242|8=FIX.4.2|9=57|35=0|34=346|49=BAADER|52=20181028-09:30:09.009|56=CATSOS|10=178|8=FIX.4.2|9=57|35=0|34=347|49=BAADER|52=20181028-09:30:39.009|56=CATSOS|10=182|8=FIX.4.2|9=57|35=0|34=348|49=BAADER|52=20181028-09:31:09.010|56=CATSOS|10=173|8=FIX.4.2|9=57|35=0|34=349|49=BAADER|52=20181028-09:31:39.009|56=CATSOS|10=185|8=FIX.4.2|9=57|35=0|34=350|49=BAADER|52=20181028-09:32:09.009|56=CATSOS|10=175|8=FIX.4.2|9=57|35=0|34=351|49=BAADER|52=20181028-09:32:39.010|56=CATSOS|10=171|8=FIX.4.2|9=153|35=R|34=352|49=BAADER|52=20181028-09:32:52.643|56=CATSOS|128=CITIDE|131=HackStuttgart1540719172637|146=1|55=BAADERBK|22=4|38=123|48=DE0005140008|167=OPT|10=053|8=FIX.4.2|9=57|35=0|34=353|49=BAADER|52=20181028-09:33:22.879|56=CATSOS|10=189|8=FIX.4.2|9=153|35=R|34=354|49=BAADER|52=20181028-09:33:39.237|56=CATSOS|128=CITIDE|131=HackStuttgart1540719219237|146=1|55=BAADERBK|22=4|38=123|48=DE0005140008|167=OPT|10=058|8=FIX.4.2|9=153|35=R|34=355|49=BAADER|52=20181028-09:34:03.692|56=CATSOS|128=CITIDE|131=HackStuttgart1540719243692|146=1|55=BAADERBK|22=4|38=123|48=DE0005140008|167=OPT|10=058|8=FIX.4.2|9=153|35=R|34=356|49=BAADER|52=20181028-09:34:25.413|56=CATSOS|128=CITIDE|131=HackStuttgart1540719265413|146=1|55=BAADERBK|22=4|38=123|48=DE0005140008|167=OPT|10=049|8=FIX.4.2|9=153|35=R|34=357|49=BAADER|52=20181028-09:34:55.732|56=CATSOS|128=CITIDE|131=HackStuttgart1540719295732|146=1|55=BAADERBK|22=4|38=123|48=DE0005140008|167=OPT|10=064|8=FIX.4.2|9=57|35=0|34=358|49=BAADER|52=20181028-09:35:25.879|56=CATSOS|10=199|8=FIX.4.2|9=153|35=R|34=359|49=BAADER|52=20181028-09:35:39.186|56=CATSOS|128=CITIDE|131=HackStuttgart1540719339186|146=1|55=BAADERBK|22=4|38=123|48=DE0005140008|167=OPT|10=074|8=FIX.4.2|9=153|35=R|34=360|49=BAADER|52=20181028-09:36:09.654|56=CATSOS|128=CITIDE|131=HackStuttgart1540719369654|146=1|55=BAADERBK|22=4|38=123|48=DE0005140008|167=OPT|10=067|8=FIX.4.2|9=57|35=0|34=361|49=BAADER|52=20181028-09:36:39.885|56=CATSOS|10=196|8=FIX.4.2|9=153|35=R|34=362|49=BAADER|52=20181028-09:36:54.706|56=CATSOS|128=CITIDE|131=HackStuttgart1540719414706|146=1|55=BAADERBK|22=4|38=123|48=DE0005140008|167=OPT|10=056|8=FIX.4.2|9=153|35=R|34=363|49=BAADER|52=20181028-09:37:20.395|56=CATSOS|128=CITIDE|131=HackStuttgart1540719440395|146=1|55=BAADERBK|22=4|38=123|48=DE0005140008|167=OPT|10=058|8=FIX.4.2|9=57|35=0|34=364|49=BAADER|52=20181028-09:37:50.883|56=CATSOS|10=191|8=FIX.4.2|9=57|35=0|34=365|49=BAADER|52=20181028-09:38:20.884|56=CATSOS|10=191|8=FIX.4.2|9=57|35=0|34=366|49=BAADER|52=20181028-09:38:50.885|56=CATSOS|10=196|8=FIX.4.2|9=57|35=0|34=367|49=BAADER|52=20181028-09:39:21.881|56=CATSOS|10=192|8=FIX.4.2|9=57|35=0|34=368|49=BAADER|52=20181028-09:39:51.880|56=CATSOS|10=195|8=FIX.4.2|9=69|35=A|34=369|49=BAADER|52=20181028-09:40:07.833|56=CATSOS|98=0|108=30|10=232|8=FIX.4.2|9=57|35=0|34=370|49=BAADER|52=20181028-09:40:37.940|56=CATSOS|10=181|8=FIX.4.2|9=57|35=0|34=371|49=BAADER|52=20181028-09:41:07.947|56=CATSOS|10=187|8=FIX.4.2|9=57|35=0|34=372|49=BAADER|52=20181028-09:41:37.946|56=CATSOS|10=190|8=FIX.4.2|9=57|35=0|34=373|49=BAADER|52=20181028-09:42:07.945|56=CATSOS|10=188|8=FIX.4.2|9=57|35=0|34=374|49=BAADER|52=20181028-09:42:37.945|56=CATSOS|10=192|8=FIX.4.2|9=57|35=0|34=375|49=BAADER|52=20181028-09:43:07.942|56=CATSOS|10=188|8=FIX.4.2|9=57|35=0|34=376|49=BAADER|52=20181028-09:43:37.943|56=CATSOS|10=193|8=FIX.4.2|9=57|35=0|34=377|49=BAADER|52=20181028-09:44:07.942|56=CATSOS|10=191|8=FIX.4.2|9=57|35=0|34=378|49=BAADER|52=20181028-09:44:37.946|56=CATSOS|10=199|8=FIX.4.2|9=57|35=0|34=379|49=BAADER|52=20181028-09:45:07.945|56=CATSOS|10=197|8=FIX.4.2|9=57|35=0|34=380|49=BAADER|52=20181028-09:45:37.946|56=CATSOS|10=193|8=FIX.4.2|9=57|35=0|34=381|49=BAADER|52=20181028-09:46:07.943|56=CATSOS|10=189|8=FIX.4.2|9=57|35=0|34=382|49=BAADER|52=20181028-09:46:37.945|56=CATSOS|10=195|8=FIX.4.2|9=57|35=0|34=383|49=BAADER|52=20181028-09:47:07.952|56=CATSOS|10=192|8=FIX.4.2|9=153|35=R|34=384|49=BAADER|52=20181028-09:47:11.066|56=CATSOS|128=CITIDE|131=HackStuttgart1540720031056|146=1|55=BAADERBK|22=4|38=123|48=DE0005140008|167=OPT|10=039|8=FIX.4.2|9=57|35=0|34=385|49=BAADER|52=20181028-09:47:41.793|56=CATSOS|10=195|8=FIX.4.2|9=153|35=R|34=386|49=BAADER|52=20181028-09:47:48.900|56=CATSOS|128=CITIDE|131=HackStuttgart1540720068900|146=1|55=BAADERBK|22=4|38=123|48=DE0005140008|167=OPT|10=056|8=FIX.4.2|9=57|35=0|34=387|49=BAADER|52=20181028-09:48:19.796|56=CATSOS|10=206|8=FIX.4.2|9=153|35=R|34=388|49=BAADER|52=20181028-09:48:20.495|56=CATSOS|128=CITIDE|131=HackStuttgart1540720100495|146=1|55=BAADERBK|22=4|38=123|48=DE0005140008|167=OPT|10=054|8=FIX.4.2|9=57|35=0|34=389|49=BAADER|52=20181028-09:48:50.786|56=CATSOS|10=202|8=FIX.4.2|9=57|35=0|34=390|49=BAADER|52=20181028-09:49:20.789|56=CATSOS|10=195|8=FIX.4.2|9=153|35=R|34=391|49=BAADER|52=20181028-09:49:33.648|56=CATSOS|128=CITIDE|131=HackStuttgart1540720173648|146=1|55=BAADERBK|22=4|38=123|48=DE0005140008|167=OPT|10=063|8=FIX.4.2|9=153|35=R|34=392|49=BAADER|52=20181028-09:49:35.794|56=CATSOS|128=CITIDE|131=HackStuttgart1540720175794|146=1|55=BAADERBK|22=4|38=123|48=DE0005140008|167=OPT|10=072|8=FIX.4.2|9=153|35=R|34=393|49=BAADER|52=20181028-09:50:01.918|56=CATSOS|128=CITIDE|131=HackStuttgart1540720201917|146=1|55=BAADERBK|22=4|38=123|48=DE0005140008|167=OPT|10=043|8=FIX.4.2|9=57|35=0|34=394|49=BAADER|52=20181028-09:50:32.795|56=CATSOS|10=191|8=FIX.4.2|9=153|35=R|34=395|49=BAADER|52=20181028-09:50:47.302|56=CATSOS|128=CITIDE|131=HackStuttgart1540720247302|146=1|55=BAADERBK|22=4|38=123|48=DE0005140008|167=OPT|10=040|8=FIX.4.2|9=57|35=0|34=396|49=BAADER|52=20181028-09:51:17.793|56=CATSOS|10=195|8=FIX.4.2|9=57|35=0|34=397|49=BAADER|52=20181028-09:51:47.799|56=CATSOS|10=205|8=FIX.4.2|9=57|35=0|34=398|49=BAADER|52=20181028-09:52:18.795|56=CATSOS|10=201|8=FIX.4.2|9=57|35=0|34=399|49=BAADER|52=20181028-09:52:48.794|56=CATSOS|10=204|8=FIX.4.2|9=153|35=R|34=400|49=BAADER|52=20181028-09:53:00.755|56=CATSOS|128=CITIDE|131=HackStuttgart1540720380755|146=1|55=BAADERBK|22=4|38=123|48=DE0005140008|167=OPT|10=041|8=FIX.4.2|9=153|35=R|34=401|49=BAADER|52=20181028-09:53:16.896|56=CATSOS|128=CITIDE|131=HackStuttgart1540720396895|146=1|55=BAADERBK|22=4|38=123|48=DE0005140008|167=OPT|10=067|8=FIX.4.2|9=153|35=R|34=402|49=BAADER|52=20181028-09:53:19.030|56=CATSOS|128=CITIDE|131=HackStuttgart1540720399030|146=1|55=BAADERBK|22=4|38=123|48=DE0005140008|167=OPT|10=035|8=FIX.4.2|9=57|35=0|34=403|49=BAADER|52=20181028-09:53:49.783|56=CATSOS|10=190|8=FIX.4.2|9=57|35=0|34=404|49=BAADER|52=20181028-09:54:19.794|56=CATSOS|10=191|8=FIX.4.2|9=57|35=0|34=405|49=BAADER|52=20181028-09:54:49.795|56=CATSOS|10=196|8=FIX.4.2|9=57|35=0|34=406|49=BAADER|52=20181028-09:55:19.791|56=CATSOS|10=191|8=FIX.4.2|9=57|35=0|34=407|49=BAADER|52=20181028-09:55:50.783|56=CATSOS|10=188|8=FIX.4.2|9=57|35=0|34=408|49=BAADER|52=20181028-09:56:20.792|56=CATSOS|10=187|8=FIX.4.2|9=57|35=0|34=409|49=BAADER|52=20181028-09:56:51.782|56=CATSOS|10=191|8=FIX.4.2|9=57|35=0|34=410|49=BAADER|52=20181028-09:57:21.795|56=CATSOS|10=185|8=FIX.4.2|9=57|35=0|34=411|49=BAADER|52=20181028-09:57:52.783|56=CATSOS|10=187|8=FIX.4.2|9=57|35=0|34=412|49=BAADER|52=20181028-09:58:22.787|56=CATSOS|10=190|8=FIX.4.2|9=57|35=0|34=413|49=BAADER|52=20181028-09:58:52.792|56=CATSOS|10=190|8=FIX.4.2|9=57|35=0|34=414|49=BAADER|52=20181028-09:59:22.791|56=CATSOS|10=188|8=FIX.4.2|9=57|35=0|34=415|49=BAADER|52=20181028-09:59:52.786|56=CATSOS|10=196|8=FIX.4.2|9=57|35=0|34=416|49=BAADER|52=20181028-10:00:22.791|56=CATSOS|10=168|8=FIX.4.2|9=57|35=0|34=417|49=BAADER|52=20181028-10:00:52.782|56=CATSOS|10=172|8=FIX.4.2|9=57|35=0|34=418|49=BAADER|52=20181028-10:01:22.783|56=CATSOS|10=172|8=FIX.4.2|9=153|35=R|34=419|49=BAADER|52=20181028-10:01:50.704|56=CATSOS|128=CITIDE|131=HackStuttgart1540720910704|146=1|55=BAADERBK|22=4|38=123|48=DE0005140008|167=OPT|10=028|8=FIX.4.2|9=153|35=R|34=420|49=BAADER|52=20181028-10:01:55.663|56=CATSOS|128=CITIDE|131=HackStuttgart1540720915663|146=1|55=BAADERBK|22=4|38=123|48=DE0005140008|167=OPT|10=038|8=FIX.4.2|9=153|35=R|34=421|49=BAADER|52=20181028-10:02:00.685|56=CATSOS|128=CITIDE|131=HackStuttgart1540720920685|146=1|55=BAADERBK|22=4|38=123|48=DE0005140008|167=OPT|10=034|8=FIX.4.2|9=153|35=R|34=422|49=BAADER|52=20181028-10:02:06.189|56=CATSOS|128=CITIDE|131=HackStuttgart1540720926189|146=1|55=BAADERBK|22=4|38=123|48=DE0005140008|167=OPT|10=045|8=FIX.4.2|9=57|35=0|34=423|49=BAADER|52=20181028-10:02:36.787|56=CATSOS|10=178|8=FIX.4.2|9=57|35=0|34=424|49=BAADER|52=20181028-10:03:06.790|56=CATSOS|10=171|8=FIX.4.2|9=57|35=0|34=425|49=BAADER|52=20181028-10:03:36.781|56=CATSOS|10=175|8=FIX.4.2|9=57|35=0|34=426|49=BAADER|52=20181028-10:04:06.781|56=CATSOS|10=174|8=FIX.4.2|9=69|35=A|34=427|49=BAADER|52=20181028-10:04:35.079|56=CATSOS|98=0|108=30|10=222|8=FIX.4.2|9=57|35=0|34=428|49=BAADER|52=20181028-10:05:05.071|56=CATSOS|10=168|8=FIX.4.2|9=153|35=R|34=429|49=BAADER|52=20181028-10:05:06.904|56=CATSOS|128=CITIDE|131=HackStuttgart1540721106901|146=1|55=BAADERBK|22=4|38=123|48=DE0005140008|167=OPT|10=033|8=FIX.4.2|9=57|35=0|34=430|49=BAADER|52=20181028-10:05:37.065|56=CATSOS|10=169|8=FIX.4.2|9=57|35=0|34=431|49=BAADER|52=20181028-10:06:07.062|56=CATSOS|10=165|8=FIX.4.2|9=153|35=R|34=432|49=BAADER|52=20181028-10:06:13.132|56=CATSOS|128=CITIDE|131=HackStuttgart1540721173132|146=1|55=BAADERBK|22=4|38=123|48=DE0005140008|167=OPT|10=019|8=FIX.4.2|9=57|35=0|34=433|49=BAADER|52=20181028-10:06:44.061|56=CATSOS|10=167|8=FIX.4.2|9=153|35=R|34=434|49=BAADER|52=20181028-10:07:10.142|56=CATSOS|128=CITIDE|131=HackStuttgart1540721230142|146=1|55=BAADERBK|22=4|38=123|48=DE0005140008|167=OPT|10=015|8=FIX.4.2|9=153|35=R|34=435|49=BAADER|52=20181028-10:07:15.201|56=CATSOS|128=CITIDE|131=HackStuttgart1540721235201|146=1|55=BAADERBK|22=4|38=123|48=DE0005140008|167=OPT|10=018|8=FIX.4.2|9=57|35=0|34=436|49=BAADER|52=20181028-10:07:46.067|56=CATSOS|10=179|8=FIX.4.2|9=57|35=0|34=437|49=BAADER|52=20181028-10:08:16.073|56=CATSOS|10=175|8=FIX.4.2|9=57|35=0|34=438|49=BAADER|52=20181028-10:08:46.068|56=CATSOS|10=183|8=FIX.4.2|9=57|35=0|34=439|49=BAADER|52=20181028-10:09:17.061|56=CATSOS|10=176|8=FIX.4.2|9=57|35=0|34=440|49=BAADER|52=20181028-10:09:47.066|56=CATSOS|10=176|8=FIX.4.2|9=57|35=0|34=441|49=BAADER|52=20181028-10:10:17.061|56=CATSOS|10=161|8=FIX.4.2|9=153|35=R|34=442|49=BAADER|52=20181028-10:10:27.558|56=CATSOS|128=CITIDE|131=HackStuttgart1540721427555|146=1|55=BAADERBK|22=4|38=123|48=DE0005140008|167=OPT|10=043|8=FIX.4.2|9=153|35=R|34=443|49=BAADER|52=20181028-10:10:40.090|56=CATSOS|128=CITIDE|131=HackStuttgart1540721440090|146=1|55=BAADERBK|22=4|38=123|48=DE0005140008|167=OPT|10=019|8=FIX.4.2|9=153|35=R|34=444|49=BAADER|52=20181028-10:10:58.851|56=CATSOS|128=CITIDE|131=HackStuttgart1540721458851|146=1|55=BAADERBK|22=4|38=123|48=DE0005140008|167=OPT|10=048|8=FIX.4.2|9=57|35=0|34=445|49=BAADER|52=20181028-10:11:29.060|56=CATSOS|10=168|8=FIX.4.2|9=57|35=0|34=446|49=BAADER|52=20181028-10:11:59.073|56=CATSOS|10=176|8=FIX.4.2|9=57|35=0|34=447|49=BAADER|52=20181028-10:12:29.071|56=CATSOS|10=173|8=FIX.4.2|9=57|35=0|34=448|49=BAADER|52=20181028-10:12:59.067|56=CATSOS|10=182|8=FIX.4.2|9=57|35=0|34=449|49=BAADER|52=20181028-10:13:29.066|56=CATSOS|10=180|8=FIX.4.2|9=57|35=0|34=450|49=BAADER|52=20181028-10:14:00.066|56=CATSOS|10=162|8=FIX.4.2|9=153|35=R|34=451|49=BAADER|52=20181028-10:14:20.784|56=CATSOS|128=CITIDE|131=HackStuttgart1540721660781|146=1|55=BAADERBK|22=4|38=123|48=DE0005140008|167=OPT|10=041|8=FIX.4.2|9=57|35=0|34=452|49=BAADER|52=20181028-10:14:51.071|56=CATSOS|10=166|8=FIX.4.2|9=57|35=0|34=453|49=BAADER|52=20181028-10:15:21.064|56=CATSOS|10=167|8=FIX.4.2|9=57|35=0|34=454|49=BAADER|52=20181028-10:15:51.060|56=CATSOS|10=167|8=FIX.4.2|9=57|35=0|34=455|49=BAADER|52=20181028-10:16:21.064|56=CATSOS|10=170|8=FIX.4.2|9=57|35=0|34=456|49=BAADER|52=20181028-10:16:51.060|56=CATSOS|10=170|8=FIX.4.2|9=57|35=0|34=457|49=BAADER|52=20181028-10:17:21.069|56=CATSOS|10=178|8=FIX.4.2|9=153|35=R|34=458|49=BAADER|52=20181028-10:17:31.717|56=CATSOS|128=CITIDE|131=HackStuttgart1540721851717|146=1|55=BAADERBK|22=4|38=123|48=DE0005140008|167=OPT|10=050|8=FIX.4.2|9=57|35=0|34=459|49=BAADER|52=20181028-10:18:02.060|56=CATSOS|10=171|8=FIX.4.2|9=57|35=0|34=460|49=BAADER|52=20181028-10:18:32.055|56=CATSOS|10=170|8=FIX.4.2|9=57|35=0|34=461|49=BAADER|52=20181028-10:19:02.065|56=CATSOS|10=170|8=FIX.4.2|9=57|35=0|34=462|49=BAADER|52=20181028-10:19:32.064|56=CATSOS|10=173|8=FIX.4.2|9=57|35=0|34=463|49=BAADER|52=20181028-10:20:02.071|56=CATSOS|10=161|8=FIX.4.2|9=153|35=R|34=464|49=BAADER|52=20181028-10:20:03.571|56=CATSOS|128=CITIDE|131=HackStuttgart1540722003571|146=1|55=BAADERBK|22=4|38=123|48=DE0005140008|167=OPT|10=026|8=FIX.4.2|9=57|35=0|34=465|49=BAADER|52=20181028-10:20:34.067|56=CATSOS|10=173|8=FIX.4.2|9=57|35=0|34=466|49=BAADER|52=20181028-10:21:04.063|56=CATSOS|10=168|8=FIX.4.2|9=57|35=0|34=467|49=BAADER|52=20181028-10:21:34.063|56=CATSOS|10=172|8=FIX.4.2|9=57|35=0|34=468|49=BAADER|52=20181028-10:22:04.061|56=CATSOS|10=169|8=FIX.4.2|9=57|35=0|34=469|49=BAADER|52=20181028-10:22:34.066|56=CATSOS|10=178|8=FIX.4.2|9=57|35=0|34=470|49=BAADER|52=20181028-10:23:04.070|56=CATSOS|10=163|8=FIX.4.2|9=153|35=R|34=471|49=BAADER|52=20181028-10:23:28.263|56=CATSOS|128=CITIDE|131=HackStuttgart1540722208263|146=1|55=BAADERBK|22=4|38=123|48=DE0005140008|167=OPT|10=037|8=FIX.4.2|9=57|35=0|34=472|49=BAADER|52=20181028-10:23:59.064|56=CATSOS|10=178|8=FIX.4.2|9=153|35=R|34=473|49=BAADER|52=20181028-10:24:28.793|56=CATSOS|128=CITIDE|131=HackStuttgart1540722268793|146=1|55=BAADERBK|22=4|38=123|48=DE0005140008|167=OPT|10=062|8=FIX.4.2|9=153|35=R|34=474|49=BAADER|52=20181028-10:24:33.818|56=CATSOS|128=CITIDE|131=HackStuttgart1540722273818|146=1|55=BAADERBK|22=4|38=123|48=DE0005140008|167=OPT|10=051|8=FIX.4.2|9=153|35=R|34=475|49=BAADER|52=20181028-10:24:39.720|56=CATSOS|128=CITIDE|131=HackStuttgart1540722279720|146=1|55=BAADERBK|22=4|38=123|48=DE0005140008|167=OPT|10=048|8=FIX.4.2|9=153|35=R|34=476|49=BAADER|52=20181028-10:24:51.745|56=CATSOS|128=CITIDE|131=HackStuttgart1540722291745|146=1|55=BAADERBK|22=4|38=123|48=DE0005140008|167=OPT|10=051|8=FIX.4.2|9=153|35=R|34=477|49=BAADER|52=20181028-10:24:53.869|56=CATSOS|128=CITIDE|131=HackStuttgart1540722293869|146=1|55=BAADERBK|22=4|38=123|48=DE0005140008|167=OPT|10=070|8=FIX.4.2|9=153|35=R|34=478|49=BAADER|52=20181028-10:25:01.884|56=CATSOS|128=CITIDE|131=HackStuttgart1540722301884|146=1|55=BAADERBK|22=4|38=123|48=DE0005140008|167=OPT|10=049|8=FIX.4.2|9=153|35=R|34=479|49=BAADER|52=20181028-10:25:10.913|56=CATSOS|128=CITIDE|131=HackStuttgart1540722310913|146=1|55=BAADERBK|22=4|38=123|48=DE0005140008|167=OPT|10=036|8=FIX.4.2|9=153|35=R|34=480|49=BAADER|52=20181028-10:25:13.051|56=CATSOS|128=CITIDE|131=HackStuttgart1540722313051|146=1|55=BAADERBK|22=4|38=123|48=DE0005140008|167=OPT|10=020|8=FIX.4.2|9=57|35=0|34=481|49=BAADER|52=20181028-10:25:43.059|56=CATSOS|10=177|8=FIX.4.2|9=57|35=0|34=482|49=BAADER|52=20181028-10:26:13.074|56=CATSOS|10=173|8=FIX.4.2|9=57|35=0|34=483|49=BAADER|52=20181028-10:26:43.070|56=CATSOS|10=173|8=FIX.4.2|9=57|35=0|34=484|49=BAADER|52=20181028-10:27:14.058|56=CATSOS|10=179|8=FIX.4.2|9=57|35=0|34=485|49=BAADER|52=20181028-10:27:44.057|56=CATSOS|10=182|8=FIX.4.2|9=57|35=0|34=486|49=BAADER|52=20181028-10:28:14.069|56=CATSOS|10=184|8=FIX.4.2|9=153|35=R|34=487|49=BAADER|52=20181028-10:28:30.232|56=CATSOS|128=CITIDE|131=HackStuttgart1540722510232|146=1|55=BAADERBK|22=4|38=123|48=DE0005140008|167=OPT|10=030|8=FIX.4.2|9=153|35=R|34=488|49=BAADER|52=20181028-10:28:32.410|56=CATSOS|128=CITIDE|131=HackStuttgart1540722512410|146=1|55=BAADERBK|22=4|38=123|48=DE0005140008|167=OPT|10=031|8=FIX.4.2|9=153|35=R|34=489|49=BAADER|52=20181028-10:28:57.979|56=CATSOS|128=CITIDE|131=HackStuttgart1540722537979|146=1|55=BAADERBK|22=4|38=123|48=DE0005140008|167=OPT|10=086|8=FIX.4.2|9=153|35=R|34=490|49=BAADER|52=20181028-10:29:06.780|56=CATSOS|128=CITIDE|131=HackStuttgart1540722546780|146=1|55=BAADERBK|22=4|38=123|48=DE0005140008|167=OPT|10=053|8=FIX.4.2|9=57|35=0|34=491|49=BAADER|52=20181028-10:29:37.070|56=CATSOS|10=178|8=FIX.4.2|9=153|35=R|34=492|49=BAADER|52=20181028-10:29:37.619|56=CATSOS|128=CITIDE|131=HackStuttgart1540722577619|146=1|55=BAADERBK|22=4|38=123|48=DE0005140008|167=OPT|10=065|8=FIX.4.2|9=153|35=R|34=493|49=BAADER|52=20181028-10:29:42.647|56=CATSOS|128=CITIDE|131=HackStuttgart1540722582642|146=1|55=BAADERBK|22=4|38=123|48=DE0005140008|167=OPT|10=055|8=FIX.4.2|9=153|35=R|34=494|49=BAADER|52=20181028-10:29:48.023|56=CATSOS|128=CITIDE|131=HackStuttgart1540722588023|146=1|55=BAADERBK|22=4|38=123|48=DE0005140008|167=OPT|10=049|8=FIX.4.2|9=153|35=R|34=495|49=BAADER|52=20181028-10:30:03.140|56=CATSOS|128=CITIDE|131=HackStuttgart1540722603140|146=1|55=BAADERBK|22=4|38=123|48=DE0005140008|167=OPT|10=021|8=FIX.4.2|9=153|35=R|34=496|49=BAADER|52=20181028-10:30:13.541|56=CATSOS|128=CITIDE|131=HackStuttgart1540722613541|146=1|55=BAADERBK|22=4|38=123|48=DE0005140008|167=OPT|10=034|8=FIX.4.2|9=57|35=0|34=497|49=BAADER|52=20181028-10:30:44.059|56=CATSOS|10=181|8=FIX.4.2|9=57|35=0|34=498|49=BAADER|52=20181028-10:31:14.060|56=CATSOS|10=172|8=FIX.4.2|9=153|35=R|34=499|49=BAADER|52=20181028-10:31:17.945|56=CATSOS|128=CITIDE|131=HackStuttgart1540722677945|146=1|55=BAADERBK|22=4|38=123|48=DE0005140008|167=OPT|10=068|8=FIX.4.2|9=153|35=R|34=500|49=BAADER|52=20181028-10:31:22.970|56=CATSOS|128=CITIDE|131=HackStuttgart1540722682970|146=1|55=BAADERBK|22=4|38=123|48=DE0005140008|167=OPT|10=039|8=FIX.4.2|9=153|35=R|34=501|49=BAADER|52=20181028-10:31:38.507|56=CATSOS|128=CITIDE|131=HackStuttgart1540722698507|146=1|55=BAADERBK|22=4|38=123|48=DE0005140008|167=OPT|10=046|8=FIX.4.2|9=57|35=0|34=502|49=BAADER|52=20181028-10:32:09.063|56=CATSOS|10=166|8=FIX.4.2|9=57|35=0|34=503|49=BAADER|52=20181028-10:32:39.071|56=CATSOS|10=169|8=FIX.4.2|9=57|35=0|34=504|49=BAADER|52=20181028-10:33:10.066|56=CATSOS|10=164|8=FIX.4.2|9=153|35=R|34=505|49=BAADER|52=20181028-10:33:31.854|56=CATSOS|128=CITIDE|131=HackStuttgart1540722811854|146=1|55=BAADERBK|22=4|38=123|48=DE0005140008|167=OPT|10=042|8=FIX.4.2|9=57|35=0|34=506|49=BAADER|52=20181028-10:34:02.059|56=CATSOS|10=170|8=FIX.4.2|9=57|35=0|34=507|49=BAADER|52=20181028-10:34:32.067|56=CATSOS|10=173|8=FIX.4.2|9=57|35=0|34=508|49=BAADER|52=20181028-10:35:02.067|56=CATSOS|10=172|8=FIX.4.2|9=57|35=0|34=509|49=BAADER|52=20181028-10:35:32.072|56=CATSOS|10=172|8=FIX.4.2|9=57|35=0|34=510|49=BAADER|52=20181028-10:36:02.069|56=CATSOS|10=168|8=FIX.4.2|9=153|35=R|34=511|49=BAADER|52=20181028-10:36:07.184|56=CATSOS|128=CITIDE|131=HackStuttgart1540722967184|146=1|55=BAADERBK|22=4|38=123|48=DE0005140008|167=OPT|10=049|8=FIX.4.2|9=153|35=R|34=512|49=BAADER|52=20181028-10:36:23.769|56=CATSOS|128=CITIDE|131=HackStuttgart1540722983769|146=1|55=BAADERBK|22=4|38=123|48=DE0005140008|167=OPT|10=064|8=FIX.4.2|9=57|35=0|34=513|49=BAADER|52=20181028-10:36:54.067|56=CATSOS|10=176|8=FIX.4.2|9=153|35=R|34=514|49=BAADER|52=20181028-10:37:20.447|56=CATSOS|128=CITIDE|131=HackStuttgart1540723040447|146=1|55=BAADERBK|22=4|38=123|48=DE0005140008|167=OPT|10=035|8=FIX.4.2|9=57|35=0|34=515|49=BAADER|52=20181028-10:37:51.083|56=CATSOS|10=174|8=FIX.4.2|9=57|35=0|34=516|49=BAADER|52=20181028-10:38:22.069|56=CATSOS|10=178|8=FIX.4.2|9=57|35=0|34=517|49=BAADER|52=20181028-10:38:53.054|56=CATSOS|10=177|8=FIX.4.2|9=57|35=0|34=518|49=BAADER|52=20181028-10:39:23.068|56=CATSOS|10=181|8=FIX.4.2|9=57|35=0|34=519|49=BAADER|52=20181028-10:39:53.059|56=CATSOS|10=185|8=FIX.4.2|9=57|35=0|34=520|49=BAADER|52=20181028-10:40:23.059|56=CATSOS|10=166|8=FIX.4.2|9=57|35=0|34=521|49=BAADER|52=20181028-10:40:53.069|56=CATSOS|10=171|8=FIX.4.2|9=57|35=0|34=522|49=BAADER|52=20181028-10:41:23.070|56=CATSOS|10=162|8=FIX.4.2|9=57|35=0|34=523|49=BAADER|52=20181028-10:41:53.069|56=CATSOS|10=174|8=FIX.4.2|9=57|35=0|34=524|49=BAADER|52=20181028-10:42:23.069|56=CATSOS|10=173|8=FIX.4.2|9=57|35=0|34=525|49=BAADER|52=20181028-10:42:53.061|56=CATSOS|10=169|8=FIX.4.2|9=57|35=0|34=526|49=BAADER|52=20181028-10:43:23.070|56=CATSOS|10=168|8=FIX.4.2|9=57|35=0|34=527|49=BAADER|52=20181028-10:43:53.066|56=CATSOS|10=177|8=FIX.4.2|9=57|35=0|34=528|49=BAADER|52=20181028-10:44:23.059|56=CATSOS|10=178|8=FIX.4.2|9=57|35=0|34=529|49=BAADER|52=20181028-10:44:53.061|56=CATSOS|10=175|8=FIX.4.2|9=57|35=0|34=530|49=BAADER|52=20181028-10:45:23.069|56=CATSOS|10=173|8=FIX.4.2|9=57|35=0|34=531|49=BAADER|52=20181028-10:45:54.060|56=CATSOS|10=169|8=FIX.4.2|9=57|35=0|34=532|49=BAADER|52=20181028-10:46:24.072|56=CATSOS|10=171|8=FIX.4.2|9=57|35=0|34=533|49=BAADER|52=20181028-10:46:55.061|56=CATSOS|10=174|8=FIX.4.2|9=57|35=0|34=534|49=BAADER|52=20181028-10:47:25.057|56=CATSOS|10=178|8=FIX.4.2|9=57|35=0|34=535|49=BAADER|52=20181028-10:47:55.059|56=CATSOS|10=184|8=FIX.4.2|9=57|35=0|34=536|49=BAADER|52=20181028-10:48:25.070|56=CATSOS|10=176|8=FIX.4.2|9=57|35=0|34=537|49=BAADER|52=20181028-10:48:56.069|56=CATSOS|10=189|8=FIX.4.2|9=57|35=0|34=538|49=BAADER|52=20181028-10:49:27.059|56=CATSOS|10=188|8=FIX.4.2|9=57|35=0|34=539|49=BAADER|52=20181028-10:49:57.065|56=CATSOS|10=189|8=FIX.4.2|9=57|35=0|34=540|49=BAADER|52=20181028-10:50:27.068|56=CATSOS|10=173|8=FIX.4.2|9=57|35=0|34=541|49=BAADER|52=20181028-10:50:57.060|56=CATSOS|10=169|8=FIX.4.2|9=57|35=0|34=542|49=BAADER|52=20181028-10:51:27.064|56=CATSOS|10=172|8=FIX.4.2|9=57|35=0|34=543|49=BAADER|52=20181028-10:51:57.069|56=CATSOS|10=181|8=FIX.4.2|9=57|35=0|34=544|49=BAADER|52=20181028-10:52:28.060|56=CATSOS|10=172|8=FIX.4.2|9=57|35=0|34=545|49=BAADER|52=20181028-10:52:58.060|56=CATSOS|10=176|8=FIX.4.2|9=57|35=0|34=546|49=BAADER|52=20181028-10:53:28.074|56=CATSOS|10=180|8=FIX.4.2|9=57|35=0|34=547|49=BAADER|52=20181028-10:53:59.058|56=CATSOS|10=187|8=FIX.4.2|9=57|35=0|34=548|49=BAADER|52=20181028-10:54:29.060|56=CATSOS|10=179|8=FIX.4.2|9=153|35=R|34=549|49=BAADER|52=20181028-10:54:56.564|56=CATSOS|128=CITIDE|131=HackStuttgart1540724096564|146=1|55=BAADERBK|22=4|38=123|48=DE0005140008|167=OPT|10=063|8=FIX.4.2|9=153|35=R|34=550|49=BAADER|52=20181028-10:55:17.485|56=CATSOS|128=CITIDE|131=HackStuttgart1540724117485|146=1|55=BAADERBK|22=4|38=123|48=DE0005140008|167=OPT|10=051|8=FIX.4.2|9=57|35=0|34=551|49=BAADER|52=20181028-10:55:48.069|56=CATSOS|10=184|8=FIX.4.2|9=153|35=R|34=552|49=BAADER|52=20181028-10:56:06.379|56=CATSOS|128=CITIDE|131=HackStuttgart1540724166378|146=1|55=BAADERBK|22=4|38=123|48=DE0005140008|167=OPT|10=059|8=FIX.4.2|9=153|35=R|34=553|49=BAADER|52=20181028-10:56:32.598|56=CATSOS|128=CITIDE|131=HackStuttgart1540724192589|146=1|55=BAADERBK|22=4|38=123|48=DE0005140008|167=OPT|10=065|8=FIX.4.2|9=57|35=0|34=554|49=BAADER|52=20181028-10:57:03.056|56=CATSOS|10=176|8=FIX.4.2|9=57|35=0|34=555|49=BAADER|52=20181028-10:57:33.063|56=CATSOS|10=178|8=FIX.4.2|9=57|35=0|34=556|49=BAADER|52=20181028-10:58:03.069|56=CATSOS|10=183|8=FIX.4.2|9=57|35=0|34=557|49=BAADER|52=20181028-10:58:34.060|56=CATSOS|10=179|8=FIX.4.2|9=57|35=0|34=558|49=BAADER|52=20181028-10:59:04.059|56=CATSOS|10=186|8=FIX.4.2|9=57|35=0|34=559|49=BAADER|52=20181028-10:59:34.067|56=CATSOS|10=189|8=FIX.4.2|9=57|35=0|34=560|49=BAADER|52=20181028-11:00:04.060|56=CATSOS|10=158|8=FIX.4.2|9=57|35=0|34=561|49=BAADER|52=20181028-11:00:34.069|56=CATSOS|10=171|8=FIX.4.2|9=57|35=0|34=562|49=BAADER|52=20181028-11:01:04.069|56=CATSOS|10=170|8=FIX.4.2|9=57|35=0|34=563|49=BAADER|52=20181028-11:01:34.063|56=CATSOS|10=168|8=FIX.4.2|9=57|35=0|34=564|49=BAADER|52=20181028-11:02:04.061|56=CATSOS|10=165|8=FIX.4.2|9=57|35=0|34=565|49=BAADER|52=20181028-11:02:34.059|56=CATSOS|10=176|8=FIX.4.2|9=57|35=0|34=566|49=BAADER|52=20181028-11:03:04.058|56=CATSOS|10=174|8=FIX.4.2|9=57|35=0|34=567|49=BAADER|52=20181028-11:03:34.068|56=CATSOS|10=179|8=FIX.4.2|9=57|35=0|34=568|49=BAADER|52=20181028-11:04:05.068|56=CATSOS|10=179|8=FIX.4.2|9=57|35=0|34=569|49=BAADER|52=20181028-11:04:35.063|56=CATSOS|10=178|8=FIX.4.2|9=57|35=0|34=570|49=BAADER|52=20181028-11:05:05.062|56=CATSOS|10=167|8=FIX.4.2|9=57|35=0|34=571|49=BAADER|52=20181028-11:05:35.065|56=CATS