8=FIX.4.2|9=68|35=A|34=1|49=CITIFFT|52=20181027-10:10:33.714|56=CATSOS|98=0|108=30|10=209|8=FIX.4.2|9=113|35=D|34=2|49=CITIFFT|52=20181027-10:10:34.802|56=CATSOS|11=342|21=1|40=1|54=1|55=6758.T|60=20181027-12:10:34.795|10=116|8=FIX.4.2|9=56|35=0|34=3|49=CITIFFT|52=20181027-10:11:04.828|56=CATSOS|10=171|8=FIX.4.2|9=56|35=0|34=4|49=CITIFFT|52=20181027-10:11:34.827|56=CATSOS|10=174|8=FIX.4.2|9=56|35=0|34=5|49=CITIFFT|52=20181027-10:12:04.827|56=CATSOS|10=173|8=FIX.4.2|9=56|35=0|34=6|49=CITIFFT|52=20181027-10:12:34.827|56=CATSOS|10=177|8=FIX.4.2|9=56|35=0|34=7|49=CITIFFT|52=20181027-10:13:04.825|56=CATSOS|10=174|8=FIX.4.2|9=56|35=0|34=8|49=CITIFFT|52=20181027-10:13:34.834|56=CATSOS|10=178|8=FIX.4.2|9=56|35=0|34=9|49=CITIFFT|52=20181027-10:14:05.690|56=CATSOS|10=178|8=FIX.4.2|9=57|35=0|34=10|49=CITIFFT|52=20181027-10:14:35.690|56=CATSOS|10=222|8=FIX.4.2|9=57|35=0|34=11|49=CITIFFT|52=20181027-10:15:05.693|56=CATSOS|10=224|8=FIX.4.2|9=57|35=0|34=12|49=CITIFFT|52=20181027-10:15:35.700|56=CATSOS|10=217|8=FIX.4.2|9=57|35=0|34=13|49=CITIFFT|52=20181027-10:16:05.702|56=CATSOS|10=218|8=FIX.4.2|9=57|35=0|34=14|49=CITIFFT|52=20181027-10:16:36.690|56=CATSOS|10=229|8=FIX.4.2|9=57|35=0|34=15|49=CITIFFT|52=20181027-10:17:06.690|56=CATSOS|10=228|8=FIX.4.2|9=57|35=0|34=16|49=CITIFFT|52=20181027-10:17:36.690|56=CATSOS|10=232|8=FIX.4.2|9=57|35=0|34=17|49=CITIFFT|52=20181027-10:18:06.690|56=CATSOS|10=231|8=FIX.4.2|9=57|35=0|34=18|49=CITIFFT|52=20181027-10:18:36.689|56=CATSOS|10=243|8=FIX.4.2|9=57|35=0|34=19|49=CITIFFT|52=20181027-10:19:06.703|56=CATSOS|10=229|8=FIX.4.2|9=57|35=0|34=20|49=CITIFFT|52=20181027-10:19:37.693|56=CATSOS|10=233|8=FIX.4.2|9=57|35=0|34=21|49=CITIFFT|52=20181027-10:20:07.709|56=CATSOS|10=221|8=FIX.4.2|9=57|35=0|34=22|49=CITIFFT|52=20181027-10:20:38.689|56=CATSOS|10=233|8=FIX.4.2|9=57|35=0|34=23|49=CITIFFT|52=20181027-10:21:08.703|56=CATSOS|10=219|8=FIX.4.2|9=57|35=0|34=24|49=CITIFFT|52=20181027-10:21:38.713|56=CATSOS|10=224|8=FIX.4.2|9=57|35=0|34=25|49=CITIFFT|52=20181027-10:22:09.689|56=CATSOS|10=236|8=FIX.4.2|9=57|35=0|34=26|49=CITIFFT|52=20181027-10:22:39.703|56=CATSOS|10=227|8=FIX.4.2|9=57|35=0|34=27|49=CITIFFT|52=20181027-10:23:10.690|56=CATSOS|10=223|8=FIX.4.2|9=57|35=0|34=28|49=CITIFFT|52=20181027-10:23:40.693|56=CATSOS|10=230|8=FIX.4.2|9=57|35=0|34=29|49=CITIFFT|52=20181027-10:24:10.703|56=CATSOS|10=221|8=FIX.4.2|9=57|35=0|34=30|49=CITIFFT|52=20181027-10:24:40.700|56=CATSOS|10=213|8=FIX.4.2|9=57|35=0|34=31|49=CITIFFT|52=20181027-10:25:11.689|56=CATSOS|10=229|8=FIX.4.2|9=57|35=0|34=32|49=CITIFFT|52=20181027-10:25:41.691|56=CATSOS|10=226|8=FIX.4.2|9=57|35=0|34=33|49=CITIFFT|52=20181027-10:26:11.689|56=CATSOS|10=232|8=FIX.4.2|9=57|35=0|34=34|49=CITIFFT|52=20181027-10:26:41.699|56=CATSOS|10=237|8=FIX.4.2|9=57|35=0|34=35|49=CITIFFT|52=20181027-10:27:12.689|56=CATSOS|10=236|8=FIX.4.2|9=57|35=0|34=36|49=CITIFFT|52=20181027-10:27:42.687|56=CATSOS|10=238|8=FIX.4.2|9=57|35=0|34=37|49=CITIFFT|52=20181027-10:28:12.699|56=CATSOS|10=240|8=FIX.4.2|9=57|35=0|34=38|49=CITIFFT|52=20181027-10:28:42.691|56=CATSOS|10=236|8=FIX.4.2|9=57|35=0|34=39|49=CITIFFT|52=20181027-10:29:12.702|56=CATSOS|10=228|8=FIX.4.2|9=57|35=0|34=40|49=CITIFFT|52=20181027-10:29:43.689|56=CATSOS|10=238|8=FIX.4.2|9=57|35=0|34=41|49=CITIFFT|52=20181027-10:30:13.698|56=CATSOS|10=228|8=FIX.4.2|9=57|35=0|34=42|49=CITIFFT|52=20181027-10:30:43.702|56=CATSOS|10=218|8=FIX.4.2|9=57|35=0|34=43|49=CITIFFT|52=20181027-10:31:13.698|56=CATSOS|10=231|8=FIX.4.2|9=57|35=0|34=44|49=CITIFFT|52=20181027-10:31:43.692|56=CATSOS|10=229|8=FIX.4.2|9=57|35=0|34=45|49=CITIFFT|52=20181027-10:32:13.689|56=CATSOS|10=234|8=FIX.4.2|9=57|35=0|34=46|49=CITIFFT|52=20181027-10:32:43.699|56=CATSOS|10=239|8=FIX.4.2|9=57|35=0|34=47|49=CITIFFT|52=20181027-10:33:14.689|56=CATSOS|10=238|8=FIX.4.2|9=57|35=0|34=48|49=CITIFFT|52=20181027-10:33:44.699|56=CATSOS|10=243|8=FIX.4.2|9=57|35=0|34=49|49=CITIFFT|52=20181027-10:34:15.689|56=CATSOS|10=242|8=FIX.4.2|9=57|35=0|34=50|49=CITIFFT|52=20181027-10:34:45.689|56=CATSOS|10=237|8=FIX.4.2|9=57|35=0|34=51|49=CITIFFT|52=20181027-10:35:15.698|56=CATSOS|10=236|8=FIX.4.2|9=57|35=0|34=52|49=CITIFFT|52=20181027-10:35:45.699|56=CATSOS|10=241|8=FIX.4.2|9=57|35=0|34=53|49=CITIFFT|52=20181027-10:36:15.699|56=CATSOS|10=240|8=FIX.4.2|9=57|35=0|34=54|49=CITIFFT|52=20181027-10:36:46.689|56=CATSOS|10=244|8=FIX.4.2|9=57|35=0|34=55|49=CITIFFT|52=20181027-10:37:16.699|56=CATSOS|10=244|8=FIX.4.2|9=57|35=0|34=56|49=CITIFFT|52=20181027-10:37:46.698|56=CATSOS|10=247|8=FIX.4.2|9=57|35=0|34=57|49=CITIFFT|52=20181027-10:38:17.699|56=CATSOS|10=248|8=FIX.4.2|9=57|35=0|34=58|49=CITIFFT|52=20181027-10:38:47.697|56=CATSOS|10=250|8=FIX.4.2|9=57|35=0|34=59|49=CITIFFT|52=20181027-10:39:17.699|56=CATSOS|10=251|8=FIX.4.2|9=57|35=0|34=60|49=CITIFFT|52=20181027-10:39:48.691|56=CATSOS|10=239|8=FIX.4.2|9=57|35=0|34=61|49=CITIFFT|52=20181027-10:40:18.703|56=CATSOS|10=223|8=FIX.4.2|9=57|35=0|34=62|49=CITIFFT|52=20181027-10:40:49.691|56=CATSOS|10=234|8=FIX.4.2|9=57|35=0|34=63|49=CITIFFT|52=20181027-10:41:19.700|56=CATSOS|10=224|8=FIX.4.2|9=57|35=0|34=64|49=CITIFFT|52=20181027-10:41:50.692|56=CATSOS|10=230|8=FIX.4.2|9=57|35=0|34=65|49=CITIFFT|52=20181027-10:42:20.698|56=CATSOS|10=235|8=FIX.4.2|9=69|35=A|34=66|49=CITIFFT|52=20181027-10:56:43.168|56=CATSOS|98=0|108=30|10=027|8=FIX.4.2|9=129|35=R|34=67|49=CITIFFT|52=20181027-10:56:44.178|56=CATSOS|22=4|38=123.45|48=DE0005140008|55=MM1|131=HackathonStuttgart-1234|146=1|10=190|8=FIX.4.2|9=129|35=R|34=68|49=CITIFFT|52=20181027-10:56:49.219|56=CATSOS|22=4|38=123.45|48=DE0005140008|55=MM1|131=HackathonStuttgart-1234|146=1|10=192|8=FIX.4.2|9=57|35=0|34=69|49=CITIFFT|52=20181027-10:57:19.243|56=CATSOS|10=239|8=FIX.4.2|9=69|35=A|34=70|49=CITIFFT|52=20181027-11:05:37.011|56=CATSOS|98=0|108=30|10=007|8=FIX.4.2|9=69|35=A|34=71|49=CITIFFT|52=20181027-11:06:06.987|56=CATSOS|98=0|108=30|10=027|8=FIX.4.2|9=69|35=A|34=72|49=CITIFFT|52=20181027-11:07:27.617|56=CATSOS|98=0|108=30|10=022|8=FIX.4.2|9=69|35=A|34=73|49=CITIFFT|52=20181027-11:08:37.622|56=CATSOS|98=0|108=30|10=021|8=FIX.4.2|9=69|35=A|34=74|49=CITIFFT|52=20181027-11:09:07.611|56=CATSOS|98=0|108=30|10=018|8=FIX.4.2|9=69|35=A|34=75|49=CITIFFT|52=20181027-11:09:59.013|56=CATSOS|98=0|108=30|10=022|8=FIX.4.2|9=69|35=A|34=76|49=CITIFFT|52=20181027-11:12:01.101|56=CATSOS|98=0|108=30|10=002|8=FIX.4.2|9=69|35=A|34=77|49=CITIFFT|52=20181027-11:12:31.075|56=CATSOS|98=0|108=30|10=016|8=FIX.4.2|9=69|35=A|34=78|49=CITIFFT|52=20181027-11:23:43.784|56=CATSOS|98=0|108=30|10=029|8=FIX.4.2|9=69|35=A|34=79|49=CITIFFT|52=20181027-11:24:13.754|56=CATSOS|98=0|108=30|10=025|8=FIX.4.2|9=69|35=A|34=80|49=CITIFFT|52=20181027-11:24:43.756|56=CATSOS|98=0|108=30|10=022|69|35=A|34=81|49=CITIFFT|52=20181027-11:24:17.510|56=CATSOS|98=0|108=30|10=012|8=FIX.4.2|9=57|35=5|34=82|49=CITIFFT|52=20181027-11:24:17.538|56=CATSOS|10=239|8=FIX.4.2|9=69|35=A|34=83|49=CITIFFT|52=20181027-11:24:47.511|56=CATSOS|98=0|108=30|10=018|8=FIX.4.2|9=57|35=5|34=84|49=CITIFFT|52=20181027-11:24:47.541|56=CATSOS|10=238|8=FIX.4.2|9=69|35=A|34=85|49=CITIFFT|52=20181027-11:28:07.505|56=CATSOS|98=0|108=30|10=023|8=FIX.4.2|9=69|35=A|34=86|49=CITIFFT|52=20181027-11:28:51.517|56=CATSOS|98=0|108=30|10=026|8=FIX.4.2|9=69|35=A|34=87|49=CITIFFT|52=20181027-11:29:21.495|56=CATSOS|98=0|108=30|10=030|8=FIX.4.2|9=69|35=A|34=88|49=CITIFFT|52=20181027-11:30:17.687|56=CATSOS|98=0|108=30|10=031|8=FIX.4.2|9=69|35=A|34=89|49=CITIFFT|52=20181027-11:35:58.836|56=CATSOS|98=0|108=30|10=038|8=FIX.4.2|9=69|35=A|34=90|49=CITIFFT|52=20181027-11:40:49.232|56=CATSOS|98=0|108=30|10=016|8=FIX.4.2|9=69|35=A|34=91|49=CITIFFT|52=20181027-11:41:31.965|56=CATSOS|98=0|108=30|10=022|8=FIX.4.2|9=69|35=A|34=92|49=CITIFFT|52=20181027-11:51:43.621|56=CATSOS|98=0|108=30|10=016|8=FIX.4.2|9=107|35=5|34=93|49=CITIFFT|52=20181027-11:51:43.803|56=CATSOS|58=MsgSeqNum too low, expecting 70 but received 1|10=227|8=FIX.4.2|9=69|35=A|34=94|49=CITIFFT|52=20181027-12:39:31.912|56=CATSOS|98=0|108=30|10=025|8=FIX.4.2|9=107|35=5|34=95|49=CITIFFT|52=20181027-12:39:31.929|56=CATSOS|58=MsgSeqNum too low, expecting 70 but received 1|10=242|8=FIX.4.2|9=69|35=A|34=96|49=CITIFFT|52=20181027-12:51:12.025|56=CATSOS|98=0|108=30|10=015|8=FIX.4.2|9=107|35=5|34=97|49=CITIFFT|52=20181027-12:51:12.052|56=CATSOS|58=MsgSeqNum too low, expecting 70 but received 3|10=226|8=FIX.4.2|9=69|35=A|34=98|49=CITIFFT|52=20181027-12:51:42.025|56=CATSOS|98=0|108=30|10=020|8=FIX.4.2|9=107|35=5|34=99|49=CITIFFT|52=20181027-12:51:42.036|56=CATSOS|58=MsgSeqNum too low, expecting 70 but received 5|10=235|8=FIX.4.2|9=70|35=A|34=100|49=CITIFFT|52=20181027-14:05:41.713|56=CATSOS|98=0|108=30|10=048|8=FIX.4.2|9=108|35=5|34=101|49=CITIFFT|52=20181027-14:05:41.735|56=CATSOS|58=MsgSeqNum too low, expecting 70 but received 7|10=020|8=FIX.4.2|9=70|35=A|34=102|49=CITIFFT|52=20181027-14:06:11.707|56=CATSOS|98=0|108=30|10=051|8=FIX.4.2|9=108|35=5|34=103|49=CITIFFT|52=20181027-14:06:11.728|56=CATSOS|58=MsgSeqNum too low, expecting 70 but received 9|10=024|8=FIX.4.2|9=70|35=A|34=104|49=CITIFFT|52=20181027-14:06:41.714|56=CATSOS|98=0|108=30|10=054|8=FIX.4.2|9=109|35=5|34=105|49=CITIFFT|52=20181027-14:06:41.733|56=CATSOS|58=MsgSeqNum too low, expecting 70 but received 11|10=067|8=FIX.4.2|9=70|35=A|34=106|49=CITIFFT|52=20181027-14:07:22.507|56=CATSOS|98=0|108=30|10=056|8=FIX.4.2|9=109|35=5|34=107|49=CITIFFT|52=20181027-14:07:22.542|56=CATSOS|58=MsgSeqNum too low, expecting 70 but received 13|10=069|8=FIX.4.2|9=70|35=A|34=108|49=CITIFFT|52=20181027-14:08:11.735|56=CATSOS|98=0|108=30|10=060|8=FIX.4.2|9=109|35=5|34=109|49=CITIFFT|52=20181027-14:08:11.895|56=CATSOS|58=MsgSeqNum too low, expecting 70 but received 15|10=083|8=FIX.4.2|9=70|35=A|34=110|49=CITIFFT|52=20181027-14:08:41.707|56=CATSOS|98=0|108=30|10=055|8=FIX.4.2|9=109|35=5|34=111|49=CITIFFT|52=20181027-14:08:41.736|56=CATSOS|58=MsgSeqNum too low, expecting 70 but received 17|10=075|8=FIX.4.2|9=70|35=A|34=112|49=CITIFFT|52=20181027-14:10:16.678|56=CATSOS|98=0|108=30|10=059|8=FIX.4.2|9=109|35=5|34=113|49=CITIFFT|52=20181027-14:10:16.803|56=CATSOS|58=MsgSeqNum too low, expecting 70 but received 19|10=069|8=FIX.4.2|9=70|35=A|34=114|49=CITIFFT|52=20181027-14:10:43.367|56=CATSOS|98=0|108=30|10=056|8=FIX.4.2|9=109|35=5|34=115|49=CITIFFT|52=20181027-14:10:43.525|56=CATSOS|58=MsgSeqNum too low, expecting 70 but received 21|10=065|8=FIX.4.2|9=70|35=A|34=116|49=CITIFFT|52=20181027-14:18:18.132|56=CATSOS|98=0|108=30|10=058|8=FIX.4.2|9=58|35=0|34=117|49=CITIFFT|52=20181027-14:18:48.397|56=CATSOS|10=039|8=FIX.4.2|9=70|35=A|34=118|49=CITIFFT|52=20181027-14:23:16.678|56=CATSOS|98=0|108=30|10=069|8=FIX.4.2|9=70|35=A|34=119|49=CITIFFT|52=20181027-14:23:41.906|56=CATSOS|98=0|108=30|10=062|8=FIX.4.2|9=70|35=A|34=120|49=CITIFFT|52=20181027-14:24:16.751|56=CATSOS|98=0|108=30|10=055|8=FIX.4.2|9=58|35=0|34=121|49=CITIFFT|52=20181027-14:24:46.759|56=CATSOS|10=031|8=FIX.4.2|9=70|35=A|34=122|49=CITIFFT|52=20181027-14:25:10.474|56=CATSOS|98=0|108=30|10=054|8=FIX.4.2|9=58|35=0|34=123|49=CITIFFT|52=20181027-14:25:40.466|56=CATSOS|10=023|8=FIX.4.2|9=58|35=0|34=124|49=CITIFFT|52=20181027-14:26:10.465|56=CATSOS|10=021|8=FIX.4.2|9=58|35=0|34=125|49=CITIFFT|52=20181027-14:26:40.472|56=CATSOS|10=023|8=FIX.4.2|9=58|35=0|34=126|49=CITIFFT|52=20181027-14:27:10.477|56=CATSOS|10=027|8=FIX.4.2|9=70|35=A|34=127|49=CITIFFT|52=20181027-14:52:28.379|56=CATSOS|98=0|108=30|10=072|8=FIX.4.2|9=70|35=A|34=128|49=CITIFFT|52=20181027-14:54:07.146|56=CATSOS|98=0|108=30|10=064|8=FIX.4.2|9=58|35=0|34=129|49=CITIFFT|52=20181027-14:54:37.142|56=CATSOS|10=028|8=FIX.4.2|9=58|35=0|34=130|49=CITIFFT|52=20181027-14:55:07.160|56=CATSOS|10=018|8=FIX.4.2|9=58|35=0|34=131|49=CITIFFT|52=20181027-14:55:37.158|56=CATSOS|10=029|8=FIX.4.2|9=58|35=0|34=132|49=CITIFFT|52=20181027-14:56:07.166|56=CATSOS|10=027|8=FIX.4.2|9=58|35=0|34=133|49=CITIFFT|52=20181027-14:56:37.165|56=CATSOS|10=030|8=FIX.4.2|9=58|35=0|34=134|49=CITIFFT|52=20181027-14:57:07.169|56=CATSOS|10=033|8=FIX.4.2|9=58|35=0|34=135|49=CITIFFT|52=20181027-14:57:37.166|56=CATSOS|10=034|8=FIX.4.2|9=70|35=A|34=136|49=CITIFFT|52=20181027-14:59:20.160|56=CATSOS|98=0|108=30|10=059|8=FIX.4.2|9=58|35=0|34=137|49=CITIFFT|52=20181027-14:59:50.173|56=CATSOS|10=031|8=FIX.4.2|9=58|35=0|34=138|49=CITIFFT|52=20181027-15:00:20.180|56=CATSOS|10=014|8=FIX.4.2|9=58|35=0|34=139|49=CITIFFT|52=20181027-15:00:50.180|56=CATSOS|10=018|8=FIX.4.2|9=58|35=0|34=140|49=CITIFFT|52=20181027-15:01:20.181|56=CATSOS|10=009|8=FIX.4.2|9=58|35=0|34=141|49=CITIFFT|52=20181027-15:01:50.181|56=CATSOS|10=013|8=FIX.4.2|9=70|35=A|34=142|49=CITIFFT|52=20181027-15:02:32.689|56=CATSOS|98=0|108=30|10=064|8=FIX.4.2|9=58|35=0|34=143|49=CITIFFT|52=20181027-15:03:02.690|56=CATSOS|10=019|8=FIX.4.2|9=70|35=A|34=144|49=CITIFFT|52=20181027-15:03:38.793|56=CATSOS|98=0|108=30|10=069|8=FIX.4.2|9=58|35=0|34=145|49=CITIFFT|52=20181027-15:04:08.789|56=CATSOS|10=037|8=FIX.4.2|9=58|35=0|34=146|49=CITIFFT|52=20181027-15:04:38.797|56=CATSOS|10=040|8=FIX.4.2|9=58|35=0|34=147|49=CITIFFT|52=20181027-15:05:08.790|56=CATSOS|10=032|8=FIX.4.2|9=58|35=0|34=148|49=CITIFFT|52=20181027-15:05:38.800|56=CATSOS|10=028|8=FIX.4.2|9=58|35=0|34=149|49=CITIFFT|52=20181027-15:06:08.811|56=CATSOS|10=029|8=FIX.4.2|9=70|35=A|34=150|49=CITIFFT|52=20181027-15:20:01.706|56=CATSOS|98=0|108=30|10=049|8=FIX.4.2|9=58|35=0|34=151|49=CITIFFT|52=20181027-15:20:31.702|56=CATSOS|10=013|8=FIX.4.2|9=58|35=0|34=152|49=CITIFFT|52=20181027-15:21:01.702|56=CATSOS|10=012|8=FIX.4.2|9=58|35=0|34=153|49=CITIFFT|52=20181027-15:21:31.699|56=CATSOS|10=031|8=FIX.4.2|9=58|35=0|34=154|49=CITIFFT|52=20181027-15:22:01.699|56=CATSOS|10=030|8=FIX.4.2|9=58|35=0|34=155|49=CITIFFT|52=20181027-15:22:31.714|56=CATSOS|10=022|8=FIX.4.2|9=58|35=0|34=156|49=CITIFFT|52=20181027-15:23:01.712|56=CATSOS|10=019|8=FIX.4.2|9=58|35=0|34=157|49=CITIFFT|52=20181027-15:23:32.701|56=CATSOS|10=022|8=FIX.4.2|9=90|35=0|34=158|49=CITIFFT|52=20181027-15:23:38.915|56=CATSOS|112=Appia-20181027-15:23:44.921|10=061|8=FIX.4.2|9=58|35=0|34=159|49=CITIFFT|52=20181027-15:24:09.708|56=CATSOS|10=036|8=FIX.4.2|9=58|35=0|34=160|49=CITIFFT|52=20181027-15:24:39.709|56=CATSOS|10=032|8=FIX.4.2|9=58|35=0|34=161|49=CITIFFT|52=20181027-15:25:09.703|56=CATSOS|10=025|8=FIX.4.2|9=58|35=0|34=162|49=CITIFFT|52=20181027-15:25:39.703|56=CATSOS|10=029|8=FIX.4.2|9=58|35=0|34=163|49=CITIFFT|52=20181027-15:26:09.698|56=CATSOS|10=041|8=FIX.4.2|9=67|35=1|34=164|49=CITIFFT|52=20181027-15:26:36.702|56=CATSOS|112=TEST|10=047|8=FIX.4.2|9=70|35=A|34=165|49=CITIFFT|52=20181027-15:27:10.696|56=CATSOS|98=0|108=30|10=070|8=FIX.4.2|9=69|35=2|34=166|49=CITIFFT|52=20181027-15:27:12.749|56=CATSOS|7=120|16=0|10=005|8=FIX.4.2|9=58|35=0|34=167|49=CITIFFT|52=20181027-15:27:45.106|56=CATSOS|10=030|8=FIX.4.2|9=90|35=0|34=168|49=CITIFFT|52=20181027-15:28:07.951|56=CATSOS|112=Appia-20181027-15:27:55.963|10=075|8=FIX.4.2|9=58|35=0|34=169|49=CITIFFT|52=20181027-15:28:38.698|56=CATSOS|10=051|8=FIX.4.2|9=67|35=1|34=170|49=CITIFFT|52=20181027-15:28:53.709|56=CATSOS|112=TEST|10=052|8=FIX.4.2|9=58|35=0|34=171|49=CITIFFT|52=20181027-15:29:23.708|56=CATSOS|10=031|8=FIX.4.2|9=67|35=1|34=172|49=CITIFFT|52=20181027-15:29:45.728|56=CATSOS|112=TEST|10=057|8=FIX.4.2|9=70|35=A|34=173|49=CITIFFT|52=20181027-15:30:17.705|56=CATSOS|98=0|108=30|10=061|8=FIX.4.2|9=70|35=A|34=174|49=CITIFFT|52=20181027-15:30:47.727|56=CATSOS|98=0|108=30|10=069|8=FIX.4.2|9=69|35=2|34=175|49=CITIFFT|52=20181027-15:30:51.184|56=CATSOS|7=129|16=0|10=004|8=FIX.4.2|9=58|35=0|34=176|49=CITIFFT|52=20181027-15:31:21.717|56=CATSOS|10=027|8=FIX.4.2|9=58|35=0|34=177|49=CITIFFT|52=20181027-15:31:52.708|56=CATSOS|10=032|8=FIX.4.2|9=67|35=1|34=178|49=CITIFFT|52=20181027-15:32:16.712|56=CATSOS|112=TEST|10=048|8=FIX.4.2|9=70|35=A|34=179|49=CITIFFT|52=20181027-15:32:47.231|56=CATSOS|98=0|108=30|10=066|8=FIX.4.2|9=69|35=2|34=180|49=CITIFFT|52=20181027-15:32:49.937|56=CATSOS|7=134|16=0|10=011|8=FIX.4.2|9=58|35=0|34=181|49=CITIFFT|52=20181027-15:33:19.965|56=CATSOS|10=037|8=FIX.4.2|9=58|35=0|34=182|49=CITIFFT|52=20181027-15:33:49.966|56=CATSOS|10=042|8=FIX.4.2|9=58|35=0|34=183|49=CITIFFT|52=20181027-15:34:19.965|56=CATSOS|10=040|8=FIX.4.2|9=58|35=0|34=184|49=CITIFFT|52=20181027-15:34:49.967|56=CATSOS|10=046|8=FIX.4.2|9=58|35=0|34=185|49=CITIFFT|52=20181027-15:35:19.967|56=CATSOS|10=045|8=FIX.4.2|9=70|35=A|34=186|49=CITIFFT|52=20181027-15:35:45.356|56=CATSOS|98=0|108=30|10=073|8=FIX.4.2|9=58|35=0|34=187|49=CITIFFT|52=20181027-15:36:16.347|56=CATSOS|10=037|8=FIX.4.2|9=58|35=0|34=188|49=CITIFFT|52=20181027-15:36:46.350|56=CATSOS|10=035|8=FIX.4.2|9=58|35=0|34=189|49=CITIFFT|52=20181027-15:37:16.348|56=CATSOS|10=041|8=FIX.4.2|9=70|35=A|34=190|49=CITIFFT|52=20181027-15:44:23.647|56=CATSOS|98=0|108=30|10=067|8=FIX.4.2|9=147|35=S|34=191|49=CITIFFT|52=20181027-15:44:24.663|56=CATSOS|22=|48=|55=|107=|131=QuoteID789|132=123.56|133=134.56|134=10|135=12|167=|200=|205=|231=1|10=081|8=FIX.4.2|9=58|35=0|34=192|49=CITIFFT|52=20181027-15:44:54.726|56=CATSOS|10=035|8=FIX.4.2|9=70|35=A|34=193|49=CITIFFT|52=20181027-16:08:31.898|56=CATSOS|98=0|108=30|10=078|8=FIX.4.2|9=191|35=S|34=194|49=CITIFFT|52=20181027-16:08:32.894|56=CATSOS|22=4|48=DE0005140008|55=BAADERBK|107=DE0005140008|131=QuoteID789|132=123.56|133=134.56|134=10|135=12|167=OPT|200=205012|205=31|231=1|10=048|8=FIX.4.2|9=58|35=0|34=195|49=CITIFFT|52=20181027-16:09:02.966|56=CATSOS|10=039|8=FIX.4.2|9=70|35=A|34=196|49=CITIFFT|52=20181027-16:11:17.167|56=CATSOS|98=0|108=30|10=068|8=FIX.4.2|9=191|35=S|34=197|49=CITIFFT|52=20181027-16:11:18.183|56=CATSOS|22=4|48=DE0005140008|55=BAADERBK|107=DE0005140008|131=QuoteID789|132=123.56|133=134.56|134=10|135=12|167=OPT|200=205012|205=31|231=1|10=040|8=FIX.4.2|9=58|35=0|34=198|49=CITIFFT|52=20181027-16:11:48.176|56=CATSOS|10=038|8=FIX.4.2|9=70|35=A|34=199|49=CITIFFT|52=20181027-16:13:44.114|56=CATSOS|98=0|108=30|10=065|8=FIX.4.2|9=58|35=0|34=200|49=CITIFFT|52=20181027-16:14:15.103|56=CATSOS|10=009|8=FIX.4.2|9=58|35=0|34=201|49=CITIFFT|52=20181027-16:14:45.104|56=CATSOS|10=014|8=FIX.4.2|9=70|35=A|34=202|49=CITIFFT|52=20181027-16:15:15.317|56=CATSOS|98=0|108=30|10=055|8=FIX.4.2|9=58|35=0|34=203|49=CITIFFT|52=20181027-16:15:45.316|56=CATSOS|10=022|8=FIX.4.2|9=58|35=0|34=204|49=CITIFFT|52=20181027-16:16:15.336|56=CATSOS|10=023|8=FIX.4.2|9=70|35=A|34=205|49=CITIFFT|52=20181027-16:17:17.903|56=CATSOS|98=0|108=30|10=063|8=FIX.4.2|9=58|35=0|34=206|49=CITIFFT|52=20181027-16:17:47.907|56=CATSOS|10=035|8=FIX.4.2|9=58|35=0|34=207|49=CITIFFT|52=20181027-16:18:17.906|56=CATSOS|10=033|8=FIX.4.2|9=58|35=0|34=208|49=CITIFFT|52=20181027-16:18:47.908|56=CATSOS|10=039|8=FIX.4.2|9=70|35=A|34=209|49=CITIFFT|52=20181027-16:19:09.205|56=CATSOS|98=0|108=30|10=065|8=FIX.4.2|9=58|35=0|34=210|49=CITIFFT|52=20181027-16:19:39.210|56=CATSOS|10=020|8=FIX.4.2|9=58|35=0|34=211|49=CITIFFT|52=20181027-16:20:09.201|56=CATSOS|10=010|8=FIX.4.2|9=70|35=A|34=212|49=CITIFFT|52=20181027-16:20:25.378|56=CATSOS|98=0|108=30|10=060|8=FIX.4.2|9=58|35=0|34=213|49=CITIFFT|52=20181027-16:20:55.381|56=CATSOS|10=022|8=FIX.4.2|9=58|35=0|34=214|49=CITIFFT|52=20181027-16:21:26.369|56=CATSOS|10=028|8=FIX.4.2|9=70|35=A|34=215|49=CITIFFT|52=20181027-16:23:50.594|56=CATSOS|98=0|108=30|10=064|8=FIX.4.2|9=70|35=A|34=216|49=CITIFFT|52=20181027-16:29:37.249|56=CATSOS|98=0|108=30|10=073|8=FIX.4.2|9=58|35=0|34=217|49=CITIFFT|52=20181027-16:30:07.246|56=CATSOS|10=024|8=FIX.4.2|9=58|35=0|34=218|49=CITIFFT|52=20181027-16:30:37.251|56=CATSOS|10=024|8=FIX.4.2|9=58|35=0|34=219|49=CITIFFT|52=20181027-16:31:07.260|56=CATSOS|10=023|8=FIX.4.2|9=58|35=0|34=220|49=CITIFFT|52=20181027-16:31:38.243|56=CATSOS|10=020|8=FIX.4.2|9=58|35=0|34=221|49=CITIFFT|52=20181027-16:32:08.260|56=CATSOS|10=018|8=FIX.4.2|9=58|35=0|34=222|49=CITIFFT|52=20181027-16:32:38.256|56=CATSOS|10=027|8=FIX.4.2|9=70|35=A|34=223|49=CITIFFT|52=20181027-16:39:27.045|56=CATSOS|98=0|108=30|10=065|8=FIX.4.2|9=58|35=0|34=224|49=CITIFFT|52=20181027-16:39:57.055|56=CATSOS|10=034|8=FIX.4.2|9=70|35=A|34=225|49=CITIFFT|52=20181027-16:55:19.241|56=CATSOS|98=0|108=30|10=064|8=FIX.4.2|9=58|35=0|34=226|49=CITIFFT|52=20181027-16:55:49.232|56=CATSOS|10=032|8=FIX.4.2|9=70|35=A|34=227|49=CITIFFT|52=20181027-16:56:27.011|56=CATSOS|98=0|108=30|10=061|8=FIX.4.2|9=195|35=S|34=228|49=CITIFFT|52=20181027-16:56:28.468|56=CATSOS|22=4|48=DE0005140008|55=BAADERBK|107=DE0005140008|131=18102799000215|132=123.56|133=134.56|134=10|135=12|167=OPT|200=205012|205=31|231=1|10=193|8=FIX.4.2|9=195|35=S|34=228|49=CITIFFT|52=20181027-16:56:28.468|56=CATSOS|22=4|48=DE0005140008|55=BAADERBK|107=DE0005140008|131=18102799000215|132=123.56|133=134.56|134=10|135=12|167=OPT|200=205012|205=31|231=1|10=193|8=FIX.4.2|9=195|35=S|34=228|49=CITIFFT|52=20181027-16:56:28.468|56=CATSOS|22=4|48=DE0005140008|55=BAADERBK|107=DE0005140008|131=18102799000215|132=123.56|133=134.56|134=10|135=12|167=OPT|200=205012|205=31|231=1|10=193|8=FIX.4.2|9=195|35=S|34=228|49=CITIFFT|52=20181027-16:56:28.468|56=CATSOS|22=4|48=DE0005140008|55=BAADERBK|107=DE0005140008|131=18102799000215|132=123.56|133=134.56|134=10|135=12|167=OPT|200=205012|205=31|231=1|10=193|8=FIX.4.2|9=195|35=S|34=228|49=CITIFFT|52=20181027-16:56:28.468|56=CATSOS|22=4|48=DE0005140008|55=BAADERBK|107=DE0005140008|131=18102799000215|132=123.56|133=134.56|134=10|135=12|167=OPT|200=205012|205=31|231=1|10=193|8=FIX.4.2|9=195|35=S|34=228|49=CITIFFT|52=20181027-16:56:28.468|56=CATSOS|22=4|48=DE0005140008|55=BAADERBK|107=DE0005140008|131=18102799000215|132=123.56|133=134.56|134=10|135=12|167=OPT|200=205012|205=31|231=1|10=193|8=FIX.4.2|9=195|35=S|34=228|49=CITIFFT|52=20181027-16:56:28.468|56=CATSOS|22=4|48=DE0005140008|55=BAADERBK|107=DE0005140008|131=18102799000215|132=123.56|133=134.56|134=10|135=12|167=OPT|200=205012|205=31|231=1|10=193|8=FIX.4.2|9=195|35=S|34=228|49=CITIFFT|52=20181027-16:56:28.468|56=CATSOS|22=4|48=DE0005140008|55=BAADERBK|107=DE0005140008|131=18102799000215|132=123.56|133=134.56|134=10|135=12|167=OPT|200=205012|205=31|231=1|10=193|8=FIX.4.2|9=195|35=S|34=228|49=CITIFFT|52=20181027-16:56:28.468|56=CATSOS|22=4|48=DE0005140008|55=BAADERBK|107=DE0005140008|131=18102799000215|132=123.56|133=134.56|134=10|135=12|167=OPT|200=205012|205=31|231=1|10=193|8=FIX.4.2|9=195|35=S|34=228|49=CITIFFT|52=20181027-16:56:28.468|56=CATSOS|22=4|48=DE0005140008|55=BAADERBK|107=DE0005140008|131=18102799000215|132=123.56|133=134.56|134=10|135=12|167=OPT|200=205012|205=31|231=1|10=193|8=FIX.4.2|9=195|35=S|34=228|49=CITIFFT|52=20181027-16:56:28.468|56=CATSOS|22=4|48=DE0005140008|55=BAADERBK|107=DE0005140008|131=18102799000215|132=123.56|133=134.56|134=10|135=12|167=OPT|200=205012|205=31|231=1|10=193|8=FIX.4.2|9=195|35=S|34=228|49=CITIFFT|52=20181027-16:56:28.468|56=CATSOS|22=4|48=DE0005140008|55=BAADERBK|107=DE0005140008|131=18102799000215|132=123.56|133=134.56|134=10|135=12|167=OPT|200=205012|205=31|231=1|10=193|8=FIX.4.2|9=195|35=S|34=228|49=CITIFFT|52=20181027-16:56:28.468|56=CATSOS|22=4|48=DE0005140008|55=BAADERBK|107=DE0005140008|131=18102799000215|132=123.56|133=134.56|134=10|135=12|167=OPT|200=205012|205=31|231=1|10=193|8=FIX.4.2|9=195|35=S|34=228|49=CITIFFT|52=20181027-16:56:28.464|56=CATSOS|22=4|48=DE0005140008|55=BAADERBK|107=DE0005140008|131=18102799000215|132=123.56|133=134.56|134=10|135=12|167=OPT|200=205012|205=31|231=1|10=189|8=FIX.4.2|9=195|35=S|34=228|49=CITIFFT|52=20181027-16:56:28.464|56=CATSOS|22=4|48=DE0005140008|55=BAADERBK|107=DE0005140008|131=18102799000215|132=123.56|133=134.56|134=10|135=12|167=OPT|200=205012|205=31|231=1|10=189|8=FIX.4.2|9=195|35=S|34=228|49=CITIFFT|52=20181027-16:56:28.464|56=CATSOS|22=4|48=DE0005140008|55=BAADERBK|107=DE0005140008|131=18102799000215|132=123.56|133=134.56|134=10|135=12|167=OPT|200=205012|205=31|231=1|10=189|8=FIX.4.2|9=195|35=S|34=228|49=CITIFFT|52=20181027-16:56:28.464|56=CATSOS|22=4|48=DE0005140008|55=BAADERBK|107=DE0005140008|131=18102799000215|132=123.56|133=134.56|134=10|135=12|167=OPT|200=205012|205=31|231=1|10=189|8=FIX.4.2|9=195|35=S|34=228|49=CITIFFT|52=20181027-16:56:28.464|56=CATSOS|22=4|48=DE0005140008|55=BAADERBK|107=DE0005140008|131=18102799000215|132=123.56|133=134.56|134=10|135=12|167=OPT|200=205012|205=31|231=1|10=189|8=FIX.4.2|9=195|35=S|34=228|49=CITIFFT|52=20181027-16:56:28.464|56=CATSOS|22=4|48=DE0005140008|55=BAADERBK|107=DE0005140008|131=18102799000215|132=123.56|133=134.56|134=10|135=12|167=OPT|200=205012|205=31|231=1|10=189|8=FIX.4.2|9=195|35=S|34=228|49=CITIFFT|52=20181027-16:56:28.464|56=CATSOS|22=4|48=DE0005140008|55=BAADERBK|107=DE0005140008|131=18102799000215|132=123.56|133=134.56|134=10|135=12|167=OPT|200=205012|205=31|231=1|10=189|8=FIX.4.2|9=195|35=S|34=228|49=CITIFFT|52=20181027-16:56:28.464|56=CATSOS|22=4|48=DE0005140008|55=BAADERBK|107=DE0005140008|131=18102799000215|132=123.56|133=134.56|134=10|135=12|167=OPT|200=205012|205=31|231=1|10=189|8=FIX.4.2|9=195|35=S|34=228|49=CITIFFT|52=20181027-16:56:28.464|56=CATSOS|22=4|48=DE0005140008|55=BAADERBK|107=DE0005140008|131=18102799000215|132=123.56|133=134.56|134=10|135=12|167=OPT|200=205012|205=31|231=1|10=189|8=FIX.4.2|9=195|35=S|34=228|49=CITIFFT|52=20181027-16:56:28.464|56=CATSOS|22=4|48=DE0005140008|55=BAADERBK|107=DE0005140008|131=18102799000215|132=123.56|133=134.56|134=10|135=12|167=OPT|200=205012|205=31|231=1|10=189|8=FIX.4.2|9=195|35=S|34=228|49=CITIFFT|52=20181027-16:56:28.464|56=CATSOS|22=4|48=DE0005140008|55=BAADERBK|107=DE0005140008|131=18102799000215|132=123.56|133=134.56|134=10|135=12|167=OPT|200=205012|205=31|231=1|10=189|8=FIX.4.2|9=195|35=S|34=228|49=CITIFFT|52=20181027-16:56:28.464|56=CATSOS|22=4|48=DE0005140008|55=BAADERBK|107=DE0005140008|131=18102799000215|132=123.56|133=134.56|134=10|135=12|167=OPT|200=205012|205=31|231=1|10=189|8=FIX.4.2|9=195|35=S|34=228|49=CITIFFT|52=20181027-16:56:28.464|56=CATSOS|22=4|48=DE0005140008|55=BAADERBK|107=DE0005140008|131=18102799000215|132=123.56|133=134.56|134=10|135=12|167=OPT|200=205012|205=31|231=1|10=189|8=FIX.4.2|9=195|35=S|34=228|49=CITIFFT|52=20181027-16:56:28.464|56=CATSOS|22=4|48=DE0005140008|55=BAADERBK|107=DE0005140008|131=18102799000215|132=123.56|133=134.56|134=10|135=12|167=OPT|200=205012|205=31|231=1|10=189|8=FIX.4.2|9=195|35=S|34=228|49=CITIFFT|52=20181027-16:56:28.464|56=CATSOS|22=4|48=DE0005140008|55=BAADERBK|107=DE0005140008|131=18102799000215|132=123.56|133=134.56|134=10|135=12|167=OPT|200=205012|205=31|231=1|10=189|8=FIX.4.2|9=195|35=S|34=228|49=CITIFFT|52=20181027-16:56:28.464|56=CATSOS|22=4|48=DE0005140008|55=BAADERBK|107=DE0005140008|131=18102799000215|132=123.56|133=134.56|134=10|135=12|167=OPT|200=205012|205=31|231=1|10=189|8=FIX.4.2|9=195|35=S|34=228|49=CITIFFT|52=20181027-16:56:28.464|56=CATSOS|22=4|48=DE0005140008|55=BAADERBK|107=DE0005140008|131=18102799000215|132=123.56|133=134.56|134=10|135=12|167=OPT|200=205012|205=31|231=1|10=189|8=FIX.4.2|9=195|35=S|34=228|49=CITIFFT|52=20181027-16:56:28.464|56=CATSOS|22=4|48=DE0005140008|55=BAADERBK|107=DE0005140008|131=18102799000215|132=123.56|133=134.56|134=10|135=12|167=OPT|200=205012|205=31|231=1|10=189|8=FIX.4.2|9=195|35=S|34=228|49=CITIFFT|52=20181027-16:56:28.464|56=CATSOS|22=4|48=DE0005140008|55=BAADERBK|107=DE0005140008|131=18102799000215|132=123.56|133=134.56|134=10|135=12|167=OPT|200=205012|205=31|231=1|10=189|8=FIX.4.2|9=195|35=S|34=228|49=CITIFFT|52=20181027-16:56:28.464|56=CATSOS|22=4|48=DE0005140008|55=BAADERBK|107=DE0005140008|131=18102799000215|132=123.56|133=134.56|134=10|135=12|167=OPT|200=205012|205=31|231=1|10=189|8=FIX.4.2|9=195|35=S|34=228|49=CITIFFT|52=20181027-16:56:28.464|56=CATSOS|22=4|48=DE0005140008|55=BAADERBK|107=DE0005140008|131=18102799000215|132=123.56|133=134.56|134=10|135=12|167=OPT|200=205012|205=31|231=1|10=189|8=FIX.4.2|9=195|35=S|34=228|49=CITIFFT|52=20181027-16:56:28.464|56=CATSOS|22=4|48=DE0005140008|55=BAADERBK|107=DE0005140008|131=18102799000215|132=123.56|133=134.56|134=10|135=12|167=OPT|200=205012|205=31|231=1|10=189|8=FIX.4.2|9=195|35=S|34=228|49=CITIFFT|52=20181027-16:56:28.464|56=CATSOS|22=4|48=DE0005140008|55=BAADERBK|107=DE0005140008|131=18102799000215|132=123.56|133=134.56|134=10|135=12|167=OPT|200=205012|205=31|231=1|10=189|8=FIX.4.2|9=195|35=S|34=228|49=CITIFFT|52=20181027-16:56:28.464|56=CATSOS|22=4|48=DE0005140008|55=BAADERBK|107=DE0005140008|131=18102799000215|132=123.56|133=134.56|134=10|135=12|167=OPT|200=205012|205=31|231=1|10=189|8=FIX.4.2|9=195|35=S|34=228|49=CITIFFT|52=20181027-16:56:28.464|56=CATSOS|22=4|48=DE0005140008|55=BAADERBK|107=DE0005140008|131=18102799000215|132=123.56|133=134.56|134=10|135=12|167=OPT|200=205012|205=31|231=1|10=189|8=FIX.4.2|9=195|35=S|34=228|49=CITIFFT|52=20181027-16:56:28.464|56=CATSOS|22=4|48=DE0005140008|55=BAADERBK|107=DE0005140008|131=18102799000215|132=123.56|133=134.56|134=10|135=12|167=OPT|200=205012|205=31|231=1|10=189|8=FIX.4.2|9=195|35=S|34=228|49=CITIFFT|52=20181027-16:56:28.464|56=CATSOS|22=4|48=DE0005140008|55=BAADERBK|107=DE0005140008|131=18102799000215|132=123.56|133=134.56|134=10|135=12|167=OPT|200=205012|205=31|231=1|10=189|8=FIX.4.2|9=195|35=S|34=228|49=CITIFFT|52=20181027-16:56:28.464|56=CATSOS|22=4|48=DE0005140008|55=BAADERBK|107=DE0005140008|131=18102799000215|132=123.56|133=134.56|134=10|135=12|167=OPT|200=205012|205=31|231=1|10=189|8=FIX.4.2|9=195|35=S|34=228|49=CITIFFT|52=20181027-16:56:28.464|56=CATSOS|22=4|48=DE0005140008|55=BAADERBK|107=DE0005140008|131=18102799000215|132=123.56|133=134.56|134=10|135=12|167=OPT|200=205012|205=31|231=1|10=189|8=FIX.4.2|9=195|35=S|34=228|49=CITIFFT|52=20181027-16:56:28.464|56=CATSOS|22=4|48=DE0005140008|55=BAADERBK|107=DE0005140008|131=18102799000215|132=123.56|133=134.56|134=10|135=12|167=OPT|200=205012|205=31|231=1|10=189|8=FIX.4.2|9=195|35=S|34=228|49=CITIFFT|52=20181027-16:56:28.464|56=CATSOS|22=4|48=DE0005140008|55=BAADERBK|107=DE0005140008|131=18102799000215|132=123.56|133=134.56|134=10|135=12|167=OPT|200=205012|205=31|231=1|10=189|8=FIX.4.2|9=195|35=S|34=228|49=CITIFFT|52=20181027-16:56:28.464|56=CATSOS|22=4|48=DE0005140008|55=BAADERBK|107=DE0005140008|131=18102799000215|132=123.56|133=134.56|134=10|135=12|167=OPT|200=205012|205=31|231=1|10=189|8=FIX.4.2|9=195|35=S|34=228|49=CITIFFT|52=20181027-16:56:28.464|56=CATSOS|22=4|48=DE0005140008|55=BAADERBK|107=DE0005140008|131=18102799000215|132=123.56|133=134.56|134=10|135=12|167=OPT|200=205012|205=31|231=1|10=189|8=FIX.4.2|9=195|35=S|34=228|49=CITIFFT|52=20181027-16:56:28.464|56=CATSOS|22=4|48=DE0005140008|55=BAADERBK|107=DE0005140008|131=18102799000215|132=123.56|133=134.56|134=10|135=12|167=OPT|200=205012|205=31|231=1|10=189|8=FIX.4.2|9=195|35=S|34=228|49=CITIFFT|52=20181027-16:56:28.464|56=CATSOS|22=4|48=DE0005140008|55=BAADERBK|107=DE0005140008|131=18102799000215|132=123.56|133=134.56|134=10|135=12|167=OPT|200=205012|205=31|231=1|10=189|8=FIX.4.2|9=195|35=S|34=228|49=CITIFFT|52=20181027-16:56:28.464|56=CATSOS|22=4|48=DE0005140008|55=BAADERBK|107=DE0005140008|131=18102799000215|132=123.56|133=134.56|134=10|135=12|167=OPT|200=205012|205=31|231=1|10=189|8=FIX.4.2|9=195|35=S|34=228|49=CITIFFT|52=20181027-16:56:28.464|56=CATSOS|22=4|48=DE0005140008|55=BAADERBK|107=DE0005140008|131=18102799000215|132=123.56|133=134.56|134=10|135=12|167=OPT|200=205012|205=31|231=1|10=189|8=FIX.4.2|9=195|35=S|34=228|49=CITIFFT|52=20181027-16:56:28.464|56=CATSOS|22=4|48=DE0005140008|55=BAADERBK|107=DE0005140008|131=18102799000215|132=123.56|133=134.56|134=10|135=12|167=OPT|200=205012|205=31|231=1|10=189|8=FIX.4.2|9=195|35=S|34=228|49=CITIFFT|52=20181027-16:56:28.464|56=CATSOS|22=4|48=DE0005140008|55=BAADERBK|107=DE0005140008|131=18102799000215|132=123.56|133=134.56|134=10|135=12|167=OPT|200=205012|205=31|231=1|10=189|8=FIX.4.2|9=195|35=S|34=228|49=CITIFFT|52=20181027-16:56:28.464|56=CATSOS|22=4|48=DE0005140008|55=BAADERBK|107=DE0005140008|131=18102799000215|132=123.56|133=134.56|134=10|135=12|167=OPT|200=205012|205=31|231=1|10=189|8=FIX.4.2|9=195|35=S|34=228|49=CITIFFT|52=20181027-16:56:28.464|56=CATSOS|22=4|48=DE0005140008|55=BAADERBK|107=DE0005140008|131=18102799000215|132=123.56|133=134.56|134=10|135=12|167=OPT|200=205012|205=31|231=1|10=189|8=FIX.4.2|9=195|35=S|34=228|49=CITIFFT|52=20181027-16:56:28.464|56=CATSOS|22=4|48=DE0005140008|55=BAADERBK|107=DE0005140008|131=18102799000215|132=123.56|133=134.56|134=10|135=12|167=OPT|200=205012|205=31|231=1|10=189|8=FIX.4.2|9=195|35=S|34=228|49=CITIFFT|52=20181027-16:56:28.464|56=CATSOS|22=4|48=DE0005140008|55=BAADERBK|107=DE0005140008|131=18102799000215|132=123.56|133=134.56|134=10|135=12|167=OPT|200=205012|205=31|231=1|10=189|8=FIX.4.2|9=195|35=S|34=228|49=CITIFFT|52=20181027-16:56:28.464|56=CATSOS|22=4|48=DE0005140008|55=BAADERBK|107=DE0005140008|131=18102799000215|132=123.56|133=134.56|134=10|135=12|167=OPT|200=205012|205=31|231=1|10=189|8=FIX.4.2|9=195|35=S|34=228|49=CITIFFT|52=20181027-16:56:28.464|56=CATSOS|22=4|48=DE0005140008|55=BAADERBK|107=DE0005140008|131=18102799000215|132=123.56|133=134.56|134=10|135=12|167=OPT|200=205012|205=31|231=1|10=189|8=FIX.4.2|9=195|35=S|34=228|49=CITIFFT|52=20181027-16:56:28.464|56=CATSOS|22=4|48=DE0005140008|55=BAADERBK|107=DE0005140008|131=18102799000215|132=123.56|133=134.56|134=10|135=12|167=OPT|200=205012|205=31|231=1|10=189|8=FIX.4.2|9=195|35=S|34=228|49=CITIFFT|52=20181027-16:56:28.464|56=CATSOS|22=4|48=DE0005140008|55=BAADERBK|107=DE0005140008|131=18102799000215|132=123.56|133=134.56|134=10|135=12|167=OPT|200=205012|205=31|231=1|10=189|8=FIX.4.2|9=195|35=S|34=228|49=CITIFFT|52=20181027-16:56:28.464|56=CATSOS|22=4|48=DE0005140008|55=BAADERBK|107=DE0005140008|131=18102799000215|132=123.56|133=134.56|134=10|135=12|167=OPT|200=205012|205=31|231=1|10=189|8=FIX.4.2|9=195|35=S|34=228|49=CITIFFT|52=20181027-16:56:28.464|56=CATSOS|22=4|48=DE0005140008|55=BAADERBK|107=DE0005140008|131=18102799000215|132=123.56|133=134.56|134=10|135=12|167=OPT|200=205012|205=31|231=1|10=189|8=FIX.4.2|9=195|35=S|34=228|49=CITIFFT|52=20181027-16:56:28.464|56=CATSOS|22=4|48=DE0005140008|55=BAADERBK|107=DE0005140008|131=18102799000215|132=123.56|133=134.56|134=10|135=12|167=OPT|200=205012|205=31|231=1|10=189|8=FIX.4.2|9=195|35=S|34=228|49=CITIFFT|52=20181027-16:56:28.464|56=CATSOS|22=4|48=DE0005140008|55=BAADERBK|107=DE0005140008|131=18102799000215|132=123.56|133=134.56|134=10|135=12|167=OPT|200=205012|205=31|231=1|10=189|8=FIX.4.2|9=195|35=S|34=228|49=CITIFFT|52=20181027-16:56:28.464|56=CATSOS|22=4|48=DE0005140008|55=BAADERBK|107=DE0005140008|131=18102799000215|132=123.56|133=134.56|134=10|135=12|167=OPT|200=205012|205=31|231=1|10=189|8=FIX.4.2|9=195|35=S|34=228|49=CITIFFT|52=20181027-16:56:28.464|56=CATSOS|22=4|48=DE0005140008|55=BAADERBK|107=DE0005140008|131=18102799000215|132=123.56|133=134.56|134=10|135=12|167=OPT|200=205012|205=31|231=1|10=189|8=FIX.4.2|9=195|35=S|34=228|49=CITIFFT|52=20181027-16:56:28.464|56=CATSOS|22=4|48=DE0005140008|55=BAADERBK|107=DE0005140008|131=18102799000215|132=123.56|133=134.56|134=10|135=12|167=OPT|200=205012|205=31|231=1|10=189|8=FIX.4.2|9=195|35=S|34=228|49=CITIFFT|52=20181027-16:56:28.464|56=CATSOS|22=4|48=DE0005140008|55=BAADERBK|107=DE0005140008|131=18102799000215|132=123.56|133=134.56|134=10|135=12|167=OPT|200=205012|205=31|231=1|10=189|8=FIX.4.2|9=195|35=S|34=228|49=CITIFFT|52=20181027-16:56:28.464|56=CATSOS|22=4|48=DE0005140008|55=BAADERBK|107=DE0005140008|131=18102799000215|132=123.56|133=134.56|134=10|135=12|167=OPT|200=205012|205=31|231=1|10=189|8=FIX.4.2|9=195|35=S|34=228|49=CITIFFT|52=20181027-16:56:28.464|56=CATSOS|22=4|48=DE0005140008|55=BAADERBK|107=DE0005140008|131=18102799000215|132=123.56|133=134.56|134=10|135=12|167=OPT|200=205012|205=31|231=1|10=189|8=FIX.4.2|9=195|35=S|34=228|49=CITIFFT|52=20181027-16:56:28.464|56=CATSOS|22=4|48=DE0005140008|55=BAADERBK|107=DE0005140008|131=18102799000215|132=123.56|133=134.56|134=10|135=12|167=OPT|200=205012|205=31|231=1|10=189|8=FIX.4.2|9=195|35=S|34=228|49=CITIFFT|52=20181027-16:56:28.464|56=CATSOS|22=4|48=DE0005140008|55=BAADERBK|107=DE0005140008|131=18102799000215|132=123.56|133=134.56|134=10|135=12|167=OPT|200=205012|205=31|231=1|10=189|8=FIX.4.2|9=195|35=S|34=228|49=CITIFFT|52=20181027-16:56:28.464|56=CATSOS|22=4|48=DE0005140008|55=BAADERBK|107=DE0005140008|131=18102799000215|132=123.56|133=134.56|134=10|135=12|167=OPT|200=205012|205=31|231=1|10=189|8=FIX.4.2|9=195|35=S|34=228|49=CITIFFT|52=20181027-16:56:28.464|56=CATSOS|22=4|48=DE0005140008|55=BAADERBK|107=DE0005140008|131=18102799000215|132=123.56|133=134.56|134=10|135=12|167=OPT|200=205012|205=31|231=1|10=189|8=FIX.4.2|9=195|35=S|34=228|49=CITIFFT|52=20181027-16:56:28.464|56=CATSOS|22=4|48=DE0005140008|55=BAADERBK|107=DE0005140008|131=18102799000215|132=123.56|133=134.56|134=10|135=12|167=OPT|200=205012|205=31|231=1|10=189|8=FIX.4.2|9=195|35=S|34=228|49=CITIFFT|52=20181027-16:56:28.464|56=CATSOS|22=4|48=DE0005140008|55=BAADERBK|107=DE0005140008|131=18102799000215|132=123.56|133=134.56|134=10|135=12|167=OPT|200=205012|205=31|231=1|10=189|8=FIX.4.2|9=195|35=S|34=228|49=CITIFFT|52=20181027-16:56:28.464|56=CATSOS|22=4|48=DE0005140008|55=BAADERBK|107=DE0005140008|131=18102799000215|132=123.56|133=134.56|134=10|135=12|167=OPT|200=205012|205=31|231=1|10=189|8=FIX.4.2|9=195|35=S|34=228|49=CITIFFT|52=20181027-16:56:28.464|56=CATSOS|22=4|48=DE0005140008|55=BAADERBK|107=DE0005140008|131=18102799000215|132=123.56|133=134.56|134=10|135=12|167=OPT|200=205012|205=31|231=1|10=189|8=FIX.4.2|9=195|35=S|34=228|49=CITIFFT|52=20181027-16:56:28.464|56=CATSOS|22=4|48=DE0005140008|55=BAADERBK|107=DE0005140008|131=18102799000215|132=123.56|133=134.56|134=10|135=12|167=OPT|200=205012|205=31|231=1|10=189|8=FIX.4.2|9=195|35=S|34=228|49=CITIFFT|52=20181027-16:56:28.464|56=CATSOS|22=4|48=DE0005140008|55=BAADERBK|107=DE0005140008|131=18102799000215|132=123.56|133=134.56|134=10|135=12|167=OPT|200=205012|205=31|231=1|10=189|8=FIX.4.2|9=195|35=S|34=228|49=CITIFFT|52=20181027-16:56:28.464|56=CATSOS|22=4|48=DE0005140008|55=BAADERBK|107=DE0005140008|131=18102799000215|132=123.56|133=134.56|134=10|135=12|167=OPT|200=205012|205=31|231=1|10=189|8=FIX.4.2|9=195|35=S|34=228|49=CITIFFT|52=20181027-16:56:28.459|56=CATSOS|22=4|48=DE0005140008|55=BAADERBK|107=DE0005140008|131=18102799000215|132=123.56|133=134.56|134=10|135=12|167=OPT|200=205012|205=31|231=1|10=193|8=FIX.4.2|9=195|35=S|34=228|49=CITIFFT|52=20181027-16:56:28.459|56=CATSOS|22=4|48=DE0005140008|55=BAADERBK|107=DE0005140008|131=18102799000215|132=123.56|133=134.56|134=10|135=12|167=OPT|200=205012|205=31|231=1|10=193|8=FIX.4.2|9=195|35=S|34=228|49=CITIFFT|52=20181027-16:56:28.459|56=CATSOS|22=4|48=DE0005140008|55=BAADERBK|107=DE0005140008|131=18102799000215|132=123.56|133=134.56|134=10|135=12|167=OPT|200=205012|205=31|231=1|10=193|8=FIX.4.2|9=195|35=S|34=228|49=CITIFFT|52=20181027-16:56:28.459|56=CATSOS|22=4|48=DE0005140008|55=BAADERBK|107=DE0005140008|131=18102799000215|132=123.56|133=134.56|134=10|135=12|167=OPT|200=205012|205=31|231=1|10=193|8=FIX.4.2|9=195|35=S|34=228|49=CITIFFT|52=20181027-16:56:28.459|56=CATSOS|22=4|48=DE0005140008|55=BAADERBK|107=DE0005140008|131=18102799000215|132=123.56|133=134.56|134=10|135=12|167=OPT|200=205012|205=31|231=1|10=193|8=FIX.4.2|9=195|35=S|34=228|49=CITIFFT|52=20181027-16:56:28.459|56=CATSOS|22=4|48=DE0005140008|55=BAADERBK|107=DE0005140008|131=18102799000215|132=123.56|133=134.56|134=10|135=12|167=OPT|200=205012|205=31|231=1|10=193|8=FIX.4.2|9=195|35=S|34=228|49=CITIFFT|52=20181027-16:56:28.459|56=CATSOS|22=4|48=DE0005140008|55=BAADERBK|107=DE0005140008|131=18102799000215|132=123.56|133=134.56|134=10|135=12|167=OPT|200=205012|205=31|231=1|10=193|8=FIX.4.2|9=195|35=S|34=228|49=CITIFFT|52=20181027-16:56:28.459|56=CATSOS|22=4|48=DE0005140008|55=BAADERBK|107=DE0005140008|131=18102799000215|132=123.56|133=134.56|134=10|135=12|167=OPT|200=205012|205=31|231=1|10=193|8=FIX.4.2|9=195|35=S|34=228|49=CITIFFT|52=20181027-16:56:28.459|56=CATSOS|22=4|48=DE0005140008|55=BAADERBK|107=DE0005140008|131=18102799000215|132=123.56|133=134.56|134=10|135=12|167=OPT|200=205012|205=31|231=1|10=193|8=FIX.4.2|9=195|35=S|34=228|49=CITIFFT|52=20181027-16:56:28.459|56=CATSOS|22=4|48=DE0005140008|55=BAADERBK|107=DE0005140008|131=18102799000215|132=123.56|133=134.56|134=10|135=12|167=OPT|200=205012|205=31|231=1|10=193|8=FIX.4.2|9=195|35=S|34=228|49=CITIFFT|52=20181027-16:56:28.459|56=CATSOS|22=4|48=DE0005140008|55=BAADERBK|107=DE0005140008|131=18102799000215|132=123.56|133=134.56|134=10|135=12|167=OPT|200=205012|205=31|231=1|10=193|8=FIX.4.2|9=195|35=S|34=228|49=CITIFFT|52=20181027-16:56:28.459|56=CATSOS|22=4|48=DE0005140008|55=BAADERBK|107=DE0005140008|131=18102799000215|132=123.56|133=134.56|134=10|135=12|167=OPT|200=205012|205=31|231=1|10=193|8=FIX.4.2|9=195|35=S|34=228|49=CITIFFT|52=20181027-16:56:28.459|56=CATSOS|22=4|48=DE0005140008|55=BAADERBK|107=DE0005140008|131=18102799000215|132=123.56|133=134.56|134=10|135=12|167=OPT|200=205012|205=31|231=1|10=193|8=FIX.4.2|9=195|35=S|34=228|49=CITIFFT|52=20181027-16:56:28.459|56=CATSOS|22=4|48=DE0005140008|55=BAADERBK|107=DE0005140008|131=18102799000215|132=123.56|133=134.56|134=10|135=12|167=OPT|200=205012|205=31|231=1|10=193|8=FIX.4.2|9=195|35=S|34=228|49=CITIFFT|52=20181027-16:56:28.459|56=CATSOS|22=4|48=DE0005140008|55=BAADERBK|107=DE0005140008|131=18102799000215|132=123.56|133=134.56|134=10|135=12|167=OPT|200=205012|205=31|231=1|10=193|8=FIX.4.2|9=195|35=S|34=228|49=CITIFFT|52=20181027-16:56:28.459|56=CATSOS|22=4|48=DE0005140008|55=BAADERBK|107=DE0005140008|131=18102799000215|132=123.56|133=134.56|134=10|135=12|167=OPT|200=205012|205=31|231=1|10=193|8=FIX.4.2|9=195|35=S|34=228|49=CITIFFT|52=20181027-16:56:28.459|56=CATSOS|22=4|48=DE0005140008|55=BAADERBK|107=DE0005140008|131=18102799000215|132=123.56|133=134.56|134=10|135=12|167=OPT|200=205012|205=31|231=1|10=193|8=FIX.4.2|9=195|35=S|34=228|49=CITIFFT|52=20181027-16:56:28.459|56=CATSOS|22=4|48=DE0005140008|55=BAADERBK|107=DE0005140008|131=18102799000215|132=123.56|133=134.56|134=10|135=12|167=OPT|200=205012|205=31|231=1|10=193|8=FIX.4.2|9=195|35=S|34=228|49=CITIFFT|52=20181027-16:56:28.459|56=CATSOS|22=4|48=DE0005140008|55=BAADERBK|107=DE0005140008|131=18102799000215|132=123.56|133=134.56|134=10|135=12|167=OPT|200=205012|205=31|231=1|10=193|8=FIX.4.2|9=195|35=S|34=228|49=CITIFFT|52=20181027-16:56:28.459|56=CATSOS|22=4|48=DE0005140008|55=BAADERBK|107=DE0005140008|131=18102799000215|132=123.56|133=134.56|134=10|135=12|167=OPT|200=205012|205=31|231=1|10=193|8=FIX.4.2|9=195|35=S|34=228|49=CITIFFT|52=20181027-16:56:28.459|56=CATSOS|22=4|48=DE0005140008|55=BAADERBK|107=DE0005140008|131=18102799000215|132=123.56|133=134.56|134=10|135=12|167=OPT|200=205012|205=31|231=1|10=193|8=FIX.4.2|9=195|35=S|34=228|49=CITIFFT|52=20181027-16:56:28.459|56=CATSOS|22=4|48=DE0005140008|55=BAADERBK|107=DE0005140008|131=18102799000215|132=123.56|133=134.56|134=10|135=12|167=OPT|200=205012|205=31|231=1|10=193|8=FIX.4.2|9=195|35=S|34=228|49=CITIFFT|52=20181027-16:56:28.459|56=CATSOS|22=4|48=DE0005140008|55=BAADERBK|107=DE0005140008|131=18102799000215|132=123.56|133=134.56|134=10|135=12|167=OPT|200=205012|205=31|231=1|10=193|8=FIX.4.2|9=195|35=S|34=228|49=CITIFFT|52=20181027-16:56:28.459|56=CATSOS|22=4|48=DE0005140008|55=BAADERBK|107=DE0005140008|131=18102799000215|132=123.56|133=134.56|134=10|135=12|167=OPT|200=205012|205=31|231=1|10=193|8=FIX.4.2|9=195|35=S|34=228|49=CITIFFT|52=20181027-16:56:28.459|56=CATSOS|22=4|48=DE0005140008|55=BAADERBK|107=DE0005140008|131=18102799000215|132=123.56|133=134.56|134=10|135=12|167=OPT|200=205012|205=31|231=1|10=193|8=FIX.4.2|9=195|35=S|34=228|49=CITIFFT|52=20181027-16:56:28.459|56=CATSOS|22=4|48=DE0005140008|55=BAADERBK|107=DE0005140008|131=18102799000215|132=123.56|133=134.56|134=10|135=12|167=OPT|200=205012|205=31|231=1|10=193|8=FIX.4.2|9=195|35=S|34=228|49=CITIFFT|52=20181027-16:56:28.459|56=CATSOS|22=4|48=DE0005140008|55=BAADERBK|107=DE0005140008|131=18102799000215|132=123.56|133=134.56|134=10|135=12|167=OPT|200=205012|205=31|231=1|10=193|8=FIX.4.2|9=195|35=S|34=228|49=CITIFFT|52=20181027-16:56:28.459|56=CATSOS|22=4|48=DE0005140008|55=BAADERBK|107=DE0005140008|131=18102799000215|132=123.56|133=134.56|134=10|135=12|167=OPT|200=205012|205=31|231=1|10=193|8=FIX.4.2|9=195|35=S|34=228|49=CITIFFT|52=20181027-16:56:28.459|56=CATSOS|22=4|48=DE0005140008|55=BAADERBK|107=DE0005140008|131=18102799000215|132=123.56|133=134.56|134=10|135=12|167=OPT|200=205012|205=31|231=1|10=193|8=FIX.4.2|9=195|35=S|34=228|49=CITIFFT|52=20181027-16:56:28.459|56=CATSOS|22=4|48=DE0005140008|55=BAADERBK|107=DE0005140008|131=18102799000215|132=123.56|133=134.56|134=10|135=12|167=OPT|200=205012|205=31|231=1|10=193|8=FIX.4.2|9=195|35=S|34=228|49=CITIFFT|52=20181027-16:56:28.459|56=CATSOS|22=4|48=DE0005140008|55=BAADERBK|107=DE0005140008|131=18102799000215|132=123.56|133=134.56|134=10|135=12|167=OPT|200=205012|205=31|231=1|10=193|8=FIX.4.2|9=195|35=S|34=228|49=CITIFFT|52=20181027-16:56:28.459|56=CATSOS|22=4|48=DE0005140008|55=BAADERBK|107=DE0005140008|131=18102799000215|132=123.56|133=134.56|134=10|135=12|167=OPT|200=205012|205=31|231=1|10=193|8=FIX.4.2|9=195|35=S|34=228|49=CITIFFT|52=20181027-16:56:28.459|56=CATSOS|22=4|48=DE0005140008|55=BAADERBK|107=DE0005140008|131=18102799000215|132=123.56|133=134.56|134=10|135=12|167=OPT|200=205012|205=31|231=1|10=193|8=FIX.4.2|9=195|35=S|34=228|49=CITIFFT|52=20181027-16:56:28.459|56=CATSOS|22=4|48=DE0005140008|55=BAADERBK|107=DE0005140008|131=18102799000215|132=123.56|133=134.56|134=10|135=12|167=OPT|200=205012|205=31|231=1|10=193|8=FIX.4.2|9=195|35=S|34=228|49=CITIFFT|52=20181027-16:56:28.459|56=CATSOS|22=4|48=DE0005140008|55=BAADERBK|107=DE0005140008|131=18102799000215|132=123.56|133=134.56|134=10|135=12|167=OPT|200=205012|205=31|231=1|10=193|8=FIX.4.2|9=195|35=S|34=228|49=CITIFFT|52=20181027-16:56:28.459|56=CATSOS|22=4|48=DE0005140008|55=BAADERBK|107=DE0005140008|131=18102799000215|132=123.56|133=134.56|134=10|135=12|167=OPT|200=205012|205=31|231=1|10=193|8=FIX.4.2|9=195|35=S|34=228|49=CITIFFT|52=20181027-16:56:28.459|56=CATSOS|22=4|48=DE0005140008|55=BAADERBK|107=DE0005140008|131=18102799000215|132=123.56|133=134.56|134=10|135=12|167=OPT|200=205012|205=31|231=1|10=193|8=FIX.4.2|9=195|35=S|34=228|49=CITIFFT|52=20181027-16:56:28.459|56=CATSOS|22=4|48=DE0005140008|55=BAADERBK|107=DE0005140008|131=18102799000215|132=123.56|133=134.56|134=10|135=12|167=OPT|200=205012|205=31|231=1|10=193|8=FIX.4.2|9=195|35=S|34=228|49=CITIFFT|52=20181027-16:56:28.459|56=CATSOS|22=4|48=DE0005140008|55=BAADERBK|107=DE0005140008|131=18102799000215|132=123.56|133=134.56|134=10|135=12|167=OPT|200=205012|205=31|231=1|10=193|8=FIX.4.2|9=195|35=S|34=228|49=CITIFFT|52=20181027-16:56:28.459|56=CATSOS|22=4|48=DE0005140008|55=BAADERBK|107=DE0005140008|131=18102799000215|132=123.56|133=134.56|134=10|135=12|167=OPT|200=205012|205=31|231=1|10=193|8=FIX.4.2|9=195|35=S|34=228|49=CITIFFT|52=20181027-16:56:28.459|56=CATSOS|22=4|48=DE0005140008|55=BAADERBK|107=DE0005140008|131=18102799000215|132=123.56|133=134.56|134=10|135=12|167=OPT|200=205012|205=31|231=1|10=193|8=FIX.4.2|9=195|35=S|34=228|49=CITIFFT|52=20181027-16:56:28.459|56=CATSOS|22=4|48=DE0005140008|55=BAADERBK|107=DE0005140008|131=18102799000215|132=123.56|133=134.56|134=10|135=12|167=OPT|200=205012|205=31|231=1|10=193|8=FIX.4.2|9=195|35=S|34=228|49=CITIFFT|52=20181027-16:56:28.459|56=CATSOS|22=4|48=DE0005140008|55=BAADERBK|107=DE0005140008|131=18102799000215|132=123.56|133=134.56|134=10|135=12|167=OPT|200=205012|205=31|231=1|10=193|8=FIX.4.2|9=195|35=S|34=228|49=CITIFFT|52=20181027-16:56:28.459|56=CATSOS|22=4|48=DE0005140008|55=BAADERBK|107=DE0005140008|131=18102799000215|132=123.56|133=134.56|134=10|135=12|167=OPT|200=205012|205=31|231=1|10=193|8=FIX.4.2|9=195|35=S|34=228|49=CITIFFT|52=20181027-16:56:28.459|56=CATSOS|22=4|48=DE0005140008|55=BAADERBK|107=DE0005140008|131=18102799000215|132=123.56|133=134.56|134=10|135=12|167=OPT|200=205012|205=31|231=1|10=193|8=FIX.4.2|9=195|35=S|34=228|49=CITIFFT|52=20181027-16:56:28.459|56=CATSOS|22=4|48=DE0005140008|55=BAADERBK|107=DE0005140008|131=18102799000215|132=123.56|133=134.56|134=10|135=12|167=OPT|200=205012|205=31|231=1|10=193|8=FIX.4.2|9=195|35=S|34=228|49=CITIFFT|52=20181027-16:56:28.459|56=CATSOS|22=4|48=DE0005140008|55=BAADERBK|107=DE0005140008|131=18102799000215|132=123.56|133=134.56|134=10|135=12|167=OPT|200=205012|205=31|231=1|10=193|8=FIX.4.2|9=195|35=S|34=228|49=CITIFFT|52=20181027-16:56:28.459|56=CATSOS|22=4|48=DE0005140008|55=BAADERBK|107=DE0005140008|131=18102799000215|132=123.56|133=134.56|134=10|135=12|167=OPT|200=205012|205=31|231=1|10=193|8=FIX.4.2|9=195|35=S|34=228|49=CITIFFT|52=20181027-16:56:28.459|56=CATSOS|22=4|48=DE0005140008|55=BAADERBK|107=DE0005140008|131=18102799000215|132=123.56|133=134.56|134=10|135=12|167=OPT|200=205012|205=31|231=1|10=193|8=FIX.4.2|9=195|35=S|34=228|49=CITIFFT|52=20181027-16:56:28.459|56=CATSOS|22=4|48=DE0005140008|55=BAADERBK|107=DE0005140008|131=18102799000215|132=123.56|133=134.56|134=10|135=12|167=OPT|200=205012|205=31|231=1|10=193|8=FIX.4.2|9=195|35=S|34=228|49=CITIFFT|52=20181027-16:56:28.459|56=CATSOS|22=4|48=DE0005140008|55=BAADERBK|107=DE0005140008|131=18102799000215|132=123.56|133=134.56|134=10|135=12|167=OPT|200=205012|205=31|231=1|10=193|8=FIX.4.2|9=195|35=S|34=228|49=CITIFFT|52=20181027-16:56:28.459|56=CATSOS|22=4|48=DE0005140008|55=BAADERBK|107=DE0005140008|131=18102799000215|132=123.56|133=134.56|134=10|135=12|167=OPT|200=205012|205=31|231=1|10=193|8=FIX.4.2|9=195|35=S|34=228|49=CITIFFT|52=20181027-16:56:28.459|56=CATSOS|22=4|48=DE0005140008|55=BAADERBK|107=DE0005140008|131=18102799000215|132=123.56|133=134.56|134=10|135=12|167=OPT|200=205012|205=31|231=1|10=193|8=FIX.4.2|9=195|35=S|34=228|49=CITIFFT|52=20181027-16:56:28.459|56=CATSOS|22=4|48=DE0005140008|55=BAADERBK|107=DE0005140008|131=18102799000215|132=123.56|133=134.56|134=10|135=12|167=OPT|200=205012|205=31|231=1|10=193|8=FIX.4.2|9=195|35=S|34=228|49=CITIFFT|52=20181027-16:56:28.459|56=CATSOS|22=4|48=DE0005140008|55=BAADERBK|107=DE0005140008|131=18102799000215|132=123.56|133=134.56|134=10|135=12|167=OPT|200=205012|205=31|231=1|10=193|8=FIX.4.2|9=195|35=S|34=228|49=CITIFFT|52=20181027-16:56:28.459|56=CATSOS|22=4|48=DE0005140008|55=BAADERBK|107=DE0005140008|131=18102799000215|132=123.56|133=134.56|134=10|135=12|167=OPT|200=205012|205=31|231=1|10=193|8=FIX.4.2|9=195|35=S|34=228|49=CITIFFT|52=20181027-16:56:28.457|56=CATSOS|22=4|48=DE0005140008|55=BAADERBK|107=DE0005140008|131=18102799000215|132=123.56|133=134.56|134=10|135=12|167=OPT|200=205012|205=31|231=1|10=191|8=FIX.4.2|9=195|35=S|34=228|49=CITIFFT|52=20181027-16:56:28.457|56=CATSOS|22=4|48=DE0005140008|55=BAADERBK|107=DE0005140008|131=18102799000215|132=123.56|133=134.56|134=10|135=12|167=OPT|200=205012|205=31|231=1|10=191|8=FIX.4.2|9=195|35=S|34=228|49=CITIFFT|52=20181027-16:56:28.457|56=CATSOS|22=4|48=DE0005140008|55=BAADERBK|107=DE0005140008|131=18102799000215|132=123.56|133=134.56|134=10|135=12|167=OPT|200=205012|205=31|231=1|10=191|8=FIX.4.2|9=195|35=S|34=228|49=CITIFFT|52=20181027-16:56:28.457|56=CATSOS|22=4|48=DE0005140008|55=BAADERBK|107=DE0005140008|131=18102799000215|132=123.56|133=134.56|134=10|135=12|167=OPT|200=205012|205=31|231=1|10=191|8=FIX.4.2|9=195|35=S|34=228|49=CITIFFT|52=20181027-16:56:28.457|56=CATSOS|22=4|48=DE0005140008|55=BAADERBK|107=DE0005140008|131=18102799000215|132=123.56|133=134.56|134=10|135=12|167=OPT|200=205012|205=31|231=1|10=191|8=FIX.4.2|9=195|35=S|34=228|49=CITIFFT|52=20181027-16:56:28.457|56=CATSOS|22=4|48=DE0005140008|55=BAADERBK|107=DE0005140008|131=18102799000215|132=123.56|133=134.56|134=10|135=12|167=OPT|200=205012|205=31|231=1|10=191|8=FIX.4.2|9=195|35=S|34=228|49=CITIFFT|52=20181027-16:56:28.457|56=CATSOS|22=4|48=DE0005140008|55=BAADERBK|107=DE0005140008|131=18102799000215|132=123.56|133=134.56|134=10|135=12|167=OPT|200=205012|205=31|231=1|10=191|8=FIX.4.2|9=195|35=S|34=228|49=CITIFFT|52=20181027-16:56:28.457|56=CATSOS|22=4|48=DE0005140008|55=BAADERBK|107=DE0005140008|131=18102799000215|132=123.56|133=134.56|134=10|135=12|167=OPT|200=205012|205=31|231=1|10=191|8=FIX.4.2|9=195|35=S|34=228|49=CITIFFT|52=20181027-16:56:28.457|56=CATSOS|22=4|48=DE0005140008|55=BAADERBK|107=DE0005140008|131=18102799000215|132=123.56|133=134.56|134=10|135=12|167=OPT|200=205012|205=31|231=1|10=191|8=FIX.4.2|9=195|35=S|34=228|49=CITIFFT|52=20181027-16:56:28.457|56=CATSOS|22=4|48=DE0005140008|55=BAADERBK|107=DE0005140008|131=18102799000215|132=123.56|133=134.56|134=10|135=12|167=OPT|200=205012|205=31|231=1|10=191|8=FIX.4.2|9=195|35=S|34=228|49=CITIFFT|52=20181027-16:56:28.457|56=CATSOS|22=4|48=DE0005140008|55=BAADERBK|107=DE0005140008|131=18102799000215|132=123.56|133=134.56|134=10|135=12|167=OPT|200=205012|205=31|231=1|10=191|8=FIX.4.2|9=195|35=S|34=228|49=CITIFFT|52=20181027-16:56:28.457|56=CATSOS|22=4|48=DE0005140008|55=BAADERBK|107=DE0005140008|131=18102799000215|132=123.56|133=134.56|134=10|135=12|167=OPT|200=205012|205=31|231=1|10=191|8=FIX.4.2|9=195|35=S|34=228|49=CITIFFT|52=20181027-16:56:28.457|56=CATSOS|22=4|48=DE0005140008|55=BAADERBK|107=DE0005140008|131=18102799000215|132=123.56|133=134.56|134=10|135=12|167=OPT|200=205012|205=31|231=1|10=191|8=FIX.4.2|9=195|35=S|34=228|49=CITIFFT|52=20181027-16:56:28.457|56=CATSOS|22=4|48=DE0005140008|55=BAADERBK|107=DE0005140008|131=18102799000215|132=123.56|133=134.56|134=10|135=12|167=OPT|200=205012|205=31|231=1|10=191|8=FIX.4.2|9=195|35=S|34=228|49=CITIFFT|52=20181027-16:56:28.457|56=CATSOS|22=4|48=DE0005140008|55=BAADERBK|107=DE0005140008|131=18102799000215|132=123.56|133=134.56|134=10|135=12|167=OPT|200=205012|205=31|231=1|10=191|8=FIX.4.2|9=195|35=S|34=228|49=CITIFFT|52=20181027-16:56:28.457|56=CATSOS|22=4|48=DE0005140008|55=BAADERBK|107=DE0005140008|131=18102799000215|132=123.56|133=134.56|134=10|135=12|167=OPT|200=205012|205=31|231=1|10=191|8=FIX.4.2|9=195|35=S|34=228|49=CITIFFT|52=20181027-16:56:28.457|56=CATSOS|22=4|48=DE0005140008|55=BAADERBK|107=DE0005140008|131=18102799000215|132=123.56|133=134.56|134=10|135=12|167=OPT|200=205012|205=31|231=1|10=191|8=FIX.4.2|9=195|35=S|34=228|49=CITIFFT|52=20181027-16:56:28.455|56=CATSOS|22=4|48=DE0005140008|55=BAADERBK|107=DE0005140008|131=18102799000215|132=123.56|133=134.56|134=10|135=12|167=OPT|200=205012|205=31|231=1|10=189|8=FIX.4.2|9=195|35=S|34=228|49=CITIFFT|52=20181027-16:56:28.455|56=CATSOS|22=4|48=DE0005140008|55=BAADERBK|107=DE0005140008|131=18102799000215|132=123.56|133=134.56|134=10|135=12|167=OPT|200=205012|205=31|231=1|10=189|8=FIX.4.2|9=195|35=S|34=228|49=CITIFFT|52=20181027-16:56:28.455|56=CATSOS|22=4|48=DE0005140008|55=BAADERBK|107=DE0005140008|131=18102799000215|132=123.56|133=134.56|134=10|135=12|167=OPT|200=205012|205=31|231=1|10=189|8=FIX.4.2|9=195|35=S|34=228|49=CITIFFT|52=20181027-16:56:28.455|56=CATSOS|22=4|48=DE0005140008|55=BAADERBK|107=DE0005140008|131=18102799000215|132=123.56|133=134.56|134=10|135=12|167=OPT|200=205012|205=31|231=1|10=189|8=FIX.4.2|9=195|35=S|34=228|49=CITIFFT|52=20181027-16:56:28.455|56=CATSOS|22=4|48=DE0005140008|55=BAADERBK|107=DE0005140008|131=18102799000215|132=123.56|133=134.56|134=10|135=12|167=OPT|200=205012|205=31|231=1|10=189|8=FIX.4.2|9=195|35=S|34=228|49=CITIFFT|52=20181027-16:56:28.455|56=CATSOS|22=4|48=DE0005140008|55=BAADERBK|107=DE0005140008|131=18102799000215|132=123.56|133=134.56|134=10|135=12|167=OPT|200=205012|205=31|231=1|10=189|8=FIX.4.2|9=195|35=S|34=228|49=CITIFFT|52=20181027-16:56:28.455|56=CATSOS|22=4|48=DE0005140008|55=BAADERBK|107=DE0005140008|131=18102799000215|132=123.56|133=134.56|134=10|135=12|167=OPT|200=205012|205=31|231=1|10=189|8=FIX.4.2|9=195|35=S|34=228|49=CITIFFT|52=20181027-16:56:28.455|56=CATSOS|22=4|48=DE0005140008|55=BAADERBK|107=DE0005140008|131=18102799000215|132=123.56|133=134.56|134=10|135=12|167=OPT|200=205012|205=31|231=1|10=189|8=FIX.4.2|9=195|35=S|34=228|49=CITIFFT|52=20181027-16:56:28.455|56=CATSOS|22=4|48=DE0005140008|55=BAADERBK|107=DE0005140008|131=18102799000215|132=123.56|133=134.56|134=10|135=12|167=OPT|200=205012|205=31|231=1|10=189|8=FIX.4.2|9=195|35=S|34=228|49=CITIFFT|52=20181027-16:56:28.450|56=CATSOS|22=4|48=DE0005140008|55=BAADERBK|107=DE0005140008|131=18102799000215|132=123.56|133=134.56|134=10|135=12|167=OPT|200=205012|205=31|231=1|10=184|8=FIX.4.2|9=195|35=S|34=228|49=CITIFFT|52=20181027-16:56:28.450|56=CATSOS|22=4|48=DE0005140008|55=BAADERBK|107=DE0005140008|131=18102799000215|132=123.56|133=134.56|134=10|135=12|167=OPT|200=205012|205=31|231=1|10=184|8=FIX.4.2|9=195|35=S|34=228|49=CITIFFT|52=20181027-16:56:28.450|56=CATSOS|22=4|48=DE0005140008|55=BAADERBK|107=DE0005140008|131=18102799000215|132=123.56|133=134.56|134=10|135=12|167=OPT|200=205012|205=31|231=1|10=184|8=FIX.4.2|9=195|35=S|34=228|49=CITIFFT|52=20181027-16:56:28.450|56=CATSOS|22=4|48=DE0005140008|55=BAADERBK|107=DE0005140008|131=18102799000215|132=123.56|133=134.56|134=10|135=12|167=OPT|200=205012|205=31|231=1|10=184|8=FIX.4.2|9=195|35=S|34=228|49=CITIFFT|52=20181027-16:56:28.450|56=CATSOS|22=4|48=DE0005140008|55=BAADERBK|107=DE0005140008|131=18102799000215|132=123.56|133=134.56|134=10|135=12|167=OPT|200=205012|205=31|231=1|10=184|8=FIX.4.2|9=195|35=S|34=228|49=CITIFFT|52=20181027-16:56:28.450|56=CATSOS|22=4|48=DE0005140008|55=BAADERBK|107=DE0005140008|131=18102799000215|132=123.56|133=134.56|134=10|135=12|167=OPT|200=205012|205=31|231=1|10=184|8=FIX.4.2|9=195|35=S|34=228|49=CITIFFT|52=20181027-16:56:28.450|56=CATSOS|22=4|48=DE0005140008|55=BAADERBK|107=DE0005140008|131=18102799000215|132=123.56|133=134.56|134=10|135=12|167=OPT|200=205012|205=31|231=1|10=184|8=FIX.4.2|9=195|35=S|34=228|49=CITIFFT|52=20181027-16:56:28.450|56=CATSOS|22=4|48=DE0005140008|55=BAADERBK|107=DE0005140008|131=18102799000215|132=123.56|133=134.56|134=10|135=12|167=OPT|200=205012|205=31|231=1|10=184|8=FIX.4.2|9=195|35=S|34=228|49=CITIFFT|52=20181027-16:56:28.450|56=CATSOS|22=4|48=DE0005140008|55=BAADERBK|107=DE0005140008|131=18102799000215|132=123.56|133=134.56|134=10|135=12|167=OPT|200=205012|205=31|231=1|10=184|8=FIX.4.2|9=195|35=S|34=228|49=CITIFFT|52=20181027-16:56:28.450|56=CATSOS|22=4|48=DE0005140008|55=BAADERBK|107=DE0005140008|131=18102799000215|132=123.56|133=134.56|134=10|135=12|167=OPT|200=205012|205=31|231=1|10=184|8=FIX.4.2|9=195|35=S|34=228|49=CITIFFT|52=20181027-16:56:28.450|56=CATSOS|22=4|48=DE0005140008|55=BAADERBK|107=DE0005140008|131=18102799000215|132=123.56|133=134.56|134=10|135=12|167=OPT|200=205012|205=31|231=1|10=184|8=FIX.4.2|9=195|35=S|34=228|49=CITIFFT|52=20181027-16:56:28.450|56=CATSOS|22=4|48=DE0005140008|55=BAADERBK|107=DE0005140008|131=18102799000215|132=123.56|133=134.56|134=10|135=12|167=OPT|200=205012|205=31|231=1|10=184|8=FIX.4.2|9=195|35=S|34=228|49=CITIFFT|52=20181027-16:56:28.450|56=CATSOS|22=4|48=DE0005140008|55=BAADERBK|107=DE0005140008|131=18102799000215|132=123.56|133=134.56|134=10|135=12|167=OPT|200=205012|205=31|231=1|10=184|8=FIX.4.2|9=195|35=S|34=228|49=CITIFFT|52=20181027-16:56:28.450|56=CATSOS|22=4|48=DE0005140008|55=BAADERBK|107=DE0005140008|131=18102799000215|132=123.56|133=134.56|134=10|135=12|167=OPT|200=205012|205=31|231=1|10=184|8=FIX.4.2|9=195|35=S|34=228|49=CITIFFT|52=20181027-16:56:28.446|56=CATSOS|22=4|48=DE0005140008|55=BAADERBK|107=DE0005140008|131=18102799000215|132=123.56|133=134.56|134=10|135=12|167=OPT|200=205012|205=31|231=1|10=189|8=FIX.4.2|9=195|35=S|34=228|49=CITIFFT|52=20181027-16:56:28.446|56=CATSOS|22=4|48=DE0005140008|55=BAADERBK|107=DE0005140008|131=18102799000215|132=123.56|133=134.56|134=10|135=12|167=OPT|200=205012|205=31|231=1|10=189|8=FIX.4.2|9=195|35=S|34=228|49=CITIFFT|52=20181027-16:56:28.446|56=CATSOS|22=4|48=DE0005140008|55=BAADERBK|107=DE0005140008|131=18102799000215|132=123.56|133=134.56|134=10|135=12|167=OPT|200=205012|205=31|231=1|10=189|8=FIX.4.2|9=195|35=S|34=228|49=CITIFFT|52=20181027-16:56:28.446|56=CATSOS|22=4|48=DE0005140008|55=BAADERBK|107=DE0005140008|131=18102799000215|132=123.56|133=134.56|134=10|135=12|167=OPT|200=205012|205=31|231=1|10=189|8=FIX.4.2|9=195|35=S|34=228|49=CITIFFT|52=20181027-16:56:28.446|56=CATSOS|22=4|48=DE0005140008|55=BAADERBK|107=DE0005140008|131=18102799000215|132=123.56|133=134.56|134=10|135=12|167=OPT|200=205012|205=31|231=1|10=189|8=FIX.4.2|9=195|35=S|34=228|49=CITIFFT|52=20181027-16:56:28.446|56=CATSOS|22=4|48=DE0005140008|55=BAADERBK|107=DE0005140008|131=18102799000215|132=123.56|133=134.56|134=10|135=12|167=OPT|200=205012|205=31|231=1|10=189|8=FIX.4.2|9=195|35=S|34=228|49=CITIFFT|52=20181027-16:56:28.446|56=CATSOS|22=4|48=DE0005140008|55=BAADERBK|107=DE0005140008|131=18102799000215|132=123.56|133=134.56|134=10|135=12|167=OPT|200=205012|205=31|231=1|10=189|8=FIX.4.2|9=195|35=S|34=228|49=CITIFFT|52=20181027-16:56:28.446|56=CATSOS|22=4|48=DE0005140008|55=BAADERBK|107=DE0005140008|131=18102799000215|132=123.56|133=134.56|134=10|135=12|167=OPT|200=205012|205=31|231=1|10=189|8=FIX.4.2|9=195|35=S|34=228|49=CITIFFT|52=20181027-16:56:28.446|56=CATSOS|22=4|48=DE0005140008|55=BAADERBK|107=DE0005140008|131=18102799000215|132=123.56|133=134.56|134=10|135=12|167=OPT|200=205012|205=31|231=1|10=189|8=FIX.4.2|9=195|35=S|34=228|49=CITIFFT|52=20181027-16:56:28.446|56=CATSOS|22=4|48=DE0005140008|55=BAADERBK|107=DE0005140008|131=18102799000215|132=123.56|133=134.56|134=10|135=12|167=OPT|200=205012|205=31|231=1|10=189|8=FIX.4.2|9=195|35=S|34=228|49=CITIFFT|52=20181027-16:56:28.446|56=CATSOS|22=4|48=DE0005140008|55=BAADERBK|107=DE0005140008|131=18102799000215|132=123.56|133=134.56|134=10|135=12|167=OPT|200=205012|205=31|231=1|10=189|8=FIX.4.2|9=195|35=S|34=228|49=CITIFFT|52=20181027-16:56:28.446|56=CATSOS|22=4|48=DE0005140008|55=BAADERBK|107=DE0005140008|131=18102799000215|132=123.56|133=134.56|134=10|135=12|167=OPT|200=205012|205=31|231=1|10=189|8=FIX.4.2|9=195|35=S|34=228|49=CITIFFT|52=20181027-16:56:28.446|56=CATSOS|22=4|48=DE0005140008|55=BAADERBK|107=DE0005140008|131=18102799000215|132=123.56|133=134.56|134=10|135=12|167=OPT|200=205012|205=31|231=1|10=189|8=FIX.4.2|9=195|35=S|34=228|49=CITIFFT|52=20181027-16:56:28.446|56=CATSOS|22=4|48=DE0005140008|55=BAADERBK|107=DE0005140008|131=18102799000215|132=123.56|133=134.56|134=10|135=12|167=OPT|200=205012|205=31|231=1|10=189|8=FIX.4.2|9=195|35=S|34=228|49=CITIFFT|52=20181027-16:56:28.446|56=CATSOS|22=4|48=DE0005140008|55=BAADERBK|107=DE0005140008|131=18102799000215|132=123.56|133=134.56|134=10|135=12|167=OPT|200=205012|205=31|231=1|10=189|8=FIX.4.2|9=195|35=S|34=228|49=CITIFFT|52=20181027-16:56:28.446|56=CATSOS|22=4|48=DE0005140008|55=BAADERBK|107=DE0005140008|131=18102799000215|132=123.56|133=134.56|134=10|135=12|167=OPT|200=205012|205=31|231=1|10=189|8=FIX.4.2|9=195|35=S|34=228|49=CITIFFT|52=20181027-16:56:28.444|56=CATSOS|22=4|48=DE0005140008|55=BAADERBK|107=DE0005140008|131=18102799000215|132=123.56|133=134.56|134=10|135=12|167=OPT|200=205012|205=31|231=1|10=187|8=FIX.4.2|9=195|35=S|34=228|49=CITIFFT|52=20181027-16:56:28.444|56=CATSOS|22=4|48=DE0005140008|55=BAADERBK|107=DE0005140008|131=18102799000215|132=123.56|133=134.56|134=10|135=12|167=OPT|200=205012|205=31|231=1|10=187|8=FIX.4.2|9=195|35=S|34=228|49=CITIFFT|52=20181027-16:56:28.444|56=CATSOS|22=4|48=DE0005140008|55=BAADERBK|107=DE0005140008|131=18102799000215|132=123.56|133=134.56|134=10|135=12|167=OPT|200=205012|205=31|231=1|10=187|8=FIX.4.2|9=195|35=S|34=228|49=CITIFFT|52=20181027-16:56:28.444|56=CATSOS|22=4|48=DE0005140008|55=BAADERBK|107=DE0005140008|131=18102799000215|132=123.56|133=134.56|134=10|135=12|167=OPT|200=205012|205=31|231=1|10=187|8=FIX.4.2|9=195|35=S|34=228|49=CITIFFT|52=20181027-16:56:28.444|56=CATSOS|22=4|48=DE0005140008|55=BAADERBK|107=DE0005140008|131=18102799000215|132=123.56|133=134.56|134=10|135=12|167=OPT|200=205012|205=31|231=1|10=187|8=FIX.4.2|9=195|35=S|34=228|49=CITIFFT|52=20181027-16:56:28.441|56=CATSOS|22=4|48=DE0005140008|55=BAADERBK|107=DE0005140008|131=18102799000215|132=123.56|133=134.56|134=10|135=12|167=OPT|200=205012|205=31|231=1|10=184|8=FIX.4.2|9=195|35=S|34=228|49=CITIFFT|52=20181027-16:56:28.441|56=CATSOS|22=4|48=DE0005140008|55=BAADERBK|107=DE0005140008|131=18102799000215|132=123.56|133=134.56|134=10|135=12|167=OPT|200=205012|205=31|231=1|10=184|8=FIX.4.2|9=195|35=S|34=228|49=CITIFFT|52=20181027-16:56:28.435|56=CATSOS|22=4|48=DE0005140008|55=BAADERBK|107=DE0005140008|131=18102799000215|132=123.56|133=134.56|134=10|135=12|167=OPT|200=205012|205=31|231=1|10=187|8=FIX.4.2|9=195|35=S|34=228|49=CITIFFT|52=20181027-16:56:28.435|56=CATSOS|22=4|48=DE0005140008|55=BAADERBK|107=DE0005140008|131=18102799000215|132=123.56|133=134.56|134=10|135=12|167=OPT|200=205012|205=31|231=1|10=187|8=FIX.4.2|9=195|35=S|34=228|49=CITIFFT|52=20181027-16:56:28.435|56=CATSOS|22=4|48=DE0005140008|55=BAADERBK|107=DE0005140008|131=18102799000215|132=123.56|133=134.56|134=10|135=12|167=OPT|200=205012|205=31|231=1|10=187|8=FIX.4.2|9=195|35=S|34=228|49=CITIFFT|52=20181027-16:56:28.435|56=CATSOS|22=4|48=DE0005140008|55=BAADERBK|107=DE0005140008|131=18102799000215|132=123.56|133=134.56|134=10|135=12|167=OPT|200=205012|205=31|231=1|10=187|8=FIX.4.2|9=195|35=S|34=228|49=CITIFFT|52=20181027-16:56:28.435|56=CATSOS|22=4|48=DE0005140008|55=BAADERBK|107=DE0005140008|131=18102799000215|132=123.56|133=134.56|134=10|135=12|167=OPT|200=205012|205=31|231=1|10=187|8=FIX.4.2|9=195|35=S|34=228|49=CITIFFT|52=20181027-16:56:28.435|56=CATSOS|22=4|48=DE0005140008|55=BAADERBK|107=DE0005140008|131=18102799000215|132=123.56|133=134.56|134=10|135=12|167=OPT|200=205012|205=31|231=1|10=187|8=FIX.4.2|9=195|35=S|34=228|49=CITIFFT|52=20181027-16:56:28.435|56=CATSOS|22=4|48=DE0005140008|55=BAADERBK|107=DE0005140008|131=18102799000215|132=123.56|133=134.56|134=10|135=12|167=OPT|200=205012|205=31|231=1|10=187|8=FIX.4.2|9=195|35=S|34=228|49=CITIFFT|52=20181027-16:56:28.435|56=CATSOS|22=4|48=DE0005140008|55=BAADERBK|107=DE0005140008|131=18102799000215|132=123.56|133=134.56|134=10|135=12|167=OPT|200=205012|205=31|231=1|10=187|8=FIX.4.2|9=195|35=S|34=228|49=CITIFFT|52=20181027-16:56:28.435|56=CATSOS|22=4|48=DE0005140008|55=BAADERBK|107=DE0005140008|131=18102799000215|132=123.56|133=134.56|134=10|135=12|167=OPT|200=205012|205=31|231=1|10=187|8=FIX.4.2|9=195|35=S|34=228|49=CITIFFT|52=20181027-16:56:28.435|56=CATSOS|22=4|48=DE0005140008|55=BAADERBK|107=DE0005140008|131=18102799000215|132=123.56|133=134.56|134=10|135=12|167=OPT|200=205012|205=31|231=1|10=187|8=FIX.4.2|9=195|35=S|34=228|49=CITIFFT|52=20181027-16:56:28.435|56=CATSOS|22=4|48=DE0005140008|55=BAADERBK|107=DE0005140008|131=18102799000215|132=123.56|133=134.56|134=10|135=12|167=OPT|200=205012|205=31|231=1|10=187|8=FIX.4.2|9=195|35=S|34=228|49=CITIFFT|52=20181027-16:56:28.425|56=CATSOS|22=4|48=DE0005140008|55=BAADERBK|107=DE0005140008|131=18102799000215|132=123.56|133=134.56|134=10|135=12|167=OPT|200=205012|205=31|231=1|10=186|8=FIX.4.2|9=195|35=S|34=228|49=CITIFFT|52=20181027-16:56:28.425|56=CATSOS|22=4|48=DE0005140008|55=BAADERBK|107=DE0005140008|131=18102799000215|132=123.56|133=134.56|134=10|135=12|167=OPT|200=205012|205=31|231=1|10=186|8=FIX.4.2|9=195|35=S|34=228|49=CITIFFT|52=20181027-16:56:28.411|56=CATSOS|22=4|48=DE0005140008|55=BAADERBK|107=DE0005140008|131=18102799000215|132=123.56|133=134.56|134=10|135=12|167=OPT|200=205012|205=31|231=1|10=181|8=FIX.4.2|9=195|35=S|34=228|49=CITIFFT|52=20181027-16:56:28.411|56=CATSOS|22=4|48=DE0005140008|55=BAADERBK|107=DE0005140008|131=18102799000215|132=123.56|133=134.56|134=10|135=12|167=OPT|200=205012|205=31|231=1|10=181|8=FIX.4.2|9=195|35=S|34=228|49=CITIFFT|52=20181027-16:56:28.405|56=CATSOS|22=4|48=DE0005140008|55=BAADERBK|107=DE0005140008|131=18102799000215|132=123.56|133=134.56|134=10|135=12|167=OPT|200=205012|205=31|231=1|10=184|8=FIX.4.2|9=195|35=S|34=228|49=CITIFFT|52=20181027-16:56:28.405|56=CATSOS|22=4|48=DE0005140008|55=BAADERBK|107=DE0005140008|131=18102799000215|132=123.56|133=134.56|134=10|135=12|167=OPT|200=205012|205=31|231=1|10=184|8=FIX.4.2|9=195|35=S|34=228|49=CITIFFT|52=20181027-16:56:28.405|56=CATSOS|22=4|48=DE0005140008|55=BAADERBK|107=DE0005140008|131=18102799000215|132=123.56|133=134.56|134=10|135=12|167=OPT|200=205012|205=31|231=1|10=184|8=FIX.4.2|9=195|35=S|34=228|49=CITIFFT|52=20181027-16:56:28.405|56=CATSOS|22=4|48=DE0005140008|55=BAADERBK|107=DE0005140008|131=18102799000215|132=123.56|133=134.56|134=10|135=12|167=OPT|200=205012|205=31|231=1|10=184|8=FIX.4.2|9=195|35=S|34=228|49=CITIFFT|52=20181027-16:56:28.395|56=CATSOS|22=4|48=DE0005140008|55=BAADERBK|107=DE0005140008|131=18102799000215|132=123.56|133=134.56|134=10|135=12|167=OPT|200=205012|205=31|231=1|10=192|8=FIX.4.2|9=195|35=S|34=228|49=CITIFFT|52=20181027-16:56:28.395|56=CATSOS|22=4|48=DE0005140008|55=BAADERBK|107=DE0005140008|131=18102799000215|132=123.56|133=134.56|134=10|135=12|167=OPT|200=205012|205=31|231=1|10=192|8=FIX.4.2|9=195|35=S|34=228|49=CITIFFT|52=20181027-16:56:28.395|56=CATSOS|22=4|48=DE0005140008|55=BAADERBK|107=DE0005140008|131=18102799000215|132=123.56|133=134.56|134=10|135=12|167=OPT|200=205012|205=31|231=1|10=192|8=FIX.4.2|9=195|35=S|34=228|49=CITIFFT|52=20181027-16:56:28.395|56=CATSOS|22=4|48=DE0005140008|55=BAADERBK|107=DE0005140008|131=18102799000215|132=123.56|133=134.56|134=10|135=12|167=OPT|200=205012|205=31|231=1|10=192|8=FIX.4.2|9=195|35=S|34=228|49=CITIFFT|52=20181027-16:56:28.385|56=CATSOS|22=4|48=DE0005140008|55=BAADERBK|107=DE0005140008|131=18102799000215|132=123.56|133=134.56|134=10|135=12|167=OPT|200=205012|205=31|231=1|10=191|8=FIX.4.2|9=195|35=S|34=228|49=CITIFFT|52=20181027-16:56:28.385|56=CATSOS|22=4|48=DE0005140008|55=BAADERBK|107=DE0005140008|131=18102799000215|132=123.56|133=134.56|134=10|135=12|167=OPT|200=205012|205=31|231=1|10=191|8=FIX.4.2|9=195|35=S|34=228|49=CITIFFT|52=20181027-16:56:28.385|56=CATSOS|22=4|48=DE0005140008|55=BAADERBK|107=DE0005140008|131=18102799000215|132=123.56|133=134.56|134=10|135=12|167=OPT|200=205012|205=31|231=1|10=191|8=FIX.4.2|9=195|35=S|34=228|49=CITIFFT|52=20181027-16:56:28.385|56=CATSOS|22=4|48=DE0005140008|55=BAADERBK|107=DE0005140008|131=18102799000215|132=123.56|133=134.56|134=10|135=12|167=OPT|200=205012|205=31|231=1|10=191|8=FIX.4.2|9=195|35=S|34=228|49=CITIFFT|52=20181027-16:56:28.385|56=CATSOS|22=4|48=DE0005140008|55=BAADERBK|107=DE0005140008|131=18102799000215|132=123.56|133=134.56|134=10|135=12|167=OPT|200=205012|205=31|231=1|10=191|8=FIX.4.2|9=195|35=S|34=228|49=CITIFFT|52=20181027-16:56:28.385|56=CATSOS|22=4|48=DE0005140008|55=BAADERBK|107=DE0005140008|131=18102799000215|132=123.56|133=134.56|134=10|135=12|167=OPT|200=205012|205=31|231=1|10=191|8=FIX.4.2|9=195|35=S|34=228|49=CITIFFT|52=20181027-16:56:28.385|56=CATSOS|22=4|48=DE0005140008|55=BAADERBK|107=DE0005140008|131=18102799000215|132=123.56|133=134.56|134=10|135=12|167=OPT|200=205012|205=31|231=1|10=191|8=FIX.4.2|9=195|35=S|34=228|49=CITIFFT|52=20181027-16:56:28.385|56=CATSOS|22=4|48=DE0005140008|55=BAADERBK|107=DE0005140008|131=18102799000215|132=123.56|133=134.56|134=10|135=12|167=OPT|200=205012|205=31|231=1|10=191|8=FIX.4.2|9=195|35=S|34=228|49=CITIFFT|52=20181027-16:56:28.385|56=CATSOS|22=4|48=DE0005140008|55=BAADERBK|107=DE0005140008|131=18102799000215|132=123.56|133=134.56|134=10|135=12|167=OPT|200=205012|205=31|231=1|10=191|8=FIX.4.2|9=195|35=S|34=228|49=CITIFFT|52=20181027-16:56:28.385|56=CATSOS|22=4|48=DE0005140008|55=BAADERBK|107=DE0005140008|131=18102799000215|132=123.56|133=134.56|134=10|135=12|167=OPT|200=205012|205=31|231=1|10=191|8=FIX.4.2|9=195|35=S|34=228|49=CITIFFT|52=20181027-16:56:28.385|56=CATSOS|22=4|48=DE0005140008|55=BAADERBK|107=DE0005140008|131=18102799000215|132=123.56|133=134.56|134=10|135=12|167=OPT|200=205012|205=31|231=1|10=191|8=FIX.4.2|9=195|35=S|34=228|49=CITIFFT|52=20181027-16:56:28.385|56=CATSOS|22=4|48=DE0005140008|55=BAADERBK|107=DE0005140008|131=18102799000215|132=123.56|133=134.56|134=10|135=12|167=OPT|200=205012|205=31|231=1|10=191|8=FIX.4.2|9=195|35=S|34=228|49=CITIFFT|52=20181027-16:56:28.385|56=CATSOS|22=4|48=DE0005140008|55=BAADERBK|107=DE0005140008|131=18102799000215|132=123.56|133=134.56|134=10|135=12|167=OPT|200=205012|205=31|231=1|10=191|8=FIX.4.2|9=195|35=S|34=228|49=CITIFFT|52=20181027-16:56:28.385|56=CATSOS|22=4|48=DE0005140008|55=BAADERBK|107=DE0005140008|131=18102799000215|132=123.56|133=134.56|134=10|135=12|167=OPT|200=205012|205=31|231=1|10=191|8=FIX.4.2|9=195|35=S|34=228|49=CITIFFT|52=20181027-16:56:28.385|56=CATSOS|22=4|48=DE0005140008|55=BAADERBK|107=DE0005140008|131=18102799000215|132=123.56|133=134.56|134=10|135=12|167=OPT|200=205012|205=31|231=1|10=191|8=FIX.4.2|9=195|35=S|34=228|49=CITIFFT|52=20181027-16:56:28.385|56=CATSOS|22=4|48=DE0005140008|55=BAADERBK|107=DE0005140008|131=18102799000215|132=123.56|133=134.56|134=10|135=12|167=OPT|200=205012|205=31|231=1|10=191|8=FIX.4.2|9=195|35=S|34=228|49=CITIFFT|52=20181027-16:56:28.385|56=CATSOS|22=4|48=DE0005140008|55=BAADERBK|107=DE0005140008|131=18102799000215|132=123.56|133=134.56|134=10|135=12|167=OPT|200=205012|205=31|231=1|10=191|8=FIX.4.2|9=195|35=S|34=228|49=CITIFFT|52=20181027-16:56:28.385|56=CATSOS|22=4|48=DE0005140008|55=BAADERBK|107=DE0005140008|131=18102799000215|132=123.56|133=134.56|134=10|135=12|167=OPT|200=205012|205=31|231=1|10=191|8=FIX.4.2|9=195|35=S|34=228|49=CITIFFT|52=20181027-16:56:28.385|56=CATSOS|22=4|48=DE0005140008|55=BAADERBK|107=DE0005140008|131=18102799000215|132=123.56|133=134.56|134=10|135=12|167=OPT|200=205012|205=31|231=1|10=191|8=FIX.4.2|9=195|35=S|34=228|49=CITIFFT|52=20181027-16:56:28.385|56=CATSOS|22=4|48=DE0005140008|55=BAADERBK|107=DE0005140008|131=18102799000215|132=123.56|133=134.56|134=10|135=12|167=OPT|200=205012|205=31|231=1|10=191|8=FIX.4.2|9=195|35=S|34=228|49=CITIFFT|52=20181027-16:56:28.385|56=CATSOS|22=4|48=DE0005140008|55=BAADERBK|107=DE0005140008|131=18102799000215|132=123.56|133=134.56|134=10|135=12|167=OPT|200=205012|205=31|231=1|10=191|8=FIX.4.2|9=195|35=S|34=228|49=CITIFFT|52=20181027-16:56:28.385|56=CATSOS|22=4|48=DE0005140008|55=BAADERBK|107=DE0005140008|131=18102799000215|132=123.56|133=134.56|134=10|135=12|167=OPT|200=205012|205=31|231=1|10=191|8=FIX.4.2|9=195|35=S|34=228|49=CITIFFT|52=20181027-16:56:28.385|56=CATSOS|22=4|48=DE0005140008|55=BAADERBK|107=DE0005140008|131=18102799000215|132=123.56|133=134.56|134=10|135=12|167=OPT|200=205012|205=31|231=1|10=191|8=FIX.4.2|9=195|35=S|34=228|49=CITIFFT|52=20181027-16:56:28.385|56=CATSOS|22=4|48=DE0005140008|55=BAADERBK|107=DE0005140008|131=18102799000215|132=123.56|133=134.56|134=10|135=12|167=OPT|200=205012|205=31|231=1|10=191|8=FIX.4.2|9=195|35=S|34=228|49=CITIFFT|52=20181027-16:56:28.385|56=CATSOS|22=4|48=DE0005140008|55=BAADERBK|107=DE0005140008|131=18102799000215|132=123.56|133=134.56|134=10|135=12|167=OPT|200=205012|205=31|231=1|10=191|8=FIX.4.2|9=195|35=S|34=228|49=CITIFFT|52=20181027-16:56:28.385|56=CATSOS|22=4|48=DE0005140008|55=BAADERBK|107=DE0005140008|131=18102799000215|132=123.56|133=134.56|134=10|135=12|167=OPT|200=205012|205=31|231=1|10=191|8=FIX.4.2|9=195|35=S|34=228|49=CITIFFT|52=20181027-16:56:28.385|56=CATSOS|22=4|48=DE0005140008|55=BAADERBK|107=DE0005140008|131=18102799000215|132=123.56|133=134.56|134=10|135=12|167=OPT|200=205012|205=31|231=1|10=191|8=FIX.4.2|9=195|35=S|34=228|49=CITIFFT|52=20181027-16:56:28.385|56=CATSOS|22=4|48=DE0005140008|55=BAADERBK|107=DE0005140008|131=18102799000215|132=123.56|133=134.56|134=10|135=12|167=OPT|200=205012|205=31|231=1|10=191|8=FIX.4.2|9=195|35=S|34=228|49=CITIFFT|52=20181027-16:56:28.385|56=CATSOS|22=4|48=DE0005140008|55=BAADERBK|107=DE0005140008|131=18102799000215|132=123.56|133=134.56|134=10|135=12|167=OPT|200=205012|205=31|231=1|10=191|8=FIX.4.2|9=195|35=S|34=228|49=CITIFFT|52=20181027-16:56:28.385|56=CATSOS|22=4|48=DE0005140008|55=BAADERBK|107=DE0005140008|131=18102799000215|132=123.56|133=134.56|134=10|135=12|167=OPT|200=205012|205=31|231=1|10=191|8=FIX.4.2|9=195|35=S|34=228|49=CITIFFT|52=20181027-16:56:28.385|56=CATSOS|22=4|48=DE0005140008|55=BAADERBK|107=DE0005140008|131=18102799000215|132=123.56|133=134.56|134=10|135=12|167=OPT|200=205012|205=31|231=1|10=191|8=FIX.4.2|9=195|35=S|34=228|49=CITIFFT|52=20181027-16:56:28.385|56=CATSOS|22=4|48=DE0005140008|55=BAADERBK|107=DE0005140008|131=18102799000215|132=123.56|133=134.56|134=10|135=12|167=OPT|200=205012|205=31|231=1|10=191|8=FIX.4.2|9=195|35=S|34=228|49=CITIFFT|52=20181027-16:56:28.385|56=CATSOS|22=4|48=DE0005140008|55=BAADERBK|107=DE0005140008|131=18102799000215|132=123.56|133=134.56|134=10|135=12|167=OPT|200=205012|205=31|231=1|10=191|8=FIX.4.2|9=195|35=S|34=228|49=CITIFFT|52=20181027-16:56:28.385|56=CATSOS|22=4|48=DE0005140008|55=BAADERBK|107=DE0005140008|131=18102799000215|132=123.56|133=134.56|134=10|135=12|167=OPT|200=205012|205=31|231=1|10=191|8=FIX.4.2|9=195|35=S|34=228|49=CITIFFT|52=20181027-16:56:28.385|56=CATSOS|22=4|48=DE0005140008|55=BAADERBK|107=DE0005140008|131=18102799000215|132=123.56|133=134.56|134=10|135=12|167=OPT|200=205012|205=31|231=1|10=191|8=FIX.4.2|9=195|35=S|34=228|49=CITIFFT|52=20181027-16:56:28.381|56=CATSOS|22=4|48=DE0005140008|55=BAADERBK|107=DE0005140008|131=18102799000215|132=123.56|133=134.56|134=10|135=12|167=OPT|200=205012|205=31|231=1|10=187|8=FIX.4.2|9=195|35=S|34=228|49=CITIFFT|52=20181027-16:56:28.381|56=CATSOS|22=4|48=DE0005140008|55=BAADERBK|107=DE0005140008|131=18102799000215|132=123.56|133=134.56|134=10|135=12|167=OPT|200=205012|205=31|231=1|10=187|8=FIX.4.2|9=195|35=S|34=228|49=CITIFFT|52=20181027-16:56:28.381|56=CATSOS|22=4|48=DE0005140008|55=BAADERBK|107=DE0005140008|131=18102799000215|132=123.56|133=134.56|134=10|135=12|167=OPT|200=205012|205=31|231=1|10=187|8=FIX.4.2|9=195|35=S|34=228|49=CITIFFT|52=20181027-16:56:28.381|56=CATSOS|22=4|48=DE0005140008|55=BAADERBK|107=DE0005140008|131=18102799000215|132=123.56|133=134.56|134=10|135=12|167=OPT|200=205012|205=31|231=1|10=187|8=FIX.4.2|9=195|35=S|34=228|49=CITIFFT|52=20181027-16:56:28.336|56=CATSOS|22=4|48=DE0005140008|55=BAADERBK|107=DE0005140008|131=18102799000215|132=123.56|133=134.56|134=10|135=12|167=OPT|200=205012|205=31|231=1|10=187|8=FIX.4.2|9=195|35=S|34=228|49=CITIFFT|52=20181027-16:56:28.336|56=CATSOS|22=4|48=DE0005140008|55=BAADERBK|107=DE0005140008|131=18102799000215|132=123.56|133=134.56|134=10|135=12|167=OPT|200=205012|205=31|231=1|10=187|8=FIX.4.2|9=195|35=S|34=228|49=CITIFFT|52=20181027-16:56:28.336|56=CATSOS|22=4|48=DE0005140008|55=BAADERBK|107=DE0005140008|131=18102799000215|132=123.56|133=134.56|134=10|135=12|167=OPT|200=205012|205=31|231=1|10=187|8=FIX.4.2|9=195|35=S|34=228|49=CITIFFT|52=20181027-16:56:28.336|56=CATSOS|22=4|48=DE0005140008|55=BAADERBK|107=DE0005140008|131=18102799000215|132=123.56|133=134.56|134=10|135=12|167=OPT|200=205012|205=31|231=1|10=187|8=FIX.4.2|9=195|35=S|34=228|49=CITIFFT|52=20181027-16:56:28.336|56=CATSOS|22=4|48=DE0005140008|55=BAADERBK|107=DE0005140008|131=18102799000215|132=123.56|133=134.56|134=10|135=12|167=OPT|200=205012|205=31|231=1|10=187|8=FIX.4.2|9=195|35=S|34=228|49=CITIFFT|52=20181027-16:56:28.336|56=CATSOS|22=4|48=DE0005140008|55=BAADERBK|107=DE0005140008|131=18102799000215|132=123.56|133=134.56|134=10|135=12|167=OPT|200=205012|205=31|231=1|10=187|8=FIX.4.2|9=195|35=S|34=228|49=CITIFFT|52=20181027-16:56:28.336|56=CATSOS|22=4|48=DE0005140008|55=BAADERBK|107=DE0005140008|131=18102799000215|132=123.56|133=134.56|134=10|135=12|167=OPT|200=205012|205=31|231=1|10=187|8=FIX.4.2|9=195|35=S|34=228|49=CITIFFT|52=20181027-16:56:28.336|56=CATSOS|22=4|48=DE0005140008|55=BAADERBK|107=DE0005140008|131=18102799000215|132=123.56|133=134.56|134=10|135=12|167=OPT|200=205012|205=31|231=1|10=187|8=FIX.4.2|9=195|35=S|34=228|49=CITIFFT|52=20181027-16:56:28.336|56=CATSOS|22=4|48=DE0005140008|55=BAADERBK|107=DE0005140008|131=18102799000215|132=123.56|133=134.56|134=10|135=12|167=OPT|200=205012|205=31|231=1|10=187|8=FIX.4.2|9=195|35=S|34=228|49=CITIFFT|52=20181027-16:56:28.336|56=CATSOS|22=4|48=DE0005140008|55=BAADERBK|107=DE0005140008|131=18102799000215|132=123.56|133=134.56|134=10|135=12|167=OPT|200=205012|205=31|231=1|10=187|8=FIX.4.2|9=195|35=S|34=228|49=CITIFFT|52=20181027-16:56:28.336|56=CATSOS|22=4|48=DE0005140008|55=BAADERBK|107=DE0005140008|131=18102799000215|132=123.56|133=134.56|134=10|135=12|167=OPT|200=205012|205=31|231=1|10=187|8=FIX.4.2|9=195|35=S|34=228|49=CITIFFT|52=20181027-16:56:28.336|56=CATSOS|22=4|48=DE0005140008|55=BAADERBK|107=DE0005140008|131=18102799000215|132=123.56|133=134.56|134=10|135=12|167=OPT|200=205012|205=31|231=1|10=187|8=FIX.4.2|9=195|35=S|34=228|49=CITIFFT|52=20181027-16:56:28.336|56=CATSOS|22=4|48=DE0005140008|55=BAADERBK|107=DE0005140008|131=18102799000215|132=123.56|133=134.56|134=10|135=12|167=OPT|200=205012|205=31|231=1|10=187|8=FIX.4.2|9=195|35=S|34=228|49=CITIFFT|52=20181027-16:56:28.336|56=CATSOS|22=4|48=DE0005140008|55=BAADERBK|107=DE0005140008|131=18102799000215|132=123.56|133=134.56|134=10|135=12|167=OPT|200=205012|205=31|231=1|10=187|8=FIX.4.2|9=195|35=S|34=228|49=CITIFFT|52=20181027-16:56:28.336|56=CATSOS|22=4|48=DE0005140008|55=BAADERBK|107=DE0005140008|131=18102799000215|132=123.56|133=134.56|134=10|135=12|167=OPT|200=205012|205=31|231=1|10=187|8=FIX.4.2|9=195|35=S|34=228|49=CITIFFT|52=20181027-16:56:28.322|56=CATSOS|22=4|48=DE0005140008|55=BAADERBK|107=DE0005140008|131=18102799000215|132=123.56|133=134.56|134=10|135=12|167=OPT|200=205012|205=31|231=1|10=182|8=FIX.4.2|9=195|35=S|34=228|49=CITIFFT|52=20181027-16:56:28.322|56=CATSOS|22=4|48=DE0005140008|55=BAADERBK|107=DE0005140008|131=18102799000215|132=123.56|133=134.56|134=10|135=12|167=OPT|200=205012|205=31|231=1|10=182|8=FIX.4.2|9=195|35=S|34=228|49=CITIFFT|52=20181027-16:56:28.322|56=CATSOS|22=4|48=DE0005140008|55=BAADERBK|107=DE0005140008|131=18102799000215|132=123.56|133=134.56|134=10|135=12|167=OPT|200=205012|205=31|231=1|10=182|8=FIX.4.2|9=195|35=S|34=228|49=CITIFFT|52=20181027-16:56:28.315|56=CATSOS|22=4|48=DE0005140008|55=BAADERBK|107=DE0005140008|131=18102799000215|132=123.56|133=134.56|134=10|135=12|167=OPT|200=205012|205=31|231=1|10=184|8=FIX.4.2|9=195|35=S|34=228|49=CITIFFT|52=20181027-16:56:28.315|56=CATSOS|22=4|48=DE0005140008|55=BAADERBK|107=DE0005140008|131=18102799000215|132=123.56|133=134.56|134=10|135=12|167=OPT|200=205012|205=31|231=1|10=184|8=FIX.4.2|9=195|35=S|34=228|49=CITIFFT|52=20181027-16:56:28.312|56=CATSOS|22=4|48=DE0005140008|55=BAADERBK|107=DE0005140008|131=18102799000215|132=123.56|133=134.56|134=10|135=12|167=OPT|200=205012|205=31|231=1|10=181|8=FIX.4.2|9=195|35=S|34=228|49=CITIFFT|52=20181027-16:56:28.312|56=CATSOS|22=4|48=DE0005140008|55=BAADERBK|107=DE0005140008|131=18102799000215|132=123.56|133=134.56|134=10|135=12|167=OPT|200=205012|205=31|231=1|10=181|8=FIX.4.2|9=195|35=S|34=228|49=CITIFFT|52=20181027-16:56:28.312|56=CATSOS|22=4|48=DE0005140008|55=BAADERBK|107=DE0005140008|131=18102799000215|132=123.56|133=134.56|134=10|135=12|167=OPT|200=205012|205=31|231=1|10=181|8=FIX.4.2|9=195|35=S|34=228|49=CITIFFT|52=20181027-16:56:28.312|56=CATSOS|22=4|48=DE0005140008|55=BAADERBK|107=DE0005140008|131=18102799000215|132=123.56|133=134.56|134=10|135=12|167=OPT|200=205012|205=31|231=1|10=181|8=FIX.4.2|9=195|35=S|34=228|49=CITIFFT|52=20181027-16:56:28.312|56=CATSOS|22=4|48=DE0005140008|55=BAADERBK|107=DE0005140008|131=18102799000215|132=123.56|133=134.56|134=10|135=12|167=OPT|200=205012|205=31|231=1|10=181|8=FIX.4.2|9=195|35=S|34=228|49=CITIFFT|52=20181027-16:56:28.312|56=CATSOS|22=4|48=DE0005140008|55=BAADERBK|107=DE0005140008|131=18102799000215|132=123.56|133=134.56|134=10|135=12|167=OPT|200=205012|205=31|231=1|10=181|8=FIX.4.2|9=195|35=S|34=228|49=CITIFFT|52=20181027-16:56:28.312|56=CATSOS|22=4|48=DE0005140008|55=BAADERBK|107=DE0005140008|131=18102799000215|132=123.56|133=134.56|134=10|135=12|167=OPT|200=205012|205=31|231=1|10=181|8=FIX.4.2|9=195|35=S|34=228|49=CITIFFT|52=20181027-16:56:28.312|56=CATSOS|22=4|48=DE0005140008|55=BAADERBK|107=DE0005140008|131=18102799000215|132=123.56|133=134.56|134=10|135=12|167=OPT|200=205012|205=31|231=1|10=181|8=FIX.4.2|9=195|35=S|34=228|49=CITIFFT|52=20181027-16:56:28.312|56=CATSOS|22=4|48=DE0005140008|55=BAADERBK|107=DE0005140008|131=18102799000215|132=123.56|133=134.56|134=10|135=12|167=OPT|200=205012|205=31|231=1|10=181|8=FIX.4.2|9=195|35=S|34=228|49=CITIFFT|52=20181027-16:56:28.312|56=CATSOS|22=4|48=DE0005140008|55=BAADERBK|107=DE0005140008|131=18102799000215|132=123.56|133=134.56|134=10|135=12|167=OPT|200=205012|205=31|231=1|10=181|8=FIX.4.2|9=195|35=S|34=228|49=CITIFFT|52=20181027-16:56:28.312|56=CATSOS|22=4|48=DE0005140008|55=BAADERBK|107=DE0005140008|131=18102799000215|132=123.56|133=134.56|134=10|135=12|167=OPT|200=205012|205=31|231=1|10=181|8=FIX.4.2|9=195|35=S|34=228|49=CITIFFT|52=20181027-16:56:28.312|56=CATSOS|22=4|48=DE0005140008|55=BAADERBK|107=DE0005140008|131=18102799000215|132=123.56|133=134.56|134=10|135=12|167=OPT|200=205012|205=31|231=1|10=181|8=FIX.4.2|9=195|35=S|34=228|49=CITIFFT|52=20181027-16:56:28.301|56=CATSOS|22=4|48=DE0005140008|55=BAADERBK|107=DE0005140008|131=18102799000215|132=123.56|133=134.56|134=10|135=12|167=OPT|200=205012|205=31|231=1|10=179|8=FIX.4.2|9=195|35=S|34=228|49=CITIFFT|52=20181027-16:56:28.301|56=CATSOS|22=4|48=DE0005140008|55=BAADERBK|107=DE0005140008|131=18102799000215|132=123.56|133=134.56|134=10|135=12|167=OPT|200=205012|205=31|231=1|10=179|8=FIX.4.2|9=195|35=S|34=228|49=CITIFFT|52=20181027-16:56:28.301|56=CATSOS|22=4|48=DE0005140008|55=BAADERBK|107=DE0005140008|131=18102799000215|132=123.56|133=134.56|134=10|135=12|167=OPT|200=205012|205=31|231=1|10=179|8=FIX.4.2|9=195|35=S|34=228|49=CITIFFT|52=20181027-16:56:28.301|56=CATSOS|22=4|48=DE0005140008|55=BAADERBK|107=DE0005140008|131=18102799000215|132=123.56|133=134.56|134=10|135=12|167=OPT|200=205012|205=31|231=1|10=179|8=FIX.4.2|9=195|35=S|34=228|49=CITIFFT|52=20181027-16:56:28.301|56=CATSOS|22=4|48=DE0005140008|55=BAADERBK|107=DE0005140008|131=18102799000215|132=123.56|133=134.56|134=10|135=12|167=OPT|200=205012|205=31|231=1|10=179|8=FIX.4.2|9=195|35=S|34=228|49=CITIFFT|52=20181027-16:56:28.301|56=CATSOS|22=4|48=DE0005140008|55=BAADERBK|107=DE0005140008|131=18102799000215|132=123.56|133=134.56|134=10|135=12|167=OPT|200=205012|205=31|231=1|10=179|8=FIX.4.2|9=195|35=S|34=228|49=CITIFFT|52=20181027-16:56:28.301|56=CATSOS|22=4|48=DE0005140008|55=BAADERBK|107=DE0005140008|131=18102799000215|132=123.56|133=134.56|134=10|135=12|167=OPT|200=205012|205=31|231=1|10=179|8=FIX.4.2|9=195|35=S|34=228|49=CITIFFT|52=20181027-16:56:28.301|56=CATSOS|22=4|48=DE0005140008|55=BAADERBK|107=DE0005140008|131=18102799000215|132=123.56|133=134.56|134=10|135=12|167=OPT|200=205012|205=31|231=1|10=179|8=FIX.4.2|9=195|35=S|34=228|49=CITIFFT|52=20181027-16:56:28.301|56=CATSOS|22=4|48=DE0005140008|55=BAADERBK|107=DE0005140008|131=18102799000215|132=123.56|133=134.56|134=10|135=12|167=OPT|200=205012|205=31|231=1|10=179|8=FIX.4.2|9=195|35=S|34=228|49=CITIFFT|52=20181027-16:56:28.301|56=CATSOS|22=4|48=DE0005140008|55=BAADERBK|107=DE0005140008|131=18102799000215|132=123.56|133=134.56|134=10|135=12|167=OPT|200=205012|205=31|231=1|10=179|8=FIX.4.2|9=195|35=S|34=228|49=CITIFFT|52=20181027-16:56:28.301|56=CATSOS|22=4|48=DE0005140008|55=BAADERBK|107=DE0005140008|131=18102799000215|132=123.56|133=134.56|134=10|135=12|167=OPT|200=205012|205=31|231=1|10=179|8=FIX.4.2|9=195|35=S|34=228|49=CITIFFT|52=20181027-16:56:28.301|56=CATSOS|22=4|48=DE0005140008|55=BAADERBK|107=DE0005140008|131=18102799000215|132=123.56|133=134.56|134=10|135=12|167=OPT|200=205012|205=31|231=1|10=179|8=FIX.4.2|9=195|35=S|34=228|49=CITIFFT|52=20181027-16:56:28.301|56=CATSOS|22=4|48=DE0005140008|55=BAADERBK|107=DE0005140008|131=18102799000215|132=123.56|133=134.56|134=10|135=12|167=OPT|200=205012|205=31|231=1|10=179|8=FIX.4.2|9=195|35=S|34=228|49=CITIFFT|52=20181027-16:56:28.301|56=CATSOS|22=4|48=DE0005140008|55=BAADERBK|107=DE0005140008|131=18102799000215|132=123.56|133=134.56|134=10|135=12|167=OPT|200=205012|205=31|231=1|10=179|8=FIX.4.2|9=195|35=S|34=228|49=CITIFFT|52=20181027-16:56:28.301|56=CATSOS|22=4|48=DE0005140008|55=BAADERBK|107=DE0005140008|131=18102799000215|132=123.56|133=134.56|134=10|135=12|167=OPT|200=205012|205=31|231=1|10=179|8=FIX.4.2|9=195|35=S|34=228|49=CITIFFT|52=20181027-16:56:28.301|56=CATSOS|22=4|48=DE0005140008|55=BAADERBK|107=DE0005140008|131=18102799000215|132=123.56|133=134.56|134=10|135=12|167=OPT|200=205012|205=31|231=1|10=179|8=FIX.4.2|9=195|35=S|34=228|49=CITIFFT|52=20181027-16:56:28.301|56=CATSOS|22=4|48=DE0005140008|55=BAADERBK|107=DE0005140008|131=18102799000215|132=123.56|133=134.56|134=10|135=12|167=OPT|200=205012|205=31|231=1|10=179|8=FIX.4.2|9=195|35=S|34=228|49=CITIFFT|52=20181027-16:56:28.301|56=CATSOS|22=4|48=DE0005140008|55=BAADERBK|107=DE0005140008|131=18102799000215|132=123.56|133=134.56|134=10|135=12|167=OPT|200=205012|205=31|231=1|10=179|8=FIX.4.2|9=195|35=S|34=228|49=CITIFFT|52=20181027-16:56:28.301|56=CATSOS|22=4|48=DE0005140008|55=BAADERBK|107=DE0005140008|131=18102799000215|132=123.56|133=134.56|134=10|135=12|167=OPT|200=205012|205=31|231=1|10=179|8=FIX.4.2|9=195|35=S|34=228|49=CITIFFT|52=20181027-16:56:28.301|56=CATSOS|22=4|48=DE0005140008|55=BAADERBK|107=DE0005140008|131=18102799000215|132=123.56|133=134.56|134=10|135=12|167=OPT|200=205012|205=31|231=1|10=179|8=FIX.4.2|9=195|35=S|34=228|49=CITIFFT|52=20181027-16:56:28.301|56=CATSOS|22=4|48=DE0005140008|55=BAADERBK|107=DE0005140008|131=18102799000215|132=123.56|133=134.56|134=10|135=12|167=OPT|200=205012|205=31|231=1|10=179|8=FIX.4.2|9=195|35=S|34=228|49=CITIFFT|52=20181027-16:56:28.301|56=CATSOS|22=4|48=DE0005140008|55=BAADERBK|107=DE0005140008|131=18102799000215|132=123.56|133=134.56|134=10|135=12|167=OPT|200=205012|205=31|231=1|10=179|8=FIX.4.2|9=195|35=S|34=228|49=CITIFFT|52=20181027-16:56:28.301|56=CATSOS|22=4|48=DE0005140008|55=BAADERBK|107=DE0005140008|131=18102799000215|132=123.56|133=134.56|134=10|135=12|167=OPT|200=205012|205=31|231=1|10=179|8=FIX.4.2|9=195|35=S|34=228|49=CITIFFT|52=20181027-16:56:28.301|56=CATSOS|22=4|48=DE0005140008|55=BAADERBK|107=DE0005140008|131=18102799000215|132=123.56|133=134.56|134=10|135=12|167=OPT|200=205012|205=31|231=1|10=179|8=FIX.4.2|9=195|35=S|34=228|49=CITIFFT|52=20181027-16:56:28.301|56=CATSOS|22=4|48=DE0005140008|55=BAADERBK|107=DE0005140008|131=18102799000215|132=123.56|133=134.56|134=10|135=12|167=OPT|200=205012|205=31|231=1|10=179|8=FIX.4.2|9=195|35=S|34=228|49=CITIFFT|52=20181027-16:56:28.301|56=CATSOS|22=4|48=DE0005140008|55=BAADERBK|107=DE0005140008|131=18102799000215|132=123.56|133=134.56|134=10|135=12|167=OPT|200=205012|205=31|231=1|10=179|8=FIX.4.2|9=195|35=S|34=228|49=CITIFFT|52=20181027-16:56:28.301|56=CATSOS|22=4|48=DE0005140008|55=BAADERBK|107=DE0005140008|131=18102799000215|132=123.56|133=134.56|134=10|135=12|167=OPT|200=205012|205=31|231=1|10=179|8=FIX.4.2|9=195|35=S|34=228|49=CITIFFT|52=20181027-16:56:28.301|56=CATSOS|22=4|48=DE0005140008|55=BAADERBK|107=DE0005140008|131=18102799000215|132=123.56|133=134.56|134=10|135=12|167=OPT|200=205012|205=31|231=1|10=179|8=FIX.4.2|9=195|35=S|34=228|49=CITIFFT|52=20181027-16:56:28.301|56=CATSOS|22=4|48=DE0005140008|55=BAADERBK|107=DE0005140008|131=18102799000215|132=123.56|133=134.56|134=10|135=12|167=OPT|200=205012|205=31|231=1|10=179|8=FIX.4.2|9=195|35=S|34=228|49=CITIFFT|52=20181027-16:56:28.301|56=CATSOS|22=4|48=DE0005140008|55=BAADERBK|107=DE0005140008|131=18102799000215|132=123.56|133=134.56|134=10|135=12|167=OPT|200=205012|205=31|231=1|10=179|8=FIX.4.2|9=195|35=S|34=228|49=CITIFFT|52=20181027-16:56:28.301|56=CATSOS|22=4|48=DE0005140008|55=BAADERBK|107=DE0005140008|131=18102799000215|132=123.56|133=134.56|134=10|135=12|167=OPT|200=205012|205=31|231=1|10=179|8=FIX.4.2|9=195|35=S|34=228|49=CITIFFT|52=20181027-16:56:28.301|56=CATSOS|22=4|48=DE0005140008|55=BAADERBK|107=DE0005140008|131=18102799000215|132=123.56|133=134.56|134=10|135=12|167=OPT|200=205012|205=31|231=1|10=179|8=FIX.4.2|9=195|35=S|34=228|49=CITIFFT|52=20181027-16:56:28.301|56=CATSOS|22=4|48=DE0005140008|55=BAADERBK|107=DE0005140008|131=18102799000215|132=123.56|133=134.56|134=10|135=12|167=OPT|200=205012|205=31|231=1|10=179|8=FIX.4.2|9=195|35=S|34=228|49=CITIFFT|52=20181027-16:56:28.301|56=CATSOS|22=4|48=DE0005140008|55=BAADERBK|107=DE0005140008|131=18102799000215|132=123.56|133=134.56|134=10|135=12|167=OPT|200=205012|205=31|231=1|10=179|8=FIX.4.2|9=195|35=S|34=228|49=CITIFFT|52=20181027-16:56:28.301|56=CATSOS|22=4|48=DE0005140008|55=BAADERBK|107=DE0005140008|131=18102799000215|132=123.56|133=134.56|134=10|135=12|167=OPT|200=205012|205=31|231=1|10=179|8=FIX.4.2|9=195|35=S|34=228|49=CITIFFT|52=20181027-16:56:28.301|56=CATSOS|22=4|48=DE0005140008|55=BAADERBK|107=DE0005140008|131=18102799000215|132=123.56|133=134.56|134=10|135=12|167=OPT|200=205012|205=31|231=1|10=179|8=FIX.4.2|9=195|35=S|34=228|49=CITIFFT|52=20181027-16:56:28.301|56=CATSOS|22=4|48=DE0005140008|55=BAADERBK|107=DE0005140008|131=18102799000215|132=123.56|133=134.56|134=10|135=12|167=OPT|200=205012|205=31|231=1|10=179|8=FIX.4.2|9=195|35=S|34=228|49=CITIFFT|52=20181027-16:56:28.301|56=CATSOS|22=4|48=DE0005140008|55=BAADERBK|107=DE0005140008|131=18102799000215|132=123.56|133=134.56|134=10|135=12|167=OPT|200=205012|205=31|231=1|10=179|8=FIX.4.2|9=195|35=S|34=228|49=CITIFFT|52=20181027-16:56:28.301|56=CATSOS|22=4|48=DE0005140008|55=BAADERBK|107=DE0005140008|131=18102799000215|132=123.56|133=134.56|134=10|135=12|167=OPT|200=205012|205=31|231=1|10=179|8=FIX.4.2|9=195|35=S|34=228|49=CITIFFT|52=20181027-16:56:28.301|56=CATSOS|22=4|48=DE0005140008|55=BAADERBK|107=DE0005140008|131=18102799000215|132=123.56|133=134.56|134=10|135=12|167=OPT|200=205012|205=31|231=1|10=179|8=FIX.4.2|9=195|35=S|34=228|49=CITIFFT|52=20181027-16:56:28.301|56=CATSOS|22=4|48=DE0005140008|55=BAADERBK|107=DE0005140008|131=18102799000215|132=123.56|133=134.56|134=10|135=12|167=OPT|200=205012|205=31|231=1|10=179|8=FIX.4.2|9=195|35=S|34=228|49=CITIFFT|52=20181027-16:56:28.301|56=CATSOS|22=4|48=DE0005140008|55=BAADERBK|107=DE0005140008|131=18102799000215|132=123.56|133=134.56|134=10|135=12|167=OPT|200=205012|205=31|231=1|10=179|8=FIX.4.2|9=195|35=S|34=228|49=CITIFFT|52=20181027-16:56:28.301|56=CATSOS|22=4|48=DE0005140008|55=BAADERBK|107=DE0005140008|131=18102799000215|132=123.56|133=134.56|134=10|135=12|167=OPT|200=205012|205=31|231=1|10=179|8=FIX.4.2|9=195|35=S|34=228|49=CITIFFT|52=20181027-16:56:28.301|56=CATSOS|22=4|48=DE0005140008|55=BAADERBK|107=DE0005140008|131=18102799000215|132=123.56|133=134.56|134=10|135=12|167=OPT|200=205012|205=31|231=1|10=179|8=FIX.4.2|9=195|35=S|34=228|49=CITIFFT|52=20181027-16:56:28.301|56=CATSOS|22=4|48=DE0005140008|55=BAADERBK|107=DE0005140008|131=18102799000215|132=123.56|133=134.56|134=10|135=12|167=OPT|200=205012|205=31|231=1|10=179|8=FIX.4.2|9=195|35=S|34=228|49=CITIFFT|52=20181027-16:56:28.301|56=CATSOS|22=4|48=DE0005140008|55=BAADERBK|107=DE0005140008|131=18102799000215|132=123.56|133=134.56|134=10|135=12|167=OPT|200=205012|205=31|231=1|10=179|8=FIX.4.2|9=195|35=S|34=228|49=CITIFFT|52=20181027-16:56:28.301|56=CATSOS|22=4|48=DE0005140008|55=BAADERBK|107=DE0005140008|131=18102799000215|132=123.56|133=134.56|134=10|135=12|167=OPT|200=205012|205=31|231=1|10=179|8=FIX.4.2|9=195|35=S|34=228|49=CITIFFT|52=20181027-16:56:28.301|56=CATSOS|22=4|48=DE0005140008|55=BAADERBK|107=DE0005140008|131=18102799000215|132=123.56|133=134.56|134=10|135=12|167=OPT|200=205012|205=31|231=1|10=179|8=FIX.4.2|9=195|35=S|34=228|49=CITIFFT|52=20181027-16:56:28.301|56=CATSOS|22=4|48=DE0005140008|55=BAADERBK|107=DE0005140008|131=18102799000215|132=123.56|133=134.56|134=10|135=12|167=OPT|200=205012|205=31|231=1|10=179|8=FIX.4.2|9=195|35=S|34=228|49=CITIFFT|52=20181027-16:56:28.301|56=CATSOS|22=4|48=DE0005140008|55=BAADERBK|107=DE0005140008|131=18102799000215|132=123.56|133=134.56|134=10|135=12|167=OPT|200=205012|205=31|231=1|10=179|8=FIX.4.2|9=195|35=S|34=228|49=CITIFFT|52=20181027-16:56:28.301|56=CATSOS|22=4|48=DE0005140008|55=BAADERBK|107=DE0005140008|131=18102799000215|132=123.56|133=134.56|134=10|135=12|167=OPT|200=205012|205=31|231=1|10=179|8=FIX.4.2|9=195|35=S|34=228|49=CITIFFT|52=20181027-16:56:28.301|56=CATSOS|22=4|48=DE0005140008|55=BAADERBK|107=DE0005140008|131=18102799000215|132=123.56|133=134.56|134=10|135=12|167=OPT|200=205012|205=31|231=1|10=179|8=FIX.4.2|9=195|35=S|34=228|49=CITIFFT|52=20181027-16:56:28.301|56=CATSOS|22=4|48=DE0005140008|55=BAADERBK|107=DE0005140008|131=18102799000215|132=123.56|133=134.56|134=10|135=12|167=OPT|200=205012|205=31|231=1|10=179|8=FIX.4.2|9=195|35=S|34=228|49=CITIFFT|52=20181027-16:56:28.301|56=CATSOS|22=4|48=DE0005140008|55=BAADERBK|107=DE0005140008|131=18102799000215|132=123.56|133=134.56|134=10|135=12|167=OPT|200=205012|205=31|231=1|10=179|8=FIX.4.2|9=195|35=S|34=228|49=CITIFFT|52=20181027-16:56:28.301|56=CATSOS|22=4|48=DE0005140008|55=BAADERBK|107=DE0005140008|131=18102799000215|132=123.56|133=134.56|134=10|135=12|167=OPT|200=205012|205=31|231=1|10=179|8=FIX.4.2|9=195|35=S|34=228|49=CITIFFT|52=20181027-16:56:28.301|56=CATSOS|22=4|48=DE0005140008|55=BAADERBK|107=DE0005140008|131=18102799000215|132=123.56|133=134.56|134=10|135=12|167=OPT|200=205012|205=31|231=1|10=179|8=FIX.4.2|9=195|35=S|34=228|49=CITIFFT|52=20181027-16:56:28.301|56=CATSOS|22=4|48=DE0005140008|55=BAADERBK|107=DE0005140008|131=18102799000215|132=123.56|133=134.56|134=10|135=12|167=OPT|200=205012|205=31|231=1|10=179|8=FIX.4.2|9=195|35=S|34=228|49=CITIFFT|52=20181027-16:56:28.301|56=CATSOS|22=4|48=DE0005140008|55=BAADERBK|107=DE0005140008|131=18102799000215|132=123.56|133=134.56|134=10|135=12|167=OPT|200=205012|205=31|231=1|10=179|8=FIX.4.2|9=195|35=S|34=228|49=CITIFFT|52=20181027-16:56:28.301|56=CATSOS|22=4|48=DE0005140008|55=BAADERBK|107=DE0005140008|131=18102799000215|132=123.56|133=134.56|134=10|135=12|167=OPT|200=205012|205=31|231=1|10=179|8=FIX.4.2|9=195|35=S|34=228|49=CITIFFT|52=20181027-16:56:28.301|56=CATSOS|22=4|48=DE0005140008|55=BAADERBK|107=DE0005140008|131=18102799000215|132=123.56|133=134.56|134=10|135=12|167=OPT|200=205012|205=31|231=1|10=179|8=FIX.4.2|9=195|35=S|34=228|49=CITIFFT|52=20181027-16:56:28.301|56=CATSOS|22=4|48=DE0005140008|55=BAADERBK|107=DE0005140008|131=18102799000215|132=123.56|133=134.56|134=10|135=12|167=OPT|200=205012|205=31|231=1|10=179|8=FIX.4.2|9=195|35=S|34=228|49=CITIFFT|52=20181027-16:56:28.301|56=CATSOS|22=4|48=DE0005140008|55=BAADERBK|107=DE0005140008|131=18102799000215|132=123.56|133=134.56|134=10|135=12|167=OPT|200=205012|205=31|231=1|10=179|8=FIX.4.2|9=195|35=S|34=228|49=CITIFFT|52=20181027-16:56:28.301|56=CATSOS|22=4|48=DE0005140008|55=BAADERBK|107=DE0005140008|131=18102799000215|132=123.56|133=134.56|134=10|135=12|167=OPT|200=205012|205=31|231=1|10=179|8=FIX.4.2|9=195|35=S|34=228|49=CITIFFT|52=20181027-16:56:28.301|56=CATSOS|22=4|48=DE0005140008|55=BAADERBK|107=DE0005140008|131=18102799000215|132=123.56|133=134.56|134=10|135=12|167=OPT|200=205012|205=31|231=1|10=179|8=FIX.4.2|9=195|35=S|34=228|49=CITIFFT|52=20181027-16:56:28.301|56=CATSOS|22=4|48=DE0005140008|55=BAADERBK|107=DE0005140008|131=18102799000215|132=123.56|133=134.56|134=10|135=12|167=OPT|200=205012|205=31|231=1|10=179|8=FIX.4.2|9=195|35=S|34=228|49=CITIFFT|52=20181027-16:56:28.301|56=CATSOS|22=4|48=DE0005140008|55=BAADERBK|107=DE0005140008|131=18102799000215|132=123.56|133=134.56|134=10|135=12|167=OPT|200=205012|205=31|231=1|10=179|8=FIX.4.2|9=195|35=S|34=228|49=CITIFFT|52=20181027-16:56:28.301|56=CATSOS|22=4|48=DE0005140008|55=BAADERBK|107=DE0005140008|131=18102799000215|132=123.56|133=134.56|134=10|135=12|167=OPT|200=205012|205=31|231=1|10=179|8=FIX.4.2|9=195|35=S|34=228|49=CITIFFT|52=20181027-16:56:28.301|56=CATSOS|22=4|48=DE0005140008|55=BAADERBK|107=DE0005140008|131=18102799000215|132=123.56|133=134.56|134=10|135=12|167=OPT|200=205012|205=31|231=1|10=179|8=FIX.4.2|9=195|35=S|34=228|49=CITIFFT|52=20181027-16:56:28.301|56=CATSOS|22=4|48=DE0005140008|55=BAADERBK|107=DE0005140008|131=18102799000215|132=123.56|133=134.56|134=10|135=12|167=OPT|200=205012|205=31|231=1|10=179|8=FIX.4.2|9=195|35=S|34=228|49=CITIFFT|52=20181027-16:56:28.301|56=CATSOS|22=4|48=DE0005140008|55=BAADERBK|107=DE0005140008|131=18102799000215|132=123.56|133=134.56|134=10|135=12|167=OPT|200=205012|205=31|231=1|10=179|8=FIX.4.2|9=195|35=S|34=228|49=CITIFFT|52=20181027-16:56:28.301|56=CATSOS|22=4|48=DE0005140008|55=BAADERBK|107=DE0005140008|131=18102799000215|132=123.56|133=134.56|134=10|135=12|167=OPT|200=205012|205=31|231=1|10=179|8=FIX.4.2|9=195|35=S|34=228|49=CITIFFT|52=20181027-16:56:28.301|56=CATSOS|22=4|48=DE0005140008|55=BAADERBK|107=DE0005140008|131=18102799000215|132=123.56|133=134.56|134=10|135=12|167=OPT|200=205012|205=31|231=1|10=179|8=FIX.4.2|9=195|35=S|34=228|49=CITIFFT|52=20181027-16:56:28.301|56=CATSOS|22=4|48=DE0005140008|55=BAADE