8=FIX.4.2|9=68|35=A|34=1|49=CITIFFT|52=20181028-07:24:43.924|56=CATSOS|98=0|108=30|10=225|8=FIX.4.2|9=56|35=5|34=2|49=CITIFFT|52=20181028-07:24:43.944|56=CATSOS|10=188|8=FIX.4.2|9=68|35=A|34=3|49=CITIFFT|52=20181028-07:25:13.914|56=CATSOS|98=0|108=30|10=224|8=FIX.4.2|9=56|35=5|34=4|49=CITIFFT|52=20181028-07:25:13.924|56=CATSOS|10=186|8=FIX.4.2|9=68|35=A|34=5|49=CITIFFT|52=20181028-07:25:44.904|56=CATSOS|98=0|108=30|10=229|8=FIX.4.2|9=65|35=2|34=6|49=CITIFFT|52=20181028-07:25:44.934|56=CATSOS|7=1|16=0|10=057|8=FIX.4.2|9=56|35=0|34=7|49=CITIFFT|52=20181028-07:26:14.960|56=CATSOS|10=186|8=FIX.4.2|9=189|35=S|34=8|49=CITIFFT|52=20181028-07:26:24.543|56=CATSOS|22=4|48=DE0005140008|55=BAADERBK|107=DE0005140008|131=NewQuoteID|132=123.56|133=134.56|134=10|135=12|167=OPT|200=205012|205=31|231=1|10=076|8=FIX.4.2|9=56|35=0|34=9|49=CITIFFT|52=20181028-07:26:54.552|56=CATSOS|10=189|8=FIX.4.2|9=57|35=0|34=10|49=CITIFFT|52=20181028-07:27:24.907|56=CATSOS|10=232|8=FIX.4.2|9=190|35=S|34=11|49=CITIFFT|52=20181028-07:27:32.317|56=CATSOS|22=4|48=DE0005140008|55=BAADERBK|107=DE0005140008|131=NewQuoteID|132=123.56|133=134.56|134=10|135=12|167=OPT|200=205012|205=31|231=1|10=109|8=FIX.4.2|9=69|35=A|34=12|49=CITIFFT|52=20181028-07:29:48.023|56=CATSOS|98=0|108=30|10=020|8=FIX.4.2|9=69|35=A|34=13|49=CITIFFT|52=20181028-07:30:21.353|56=CATSOS|98=0|108=30|10=010|8=FIX.4.2|9=57|35=0|34=14|49=CITIFFT|52=20181028-07:30:51.366|56=CATSOS|10=229|8=FIX.4.2|9=190|35=S|34=15|49=CITIFFT|52=20181028-07:30:59.747|56=CATSOS|22=4|48=DE0005140008|55=BAADERBK|107=DE0005140008|131=NewQuoteID|132=123.56|133=134.56|134=10|135=12|167=OPT|200=205012|205=31|231=1|10=123|8=FIX.4.2|9=69|35=A|34=16|49=CITIFFT|52=20181028-07:31:54.317|56=CATSOS|98=0|108=30|10=020|8=FIX.4.2|9=190|35=S|34=17|49=CITIFFT|52=20181028-07:32:02.423|56=CATSOS|22=4|48=DE0005140008|55=BAADERBK|107=DE0005140008|131=NewQuoteID|132=123.56|133=134.56|134=10|135=12|167=OPT|200=205012|205=31|231=1|10=106|8=FIX.4.2|9=57|35=0|34=18|49=CITIFFT|52=20181028-07:32:33.314|56=CATSOS|10=228|8=FIX.4.2|9=57|35=0|34=19|49=CITIFFT|52=20181028-07:33:03.326|56=CATSOS|10=230|8=FIX.4.2|9=69|35=A|34=20|49=CITIFFT|52=20181028-07:33:22.803|56=CATSOS|98=0|108=30|10=012|8=FIX.4.2|9=190|35=S|34=21|49=CITIFFT|52=20181028-07:33:32.993|56=CATSOS|22=4|48=DE0005140008|55=BAADERBK|107=DE0005140008|131=NewQuoteID|132=123.56|133=134.56|134=10|135=12|167=OPT|200=205012|205=31|231=1|10=117|8=FIX.4.2|9=69|35=A|34=22|49=CITIFFT|52=20181028-07:34:31.964|56=CATSOS|98=0|108=30|10=023|8=FIX.4.2|9=190|35=S|34=23|49=CITIFFT|52=20181028-07:34:42.223|56=CATSOS|22=4|48=DE0005140008|55=BAADERBK|107=DE0005140008|131=NewQuoteID|132=123.56|133=134.56|134=10|135=12|167=OPT|200=205012|205=31|231=1|10=107|8=FIX.4.2|9=57|35=0|34=24|49=CITIFFT|52=20181028-07:35:12.963|56=CATSOS|10=235|8=FIX.4.2|9=69|35=A|34=25|49=CITIFFT|52=20181028-07:35:39.997|56=CATSOS|98=0|108=30|10=041|8=FIX.4.2|9=190|35=S|34=26|49=CITIFFT|52=20181028-07:35:45.653|56=CATSOS|22=4|48=DE0005140008|55=BAADERBK|107=DE0005140008|131=NewQuoteID|132=123.56|133=134.56|134=10|135=12|167=OPT|200=205012|205=31|231=1|10=121|8=FIX.4.2|9=57|35=0|34=27|49=CITIFFT|52=20181028-07:36:15.993|56=CATSOS|10=245|8=FIX.4.2|9=69|35=A|34=28|49=CITIFFT|52=20181028-07:36:41.583|56=CATSOS|98=0|108=30|10=029|8=FIX.4.2|9=190|35=S|34=29|49=CITIFFT|52=20181028-07:36:47.733|56=CATSOS|22=4|48=DE0005140008|55=BAADERBK|107=DE0005140008|131=NewQuoteID|132=123.56|133=134.56|134=10|135=12|167=OPT|200=205012|205=31|231=1|10=126|8=FIX.4.2|9=190|35=S|34=30|49=CITIFFT|52=20181028-07:37:08.873|56=CATSOS|22=4|48=DE0005140008|55=BAADERBK|107=DE0005140008|131=NewQuoteID|132=123.56|133=134.56|134=10|135=12|167=OPT|200=205012|205=31|231=1|10=121|8=FIX.4.2|9=69|35=A|34=31|49=CITIFFT|52=20181028-07:37:49.136|56=CATSOS|98=0|108=30|10=026|8=FIX.4.2|9=190|35=S|34=32|49=CITIFFT|52=20181028-07:37:56.813|56=CATSOS|22=4|48=DE0005140008|55=BAADERBK|107=DE0005140008|131=NewQuoteID|132=123.56|133=134.56|134=10|135=12|167=OPT|200=205012|205=31|231=1|10=120|8=FIX.4.2|9=69|35=A|34=33|49=CITIFFT|52=20181028-07:40:55.893|56=CATSOS|98=0|108=30|10=029|8=FIX.4.2|9=190|35=S|34=34|49=CITIFFT|52=20181028-07:41:01.293|56=CATSOS|22=4|48=DE0005140008|55=BAADERBK|107=DE0005140008|131=NewQuoteID|132=123.56|133=134.56|134=10|135=12|167=OPT|200=205012|205=31|231=1|10=109|8=FIX.4.2|9=57|35=0|34=35|49=CITIFFT|52=20181028-07:41:31.906|56=CATSOS|10=232|8=FIX.4.2|9=57|35=0|34=36|49=CITIFFT|52=20181028-07:42:01.903|56=CATSOS|10=228|8=FIX.4.2|9=57|35=0|34=37|49=CITIFFT|52=20181028-07:42:31.903|56=CATSOS|10=232|8=FIX.4.2|9=57|35=0|34=38|49=CITIFFT|52=20181028-07:43:01.903|56=CATSOS|10=231|8=FIX.4.2|9=57|35=0|34=39|49=CITIFFT|52=20181028-07:43:31.903|56=CATSOS|10=235|8=FIX.4.2|9=57|35=0|34=40|49=CITIFFT|52=20181028-07:44:01.903|56=CATSOS|10=225|8=FIX.4.2|9=57|35=0|34=41|49=CITIFFT|52=20181028-07:44:32.891|56=CATSOS|10=236|8=FIX.4.2|9=57|35=0|34=42|49=CITIFFT|52=20181028-07:45:02.903|56=CATSOS|10=229|8=FIX.4.2|9=57|35=0|34=43|49=CITIFFT|52=20181028-07:45:33.892|56=CATSOS|10=241|8=FIX.4.2|9=57|35=0|34=44|49=CITIFFT|52=20181028-07:46:03.901|56=CATSOS|10=231|8=FIX.4.2|9=57|35=0|34=45|49=CITIFFT|52=20181028-07:46:33.903|56=CATSOS|10=237|8=FIX.4.2|9=57|35=0|34=46|49=CITIFFT|52=20181028-07:47:03.902|56=CATSOS|10=235|8=FIX.4.2|9=57|35=0|34=47|49=CITIFFT|52=20181028-07:47:33.902|56=CATSOS|10=239|8=FIX.4.2|9=57|35=0|34=48|49=CITIFFT|52=20181028-07:48:03.903|56=CATSOS|10=239|8=FIX.4.2|9=57|35=0|34=49|49=CITIFFT|52=20181028-07:48:34.902|56=CATSOS|10=243|8=FIX.4.2|9=89|35=0|34=50|49=CITIFFT|52=20181028-07:48:34.912|56=CATSOS|112=Appia-20181028-07:49:28.603|10=023|8=FIX.4.2|9=57|35=0|34=51|49=CITIFFT|52=20181028-07:49:04.919|56=CATSOS|10=242|8=FIX.4.2|9=57|35=0|34=52|49=CITIFFT|52=20181028-07:49:34.920|56=CATSOS|10=238|8=FIX.4.2|9=57|35=0|34=53|49=CITIFFT|52=20181028-07:50:04.922|56=CATSOS|10=230|8=FIX.4.2|9=57|35=0|34=54|49=CITIFFT|52=20181028-07:50:34.925|56=CATSOS|10=237|8=FIX.4.2|9=57|35=0|34=55|49=CITIFFT|52=20181028-07:51:04.922|56=CATSOS|10=233|8=FIX.4.2|9=190|35=S|34=56|49=CITIFFT|52=20181028-07:51:34.423|56=CATSOS|22=4|48=DE0005140008|55=BAADERBK|107=DE0005140008|131=NewQuoteID|132=123.56|133=134.56|134=10|135=12|167=OPT|200=205012|205=31|231=1|10=115|8=FIX.4.2|9=57|35=0|34=57|49=CITIFFT|52=20181028-07:52:04.902|56=CATSOS|10=234|8=FIX.4.2|9=57|35=0|34=58|49=CITIFFT|52=20181028-07:52:34.906|56=CATSOS|10=242|8=FIX.4.2|9=57|35=0|34=59|49=CITIFFT|52=20181028-07:53:05.902|56=CATSOS|10=238|8=FIX.4.2|9=57|35=0|34=60|49=CITIFFT|52=20181028-07:53:35.902|56=CATSOS|10=233|8=FIX.4.2|9=57|35=0|34=61|49=CITIFFT|52=20181028-07:54:06.905|56=CATSOS|10=236|8=FIX.4.2|9=89|35=0|34=62|49=CITIFFT|52=20181028-07:54:06.922|56=CATSOS|112=Appia-20181028-07:55:00.610|10=008|8=FIX.4.2|9=57|35=0|34=63|49=CITIFFT|52=20181028-07:54:36.922|56=CATSOS|10=240|8=FIX.4.2|9=57|35=0|34=64|49=CITIFFT|52=20181028-07:55:06.921|56=CATSOS|10=238|8=FIX.4.2|9=57|35=0|34=65|49=CITIFFT|52=20181028-07:55:36.921|56=CATSOS|10=242|8=FIX.4.2|9=57|35=0|34=66|49=CITIFFT|52=20181028-07:56:06.912|56=CATSOS|10=241|8=FIX.4.2|9=57|35=0|34=67|49=CITIFFT|52=20181028-07:56:36.921|56=CATSOS|10=245|8=FIX.4.2|9=57|35=0|34=68|49=CITIFFT|52=20181028-07:57:06.921|56=CATSOS|10=244|8=FIX.4.2|9=57|35=0|34=69|49=CITIFFT|52=20181028-07:57:36.926|56=CATSOS|10=253|8=FIX.4.2|9=57|35=0|34=70|49=CITIFFT|52=20181028-07:58:06.922|56=CATSOS|10=239|8=FIX.4.2|9=190|35=S|34=71|49=CITIFFT|52=20181028-07:58:22.992|56=CATSOS|22=4|48=DE0005140008|55=BAADERBK|107=DE0005140008|131=NewQuoteID|132=123.56|133=134.56|134=10|135=12|167=OPT|200=205012|205=31|231=1|10=127|8=FIX.4.2|9=57|35=0|34=72|49=CITIFFT|52=20181028-07:58:53.892|56=CATSOS|10=249|8=FIX.4.2|9=57|35=0|34=73|49=CITIFFT|52=20181028-07:59:23.892|56=CATSOS|10=248|8=FIX.4.2|9=57|35=0|34=74|49=CITIFFT|52=20181028-07:59:53.892|56=CATSOS|10=252|8=FIX.4.2|9=57|35=0|34=75|49=CITIFFT|52=20181028-08:00:23.902|56=CATSOS|10=229|8=FIX.4.2|9=57|35=0|34=76|49=CITIFFT|52=20181028-08:00:54.892|56=CATSOS|10=242|8=FIX.4.2|9=57|35=0|34=77|49=CITIFFT|52=20181028-08:01:24.902|56=CATSOS|10=233|8=FIX.4.2|9=57|35=0|34=78|49=CITIFFT|52=20181028-08:01:55.892|56=CATSOS|10=246|8=FIX.4.2|9=57|35=0|34=79|49=CITIFFT|52=20181028-08:02:25.902|56=CATSOS|10=237|8=FIX.4.2|9=57|35=0|34=80|49=CITIFFT|52=20181028-08:02:55.904|56=CATSOS|10=234|8=FIX.4.2|9=57|35=0|34=81|49=CITIFFT|52=20181028-08:03:25.911|56=CATSOS|10=231|8=FIX.4.2|9=57|35=0|34=82|49=CITIFFT|52=20181028-08:03:56.892|56=CATSOS|10=244|8=FIX.4.2|9=57|35=0|34=83|49=CITIFFT|52=20181028-08:04:26.902|56=CATSOS|10=235|8=FIX.4.2|9=57|35=0|34=84|49=CITIFFT|52=20181028-08:04:56.907|56=CATSOS|10=244|8=FIX.4.2|9=57|35=0|34=85|49=CITIFFT|52=20181028-08:05:26.901|56=CATSOS|10=237|8=FIX.4.2|9=57|35=0|34=86|49=CITIFFT|52=20181028-08:05:56.912|56=CATSOS|10=243|8=FIX.4.2|9=57|35=0|34=87|49=CITIFFT|52=20181028-08:06:27.892|56=CATSOS|10=250|8=FIX.4.2|9=89|35=0|34=88|49=CITIFFT|52=20181028-08:06:27.922|56=CATSOS|112=Appia-20181028-08:07:21.627|10=026|8=FIX.4.2|9=57|35=0|34=89|49=CITIFFT|52=20181028-08:06:57.921|56=CATSOS|10=248|8=FIX.4.2|9=57|35=0|34=90|49=CITIFFT|52=20181028-08:07:27.927|56=CATSOS|10=244|8=FIX.4.2|9=57|35=0|34=91|49=CITIFFT|52=20181028-08:07:57.928|56=CATSOS|10=249|8=FIX.4.2|9=57|35=0|34=92|49=CITIFFT|52=20181028-08:08:27.929|56=CATSOS|10=249|8=FIX.4.2|9=57|35=0|34=93|49=CITIFFT|52=20181028-08:08:57.929|56=CATSOS|10=253|8=FIX.4.2|9=57|35=0|34=94|49=CITIFFT|52=20181028-08:09:27.931|56=CATSOS|10=245|8=FIX.4.2|9=57|35=0|34=95|49=CITIFFT|52=20181028-08:09:57.924|56=CATSOS|10=251|8=FIX.4.2|9=57|35=0|34=96|49=CITIFFT|52=20181028-08:10:27.928|56=CATSOS|10=245|8=FIX.4.2|9=57|35=0|34=97|49=CITIFFT|52=20181028-08:10:57.938|56=CATSOS|10=250|8=FIX.4.2|9=57|35=0|34=98|49=CITIFFT|52=20181028-08:11:28.907|56=CATSOS|10=246|8=FIX.4.2|9=57|35=0|34=99|49=CITIFFT|52=20181028-08:11:59.907|56=CATSOS|10=251|8=FIX.4.2|9=58|35=0|34=100|49=CITIFFT|52=20181028-08:12:30.897|56=CATSOS|10=025|8=FIX.4.2|9=58|35=0|34=101|49=CITIFFT|52=20181028-08:13:00.897|56=CATSOS|10=024|8=FIX.4.2|9=58|35=0|34=102|49=CITIFFT|52=20181028-08:13:30.907|56=CATSOS|10=020|8=FIX.4.2|9=58|35=0|34=103|49=CITIFFT|52=20181028-08:14:01.897|56=CATSOS|10=028|8=FIX.4.2|9=58|35=0|34=104|49=CITIFFT|52=20181028-08:14:31.907|56=CATSOS|10=024|8=FIX.4.2|9=58|35=0|34=105|49=CITIFFT|52=20181028-08:15:02.895|56=CATSOS|10=030|8=FIX.4.2|9=58|35=0|34=106|49=CITIFFT|52=20181028-08:15:32.896|56=CATSOS|10=035|8=FIX.4.2|9=58|35=0|34=107|49=CITIFFT|52=20181028-08:16:02.906|56=CATSOS|10=026|8=FIX.4.2|9=58|35=0|34=108|49=CITIFFT|52=20181028-08:16:32.906|56=CATSOS|10=030|8=FIX.4.2|9=58|35=0|34=109|49=CITIFFT|52=20181028-08:17:02.897|56=CATSOS|10=038|8=FIX.4.2|9=58|35=0|34=110|49=CITIFFT|52=20181028-08:17:32.891|56=CATSOS|10=027|8=FIX.4.2|9=58|35=0|34=111|49=CITIFFT|52=20181028-08:18:02.890|56=CATSOS|10=025|8=FIX.4.2|9=58|35=0|34=112|49=CITIFFT|52=20181028-08:18:32.897|56=CATSOS|10=036|8=FIX.4.2|9=58|35=0|34=113|49=CITIFFT|52=20181028-08:19:02.895|56=CATSOS|10=033|8=FIX.4.2|9=58|35=0|34=114|49=CITIFFT|52=20181028-08:19:32.891|56=CATSOS|10=033|8=FIX.4.2|9=58|35=0|34=115|49=CITIFFT|52=20181028-08:20:02.900|56=CATSOS|10=014|8=FIX.4.2|9=58|35=0|34=116|49=CITIFFT|52=20181028-08:20:32.892|56=CATSOS|10=028|8=FIX.4.2|9=58|35=0|34=117|49=CITIFFT|52=20181028-08:21:02.896|56=CATSOS|10=031|8=FIX.4.2|9=58|35=0|34=118|49=CITIFFT|52=20181028-08:21:32.896|56=CATSOS|10=035|8=FIX.4.2|9=58|35=0|34=119|49=CITIFFT|52=20181028-08:22:02.906|56=CATSOS|10=026|8=FIX.4.2|9=191|35=S|34=120|49=CITIFFT|52=20181028-08:22:25.897|56=CATSOS|22=4|48=DE0005140008|55=BAADERBK|107=DE0005140008|131=NewQuoteID|132=123.56|133=134.56|134=10|135=12|167=OPT|200=205012|205=31|231=1|10=170|8=FIX.4.2|9=58|35=0|34=121|49=CITIFFT|52=20181028-08:22:55.897|56=CATSOS|10=036|8=FIX.4.2|9=58|35=0|34=122|49=CITIFFT|52=20181028-08:23:25.896|56=CATSOS|10=034|8=FIX.4.2|9=58|35=0|34=123|49=CITIFFT|52=20181028-08:23:55.906|56=CATSOS|10=030|8=FIX.4.2|9=58|35=0|34=124|49=CITIFFT|52=20181028-08:24:26.907|56=CATSOS|10=031|8=FIX.4.2|9=90|35=0|34=125|49=CITIFFT|52=20181028-08:24:26.922|56=CATSOS|112=Appia-20181028-08:25:20.637|10=057|8=FIX.4.2|9=58|35=0|34=126|49=CITIFFT|52=20181028-08:24:56.922|56=CATSOS|10=033|8=FIX.4.2|9=58|35=0|34=127|49=CITIFFT|52=20181028-08:25:26.927|56=CATSOS|10=037|8=FIX.4.2|9=58|35=0|34=128|49=CITIFFT|52=20181028-08:25:56.924|56=CATSOS|10=038|8=FIX.4.2|9=58|35=0|34=129|49=CITIFFT|52=20181028-08:26:26.921|56=CATSOS|10=034|8=FIX.4.2|9=58|35=0|34=130|49=CITIFFT|52=20181028-08:26:56.920|56=CATSOS|10=028|8=FIX.4.2|9=58|35=0|34=131|49=CITIFFT|52=20181028-08:27:26.924|56=CATSOS|10=031|8=FIX.4.2|9=58|35=0|34=132|49=CITIFFT|52=20181028-08:27:56.921|56=CATSOS|10=032|8=FIX.4.2|9=58|35=0|34=133|49=CITIFFT|52=20181028-08:28:26.920|56=CATSOS|10=030|8=FIX.4.2|9=58|35=0|34=134|49=CITIFFT|52=20181028-08:28:56.921|56=CATSOS|10=035|8=FIX.4.2|9=58|35=0|34=135|49=CITIFFT|52=20181028-08:29:26.921|56=CATSOS|10=034|8=FIX.4.2|9=58|35=0|34=136|49=CITIFFT|52=20181028-08:29:56.919|56=CATSOS|10=045|8=FIX.4.2|9=58|35=0|34=137|49=CITIFFT|52=20181028-08:30:26.922|56=CATSOS|10=029|8=FIX.4.2|9=191|35=S|34=138|49=CITIFFT|52=20181028-08:30:39.339|56=CATSOS|22=4|48=DE0005140008|55=BAADERBK|107=DE0005140008|131=NewQuoteID|132=123.56|133=134.56|134=10|135=12|167=OPT|200=205012|205=31|231=1|10=174|8=FIX.4.2|9=58|35=0|34=139|49=CITIFFT|52=20181028-08:31:09.909|56=CATSOS|10=038|8=FIX.4.2|9=58|35=0|34=140|49=CITIFFT|52=20181028-08:31:39.904|56=CATSOS|10=028|8=FIX.4.2|9=58|35=0|34=141|49=CITIFFT|52=20181028-08:32:09.906|56=CATSOS|10=029|8=FIX.4.2|9=58|35=0|34=142|49=CITIFFT|52=20181028-08:32:40.902|56=CATSOS|10=021|8=FIX.4.2|9=58|35=0|34=143|49=CITIFFT|52=20181028-08:33:10.903|56=CATSOS|10=021|8=FIX.4.2|9=58|35=0|34=144|49=CITIFFT|52=20181028-08:33:40.906|56=CATSOS|10=028|8=FIX.4.2|9=58|35=0|34=145|49=CITIFFT|52=20181028-08:34:11.891|56=CATSOS|10=031|8=FIX.4.2|9=58|35=0|34=146|49=CITIFFT|52=20181028-08:34:41.900|56=CATSOS|10=026|8=FIX.4.2|9=58|35=0|34=147|49=CITIFFT|52=20181028-08:35:11.905|56=CATSOS|10=030|8=FIX.4.2|9=58|35=0|34=148|49=CITIFFT|52=20181028-08:35:41.898|56=CATSOS|10=045|8=FIX.4.2|9=58|35=0|34=149|49=CITIFFT|52=20181028-08:36:11.907|56=CATSOS|10=035|8=FIX.4.2|9=58|35=0|34=150|49=CITIFFT|52=20181028-08:36:41.899|56=CATSOS|10=040|8=FIX.4.2|9=58|35=0|34=151|49=CITIFFT|52=20181028-08:37:11.895|56=CATSOS|10=035|8=FIX.4.2|9=58|35=0|34=152|49=CITIFFT|52=20181028-08:37:41.897|56=CATSOS|10=041|8=FIX.4.2|9=58|35=0|34=153|49=CITIFFT|52=20181028-08:38:11.901|56=CATSOS|10=026|8=FIX.4.2|9=58|35=0|34=154|49=CITIFFT|52=20181028-08:38:41.905|56=CATSOS|10=034|8=FIX.4.2|9=58|35=0|34=155|49=CITIFFT|52=20181028-08:39:11.897|56=CATSOS|10=043|8=FIX.4.2|9=58|35=0|34=156|49=CITIFFT|52=20181028-08:39:41.908|56=CATSOS|10=040|8=FIX.4.2|9=58|35=0|34=157|49=CITIFFT|52=20181028-08:40:11.906|56=CATSOS|10=028|8=FIX.4.2|9=191|35=S|34=158|49=CITIFFT|52=20181028-08:40:15.676|56=CATSOS|22=4|48=DE0005140008|55=BAADERBK|107=DE0005140008|131=NewQuoteID|132=123.56|133=134.56|134=10|135=12|167=OPT|200=205012|205=31|231=1|10=175|8=FIX.4.2|9=58|35=0|34=159|49=CITIFFT|52=20181028-08:40:45.897|56=CATSOS|10=046|8=FIX.4.2|9=58|35=0|34=160|49=CITIFFT|52=20181028-08:41:15.905|56=CATSOS|10=026|8=FIX.4.2|9=58|35=0|34=161|49=CITIFFT|52=20181028-08:41:45.902|56=CATSOS|10=027|8=FIX.4.2|9=58|35=0|34=162|49=CITIFFT|52=20181028-08:42:15.902|56=CATSOS|10=026|8=FIX.4.2|9=58|35=0|34=163|49=CITIFFT|52=20181028-08:42:45.901|56=CATSOS|10=029|8=FIX.4.2|9=58|35=0|34=164|49=CITIFFT|52=20181028-08:43:15.905|56=CATSOS|10=032|8=FIX.4.2|9=58|35=0|34=165|49=CITIFFT|52=20181028-08:43:45.898|56=CATSOS|10=047|8=FIX.4.2|9=58|35=0|34=166|49=CITIFFT|52=20181028-08:44:15.901|56=CATSOS|10=031|8=FIX.4.2|9=58|35=0|34=167|49=CITIFFT|52=20181028-08:44:46.891|56=CATSOS|10=044|8=FIX.4.2|9=58|35=0|34=168|49=CITIFFT|52=20181028-08:45:16.906|56=CATSOS|10=040|8=FIX.4.2|9=58|35=0|34=169|49=CITIFFT|52=20181028-08:45:46.908|56=CATSOS|10=046|8=FIX.4.2|9=58|35=0|34=170|49=CITIFFT|52=20181028-08:46:16.904|56=CATSOS|10=032|8=FIX.4.2|9=58|35=0|34=171|49=CITIFFT|52=20181028-08:46:46.898|56=CATSOS|10=048|8=FIX.4.2|9=58|35=0|34=172|49=CITIFFT|52=20181028-08:47:16.894|56=CATSOS|10=043|8=FIX.4.2|9=58|35=0|34=173|49=CITIFFT|52=20181028-08:47:46.894|56=CATSOS|10=047|8=FIX.4.2|9=58|35=0|34=174|49=CITIFFT|52=20181028-08:48:16.899|56=CATSOS|10=051|8=FIX.4.2|9=58|35=0|34=175|49=CITIFFT|52=20181028-08:48:46.897|56=CATSOS|10=053|8=FIX.4.2|9=58|35=0|34=176|49=CITIFFT|52=20181028-08:49:16.895|56=CATSOS|10=050|8=FIX.4.2|9=58|35=0|34=177|49=CITIFFT|52=20181028-08:49:46.895|56=CATSOS|10=054|8=FIX.4.2|9=70|35=A|34=178|49=CITIFFT|52=20181028-08:50:29.469|56=CATSOS|98=0|108=30|10=081|8=FIX.4.2|9=58|35=0|34=179|49=CITIFFT|52=20181028-08:50:59.498|56=CATSOS|10=051|8=FIX.4.2|9=191|35=S|34=180|49=CITIFFT|52=20181028-08:51:12.985|56=CATSOS|22=4|48=DE0005140008|55=BAADERBK|107=DE0005140008|131=NewQuoteID|132=123.56|133=134.56|134=10|135=12|167=OPT|200=205012|205=31|231=1|10=172|8=FIX.4.2|9=58|35=0|34=181|49=CITIFFT|52=20181028-08:51:43.455|56=CATSOS|10=031|8=FIX.4.2|9=191|35=S|34=182|49=CITIFFT|52=20181028-08:52:05.845|56=CATSOS|22=4|48=DE0005140008|55=BAADERBK|107=DE0005140008|131=NewQuoteID|132=123.56|133=134.56|134=10|135=12|167=OPT|200=205012|205=31|231=1|10=172|8=FIX.4.2|9=191|35=S|34=183|49=CITIFFT|52=20181028-08:52:14.911|56=CATSOS|22=4|48=DE0005140008|55=BAADERBK|107=DE0005140008|131=NewQuoteID|132=123.56|133=134.56|134=10|135=12|167=OPT|200=205012|205=31|231=1|10=167|8=FIX.4.2|9=58|35=0|34=184|49=CITIFFT|52=20181028-08:52:45.466|56=CATSOS|10=039|8=FIX.4.2|9=58|35=0|34=185|49=CITIFFT|52=20181028-08:53:16.457|56=CATSOS|10=039|8=FIX.4.2|9=58|35=0|34=186|49=CITIFFT|52=20181028-08:53:46.466|56=CATSOS|10=043|8=FIX.4.2|9=191|35=S|34=187|49=CITIFFT|52=20181028-08:54:15.285|56=CATSOS|22=4|48=DE0005140008|55=BAADERBK|107=DE0005140008|131=NewQuoteID|132=123.56|133=134.56|134=10|135=12|167=OPT|200=205012|205=31|231=1|10=178|8=FIX.4.2|9=191|35=S|34=188|49=CITIFFT|52=20181028-08:54:24.365|56=CATSOS|22=4|48=DE0005140008|55=BAADERBK|107=DE0005140008|131=NewQuoteID|132=123.56|133=134.56|134=10|135=12|167=OPT|200=205012|205=31|231=1|10=178|8=FIX.4.2|9=191|35=S|34=189|49=CITIFFT|52=20181028-08:54:33.443|56=CATSOS|22=4|48=DE0005140008|55=BAADERBK|107=DE0005140008|131=NewQuoteID|132=123.56|133=134.56|134=10|135=12|167=OPT|200=205012|205=31|231=1|10=176|8=FIX.4.2|9=191|35=S|34=190|49=CITIFFT|52=20181028-08:54:42.495|56=CATSOS|22=4|48=DE0005140008|55=BAADERBK|107=DE0005140008|131=NewQuoteID|132=123.56|133=134.56|134=10|135=12|167=OPT|200=205012|205=31|231=1|10=175|8=FIX.4.2|9=191|35=S|34=191|49=CITIFFT|52=20181028-08:54:51.591|56=CATSOS|22=4|48=DE0005140008|55=BAADERBK|107=DE0005140008|131=NewQuoteID|132=123.56|133=134.56|134=10|135=12|167=OPT|200=205012|205=31|231=1|10=173|8=FIX.4.2|9=191|35=S|34=192|49=CITIFFT|52=20181028-08:55:00.705|56=CATSOS|22=4|48=DE0005140008|55=BAADERBK|107=DE0005140008|131=NewQuoteID|132=123.56|133=134.56|134=10|135=12|167=OPT|200=205012|205=31|231=1|10=166|8=FIX.4.2|9=58|35=0|34=193|49=CITIFFT|52=20181028-08:55:31.464|56=CATSOS|10=035|8=FIX.4.2|9=191|35=S|34=194|49=CITIFFT|52=20181028-08:55:38.589|56=CATSOS|22=4|48=DE0005140008|55=BAADERBK|107=DE0005140008|131=NewQuoteID|132=123.56|133=134.56|134=10|135=12|167=OPT|200=205012|205=31|231=1|10=189|8=FIX.4.2|9=58|35=0|34=195|49=CITIFFT|52=20181028-08:56:09.455|56=CATSOS|10=043|8=FIX.4.2|9=58|35=0|34=196|49=CITIFFT|52=20181028-08:56:39.456|56=CATSOS|10=048|8=FIX.4.2|9=58|35=0|34=197|49=CITIFFT|52=20181028-08:57:09.456|56=CATSOS|10=047|8=FIX.4.2|9=58|35=0|34=198|49=CITIFFT|52=20181028-08:57:39.452|56=CATSOS|10=047|8=FIX.4.2|9=58|35=0|34=199|49=CITIFFT|52=20181028-08:58:09.456|56=CATSOS|10=050|8=FIX.4.2|9=58|35=0|34=200|49=CITIFFT|52=20181028-08:58:39.458|56=CATSOS|10=038|8=FIX.4.2|9=58|35=0|34=201|49=CITIFFT|52=20181028-08:59:09.454|56=CATSOS|10=033|8=FIX.4.2|9=58|35=0|34=202|49=CITIFFT|52=20181028-08:59:39.456|56=CATSOS|10=039|8=FIX.4.2|9=58|35=0|34=203|49=CITIFFT|52=20181028-09:00:09.468|56=CATSOS|10=027|8=FIX.4.2|9=58|35=0|34=204|49=CITIFFT|52=20181028-09:00:39.466|56=CATSOS|10=029|8=FIX.4.2|9=58|35=0|34=205|49=CITIFFT|52=20181028-09:01:09.457|56=CATSOS|10=028|8=FIX.4.2|9=58|35=0|34=206|49=CITIFFT|52=20181028-09:01:39.457|56=CATSOS|10=032|8=FIX.4.2|9=58|35=0|34=207|49=CITIFFT|52=20181028-09:02:09.467|56=CATSOS|10=032|8=FIX.4.2|9=58|35=0|34=208|49=CITIFFT|52=20181028-09:02:39.466|56=CATSOS|10=035|8=FIX.4.2|9=58|35=0|34=209|49=CITIFFT|52=20181028-09:03:10.457|56=CATSOS|10=026|8=FIX.4.2|9=58|35=0|34=210|49=CITIFFT|52=20181028-09:03:40.465|56=CATSOS|10=020|8=FIX.4.2|9=58|35=0|34=211|49=CITIFFT|52=20181028-09:04:10.463|56=CATSOS|10=017|8=FIX.4.2|9=58|35=0|34=212|49=CITIFFT|52=20181028-09:04:40.457|56=CATSOS|10=024|8=FIX.4.2|9=58|35=0|34=213|49=CITIFFT|52=20181028-09:05:10.461|56=CATSOS|10=018|8=FIX.4.2|9=58|35=0|34=214|49=CITIFFT|52=20181028-09:05:41.458|56=CATSOS|10=029|8=FIX.4.2|9=58|35=0|34=215|49=CITIFFT|52=20181028-09:06:11.459|56=CATSOS|10=029|8=FIX.4.2|9=191|35=S|34=216|49=CITIFFT|52=20181028-09:06:15.052|56=CATSOS|22=4|48=DE0005140008|55=BAADERBK|107=DE0005140008|131=NewQuoteID|132=123.56|133=134.56|134=10|135=12|167=OPT|200=205012|205=31|231=1|10=161|8=FIX.4.2|9=191|35=S|34=217|49=CITIFFT|52=20181028-09:06:24.136|56=CATSOS|22=4|48=DE0005140008|55=BAADERBK|107=DE0005140008|131=NewQuoteID|132=123.56|133=134.56|134=10|135=12|167=OPT|200=205012|205=31|231=1|10=165|8=FIX.4.2|9=58|35=0|34=218|49=CITIFFT|52=20181028-09:06:54.455|56=CATSOS|10=035|8=FIX.4.2|9=191|35=S|34=219|49=CITIFFT|52=20181028-09:06:59.330|56=CATSOS|22=4|48=DE0005140008|55=BAADERBK|107=DE0005140008|131=NewQuoteID|132=123.56|133=134.56|134=10|135=12|167=OPT|200=205012|205=31|231=1|10=171|8=FIX.4.2|9=191|35=S|34=220|49=CITIFFT|52=20181028-09:07:08.404|56=CATSOS|22=4|48=DE0005140008|55=BAADERBK|107=DE0005140008|131=NewQuoteID|132=123.56|133=134.56|134=10|135=12|167=OPT|200=205012|205=31|231=1|10=160|8=FIX.4.2|9=191|35=S|34=221|49=CITIFFT|52=20181028-09:07:17.462|56=CATSOS|22=4|48=DE0005140008|55=BAADERBK|107=DE0005140008|131=NewQuoteID|132=123.56|133=134.56|134=10|135=12|167=OPT|200=205012|205=31|231=1|10=165|8=FIX.4.2|9=191|35=S|34=222|49=CITIFFT|52=20181028-09:07:26.549|56=CATSOS|22=4|48=DE0005140008|55=BAADERBK|107=DE0005140008|131=NewQuoteID|132=123.56|133=134.56|134=10|135=12|167=OPT|200=205012|205=31|231=1|10=172|8=FIX.4.2|9=70|35=A|34=223|49=CITIFFT|52=20181028-09:07:54.475|56=CATSOS|98=0|108=30|10=070|8=FIX.4.2|9=191|35=S|34=224|49=CITIFFT|52=20181028-09:08:12.113|56=CATSOS|22=4|48=DE0005140008|55=BAADERBK|107=DE0005140008|131=NewQuoteID|132=123.56|133=134.56|134=10|135=12|167=OPT|200=205012|205=31|231=1|10=157|8=FIX.4.2|9=191|35=S|34=225|49=CITIFFT|52=20181028-09:08:22.818|56=CATSOS|22=4|48=DE0005140008|55=BAADERBK|107=DE0005140008|131=NewQuoteID|132=123.56|133=134.56|134=10|135=12|167=OPT|200=205012|205=31|231=1|10=171|8=FIX.4.2|9=58|35=0|34=226|49=CITIFFT|52=20181028-09:08:53.466|56=CATSOS|10=037|8=FIX.4.2|9=58|35=0|34=227|49=CITIFFT|52=20181028-09:09:23.471|56=CATSOS|10=032|8=FIX.4.2|9=58|35=0|34=228|49=CITIFFT|52=20181028-09:09:53.471|56=CATSOS|10=036|8=FIX.4.2|9=58|35=0|34=229|49=CITIFFT|52=20181028-09:10:23.474|56=CATSOS|10=029|8=FIX.4.2|9=191|35=S|34=230|49=CITIFFT|52=20181028-09:10:46.022|56=CATSOS|22=4|48=DE0005140008|55=BAADERBK|107=DE0005140008|131=NewQuoteID|132=123.56|133=134.56|134=10|135=12|167=OPT|200=205012|205=31|231=1|10=153|8=FIX.4.2|9=191|35=S|34=231|49=CITIFFT|52=20181028-09:10:55.113|56=CATSOS|22=4|48=DE0005140008|55=BAADERBK|107=DE0005140008|131=NewQuoteID|132=123.56|133=134.56|134=10|135=12|167=OPT|200=205012|205=31|231=1|10=155|8=FIX.4.2|9=191|35=S|34=232|49=CITIFFT|52=20181028-09:11:04.192|56=CATSOS|22=4|48=DE0005140008|55=BAADERBK|107=DE0005140008|131=NewQuoteID|132=123.56|133=134.56|134=10|135=12|167=OPT|200=205012|205=31|231=1|10=158|8=FIX.4.2|9=191|35=S|34=233|49=CITIFFT|52=20181028-09:11:13.262|56=CATSOS|22=4|48=DE0005140008|55=BAADERBK|107=DE0005140008|131=NewQuoteID|132=123.56|133=134.56|134=10|135=12|167=OPT|200=205012|205=31|231=1|10=157|8=FIX.4.2|9=191|35=S|34=234|49=CITIFFT|52=20181028-09:11:22.334|56=CATSOS|22=4|48=DE0005140008|55=BAADERBK|107=DE0005140008|131=NewQuoteID|132=123.56|133=134.56|134=10|135=12|167=OPT|200=205012|205=31|231=1|10=158|8=FIX.4.2|9=191|35=S|34=235|49=CITIFFT|52=20181028-09:11:31.428|56=CATSOS|22=4|48=DE0005140008|55=BAADERBK|107=DE0005140008|131=NewQuoteID|132=123.56|133=134.56|134=10|135=12|167=OPT|200=205012|205=31|231=1|10=163|8=FIX.4.2|9=191|35=S|34=236|49=CITIFFT|52=20181028-09:11:40.520|56=CATSOS|22=4|48=DE0005140008|55=BAADERBK|107=DE0005140008|131=NewQuoteID|132=123.56|133=134.56|134=10|135=12|167=OPT|200=205012|205=31|231=1|10=157|8=FIX.4.2|9=191|35=S|34=237|49=CITIFFT|52=20181028-09:11:49.613|56=CATSOS|22=4|48=DE0005140008|55=BAADERBK|107=DE0005140008|131=NewQuoteID|132=123.56|133=134.56|134=10|135=12|167=OPT|200=205012|205=31|231=1|10=170|8=FIX.4.2|9=191|35=S|34=238|49=CITIFFT|52=20181028-09:11:58.725|56=CATSOS|22=4|48=DE0005140008|55=BAADERBK|107=DE0005140008|131=NewQuoteID|132=123.56|133=134.56|134=10|135=12|167=OPT|200=205012|205=31|231=1|10=175|8=FIX.4.2|9=191|35=S|34=239|49=CITIFFT|52=20181028-09:12:07.814|56=CATSOS|22=4|48=DE0005140008|55=BAADERBK|107=DE0005140008|131=NewQuoteID|132=123.56|133=134.56|134=10|135=12|167=OPT|200=205012|205=31|231=1|10=170|8=FIX.4.2|9=191|35=S|34=240|49=CITIFFT|52=20181028-09:12:16.884|56=CATSOS|22=4|48=DE0005140008|55=BAADERBK|107=DE0005140008|131=NewQuoteID|132=123.56|133=134.56|134=10|135=12|167=OPT|200=205012|205=31|231=1|10=169|8=FIX.4.2|9=191|35=S|34=241|49=CITIFFT|52=20181028-09:12:25.994|56=CATSOS|22=4|48=DE0005140008|55=BAADERBK|107=DE0005140008|131=NewQuoteID|132=123.56|133=134.56|134=10|135=12|167=OPT|200=205012|205=31|231=1|10=172|8=FIX.4.2|9=191|35=S|34=242|49=CITIFFT|52=20181028-09:12:35.104|56=CATSOS|22=4|48=DE0005140008|55=BAADERBK|107=DE0005140008|131=NewQuoteID|132=123.56|133=134.56|134=10|135=12|167=OPT|200=205012|205=31|231=1|10=157|8=FIX.4.2|9=191|35=S|34=243|49=CITIFFT|52=20181028-09:12:44.162|56=CATSOS|22=4|48=DE0005140008|55=BAADERBK|107=DE0005140008|131=NewQuoteID|132=123.56|133=134.56|134=10|135=12|167=OPT|200=205012|205=31|231=1|10=162|8=FIX.4.2|9=191|35=S|34=244|49=CITIFFT|52=20181028-09:12:53.256|56=CATSOS|22=4|48=DE0005140008|55=BAADERBK|107=DE0005140008|131=NewQuoteID|132=123.56|133=134.56|134=10|135=12|167=OPT|200=205012|205=31|231=1|10=167|8=FIX.4.2|9=191|35=S|34=245|49=CITIFFT|52=20181028-09:13:02.328|56=CATSOS|22=4|48=DE0005140008|55=BAADERBK|107=DE0005140008|131=NewQuoteID|132=123.56|133=134.56|134=10|135=12|167=OPT|200=205012|205=31|231=1|10=163|8=FIX.4.2|9=191|35=S|34=246|49=CITIFFT|52=20181028-09:13:11.404|56=CATSOS|22=4|48=DE0005140008|55=BAADERBK|107=DE0005140008|131=NewQuoteID|132=123.56|133=134.56|134=10|135=12|167=OPT|200=205012|205=31|231=1|10=159|8=FIX.4.2|9=191|35=S|34=247|49=CITIFFT|52=20181028-09:13:20.495|56=CATSOS|22=4|48=DE0005140008|55=BAADERBK|107=DE0005140008|131=NewQuoteID|132=123.56|133=134.56|134=10|135=12|167=OPT|200=205012|205=31|231=1|10=170|8=FIX.4.2|9=191|35=S|34=248|49=CITIFFT|52=20181028-09:13:29.571|56=CATSOS|22=4|48=DE0005140008|55=BAADERBK|107=DE0005140008|131=NewQuoteID|132=123.56|133=134.56|134=10|135=12|167=OPT|200=205012|205=31|231=1|10=175|8=FIX.4.2|9=191|35=S|34=249|49=CITIFFT|52=20181028-09:13:38.660|56=CATSOS|22=4|48=DE0005140008|55=BAADERBK|107=DE0005140008|131=NewQuoteID|132=123.56|133=134.56|134=10|135=12|167=OPT|200=205012|205=31|231=1|10=175|8=FIX.4.2|9=191|35=S|34=250|49=CITIFFT|52=20181028-09:13:47.743|56=CATSOS|22=4|48=DE0005140008|55=BAADERBK|107=DE0005140008|131=NewQuoteID|132=123.56|133=134.56|134=10|135=12|167=OPT|200=205012|205=31|231=1|10=169|8=FIX.4.2|9=191|35=S|34=251|49=CITIFFT|52=20181028-09:13:56.832|56=CATSOS|22=4|48=DE0005140008|55=BAADERBK|107=DE0005140008|131=NewQuoteID|132=123.56|133=134.56|134=10|135=12|167=OPT|200=205012|205=31|231=1|10=169|8=FIX.4.2|9=70|35=A|34=252|49=CITIFFT|52=20181028-09:14:21.113|56=CATSOS|98=0|108=30|10=053|8=FIX.4.2|9=69|35=2|34=253|49=CITIFFT|52=20181028-09:14:21.150|56=CATSOS|7=257|16=0|10=255|8=FIX.4.2|9=191|35=S|34=254|49=CITIFFT|52=20181028-09:14:24.215|56=CATSOS|22=4|48=DE0005140008|55=BAADERBK|107=DE0005140008|131=NewQuoteID|132=123.56|133=134.56|134=10|135=12|167=OPT|200=205012|205=31|231=1|10=163|8=FIX.4.2|9=191|35=S|34=255|49=CITIFFT|52=20181028-09:14:33.310|56=CATSOS|22=4|48=DE0005140008|55=BAADERBK|107=DE0005140008|131=NewQuoteID|132=123.56|133=134.56|134=10|135=12|167=OPT|200=205012|205=31|231=1|10=160|8=FIX.4.2|9=191|35=S|34=256|49=CITIFFT|52=20181028-09:14:42.404|56=CATSOS|22=4|48=DE0005140008|55=BAADERBK|107=DE0005140008|131=NewQuoteID|132=123.56|133=134.56|134=10|135=12|167=OPT|200=205012|205=31|231=1|10=165|8=FIX.4.2|9=191|35=S|34=257|49=CITIFFT|52=20181028-09:14:51.475|56=CATSOS|22=4|48=DE0005140008|55=BAADERBK|107=DE0005140008|131=NewQuoteID|132=123.56|133=134.56|134=10|135=12|167=OPT|200=205012|205=31|231=1|10=174|8=FIX.4.2|9=191|35=S|34=258|49=CITIFFT|52=20181028-09:15:00.584|56=CATSOS|22=4|48=DE0005140008|55=BAADERBK|107=DE0005140008|131=NewQuoteID|132=123.56|133=134.56|134=10|135=12|167=OPT|200=205012|205=31|231=1|10=171|8=FIX.4.2|9=70|35=A|34=259|49=CITIFFT|52=20181028-09:15:39.176|56=CATSOS|98=0|108=30|10=079|8=FIX.4.2|9=69|35=2|34=260|49=CITIFFT|52=20181028-09:15:39.195|56=CATSOS|7=265|16=0|10=015|8=FIX.4.2|9=191|35=S|34=261|49=CITIFFT|52=20181028-09:15:42.293|56=CATSOS|22=4|48=DE0005140008|55=BAADERBK|107=DE0005140008|131=NewQuoteID|132=123.56|133=134.56|134=10|135=12|167=OPT|200=205012|205=31|231=1|10=168|8=FIX.4.2|9=191|35=S|34=262|49=CITIFFT|52=20181028-09:15:51.369|56=CATSOS|22=4|48=DE0005140008|55=BAADERBK|107=DE0005140008|131=NewQuoteID|132=123.56|133=134.56|134=10|135=12|167=OPT|200=205012|205=31|231=1|10=173|8=FIX.4.2|9=191|35=S|34=263|49=CITIFFT|52=20181028-09:16:00.464|56=CATSOS|22=4|48=DE0005140008|55=BAADERBK|107=DE0005140008|131=NewQuoteID|132=123.56|133=134.56|134=10|135=12|167=OPT|200=205012|205=31|231=1|10=165|8=FIX.4.2|9=191|35=S|34=264|49=CITIFFT|52=20181028-09:16:09.534|56=CATSOS|22=4|48=DE0005140008|55=BAADERBK|107=DE0005140008|131=NewQuoteID|132=123.56|133=134.56|134=10|135=12|167=OPT|200=205012|205=31|231=1|10=173|8=FIX.4.2|9=191|35=S|34=265|49=CITIFFT|52=20181028-09:16:18.604|56=CATSOS|22=4|48=DE0005140008|55=BAADERBK|107=DE0005140008|131=NewQuoteID|132=123.56|133=134.56|134=10|135=12|167=OPT|200=205012|205=31|231=1|10=172|8=FIX.4.2|9=191|35=S|34=266|49=CITIFFT|52=20181028-09:16:27.713|56=CATSOS|22=4|48=DE0005140008|55=BAADERBK|107=DE0005140008|131=NewQuoteID|132=123.56|133=134.56|134=10|135=12|167=OPT|200=205012|205=31|231=1|10=174|8=FIX.4.2|9=191|35=S|34=267|49=CITIFFT|52=20181028-09:16:36.799|56=CATSOS|22=4|48=DE0005140008|55=BAADERBK|107=DE0005140008|131=NewQuoteID|132=123.56|133=134.56|134=10|135=12|167=OPT|200=205012|205=31|231=1|10=189|8=FIX.4.2|9=191|35=S|34=268|49=CITIFFT|52=20181028-09:16:45.871|56=CATSOS|22=4|48=DE0005140008|55=BAADERBK|107=DE0005140008|131=NewQuoteID|132=123.56|133=134.56|134=10|135=12|167=OPT|200=205012|205=31|231=1|10=181|8=FIX.4.2|9=191|35=S|34=269|49=CITIFFT|52=20181028-09:16:54.944|56=CATSOS|22=4|48=DE0005140008|55=BAADERBK|107=DE0005140008|131=NewQuoteID|132=123.56|133=134.56|134=10|135=12|167=OPT|200=205012|205=31|231=1|10=183|8=FIX.4.2|9=191|35=S|34=270|49=CITIFFT|52=20181028-09:17:04.033|56=CATSOS|22=4|48=DE0005140008|55=BAADERBK|107=DE0005140008|131=NewQuoteID|132=123.56|133=134.56|134=10|135=12|167=OPT|200=205012|205=31|231=1|10=160|8=FIX.4.2|9=191|35=S|34=271|49=CITIFFT|52=20181028-09:17:13.090|56=CATSOS|22=4|48=DE0005140008|55=BAADERBK|107=DE0005140008|131=NewQuoteID|132=123.56|133=134.56|134=10|135=12|167=OPT|200=205012|205=31|231=1|10=164|8=FIX.4.2|9=191|35=S|34=272|49=CITIFFT|52=20181028-09:17:22.174|56=CATSOS|22=4|48=DE0005140008|55=BAADERBK|107=DE0005140008|131=NewQuoteID|132=123.56|133=134.56|134=10|135=12|167=OPT|200=205012|205=31|231=1|10=168|8=FIX.4.2|9=191|35=S|34=273|49=CITIFFT|52=20181028-09:17:31.263|56=CATSOS|22=4|48=DE0005140008|55=BAADERBK|107=DE0005140008|131=NewQuoteID|132=123.56|133=134.56|134=10|135=12|167=OPT|200=205012|205=31|231=1|10=168|8=FIX.4.2|9=191|35=S|34=274|49=CITIFFT|52=20181028-09:17:40.342|56=CATSOS|22=4|48=DE0005140008|55=BAADERBK|107=DE0005140008|131=NewQuoteID|132=123.56|133=134.56|134=10|135=12|167=OPT|200=205012|205=31|231=1|10=167|8=FIX.4.2|9=191|35=S|34=275|49=CITIFFT|52=20181028-09:17:49.434|56=CATSOS|22=4|48=DE0005140008|55=BAADERBK|107=DE0005140008|131=NewQuoteID|132=123.56|133=134.56|134=10|135=12|167=OPT|200=205012|205=31|231=1|10=179|8=FIX.4.2|9=191|35=S|34=276|49=CITIFFT|52=20181028-09:17:58.513|56=CATSOS|22=4|48=DE0005140008|55=BAADERBK|107=DE0005140008|131=NewQuoteID|132=123.56|133=134.56|134=10|135=12|167=OPT|200=205012|205=31|231=1|10=178|8=FIX.4.2|9=191|35=S|34=277|49=CITIFFT|52=20181028-09:18:07.590|56=CATSOS|22=4|48=DE0005140008|55=BAADERBK|107=DE0005140008|131=NewQuoteID|132=123.56|133=134.56|134=10|135=12|167=OPT|200=205012|205=31|231=1|10=179|8=FIX.4.2|9=191|35=S|34=278|49=CITIFFT|52=20181028-09:18:16.663|56=CATSOS|22=4|48=DE0005140008|55=BAADERBK|107=DE0005140008|131=NewQuoteID|132=123.56|133=134.56|134=10|135=12|167=OPT|200=205012|205=31|231=1|10=181|8=FIX.4.2|9=191|35=S|34=279|49=CITIFFT|52=20181028-09:18:25.745|56=CATSOS|22=4|48=DE0005140008|55=BAADERBK|107=DE0005140008|131=NewQuoteID|132=123.56|133=134.56|134=10|135=12|167=OPT|200=205012|205=31|231=1|10=183|8=FIX.4.2|9=191|35=S|34=280|49=CITIFFT|52=20181028-09:18:34.840|56=CATSOS|22=4|48=DE0005140008|55=BAADERBK|107=DE0005140008|131=NewQuoteID|132=123.56|133=134.56|134=10|135=12|167=OPT|200=205012|205=31|231=1|10=171|8=FIX.4.2|9=117|35=3|34=281|49=CITIFFT|52=20181028-09:18:40.905|56=CATSOS|45=285|58=SendingTime accuracy problem|371=52|372=4|373=10|10=158|8=FIX.4.2|9=100|35=5|34=282|49=CITIFFT|52=20181028-09:18:40.907|56=CATSOS|58=SendingTime accuracy problem, field=52|10=191|8=FIX.4.2|9=70|35=A|34=283|49=CITIFFT|52=20181028-09:18:41.185|56=CATSOS|98=0|108=30|10=072|8=FIX.4.2|9=70|35=A|34=284|49=CITIFFT|52=20181028-09:19:15.147|56=CATSOS|98=0|108=30|10=073|8=FIX.4.2|9=191|35=S|34=285|49=CITIFFT|52=20181028-09:19:33.967|56=CATSOS|22=4|48=DE0005140008|55=BAADERBK|107=DE0005140008|131=NewQuoteID|132=123.56|133=134.56|134=10|135=12|167=OPT|200=205012|205=31|231=1|10=186|8=FIX.4.2|9=191|35=S|34=286|49=CITIFFT|52=20181028-09:19:56.179|56=CATSOS|22=4|48=DE0005140008|55=BAADERBK|107=DE0005140008|131=NewQuoteID|132=123.56|133=134.56|134=10|135=12|167=OPT|200=205012|205=31|231=1|10=187|8=FIX.4.2|9=191|35=S|34=287|49=CITIFFT|52=20181028-09:20:05.249|56=CATSOS|22=4|48=DE0005140008|55=BAADERBK|107=DE0005140008|131=NewQuoteID|132=123.56|133=134.56|134=10|135=12|167=OPT|200=205012|205=31|231=1|10=172|8=FIX.4.2|9=191|35=S|34=288|49=CITIFFT|52=20181028-09:20:14.321|56=CATSOS|22=4|48=DE0005140008|55=BAADERBK|107=DE0005140008|131=NewQuoteID|132=123.56|133=134.56|134=10|135=12|167=OPT|200=205012|205=31|231=1|10=164|8=FIX.4.2|9=191|35=S|34=289|49=CITIFFT|52=20181028-09:20:23.386|56=CATSOS|22=4|48=DE0005140008|55=BAADERBK|107=DE0005140008|131=NewQuoteID|132=123.56|133=134.56|134=10|135=12|167=OPT|200=205012|205=31|231=1|10=176|8=FIX.4.2|9=191|35=S|34=290|49=CITIFFT|52=20181028-09:20:32.462|56=CATSOS|22=4|48=DE0005140008|55=BAADERBK|107=DE0005140008|131=NewQuoteID|132=123.56|133=134.56|134=10|135=12|167=OPT|200=205012|205=31|231=1|10=163|8=FIX.4.2|9=191|35=S|34=291|49=CITIFFT|52=20181028-09:20:41.538|56=CATSOS|22=4|48=DE0005140008|55=BAADERBK|107=DE0005140008|131=NewQuoteID|132=123.56|133=134.56|134=10|135=12|167=OPT|200=205012|205=31|231=1|10=168|8=FIX.4.2|9=191|35=S|34=292|49=CITIFFT|52=20181028-09:20:50.593|56=CATSOS|22=4|48=DE0005140008|55=BAADERBK|107=DE0005140008|131=NewQuoteID|132=123.56|133=134.56|134=10|135=12|167=OPT|200=205012|205=31|231=1|10=170|8=FIX.4.2|9=191|35=S|34=293|49=CITIFFT|52=20181028-09:20:59.656|56=CATSOS|22=4|48=DE0005140008|55=BAADERBK|107=DE0005140008|131=NewQuoteID|132=123.56|133=134.56|134=10|135=12|167=OPT|200=205012|205=31|231=1|10=180|8=FIX.4.2|9=58|35=0|34=294|49=CITIFFT|52=20181028-09:21:30.136|56=CATSOS|10=026|8=FIX.4.2|9=191|35=S|34=295|49=CITIFFT|52=20181028-09:21:51.551|56=CATSOS|22=4|48=DE0005140008|55=BAADERBK|107=DE0005140008|131=NewQuoteID|132=123.56|133=134.56|134=10|135=12|167=OPT|200=205012|205=31|231=1|10=169|8=FIX.4.2|9=58|35=0|34=296|49=CITIFFT|52=20181028-09:22:22.145|56=CATSOS|10=030|8=FIX.4.2|9=70|35=A|34=297|49=CITIFFT|52=20181028-09:23:20.678|56=CATSOS|98=0|108=30|10=077|8=FIX.4.2|9=58|35=0|34=298|49=CITIFFT|52=20181028-09:23:50.684|56=CATSOS|10=042|8=FIX.4.2|9=58|35=0|34=299|49=CITIFFT|52=20181028-09:24:20.687|56=CATSOS|10=044|8=FIX.4.2|9=58|35=0|34=300|49=CITIFFT|52=20181028-09:24:50.685|56=CATSOS|10=028|8=FIX.4.2|9=58|35=0|34=301|49=CITIFFT|52=20181028-09:25:20.683|56=CATSOS|10=025|8=FIX.4.2|9=58|35=0|34=302|49=CITIFFT|52=20181028-09:25:50.688|56=CATSOS|10=034|8=FIX.4.2|9=191|35=S|34=303|49=CITIFFT|52=20181028-09:26:19.912|56=CATSOS|22=4|48=DE0005140008|55=BAADERBK|107=DE0005140008|131=NewQuoteID|132=123.56|133=134.56|134=10|135=12|167=OPT|200=205012|205=31|231=1|10=169|8=FIX.4.2|9=191|35=S|34=304|49=CITIFFT|52=20181028-09:26:29.013|56=CATSOS|22=4|48=DE0005140008|55=BAADERBK|107=DE0005140008|131=NewQuoteID|132=123.56|133=134.56|134=10|135=12|167=OPT|200=205012|205=31|231=1|10=163|8=FIX.4.2|9=191|35=S|34=305|49=CITIFFT|52=20181028-09:26:38.093|56=CATSOS|22=4|48=DE0005140008|55=BAADERBK|107=DE0005140008|131=NewQuoteID|132=123.56|133=134.56|134=10|135=12|167=OPT|200=205012|205=31|231=1|10=172|8=FIX.4.2|9=58|35=0|34=306|49=CITIFFT|52=20181028-09:27:08.684|56=CATSOS|10=039|8=FIX.4.2|9=191|35=S|34=307|49=CITIFFT|52=20181028-09:27:15.963|56=CATSOS|22=4|48=DE0005140008|55=BAADERBK|107=DE0005140008|131=NewQuoteID|132=123.56|133=134.56|134=10|135=12|167=OPT|200=205012|205=31|231=1|10=176|8=FIX.4.2|9=58|35=0|34=308|49=CITIFFT|52=20181028-09:27:46.671|56=CATSOS|10=039|8=FIX.4.2|9=58|35=0|34=309|49=CITIFFT|52=20181028-09:28:16.673|56=CATSOS|10=040|8=FIX.4.2|9=70|35=A|34=310|49=CITIFFT|52=20181028-09:28:53.103|56=CATSOS|98=0|108=30|10=057|8=FIX.4.2|9=191|35=S|34=311|49=CITIFFT|52=20181028-09:29:01.908|56=CATSOS|22=4|48=DE0005140008|55=BAADERBK|107=DE0005140008|131=NewQuoteID|132=123.56|133=134.56|134=10|135=12|167=OPT|200=205012|205=31|231=1|10=167|8=FIX.4.2|9=70|35=A|34=312|49=CITIFFT|52=20181028-09:29:40.966|56=CATSOS|98=0|108=30|10=073|8=FIX.4.2|9=58|35=0|34=313|49=CITIFFT|52=20181028-09:30:10.965|56=CATSOS|10=026|8=FIX.4.2|9=58|35=0|34=314|49=CITIFFT|52=20181028-09:30:40.961|56=CATSOS|10=026|8=FIX.4.2|9=58|35=0|34=315|49=CITIFFT|52=20181028-09:31:10.965|56=CATSOS|10=029|8=FIX.4.2|9=58|35=0|34=316|49=CITIFFT|52=20181028-09:31:40.987|56=CATSOS|10=037|8=FIX.4.2|9=58|35=0|34=317|49=CITIFFT|52=20181028-09:32:10.988|56=CATSOS|10=037|8=FIX.4.2|9=58|35=0|34=318|49=CITIFFT|52=20181028-09:32:40.987|56=CATSOS|10=040|8=FIX.4.2|9=191|35=S|34=319|49=CITIFFT|52=20181028-09:32:55.717|56=CATSOS|22=4|48=DE0005140008|55=BAADERBK|107=DE0005140008|131=NewQuoteID|132=123.56|133=134.56|134=10|135=12|167=OPT|200=205012|205=31|231=1|10=176|8=FIX.4.2|9=58|35=0|34=320|49=CITIFFT|52=20181028-09:33:25.951|56=CATSOS|10=028|8=FIX.4.2|9=191|35=S|34=321|49=CITIFFT|52=20181028-09:33:42.300|56=CATSOS|22=4|48=DE0005140008|55=BAADERBK|107=DE0005140008|131=NewQuoteID|132=123.56|133=134.56|134=10|135=12|167=OPT|200=205012|205=31|231=1|10=154|8=FIX.4.2|9=191|35=S|34=322|49=CITIFFT|52=20181028-09:34:06.763|56=CATSOS|22=4|48=DE0005140008|55=BAADERBK|107=DE0005140008|131=NewQuoteID|132=123.56|133=134.56|134=10|135=12|167=OPT|200=205012|205=31|231=1|10=169|8=FIX.4.2|9=191|35=S|34=323|49=CITIFFT|52=20181028-09:34:28.493|56=CATSOS|22=4|48=DE0005140008|55=BAADERBK|107=DE0005140008|131=NewQuoteID|132=123.56|133=134.56|134=10|135=12|167=OPT|200=205012|205=31|231=1|10=174|8=FIX.4.2|9=58|35=0|34=324|49=CITIFFT|52=20181028-09:34:58.964|56=CATSOS|10=043|8=FIX.4.2|9=191|35=S|34=325|49=CITIFFT|52=20181028-09:34:59.153|56=CATSOS|22=4|48=DE0005140008|55=BAADERBK|107=DE0005140008|131=NewQuoteID|132=123.56|133=134.56|134=10|135=12|167=OPT|200=205012|205=31|231=1|10=173|8=FIX.4.2|9=58|35=0|34=326|49=CITIFFT|52=20181028-09:35:29.954|56=CATSOS|10=043|8=FIX.4.2|9=191|35=S|34=327|49=CITIFFT|52=20181028-09:35:42.243|56=CATSOS|22=4|48=DE0005140008|55=BAADERBK|107=DE0005140008|131=NewQuoteID|132=123.56|133=134.56|134=10|135=12|167=OPT|200=205012|205=31|231=1|10=168|8=FIX.4.2|9=191|35=S|34=328|49=CITIFFT|52=20181028-09:36:12.703|56=CATSOS|22=4|48=DE0005140008|55=BAADERBK|107=DE0005140008|131=NewQuoteID|132=123.56|133=134.56|134=10|135=12|167=OPT|200=205012|205=31|231=1|10=168|8=FIX.4.2|9=58|35=0|34=329|49=CITIFFT|52=20181028-09:36:42.953|56=CATSOS|10=041|8=FIX.4.2|9=191|35=S|34=330|49=CITIFFT|52=20181028-09:36:57.763|56=CATSOS|22=4|48=DE0005140008|55=BAADERBK|107=DE0005140008|131=NewQuoteID|132=123.56|133=134.56|134=10|135=12|167=OPT|200=205012|205=31|231=1|10=176|8=FIX.4.2|9=191|35=S|34=331|49=CITIFFT|52=20181028-09:37:23.453|56=CATSOS|22=4|48=DE0005140008|55=BAADERBK|107=DE0005140008|131=NewQuoteID|132=123.56|133=134.56|134=10|135=12|167=OPT|200=205012|205=31|231=1|10=167|8=FIX.4.2|9=58|35=0|34=332|49=CITIFFT|52=20181028-09:37:53.963|56=CATSOS|10=039|8=FIX.4.2|9=58|35=0|34=333|49=CITIFFT|52=20181028-09:38:23.959|56=CATSOS|10=043|8=FIX.4.2|9=58|35=0|34=334|49=CITIFFT|52=20181028-09:38:54.965|56=CATSOS|10=045|8=FIX.4.2|9=90|35=0|34=335|49=CITIFFT|52=20181028-09:38:54.977|56=CATSOS|112=Appia-20181028-09:39:48.756|10=095|8=FIX.4.2|9=58|35=0|34=336|49=CITIFFT|52=20181028-09:39:24.980|56=CATSOS|10=042|8=FIX.4.2|9=58|35=0|34=337|49=CITIFFT|52=20181028-09:39:54.985|56=CATSOS|10=051|8=FIX.4.2|9=70|35=A|34=338|49=CITIFFT|52=20181028-09:40:09.868|56=CATSOS|98=0|108=30|10=080|8=FIX.4.2|9=58|35=0|34=339|49=CITIFFT|52=20181028-09:40:39.875|56=CATSOS|10=046|8=FIX.4.2|9=58|35=0|34=340|49=CITIFFT|52=20181028-09:41:09.891|56=CATSOS|10=034|8=FIX.4.2|9=58|35=0|34=341|49=CITIFFT|52=20181028-09:41:39.886|56=CATSOS|10=042|8=FIX.4.2|9=58|35=0|34=342|49=CITIFFT|52=20181028-09:42:09.887|56=CATSOS|10=042|8=FIX.4.2|9=58|35=0|34=343|49=CITIFFT|52=20181028-09:42:39.886|56=CATSOS|10=045|8=FIX.4.2|9=58|35=0|34=344|49=CITIFFT|52=20181028-09:43:09.883|56=CATSOS|10=041|8=FIX.4.2|9=58|35=0|34=345|49=CITIFFT|52=20181028-09:43:39.885|56=CATSOS|10=047|8=FIX.4.2|9=58|35=0|34=346|49=CITIFFT|52=20181028-09:44:09.886|56=CATSOS|10=047|8=FIX.4.2|9=58|35=0|34=347|49=CITIFFT|52=20181028-09:44:39.894|56=CATSOS|10=050|8=FIX.4.2|9=58|35=0|34=348|49=CITIFFT|52=20181028-09:45:09.885|56=CATSOS|10=049|8=FIX.4.2|9=58|35=0|34=349|49=CITIFFT|52=20181028-09:45:39.883|56=CATSOS|10=051|8=FIX.4.2|9=58|35=0|34=350|49=CITIFFT|52=20181028-09:46:09.888|56=CATSOS|10=046|8=FIX.4.2|9=58|35=0|34=351|49=CITIFFT|52=20181028-09:46:39.881|56=CATSOS|10=043|8=FIX.4.2|9=58|35=0|34=352|49=CITIFFT|52=20181028-09:47:09.884|56=CATSOS|10=045|8=FIX.4.2|9=191|35=S|34=353|49=CITIFFT|52=20181028-09:47:14.159|56=CATSOS|22=4|48=DE0005140008|55=BAADERBK|107=DE0005140008|131=NewQuoteID|132=123.56|133=134.56|134=10|135=12|167=OPT|200=205012|205=31|231=1|10=175|8=FIX.4.2|9=58|35=0|34=354|49=CITIFFT|52=20181028-09:47:44.880|56=CATSOS|10=042|8=FIX.4.2|9=191|35=S|34=355|49=CITIFFT|52=20181028-09:47:51.995|56=CATSOS|22=4|48=DE0005140008|55=BAADERBK|107=DE0005140008|131=NewQuoteID|132=123.56|133=134.56|134=10|135=12|167=OPT|200=205012|205=31|231=1|10=186|8=FIX.4.2|9=58|35=0|34=356|49=CITIFFT|52=20181028-09:48:22.869|56=CATSOS|10=048|8=FIX.4.2|9=191|35=S|34=357|49=CITIFFT|52=20181028-09:48:23.571|56=CATSOS|22=4|48=DE0005140008|55=BAADERBK|107=DE0005140008|131=NewQuoteID|132=123.56|133=134.56|134=10|135=12|167=OPT|200=205012|205=31|231=1|10=178|8=FIX.4.2|9=58|35=0|34=358|49=CITIFFT|52=20181028-09:48:53.860|56=CATSOS|10=045|8=FIX.4.2|9=58|35=0|34=359|49=CITIFFT|52=20181028-09:49:23.871|56=CATSOS|10=046|8=FIX.4.2|9=191|35=S|34=360|49=CITIFFT|52=20181028-09:49:36.725|56=CATSOS|22=4|48=DE0005140008|55=BAADERBK|107=DE0005140008|131=NewQuoteID|132=123.56|133=134.56|134=10|135=12|167=OPT|200=205012|205=31|231=1|10=178|8=FIX.4.2|9=191|35=S|34=361|49=CITIFFT|52=20181028-09:49:45.804|56=CATSOS|22=4|48=DE0005140008|55=BAADERBK|107=DE0005140008|131=NewQuoteID|132=123.56|133=134.56|134=10|135=12|167=OPT|200=205012|205=31|231=1|10=177|8=FIX.4.2|9=191|35=S|34=362|49=CITIFFT|52=20181028-09:50:05.013|56=CATSOS|22=4|48=DE0005140008|55=BAADERBK|107=DE0005140008|131=NewQuoteID|132=123.56|133=134.56|134=10|135=12|167=OPT|200=205012|205=31|231=1|10=158|8=FIX.4.2|9=58|35=0|34=363|49=CITIFFT|52=20181028-09:50:35.872|56=CATSOS|10=037|8=FIX.4.2|9=191|35=S|34=364|49=CITIFFT|52=20181028-09:50:50.362|56=CATSOS|22=4|48=DE0005140008|55=BAADERBK|107=DE0005140008|131=NewQuoteID|132=123.56|133=134.56|134=10|135=12|167=OPT|200=205012|205=31|231=1|10=167|8=FIX.4.2|9=58|35=0|34=365|49=CITIFFT|52=20181028-09:51:20.872|56=CATSOS|10=034|8=FIX.4.2|9=58|35=0|34=366|49=CITIFFT|52=20181028-09:51:50.868|56=CATSOS|10=043|8=FIX.4.2|9=58|35=0|34=367|49=CITIFFT|52=20181028-09:52:20.863|56=CATSOS|10=037|8=FIX.4.2|9=58|35=0|34=368|49=CITIFFT|52=20181028-09:52:50.862|56=CATSOS|10=040|8=FIX.4.2|9=191|35=S|34=369|49=CITIFFT|52=20181028-09:53:03.822|56=CATSOS|22=4|48=DE0005140008|55=BAADERBK|107=DE0005140008|131=NewQuoteID|132=123.56|133=134.56|134=10|135=12|167=OPT|200=205012|205=31|231=1|10=174|8=FIX.4.2|9=191|35=S|34=370|49=CITIFFT|52=20181028-09:53:19.972|56=CATSOS|22=4|48=DE0005140008|55=BAADERBK|107=DE0005140008|131=NewQuoteID|132=123.56|133=134.56|134=10|135=12|167=OPT|200=205012|205=31|231=1|10=179|8=FIX.4.2|9=191|35=S|34=371|49=CITIFFT|52=20181028-09:53:29.023|56=CATSOS|22=4|48=DE0005140008|55=BAADERBK|107=DE0005140008|131=NewQuoteID|132=123.56|133=134.56|134=10|135=12|167=OPT|200=205012|205=31|231=1|10=168|8=FIX.4.2|9=58|35=0|34=372|49=CITIFFT|52=20181028-09:53:59.868|56=CATSOS|10=051|8=FIX.4.2|9=58|35=0|34=373|49=CITIFFT|52=20181028-09:54:29.860|56=CATSOS|10=042|8=FIX.4.2|9=58|35=0|34=374|49=CITIFFT|52=20181028-09:54:59.875|56=CATSOS|10=052|8=FIX.4.2|9=58|35=0|34=375|49=CITIFFT|52=20181028-09:55:29.872|56=CATSOS|10=048|8=FIX.4.2|9=58|35=0|34=376|49=CITIFFT|52=20181028-09:55:59.868|56=CATSOS|10=057|8=FIX.4.2|9=58|35=0|34=377|49=CITIFFT|52=20181028-09:56:29.868|56=CATSOS|10=056|8=FIX.4.2|9=58|35=0|34=378|49=CITIFFT|52=20181028-09:56:59.872|56=CATSOS|10=055|8=FIX.4.2|9=58|35=0|34=379|49=CITIFFT|52=20181028-09:57:30.866|56=CATSOS|10=049|8=FIX.4.2|9=58|35=0|34=380|49=CITIFFT|52=20181028-09:58:00.861|56=CATSOS|10=034|8=FIX.4.2|9=58|35=0|34=381|49=CITIFFT|52=20181028-09:58:30.864|56=CATSOS|10=041|8=FIX.4.2|9=58|35=0|34=382|49=CITIFFT|52=20181028-09:59:00.858|56=CATSOS|10=043|8=FIX.4.2|9=58|35=0|34=383|49=CITIFFT|52=20181028-09:59:30.858|56=CATSOS|10=047|8=FIX.4.2|9=58|35=0|34=384|49=CITIFFT|52=20181028-10:00:00.867|56=CATSOS|10=023|8=FIX.4.2|9=58|35=0|34=385|49=CITIFFT|52=20181028-10:00:30.864|56=CATSOS|10=024|8=FIX.4.2|9=58|35=0|34=386|49=CITIFFT|52=20181028-10:01:00.857|56=CATSOS|10=025|8=FIX.4.2|9=58|35=0|34=387|49=CITIFFT|52=20181028-10:01:30.862|56=CATSOS|10=025|8=FIX.4.2|9=191|35=S|34=388|49=CITIFFT|52=20181028-10:01:53.951|56=CATSOS|22=4|48=DE0005140008|55=BAADERBK|107=DE0005140008|131=NewQuoteID|132=123.56|133=134.56|134=10|135=12|167=OPT|200=205012|205=31|231=1|10=168|8=FIX.4.2|9=191|35=S|34=389|49=CITIFFT|52=20181028-10:02:03.062|56=CATSOS|22=4|48=DE0005140008|55=BAADERBK|107=DE0005140008|131=NewQuoteID|132=123.56|133=134.56|134=10|135=12|167=OPT|200=205012|205=31|231=1|10=158|8=FIX.4.2|9=191|35=S|34=390|49=CITIFFT|52=20181028-10:02:12.151|56=CATSOS|22=4|48=DE0005140008|55=BAADERBK|107=DE0005140008|131=NewQuoteID|132=123.56|133=134.56|134=10|135=12|167=OPT|200=205012|205=31|231=1|10=149|8=FIX.4.2|9=191|35=S|34=391|49=CITIFFT|52=20181028-10:02:21.231|56=CATSOS|22=4|48=DE0005140008|55=BAADERBK|107=DE0005140008|131=NewQuoteID|132=123.56|133=134.56|134=10|135=12|167=OPT|200=205012|205=31|231=1|10=149|8=FIX.4.2|9=58|35=0|34=392|49=CITIFFT|52=20181028-10:02:51.871|56=CATSOS|10=025|8=FIX.4.2|9=58|35=0|34=393|49=CITIFFT|52=20181028-10:03:22.865|56=CATSOS|10=028|8=FIX.4.2|9=58|35=0|34=394|49=CITIFFT|52=20181028-10:03:52.868|56=CATSOS|10=035|8=FIX.4.2|9=58|35=0|34=395|49=CITIFFT|52=20181028-10:04:22.871|56=CATSOS|10=028|8=FIX.4.2|9=70|35=A|34=396|49=CITIFFT|52=20181028-10:04:36.665|56=CATSOS|98=0|108=30|10=071|8=FIX.4.2|9=58|35=0|34=397|49=CITIFFT|52=20181028-10:05:06.680|56=CATSOS|10=031|8=FIX.4.2|9=191|35=S|34=398|49=CITIFFT|52=20181028-10:05:07.661|56=CATSOS|22=4|48=DE0005140008|55=BAADERBK|107=DE0005140008|131=NewQuoteID|132=123.56|133=134.56|134=10|135=12|167=OPT|200=205012|205=31|231=1|10=170|8=FIX.4.2|9=58|35=0|34=399|49=CITIFFT|52=20181028-10:05:37.671|56=CATSOS|10=037|8=FIX.4.2|9=58|35=0|34=400|49=CITIFFT|52=20181028-10:06:07.676|56=CATSOS|10=023|8=FIX.4.2|9=191|35=S|34=401|49=CITIFFT|52=20181028-10:06:13.891|56=CATSOS|22=4|48=DE0005140008|55=BAADERBK|107=DE0005140008|131=NewQuoteID|132=123.56|133=134.56|134=10|135=12|167=OPT|200=205012|205=31|231=1|10=158|8=FIX.4.2|9=58|35=0|34=402|49=CITIFFT|52=20181028-10:06:44.673|56=CATSOS|10=023|8=FIX.4.2|9=191|35=S|34=403|49=CITIFFT|52=20181028-10:07:10.901|56=CATSOS|22=4|48=DE0005140008|55=BAADERBK|107=DE0005140008|131=NewQuoteID|132=123.56|133=134.56|134=10|135=12|167=OPT|200=205012|205=31|231=1|10=150|8=FIX.4.2|9=191|35=S|34=404|49=CITIFFT|52=20181028-10:07:15.981|56=CATSOS|22=4|48=DE0005140008|55=BAADERBK|107=DE0005140008|131=NewQuoteID|132=123.56|133=134.56|134=10|135=12|167=OPT|200=205012|205=31|231=1|10=164|8=FIX.4.2|9=58|35=0|34=405|49=CITIFFT|52=20181028-10:07:46.666|56=CATSOS|10=031|8=FIX.4.2|9=58|35=0|34=406|49=CITIFFT|52=20181028-10:08:16.665|56=CATSOS|10=029|8=FIX.4.2|9=58|35=0|34=407|49=CITIFFT|52=20181028-10:08:46.677|56=CATSOS|10=036|8=FIX.4.2|9=58|35=0|34=408|49=CITIFFT|52=20181028-10:09:16.673|56=CATSOS|10=031|8=FIX.4.2|9=58|35=0|34=409|49=CITIFFT|52=20181028-10:09:46.672|56=CATSOS|10=034|8=FIX.4.2|9=58|35=0|34=410|49=CITIFFT|52=20181028-10:10:16.676|56=CATSOS|10=019|8=FIX.4.2|9=191|35=S|34=411|49=CITIFFT|52=20181028-10:10:28.315|56=CATSOS|22=4|48=DE0005140008|55=BAADERBK|107=DE0005140008|131=NewQuoteID|132=123.56|133=134.56|134=10|135=12|167=OPT|200=205012|205=31|231=1|10=151|8=FIX.4.2|9=191|35=S|34=412|49=CITIFFT|52=20181028-10:10:40.851|56=CATSOS|22=4|48=DE0005140008|55=BAADERBK|107=DE0005140008|131=NewQuoteID|132=123.56|133=134.56|134=10|135=12|167=OPT|200=205012|205=31|231=1|10=151|8=FIX.4.2|9=191|35=S|34=413|49=CITIFFT|52=20181028-10:10:59.620|56=CATSOS|22=4|48=DE0005140008|55=BAADERBK|107=DE0005140008|131=NewQuoteID|132=123.56|133=134.56|134=10|135=12|167=OPT|200=205012|205=31|231=1|10=156|8=FIX.4.2|9=58|35=0|34=414|49=CITIFFT|52=20181028-10:11:29.671|56=CATSOS|10=023|8=FIX.4.2|9=58|35=0|34=415|49=CITIFFT|52=20181028-10:11:59.682|56=CATSOS|10=029|8=FIX.4.2|9=58|35=0|34=416|49=CITIFFT|52=20181028-10:12:30.676|56=CATSOS|10=023|8=FIX.4.2|9=58|35=0|34=417|49=CITIFFT|52=20181028-10:13:00.671|56=CATSOS|10=017|8=FIX.4.2|9=58|35=0|34=418|49=CITIFFT|52=20181028-10:13:30.770|56=CATSOS|10=021|8=FIX.4.2|9=58|35=0|34=419|49=CITIFFT|52=20181028-10:14:01.671|56=CATSOS|10=021|8=FIX.4.2|9=191|35=S|34=420|49=CITIFFT|52=20181028-10:14:21.610|56=CATSOS|22=4|48=DE0005140008|55=BAADERBK|107=DE0005140008|131=NewQuoteID|132=123.56|133=134.56|134=10|135=12|167=OPT|200=205012|205=31|231=1|10=146|8=FIX.4.2|9=58|35=0|34=421|49=CITIFFT|52=20181028-10:14:51.671|56=CATSOS|10=019|8=FIX.4.2|9=58|35=0|34=422|49=CITIFFT|52=20181028-10:15:21.676|56=CATSOS|10=023|8=FIX.4.2|9=58|35=0|34=423|49=CITIFFT|52=20181028-10:15:51.673|56=CATSOS|10=024|8=FIX.4.2|9=58|35=0|34=424|49=CITIFFT|52=20181028-10:16:21.666|56=CATSOS|10=025|8=FIX.4.2|9=58|35=0|34=425|49=CITIFFT|52=20181028-10:16:51.684|56=CATSOS|10=029|8=FIX.4.2|9=58|35=0|34=426|49=CITIFFT|52=20181028-10:17:22.680|56=CATSOS|10=025|8=FIX.4.2|9=191|35=S|34=427|49=CITIFFT|52=20181028-10:17:32.492|56=CATSOS|22=4|48=DE0005140008|55=BAADERBK|107=DE0005140008|131=NewQuoteID|132=123.56|133=134.56|134=10|135=12|167=OPT|200=205012|205=31|231=1|10=166|8=FIX.4.2|9=58|35=0|34=428|49=CITIFFT|52=20181028-10:18:02.666|56=CATSOS|10=030|8=FIX.4.2|9=58|35=0|34=429|49=CITIFFT|52=20181028-10:18:32.671|56=CATSOS|10=030|8=FIX.4.2|9=58|35=0|34=430|49=CITIFFT|52=20181028-10:19:02.680|56=CATSOS|10=020|8=FIX.4.2|9=58|35=0|34=431|49=CITIFFT|52=20181028-10:19:32.683|56=CATSOS|10=027|8=FIX.4.2|9=58|35=0|34=432|49=CITIFFT|52=20181028-10:20:03.667|56=CATSOS|10=020|8=FIX.4.2|9=191|35=S|34=433|49=CITIFFT|52=20181028-10:20:04.360|56=CATSOS|22=4|48=DE0005140008|55=BAADERBK|107=DE0005140008|131=NewQuoteID|132=123.56|133=134.56|134=10|135=12|167=OPT|200=205012|205=31|231=1|10=150|8=FIX.4.2|9=58|35=0|34=434|49=CITIFFT|52=20181028-10:20:34.672|56=CATSOS|10=022|8=FIX.4.2|9=58|35=0|34=435|49=CITIFFT|52=20181028-10:21:04.686|56=CATSOS|10=026|8=FIX.4.2|9=58|35=0|34=436|49=CITIFFT|52=20181028-10:21:35.676|56=CATSOS|10=030|8=FIX.4.2|9=58|35=0|34=437|49=CITIFFT|52=20181028-10:22:06.670|56=CATSOS|10=024|8=FIX.4.2|9=58|35=0|34=438|49=CITIFFT|52=20181028-10:22:36.674|56=CATSOS|10=032|8=FIX.4.2|9=58|35=0|34=439|49=CITIFFT|52=20181028-10:23:06.670|56=CATSOS|10=027|8=FIX.4.2|9=191|35=S|34=440|49=CITIFFT|52=20181028-10:23:29.040|56=CATSOS|22=4|48=DE0005140008|55=BAADERBK|107=DE0005140008|131=NewQuoteID|132=123.56|133=134.56|134=10|135=12|167=OPT|200=205012|205=31|231=1|10=153|8=FIX.4.2|9=58|35=0|34=441|49=CITIFFT|52=20181028-10:23:59.673|56=CATSOS|10=031|8=FIX.4.2|9=191|35=S|34=442|49=CITIFFT|52=20181028-10:24:29.570|56=CATSOS|22=4|48=DE0005140008|55=BAADERBK|107=DE0005140008|131=NewQuoteID|132=123.56|133=134.56|134=10|135=12|167=OPT|200=205012|205=31|231=1|10=164|8=FIX.4.2|9=191|35=S|34=443|49=CITIFFT|52=20181028-10:24:34.568|56=CATSOS|22=4|48=DE0005140008|55=BAADERBK|107=DE0005140008|131=NewQuoteID|132=123.56|133=134.56|134=10|135=12|167=OPT|200=205012|205=31|231=1|10=168|8=FIX.4.2|9=191|35=S|34=444|49=CITIFFT|52=20181028-10:24:40.490|56=CATSOS|22=4|48=DE0005140008|55=BAADERBK|107=DE0005140008|131=NewQuoteID|132=123.56|133=134.56|134=10|135=12|167=OPT|200=205012|205=31|231=1|10=160|8=FIX.4.2|9=191|35=S|34=445|49=CITIFFT|52=20181028-10:24:52.521|56=CATSOS|22=4|48=DE0005140008|55=BAADERBK|107=DE0005140008|131=NewQuoteID|132=123.56|133=134.56|134=10|135=12|167=OPT|200=205012|205=31|231=1|10=159|8=FIX.4.2|9=191|35=S|34=446|49=CITIFFT|52=20181028-10:24:54.660|56=CATSOS|22=4|48=DE0005140008|55=BAADERBK|107=DE0005140008|131=NewQuoteID|132=123.56|133=134.56|134=10|135=12|167=OPT|200=205012|205=31|231=1|10=166|8=FIX.4.2|9=191|35=S|34=447|49=CITIFFT|52=20181028-10:25:02.650|56=CATSOS|22=4|48=DE0005140008|55=BAADERBK|107=DE0005140008|131=NewQuoteID|132=123.56|133=134.56|134=10|135=12|167=OPT|200=205012|205=31|231=1|10=160|8=FIX.4.2|9=191|35=S|34=448|49=CITIFFT|52=20181028-10:25:11.683|56=CATSOS|22=4|48=DE0005140008|55=BAADERBK|107=DE0005140008|131=NewQuoteID|132=123.56|133=134.56|134=10|135=12|167=OPT|200=205012|205=31|231=1|10=167|8=FIX.4.2|9=191|35=S|34=449|49=CITIFFT|52=20181028-10:25:13.840|56=CATSOS|22=4|48=DE0005140008|55=BAADERBK|107=DE0005140008|131=NewQuoteID|132=123.56|133=134.56|134=10|135=12|167=OPT|200=205012|205=31|231=1|10=165|8=FIX.4.2|9=58|35=0|34=450|49=CITIFFT|52=20181028-10:25:44.670|56=CATSOS|10=024|8=FIX.4.2|9=58|35=0|34=451|49=CITIFFT|52=20181028-10:26:14.667|56=CATSOS|10=029|8=FIX.4.2|9=58|35=0|34=452|49=CITIFFT|52=20181028-10:26:44.670|56=CATSOS|10=027|8=FIX.4.2|9=58|35=0|34=453|49=CITIFFT|52=20181028-10:27:14.663|56=CATSOS|10=028|8=FIX.4.2|9=58|35=0|34=454|49=CITIFFT|52=20181028-10:27:44.672|56=CATSOS|10=032|8=FIX.4.2|9=58|35=0|34=455|49=CITIFFT|52=20181028-10:28:14.664|56=CATSOS|10=032|8=FIX.4.2|9=191|35=S|34=456|49=CITIFFT|52=20181028-10:28:31.055|56=CATSOS|22=4|48=DE0005140008|55=BAADERBK|107=DE0005140008|131=NewQuoteID|132=123.56|133=134.56|134=10|135=12|167=OPT|200=205012|205=31|231=1|10=164|8=FIX.4.2|9=191|35=S|34=457|49=CITIFFT|52=20181028-10:28:33.535|56=CATSOS|22=4|48=DE0005140008|55=BAADERBK|107=DE0005140008|131=NewQuoteID|132=123.56|133=134.56|134=10|135=12|167=OPT|200=205012|205=31|231=1|10=170|8=FIX.4.2|9=191|35=S|34=458|49=CITIFFT|52=20181028-10:28:58.738|56=CATSOS|22=4|48=DE0005140008|55=BAADERBK|107=DE0005140008|131=NewQuoteID|132=123.56|133=134.56|134=10|135=12|167=OPT|200=205012|205=31|231=1|10=183|8=FIX.4.2|9=191|35=S|34=459|49=CITIFFT|52=20181028-10:29:07.604|56=CATSOS|22=4|48=DE0005140008|55=BAADERBK|107=DE0005140008|131=NewQuoteID|132=123.56|133=134.56|134=10|135=12|167=OPT|200=205012|205=31|231=1|10=171|8=FIX.4.2|9=58|35=0|34=460|49=CITIFFT|52=20181028-10:29:37.683|56=CATSOS|10=035|8=FIX.4.2|9=191|35=S|34=461|49=CITIFFT|52=20181028-10:29:38.380|56=CATSOS|22=4|48=DE0005140008|55=BAADERBK|107=DE0005140008|131=NewQuoteID|132=123.56|133=134.56|134=10|135=12|167=OPT|200=205012|205=31|231=1|10=169|8=FIX.4.2|9=191|35=S|34=462|49=CITIFFT|52=20181028-10:29:43.410|56=CATSOS|22=4|48=DE0005140008|55=BAADERBK|107=DE0005140008|131=NewQuoteID|132=123.56|133=134.56|134=10|135=12|167=OPT|200=205012|205=31|231=1|10=160|8=FIX.4.2|9=191|35=S|34=463|49=CITIFFT|52=20181028-10:29:48.799|56=CATSOS|22=4|48=DE0005140008|55=BAADERBK|107=DE0005140008|131=NewQuoteID|132=123.56|133=134.56|134=10|135=12|167=OPT|200=205012|205=31|231=1|10=186|8=FIX.4.2|9=191|35=S|34=464|49=CITIFFT|52=20181028-10:30:03.890|56=CATSOS|22=4|48=DE0005140008|55=BAADERBK|107=DE0005140008|131=NewQuoteID|132=123.56|133=134.56|134=10|135=12|167=OPT|200=205012|205=31|231=1|10=162|8=FIX.4.2|9=191|35=S|34=465|49=CITIFFT|52=20181028-10:30:14.304|56=CATSOS|22=4|48=DE0005140008|55=BAADERBK|107=DE0005140008|131=NewQuoteID|132=123.56|133=134.56|134=10|135=12|167=OPT|200=205012|205=31|231=1|10=155|8=FIX.4.2|9=58|35=0|34=466|49=CITIFFT|52=20181028-10:30:44.669|56=CATSOS|10=035|8=FIX.4.2|9=58|35=0|34=467|49=CITIFFT|52=20181028-10:31:14.671|56=CATSOS|10=027|8=FIX.4.2|9=191|35=S|34=468|49=CITIFFT|52=20181028-10:31:18.946|56=CATSOS|22=4|48=DE0005140008|55=BAADERBK|107=DE0005140008|131=NewQuoteID|132=123.56|133=134.56|134=10|135=12|167=OPT|200=205012|205=31|231=1|10=175|8=FIX.4.2|9=191|35=S|34=469|49=CITIFFT|52=20181028-10:31:23.738|56=CATSOS|22=4|48=DE0005140008|55=BAADERBK|107=DE0005140008|131=NewQuoteID|132=123.56|133=134.56|134=10|135=12|167=OPT|200=205012|205=31|231=1|10=171|8=FIX.4.2|9=191|35=S|34=470|49=CITIFFT|52=20181028-10:31:39.290|56=CATSOS|22=4|48=DE0005140008|55=BAADERBK|107=DE0005140008|131=NewQuoteID|132=123.56|133=134.56|134=10|135=12|167=OPT|200=205012|205=31|231=1|10=163|8=FIX.4.2|9=58|35=0|34=471|49=CITIFFT|52=20181028-10:32:09.664|56=CATSOS|10=029|8=FIX.4.2|9=58|35=0|34=472|49=CITIFFT|52=20181028-10:32:39.670|56=CATSOS|10=030|8=FIX.4.2|9=58|35=0|34=473|49=CITIFFT|52=20181028-10:33:09.672|56=CATSOS|10=031|8=FIX.4.2|9=191|35=S|34=474|49=CITIFFT|52=20181028-10:33:32.639|56=CATSOS|22=4|48=DE0005140008|55=BAADERBK|107=DE0005140008|131=NewQuoteID|132=123.56|133=134.56|134=10|135=12|167=OPT|200=205012|205=31|231=1|10=169|8=FIX.4.2|9=58|35=0|34=475|49=CITIFFT|52=20181028-10:34:02.671|56=CATSOS|10=026|8=FIX.4.2|9=58|35=0|34=476|49=CITIFFT|52=20181028-10:34:32.670|56=CATSOS|10=029|8=FIX.4.2|9=58|35=0|34=477|49=CITIFFT|52=20181028-10:35:02.674|56=CATSOS|10=032|8=FIX.4.2|9=58|35=0|34=478|49=CITIFFT|52=20181028-10:35:33.679|56=CATSOS|10=042|8=FIX.4.2|9=58|35=0|34=479|49=CITIFFT|52=20181028-10:36:04.679|56=CATSOS|10=042|8=FIX.4.2|9=191|35=S|34=480|49=CITIFFT|52=20181028-10:36:07.942|56=CATSOS|22=4|48=DE0005140008|55=BAADERBK|107=DE0005140008|131=NewQuoteID|132=123.56|133=134.56|134=10|135=12|167=OPT|200=205012|205=31|231=1|10=168|8=FIX.4.2|9=191|35=S|34=481|49=CITIFFT|52=20181028-10:36:24.523|56=CATSOS|22=4|48=DE0005140008|55=BAADERBK|107=DE0005140008|131=NewQuoteID|132=123.56|133=134.56|134=10|135=12|167=OPT|200=205012|205=31|231=1|10=163|8=FIX.4.2|9=58|35=0|34=482|49=CITIFFT|52=20181028-10:36:54.668|56=CATSOS|10=039|8=FIX.4.2|9=191|35=S|34=483|49=CITIFFT|52=20181028-10:37:21.479|56=CATSOS|22=4|48=DE0005140008|55=BAADERBK|107=DE0005140008|131=NewQuoteID|132=123.56|133=134.56|134=10|135=12|167=OPT|200=205012|205=31|231=1|10=173|8=FIX.4.2|9=58|35=0|34=484|49=CITIFFT|52=20181028-10:37:51.674|56=CATSOS|10=036|8=FIX.4.2|9=58|35=0|34=485|49=CITIFFT|52=20181028-10:38:21.676|56=CATSOS|10=037|8=FIX.4.2|9=58|35=0|34=486|49=CITIFFT|52=20181028-10:38:51.680|56=CATSOS|10=036|8=FIX.4.2|9=58|35=0|34=487|49=CITIFFT|52=20181028-10:39:21.671|56=CATSOS|10=035|8=FIX.4.2|9=58|35=0|34=488|49=CITIFFT|52=20181028-10:39:51.673|56=CATSOS|10=041|8=FIX.4.2|9=58|35=0|34=489|49=CITIFFT|52=20181028-10:40:21.679|56=CATSOS|10=037|8=FIX.4.2|9=58|35=0|34=490|49=CITIFFT|52=20181028-10:40:52.669|56=CATSOS|10=032|8=FIX.4.2|9=58|35=0|34=491|49=CITIFFT|52=20181028-10:41:22.679|56=CATSOS|10=032|8=FIX.4.2|9=58|35=0|34=492|49=CITIFFT|52=20181028-10:41:53.671|56=CATSOS|10=029|8=FIX.4.2|9=58|35=0|34=493|49=CITIFFT|52=20181028-10:42:23.679|56=CATSOS|10=036|8=FIX.4.2|9=58|35=0|34=494|49=CITIFFT|52=20181028-10:42:53.679|56=CATSOS|10=040|8=FIX.4.2|9=58|35=0|34=495|49=CITIFFT|52=20181028-10:43:23.680|56=CATSOS|10=031|8=FIX.4.2|9=58|35=0|34=496|49=CITIFFT|52=20181028-10:43:54.665|56=CATSOS|10=039|8=FIX.4.2|9=58|35=0|34=497|49=CITIFFT|52=20181028-10:44:24.669|56=CATSOS|10=042|8=FIX.4.2|9=58|35=0|34=498|49=CITIFFT|52=20181028-10:44:54.669|56=CATSOS|10=046|8=FIX.4.2|9=58|35=0|34=499|49=CITIFFT|52=20181028-10:45:24.669|56=CATSOS|10=045|8=FIX.4.2|9=58|35=0|34=500|49=CITIFFT|52=20181028-10:45:54.677|56=CATSOS|10=030|8=FIX.4.2|9=58|35=0|34=501|49=CITIFFT|52=20181028-10:46:25.671|56=CATSOS|10=024|8=FIX.4.2|9=58|35=0|34=502|49=CITIFFT|52=20181028-10:46:55.680|56=CATSOS|10=028|8=FIX.4.2|9=58|35=0|34=503|49=CITIFFT|52=20181028-10:47:25.674|56=CATSOS|10=030|8=FIX.4.2|9=58|35=0|34=504|49=CITIFFT|52=20181028-10:47:55.678|56=CATSOS|10=038|8=FIX.4.2|9=58|35=0|34=505|49=CITIFFT|52=20181028-10:48:25.672|56=CATSOS|10=031|8=FIX.4.2|9=58|35=0|34=506|49=CITIFFT|52=20181028-10:48:55.677|56=CATSOS|10=040|8=FIX.4.2|9=58|35=0|34=507|49=CITIFFT|52=20181028-10:49:25.679|56=CATSOS|10=041|8=FIX.4.2|9=58|35=0|34=508|49=CITIFFT|52=20181028-10:49:56.674|56=CATSOS|10=041|8=FIX.4.2|9=58|35=0|34=509|49=CITIFFT|52=20181028-10:50:26.669|56=CATSOS|10=035|8=FIX.4.2|9=58|35=0|34=510|49=CITIFFT|52=20181028-10:50:56.664|56=CATSOS|10=025|8=FIX.4.2|9=58|35=0|34=511|49=CITIFFT|52=20181028-10:51:26.669|56=CATSOS|10=029|8=FIX.4.2|9=58|35=0|34=512|49=CITIFFT|52=20181028-10:51:56.672|56=CATSOS|10=027|8=FIX.4.2|9=58|35=0|34=513|49=CITIFFT|52=20181028-10:52:26.669|56=CATSOS|10=032|8=FIX.4.2|9=58|35=0|34=514|49=CITIFFT|52=20181028-10:52:56.681|56=CATSOS|10=030|8=FIX.4.2|9=58|35=0|34=515|49=CITIFFT|52=20181028-10:53:26.679|56=CATSOS|10=036|8=FIX.4.2|9=58|35=0|34=516|49=CITIFFT|52=20181028-10:53:57.669|56=CATSOS|10=040|8=FIX.4.2|9=58|35=0|34=517|49=CITIFFT|52=20181028-10:54:27.669|56=CATSOS|10=039|8=FIX.4.2|9=191|35=S|34=518|49=CITIFFT|52=20181028-10:54:57.670|56=CATSOS|22=4|48=DE0005140008|55=BAADERBK|107=DE0005140008|131=NewQuoteID|132=123.56|133=134.56|134=10|135=12|167=OPT|200=205012|205=31|231=1|10=173|8=FIX.4.2|9=191|35=S|34=519|49=CITIFFT|52=20181028-10:55:18.228|56=CATSOS|22=4|48=DE0005140008|55=BAADERBK|107=DE0005140008|131=NewQuoteID|132=123.56|133=134.56|134=10|135=12|167=OPT|200=205012|205=31|231=1|10=171|8=FIX.4.2|9=58|35=0|34=520|49=CITIFFT|52=20181028-10:55:48.674|56=CATSOS|10=033|8=FIX.4.2|9=191|35=S|34=521|49=CITIFFT|52=20181028-10:56:07.128|56=CATSOS|22=4|48=DE0005140008|55=BAADERBK|107=DE0005140008|131=NewQuoteID|132=123.56|133=134.56|134=10|135=12|167=OPT|200=205012|205=31|231=1|10=162|8=FIX.4.2|9=191|35=S|34=522|49=CITIFFT|52=20181028-10:56:33.358|56=CATSOS|22=4|48=DE0005140008|55=BAADERBK|107=DE0005140008|131=NewQuoteID|132=123.56|133=134.56|134=10|135=12|167=OPT|200=205012|205=31|231=1|10=167|8=FIX.4.2|9=58|35=0|34=523|49=CITIFFT|52=20181028-10:57:03.679|56=CATSOS|10=034|8=FIX.4.2|9=58|35=0|34=524|49=CITIFFT|52=20181028-10:57:34.669|56=CATSOS|10=038|8=FIX.4.2|9=58|35=0|34=525|49=CITIFFT|52=20181028-10:58:04.678|56=CATSOS|10=037|8=FIX.4.2|9=58|35=0|34=526|49=CITIFFT|52=20181028-10:58:34.679|56=CATSOS|10=042|8=FIX.4.2|9=58|35=0|34=527|49=CITIFFT|52=20181028-10:59:05.678|56=CATSOS|10=041|8=FIX.4.2|9=58|35=0|34=528|49=CITIFFT|52=20181028-10:59:36.668|56=CATSOS|10=045|8=FIX.4.2|9=58|35=0|34=529|49=CITIFFT|52=20181028-11:00:06.678|56=CATSOS|10=031|8=FIX.4.2|9=58|35=0|34=530|49=CITIFFT|52=20181028-11:00:36.676|56=CATSOS|10=024|8=FIX.4.2|9=58|35=0|34=531|49=CITIFFT|52=20181028-11:01:07.678|56=CATSOS|10=026|8=FIX.4.2|9=90|35=0|34=532|49=CITIFFT|52=20181028-11:01:07.692|56=CATSOS|112=Appia-20181028-11:02:01.544|10=036|8=FIX.4.2|9=58|35=0|34=533|49=CITIFFT|52=20181028-11:01:37.700|56=CATSOS|10=017|8=FIX.4.2|9=58|35=0|34=534|49=CITIFFT|52=20181028-11:02:07.692|56=CATSOS|10=026|8=FIX.4.2|9=58|35=0|34=535|49=CITIFFT|52=20181028-11:02:37.692|56=CATSOS|10=030|8=FIX.4.2|9=58|35=0|34=536|49=CITIFFT|52=20181028-11:03:07.693|56=CATSOS|10=030|8=FIX.4.2|9=58|35=0|34=537|49=CITIFFT|52=20181028-11:03:37.708|56=CATSOS|10=031|8=FIX.4.2|9=58|35=0|34=538|49=CITIFFT|52=20181028-11:04:08.663|56=CATSOS|10=031|8=FIX.4.2|9=58|35=0|34=539|49=CITIFFT|52=20181028-11:04:38.675|56=CATSOS|10=038|8=FIX.4.2|9=58|35=0|34=540|49=CITIFFT|52=20181028-11:05:08.677|56=CATSOS|10=030|8=FIX.4.2|9=58|35=0|34=541|49=CITIFFT|52=20181028-11:05:39.677|56=CATSOS|10=035|8=FIX.4.2|9=90|35=0|34=542|49=CITIFFT|52=20181028-11:05:39.696|56=CATSOS|112=Appia-20181028-11:06:33.549|10=064|8=FIX.4.2|9=58|35=0|34=543|49=CITIFFT|52=20181028-11:06:09.694|56=CATSOS|10=034|8=FIX.4.2|9=58|35=0|34=544|49=CITIFFT|52=20181028-11:06:39.708|56=CATSOS|10=034|8=FIX.4.2|9=58|35=0|34=545|49=CITIFFT|52=20181028-11:07:10.701|56=CATSOS|10=018|8=FIX.4.2|9=58|35=0|34=546|49=CITIFFT|52=20181028-11:07:41.664|56=CATSOS|10=031|8=FIX.4.2|9=58|35=0|34=547|49=CITIFFT|52=20181028-11:08:11.667|56=CATSOS|10=033|8=FIX.4.2|9=58|35=0|34=548|49=CITIFFT|52=20181028-11:08:41.663|56=CATSOS|10=033|8=FIX.4.2|9=58|35=0|34=549|49=CITIFFT|52=20181028-11:09:11.664|56=CATSOS|10=033|8=FIX.4.2|9=58|35=0|34=550|49=CITIFFT|52=20181028-11:09:41.667|56=CATSOS|10=031|8=FIX.4.2|9=58|35=0|34=551|49=CITIFFT|52=20181028-11:10:11.664|56=CATSOS|10=018|8=FIX.4.2|9=58|35=0|34=552|49=CITIFFT|52=20181028-11:10:41.666|56=CATSOS|10=024|8=FIX.4.2|9=58|35=0|34=553|49=CITIFFT|52=20181028-11:11:11.666|56=CATSOS|10=023|8=FIX.4.2|9=58|35=0|34=554|49=CITIFFT|52=20181028-11:11:41.665|56=CATSOS|10=026|8=FIX.4.2|9=58|35=0|34=555|49=CITIFFT|52=20181028-11:12:11.664|56=CATSOS|10=024|8=FIX.4.2|9=58|35=0|34=556|49=CITIFFT|52=20181028-11:12:41.669|56=CATSOS|10=033|8=FIX.4.2|9=58|35=0|34=557|49=CITIFFT|52=20181028-11:13:11.663|56=CATSOS|10=026|8=FIX.4.2|9=58|35=0|34=558|49=CITIFFT|52=20181028-11:13:41.664|56=CATSOS|10=031|8=FIX.4.2|9=58|35=0|34=559|49=CITIFFT|52=20181028-11:14:11.672|56=CATSOS|10=029|8=FIX.4.2|9=58|35=0|34=560|49=CITIFFT|52=20181028-11:14:41.672|56=CATSOS|10=024|8=FIX.4.2|9=58|35=0|34=561|49=CITIFFT|52=20181028-11:15:11.668|56=CATSOS|10=028|8=FIX.4.2|9=58|35=0|34=562|49=CITIFFT|52=20181028-11:15:41.664|56=CATSOS|10=028|8=FIX.4.2|9=58|35=0|34=563|49=CITIFFT|52=20181028-11:16:11.664|56=CATSOS|10=027|8=FIX.4.2|9=58|35=0|34=564|49=CITIFFT|52=20181028-11:16:41.669|56=CATSOS|10=036|8=FIX.4.2|9=58|35=0|34=565|49=CITIFFT|52=20181028-11:17:11.677|56=CATSOS|10=034|8=FIX.4.2|9=58|35=0|34=566|49=CITIFFT|52=20181028-11:17:41.670|56=CATSOS|10=031|8=FIX.4.2|9=58|35=0|34=567|49=CITIFFT|52=20181028-11:18:11.674|56=CATSOS|10=034|8=FIX.4.2|9=58|35=0|34=568|49=CITIFFT|52=20181028-11:18:41.672|56=CATSOS|10=036|8=FIX.4.2|9=58|35=0|34=569|49=CITIFFT|52=20181028-11:19:11.678|56=CATSOS|10=041|8=FIX.4.2|9=58|35=0|34=570|49=CITIFFT|52=20181028-11:19:42.678|56=CATSOS|10=037|8=FIX.4.2|9=58|35=0|34=571|49=CITIFFT|52=20181028-11:20:12.678|56=CATSOS|10=027|8=FIX.4.2|9=58|35=0|34=572|49=CITIFFT|52=20181028-11:20:43.664|56=CATSOS|10=027|8=FIX.4.2|9=58|35=0|34=573|49=CITIFFT|52=20181028-11:21:13.676|56=CATSOS|10=029|8=FIX.4.2|9=58|35=0|34=574|49=CITIFFT|52=20181028-11:21:43.667|56=CATSOS|10=033|8=FIX.4.2|9=58|35=0|34=575|49=CITIFFT|52=20181028-11:22:13.667|56=CATSOS|10=032|8=FIX.4.2|9=58|35=0|34=576|49=CITIFFT|52=20181028-11:22:43.665|56=CATSOS|10=034|8=FIX.4.2|9=58|35=0|34=577|49=CITIFFT|52=20181028-11:23:13.674|56=CATSOS|10=033|8=FIX.4.2|9=58|35=0|34=578|49=CITIFFT|52=20181028-11:23:43.667|56=CATSOS|10=039|8=FIX.4.2|9=58|35=0|34=579|49=CITIFFT|52=20181028-11:24:13.663|56=CATSOS|10=034|8=FIX.4.2|9=58|35=0|34=580|49=CITIFFT|52=20181028-11:24:43.666|56=CATSOS|10=032|8=FIX.4.2|9=58|35=0|34=581|49=CITIFFT|52=20181028-11:25:13.671|56=CATSOS|10=027|8=FIX.4.2|9=58|35=0|34=582|49=CITIFFT|52=20181028-11:25:43.669|56=CATSOS|10=038|8=FIX.4.2|9=58|35=0|34=583|49=CITIFFT|52=20181028-11:26:13.668|56=CATSOS|10=036|8=FIX.4.2|9=58|35=0|34=584|49=CITIFFT|52=20181028-11:26:43.669|56=CATSOS|10=041|8=FIX.4.2|9=58|35=0|34=585|49=CITIFFT|52=20181028-11:27:13.663|56=CATSOS|10=034|8=FIX.4.2|9=58|35=0|34=586|49=CITIFFT|52=20181028-11:27:43.672|56=CATSOS|10=038|8=FIX.4.2|9=58|35=0|34=587|49=CITIFFT|52=20181028-11:28:13.667|56=CATSOS|10=041|8=FIX.4.2|9=58|35=0|34=588|49=CITIFFT|52=20181028-11:28:43.672|56=CATSOS|10=041|8=FIX.4.2|9=58|35=0|34=589|49=CITIFFT|52=20181028-11:29:13.664|56=CATSOS|10=041|8=FIX.4.2|9=58|35=0|34=590|49=CITIFFT|52=20181028-11:29:43.663|56=CATSOS|10=035|8=FIX.4.2|9=58|35=0|34=591|49=CITIFFT|52=20181028-11:30:13.668|56=CATSOS|10=030|8=FIX.4.2|9=58|35=0|34=592|49=CITIFFT|52=20181028-11:30:43.673|56=CATSOS|10=030|8=FIX.4.2|9=58|35=0|34=593|49=CITIFFT|52=20181028-11:31:14.667|56=CATSOS|10=033|8=FIX.4.2|9=58|35=0|34=594|49=CITIFFT|52=20181028-11:31:44.669|56=CATSOS|10=039|8=FIX.4.2|9=58|35=0|34=595|49=CITIFFT|52=20181028-11:32:14.666|56=CATSOS|10=035|8=FIX.4.2|9=58|35=0|34=596|49=CITIFFT|52=20181028-11:32:44.677|56=CATSOS|10=041|8=FIX.4.2|9=58|35=0|34=597|49=CITIFFT|52=20181028-11:33:14.680|56=CATSOS|10=034|8=FIX.4.2|9=58|35=0|34=598|49=CITIFFT|52=20181028-11:33:44.679|56=CATSOS|10=046|8=FIX.4.2|9=58|35=0|34=599|49=CITIFFT|52=20181028-11:34:14.676|56=CATSOS|10=042|8=FIX.4.2|9=58|35=0|34=600|49=CITIFFT|52=20181028-11:34:44.676|56=CATSOS|10=028|8=FIX.4.2|9=58|35=0|34=601|49=CITIFFT|52=20181028-11:35:15.676|56=CATSOS|10=028|8=FIX.4.2|9=90|35=0|34=602|49=CITIFFT|52=20181028-11:35:15.686|56=CATSOS|112=Appia-20181028-11:36:09.574|10=061|8=FIX.4.2|9=58|35=0|34=603|49=CITIFFT|52=20181028-11:35:45.692|56=CATSOS|10=031|8=FIX.4.2|9=58|35=0|34=604|49=CITIFFT|52=20181028-11:36:15.686|56=CATSOS|10=033|8=FIX.4.2|9=58|35=0|34=605|49=CITIFFT|52=20181028-11:36:45.686|56=CATSOS|10=037|8=FIX.4.2|9=58|35=0|34=606|49=CITIFFT|52=20181028-11:37:15.686|56=CATSOS|10=036|8=FIX.4.2|9=58|35=0|34=607|49=CITIFFT|52=20181028-11:37:45.694|56=CATSOS|10=039|8=FIX.4.2|9=58|35=0|34=608|49=CITIFFT|52=20181028-11:38:15.694|56=CATSOS|10=038|8=FIX.4.2|9=58|35=0|34=609|49=CITIFFT|52=20181028-11:38:45.695|56=CATSOS|10=043|8=FIX.4.2|9=58|35=0|34=610|49=CITIFFT|52=20181028-11:39:15.697|56=CATSOS|10=035|8=FIX.4.2|9=58|35=0|34=611|49=CITIFFT|52=20181028-11:39:45.699|56=CATSOS|10=041|8=FIX.4.2|9=58|35=0|34=612|49=CITIFFT|52=20181028-11:40:15.700|56=CATSOS|10=014|8=FIX.4.2|9=58|35=0|34=613|49=CITIFFT|52=20181028-11:40:45.695|56=CATSOS|10=031|8=FIX.4.2|9=58|35=0|34=614|49=CITIFFT|52=20181028-11:41:15.697|56=CATSOS|10=032|8=FIX.4.2|9=58|35=0|34=615|49=CITIFFT|52=20181028-11:41:45.702|56=CATSOS|10=023|8=FIX.4.2|9=58|35=0|34=616|49=CITIFFT|52=20181028-11:42:15.702|56=CATSOS|10=022|8=FIX.4.2|9=58|35=0|34=617|49=CITIFFT|52=20181028-11:42:45.702|56=CATSOS|10=026|8=FIX.4.2|9=58|35=0|34=618|49=CITIFFT|52=20181028-11:43:15.699|56=CATSOS|10=040|8=FIX.4.2|9=58|35=0|34=619|49=CITIFFT|52=20181028-11:43:45.699|56=CATSOS|10=044|8=FIX.4.2|9=58|35=0|34=620|49=CITIFFT|52=20181028-11:44:15.703|56=CATSOS|10=020|8=FIX.4.2|9=58|35=0|34=621|49=CITIFFT|52=20181028-11:44:45.704|56=CATSOS|10=025|8=FIX.4.2|9=58|35=0|34=622|49=CITIFFT|52=20181028-11:45:15.695|56=CATSOS|10=033|8=FIX.4.2|9=58|35=0|34=623|49=CITIFFT|52=20181028-11:45:45.705|56=CATSOS|10=029|8=FIX.4.2|9=58|35=0|34=624|49=CITIFFT|52=20181028-11:46:15.707|56=CATSOS|10=030|8=FIX.4.2|9=58|35=0|34=625|49=CITIFFT|52=20181028-11:46:45.706|56=CATSOS|10=033|8=FIX.4.2|9=58|35=0|34=626|49=CITIFFT|52=20181028-11:47:15.706|56=CATSOS|10=032|8=FIX.4.2|9=58|35=0|34=627|49=CITIFFT|52=20181028-11:47:46.666|56=CATSOS|10=042|8=FIX.4.2|9=58|35=0|34=628|49=CITIFFT|52=20181028-11:48:16.666|56=CATSOS|10=041|8=FIX.4.2|9=58|35=0|34=629|49=CITIFFT|52=20181028-11:48:46.665|56=CATSOS|10=044|8=FIX.4.2|9=58|35=0|34=630|49=CITIFFT|52=20181028-11:49:16.666|56=CATSOS|10=035|8=FIX.4.2|9=58|35=0|34=631|49=CITIFFT|52=20181028-11:49:46.664|56=CATSOS|10=037|8=FIX.4.2|9=58|35=0|34=632|49=CITIFFT|52=20181028-11:50:16.663|56=CATSOS|10=026|8=FIX.4.2|9=58|35=0|34=633|49=CITIFFT|52=20181028-11:50:46.663|56=CATSOS|10=030|8=FIX.4.2|9=58|35=0|34=634|49=CITIFFT|52=20181028-11:51:16.665|56=CATSOS|10=031|8=FIX.4.2|9=58|35=0|34=635|49=CITIFFT|52=20181028-11:51:46.664|56=CATSOS|10=034|8=FIX.4.2|9=58|35=0|34=636|49=CITIFFT|52=20181028-11:52:16.663|56=CATSOS|10=032|8=FIX.4.2|9=58|35=0|34=637|49=CITIFFT|52=20181028-11:52:46.663|56=CATSOS|10=036|8=FIX.4.2|9=191|35=S|34=638|49=CITIFFT|52=20181028-11:52:58.879|56=CATSOS|22=4|48=DE0005140008|55=BAADERBK|107=DE0005140008|131=NewQuoteID|132=123.56|133=134.56|134=10|135=12|167=OPT|200=205012|205=31|231=1|10=187|8=FIX.4.2|9=191|35=S|34=639|49=CITIFFT|52=20181028-11:53:12.333|56=CATSOS|22=4|48=DE0005140008|55=BAADERBK|107=DE0005140008|131=NewQuoteID|132=123.56|133=134.56|134=10|135=12|167=OPT|200=205012|205=31|231=1|10=164|8=FIX.4.2|9=191|35=S|34=640|49=CITIFFT|52=20181028-11:53:22.975|56=CATSOS|22=4|48=DE0005140008|55=BAADERBK|107=DE0005140008|131=NewQuoteID|132=123.56|133=134.56|134=10|135=12|167=OPT|200=205012|205=31|231=1|10=169|8=FIX.4.2|9=58|35=0|34=641|49=CITIFFT|52=20181028-11:53:53.664|56=CATSOS|10=031|8=FIX.4.2|9=58|35=0|34=642|49=CITIFFT|52=20181028-11:54:23.665|56=CATSOS|10=031|8=FIX.4.2|9=58|35=0|34=643|49=CITIFFT|52=20181028-11:54:53.665|56=CATSOS|10=035|8=FIX.4.2|9=58|35=0|34=644|49=CITIFFT|52=20181028-11:55:23.665|56=CATSOS|10=034|8=FIX.4.2|9=58|35=0|34=645|49=CITIFFT|52=20181028-11:55:53.664|56=CATSOS|10=037|8=FIX.4.2|9=58|35=0|34=646|49=CITIFFT|52=20181028-11:56:23.665|56=CATSOS|10=037|8=FIX.4.2|9=58|35=0|34=647|49=CITIFFT|52=20181028-11:56:53.665|56=CATSOS|10=041|8=FIX.4.2|9=58|35=0|34=648|49=CITIFFT|52=20181028-11:57:23.667|56=CATSOS|10=042|8=FIX.4.2|9=58|35=0|34=649|49=CITIFFT|52=20181028-11:57:53.672|56=CATSOS|10=042|8=FIX.4.2|9=58|35=0|34=650|49=CITIFFT|52=20181028-11:58:23.670|56=CATSOS|10=030|8=FIX.4.2|9=58|35=0|34=651|49=CITIFFT|52=20181028-11:58:53.679|56=CATSOS|10=043|8=FIX.4.2|9=58|35=0|34=652|49=CITIFFT|52=20181028-11:59:24.670|56=CATSOS|10=034|8=FIX.4.2|9=58|35=0|34=653|49=CITIFFT|52=20181028-11:59:54.679|56=CATSOS|10=047|8=FIX.4.2|9=58|35=0|34=654|49=CITIFFT|52=20181028-12:00:25.669|56=CATSOS|10=032|8=FIX.4.2|9=58|35=0|34=655|49=CITIFFT|52=20181028-12:00:55.669|56=CATSOS|10=036|8=FIX.4.2|9=58|35=0|34=656|49=CITIFFT|52=20181028-12:01:25.667|56=CATSOS|10=033|8=FIX.4.2|9=58|35=0|34=657|49=CITIFFT|52=20181028-12:01:55.669|56=CATSOS|10=039|8=FIX.4.2|9=58|35=0|34=658|49=CITIFFT|52=20181028-12:02:25.668|56=CATSOS|10=037|8=FIX.4.2|9=58|35=0|34=659|49=CITIFFT|52=20181028-12:02:55.669|56=CATSOS|10=042|8=FIX.4.2|9=58|35=0|34=660|49=CITIFFT|52=20181028-12:03:25.669|56=CATSOS|10=032|8=FIX.4.2|9=58|35=0|34=661|49=CITIFFT|52=20181028-12:03:55.669|56=CATSOS|10=036|8=FIX.4.2|9=58|35=0|34=662|49=CITIFFT|52=20181028-12:04:25.669|56=CATSOS|10=035|8=FIX.4.2|9=58|35=0|34=663|49=CITIFFT|52=20181028-12:04:55.679|56=CATSOS|10=040|8=FIX.4.2|9=58|35=0|34=664|49=CITIFFT|52=20181028-12:05:25.679|56=CATSOS|10=039|8=FIX.4.2|9=58|35=0|34=665|49=CITIFFT|52=20181028-12:05:56.663|56=CATSOS|10=037|8=FIX.4.2|9=58|35=0|34=666|49=CITIFFT|52=20181028-12:06:26.663|56=CATSOS|10=036|8=FIX.4.2|9=58|35=0|34=667|49=CITIFFT|52=20181028-12:06:56.678|56=CATSOS|10=046|8=FIX.4.2|9=58|35=0|34=668|49=CITIFFT|52=20181028-12:07:26.694|56=CATSOS|10=043|8=FIX.4.2|9=58|35=0|34=669|49=CITIFFT|52=20181028-12:07:57.668|56=CATSOS|10=049|8=FIX.4.2|9=58|35=0|34=670|49=CITIFFT|52=20181028-12:08:27.669|56=CATSOS|10=040|8=FIX.4.2|9=58|35=0|34=671|49=CITIFFT|52=20181028-12:08:57.678|56=CATSOS|10=044|8=FIX.4.2|9=58|35=0|34=672|49=CITIFFT|52=20181028-12:09:28.678|56=CATSOS|10=044|8=FIX.4.2|9=90|35=0|34=673|49=CITIFFT|52=20181028-12:09:28.698|56=CATSOS|112=Appia-20181028-12:10:22.608|10=064|8=FIX.4.2|9=58|35=0|34=674|49=CITIFFT|52=20181028-12:09:58.695|56=CATSOS|10=048|8=FIX.4.2|9=58|35=0|34=675|49=CITIFFT|52=20181028-12:10:28.696|56=CATSOS|10=039|8=FIX.4.2|9=58|35=0|34=676|49=CITIFFT|52=20181028-12:10:58.695|56=CATSOS|10=042|8=FIX.4.2|9=58|35=0|34=677|49=CITIFFT|52=20181028-12:11:28.695|56=CATSOS|10=041|8=FIX.4.2|9=58|35=0|34=678|49=CITIFFT|52=20181028-12:11:58.696|56=CATSOS|10=046|8=FIX.4.2|9=58|35=0|34=679|49=CITIFFT|52=20181028-12:12:28.695|56=CATSOS|10=044|8=FIX.4.2|9=58|35=0|34=680|49=CITIFFT|52=20181028-12:12:58.696|56=CATSOS|10=040|8=FIX.4.2|9=58|35=0|34=681|49=CITIFFT|52=20181028-12:13:28.698|56=CATSOS|10=041|8=FIX.4.2|9=58|35=0|34=682|49=CITIFFT|52=20181028-12:13:58.711|56=CATSOS|10=031|8=FIX.4.2|9=58|35=0|34=683|49=CITIFFT|52=20181028-12:14:29.668|56=CATSOS|10=042|8=FIX.4.2|9=58|35=0|34=684|49=CITIFFT|52=20181028-12:14:59.782|56=CATSOS|10=043|8=FIX.4.2|9=58|35=0|34=685|49=CITIFFT|52=20181028-12:15:30.664|56=CATSOS|10=033|8=FIX.4.2|9=58|35=0|34=686|49=CITIFFT|52=20181028-12:16:00.678|56=CATSOS|10=037|8=FIX.4.2|9=90|35=0|34=687|49=CITIFFT|52=20181028-12:16:31.711|56=CATSOS|112=Appia-20181028-12:17:25.614|10=054|8=FIX.4.2|9=58|35=0|34=688|49=CITIFFT|52=20181028-12:17:02.668|56=CATSOS|10=041|8=FIX.4.2|9=58|35=0|34=689|49=CITIFFT|52=20181028-12:17:32.668|56=CATSOS|10=045|8=FIX.4.2|9=58|35=0|34=690|49=CITIFFT|52=20181028-12:18:02.668|56=CATSOS|10=035|8=FIX.4.2|9=58|35=0|34=691|49=CITIFFT|52=20181028-12:18:32.668|56=CATSOS|10=039|8=FIX.4.2|9=58|35=0|34=692|49=CITIFFT|52=20181028-12:19:02.668|56=CATSOS|10=038|8=FIX.4.2|9=58|35=0|34=693|49=CITIFFT|52=20181028-12:19:32.668|56=CATSOS|10=042|8=FIX.4.2|9=58|35=0|34=694|49=CITIFFT|52=20181028-12:20:02.668|56=CATSOS|10=032|8=FIX.4.2|9=58|35=0|34=695|49=CITIFFT|52=20181028-12:20:32.668|56=CATSOS|10=036|8=FIX.4.2|9=58|35=0|34=696|49=CITIFFT|52=20181028-12:21:02.668|56=CATSOS|10=035|8=FIX.4.2|9=58|35=0|34=697|49=CITIFFT|52=20181028-12:21:32.678|56=CATSOS|10=040|8=FIX.4.2|9=58|35=0|34=698|49=CITIFFT|52=20181028-12:22:03.663|56=CATSOS|10=034|8=FIX.4.2|9=58|35=0|34=699|49=CITIFFT|52=20181028-12:22:33.668|56=CATSOS|10=043|8=FIX.4.2|9=58|35=0|34=700|49=CITIFFT|52=20181028-12:23:03.668|56=CATSOS|10=024|8=FIX.4.2|9=58|35=0|34=701|49=CITIFFT|52=20181028-12:23:33.667|56=CATSOS|10=027|8=FIX.4.2|9=58|35=0|34=702|49=CITIFFT|52=20181028-12:24:03.667|56=CATSOS|10=026|8=FIX.4.2|9=58|35=0|34=703|49=CITIFFT|52=20181028-12:24:33.668|56=CATSOS|10=031|8=FIX.4.2|9=58|35=0|34=704|49=CITIFFT|52=20181028-12:25:03.677|56=CATSOS|10=030|8=FIX.4.2|9=58|35=0|34=705|49=CITIFFT|52=20181028-12:25:34.667|56=CATSOS|10=034|8=FIX.4.2|9=58|35=0|34=706|49=CITIFFT|52=20181028-12:26:04.677|56=CATSOS|10=034|8=FIX.4.2|9=58|35=0|34=707|49=CITIFFT|52=20181028-12:26:35.668|56=CATSOS|10=039|8=FIX.4.2|9=58|35=0|34=708|49=CITIFFT|52=20181028-12:27:05.677|56=CATSOS|10=038|8=FIX.4.2|9=58|35=0|34=709|49=CITIFFT|52=20181028-12:27:36.667|56=CATSOS|10=042|8=FIX.4.2|9=58|35=0|34=710|49=CITIFFT|52=20181028-12:28:06.667|56=CATSOS|10=032|8=FIX.4.2|9=58|35=0|34=711|49=CITIFFT|52=20181028-12:28:36.667|56=CATSOS|10=036|8=FIX.4.2|9=58|35=0|34=712|49=CITIFFT|52=20181028-12:29:06.667|56=CATSOS|10=035|8=FIX.4.2|9=58|35=0|34=713|49=CITIFFT|52=20181028-12:29:36.667|56=CATSOS|10=039|8=FIX.4.2|9=58|35=0|34=714|49=CITIFFT|52=20181028-12:30:06.667|56=CATSOS|10=029|8=FIX.4.2|9=58|35=0|34=715|49=CITIFFT|52=20181028-12:30:36.667|56=CATSOS|10=033|8=FIX.4.2|9=58|35=0|34=716|49=CITIFFT|52=20181028-12:31:06.667|56=CATSOS|10=032|8=FIX.4.2|9=58|35=0|34=717|49=CITIFFT|52=20181028-12:31:36.663|56=CATSOS|10=032|8=FIX.4.2|9=58|35=0|34=718|49=CITIFFT|52=20181028-12:32:06.667|56=CATSOS|10=035|8=FIX.4.2|9=58|35=0|34=719|49=CITIFFT|52=20181028-12:32:36.667|56=CATSOS|10=039|8=FIX.4.2|9=58|35=0|34=720|49=CITIFFT|52=20181028-12:33:06.665|56=CATSOS|10=027|8=FIX.4.2|9=58|35=0|34=721|49=CITIFFT|52=20181028-12:33:36.664|56=CATSOS|10=030|8=FIX.4.2|9=58|35=0|34=722|49=CITIFFT|52=20181028-12:34:06.667|56=CATSOS|10=032|8=FIX.4.2|9=58|35=0|34=723|49=CITIFFT|52=20181028-12:34:36.667|56=CATSOS|10=036|8=FIX.4.2|9=58|35=0|34=724|49=CITIFFT|52=20181028-12:35:06.664|56=CATSOS|10=032|8=FIX.4.2|9=58|35=0|34=725|49=CITIFFT|52=20181028-12:35:36.665|56=CATSOS|10=037|8=FIX.4.2|9=58|35=0|34=726|49=CITIFFT|52=20181028-12:36:06.667|56=CATSOS|10=038|8=FIX.4.2|9=58|35=0|34=727|49=CITIFFT|52=20181028-12:36:36.677|56=CATSOS|10=043|8=FIX.4.2|9=58|35=0|34=728|49=CITIFFT|52=20181028-12:37:06.668|56=CATSOS|10=042|8=FIX.4.2|9=58|35=0|34=729|49=CITIFFT|52=20181028-12:37:36.667|56=CATSOS|10=045|8=FIX.4.2|9=58|35=0|34=730|49=CITIFFT|52=20181028-12:38:06.667|56=CATSOS|10=035|8=FIX.4.2|9=58|35=0|34=731|49=CITIFFT|52=20181028-12:38:36.667|56=CATSOS|10=039|8=FIX.4.2|9=58|35=0|34=732|49=CITIFFT|52=20181028-12:39:06.667|56=CATSOS|10=038|8=FIX.4.2|9=58|35=0|34=733|49=CITIFFT|52=20181028-12:39:36.677|56=CATSOS|10=043|8=FIX.4.2|9=58|35=0|34=734|49=CITIFFT|52=20181028-12:40:07.667|56=CATSOS|10=033|8=FIX.4.2|9=58|35=0|34=735|49=CITIFFT|52=20181028-12:40:37.676|56=CATSOS|10=037|8=FIX.4.2|9=58|35=0|34=736|49=CITIFFT|52=20181028-12:41:07.667|56=CATSOS|10=036|8=FIX.4.2|9=58|35=0|34=737|49=CITIFFT|52=20181028-12:41:37.667|56=CATSOS|10=040|8=FIX.4.2|9=58|35=0|34=738|49=CITIFFT|52=20181028-12:42:07.667|56=CATSOS|10=039|8=FIX.4.2|9=58|35=0|34=739|49=CITIFFT|52=20181028-12:42:37.666|56=CATSOS|10=042|8=FIX.4.2|9=58|35=0|34=740|49=CITIFFT|52=20181028-12:43:07.667|56=CATSOS|10=033|8=FIX.4.2|9=58|35=0|34=741|49=CITIFFT|52=20181028-12:43:37.666|56=CATSOS|10=036|8=FIX.4.2|9=58|35=0|34=742|49=CITIFFT|52=20181028-12:44:07.667|56=CATSOS|10=036|8=FIX.4.2|9=58|35=0|34=743|49=CITIFFT|52=20181028-12:44:37.667|56=CATSOS|10=040|8=FIX.4.2|9=58|35=0|34=744|49=CITIFFT|52=20181028-12:45:07.666|56=CATSOS|10=038|8=FIX.4.2|9=58|35=0|34=745|49=CITIFFT|52=20181028-12:45:37.670|56=CATSOS|10=037|8=FIX.4.2|9=58|35=0|34=746|49=CITIFFT|52=20181028-12:46:07.667|56=CATSOS|10=042|8=FIX.4.2|9=58|35=0|34=747|49=CITIFFT|52=20181028-12:46:37.666|56=CATSOS|10=045|8=FIX.4.2|9=58|35=0|34=748|49=CITIFFT|52=20181028-12:47:07.663|56=CATSOS|10=041|8=FIX.4.2|9=58|35=0|34=749|49=CITIFFT|52=20181028-12:47:37.667|56=CATSOS|10=049|8=FIX.4.2|9=58|35=0|34=750|49=CITIFFT|52=20181028-12:48:07.666|56=CATSOS|10=038|8=FIX.4.2|9=58|35=0|34=751|49=CITIFFT|52=20181028-12:48:37.666|56=CATSOS|10=042|8=FIX.4.2|9=58|35=0|34=752|49=CITIFFT|52=20181028-12:49:07.666|56=CATSOS|10=041|8=FIX.4.2|9=58|35=0|34=753|49=CITIFFT|52=20181028-12:49:37.666|56=CATSOS|10=045|8=FIX.4.2|9=58|35=0|34=754|49=CITIFFT|52=20181028-12:50:07.666|56=CATSOS|10=035|8=FIX.4.2|9=58|35=0|34=755|49=CITIFFT|52=20181028-12:50:37.667|56=CATSOS|10=040|8=FIX.4.2|9=58|35=0|34=756|49=CITIFFT|52=20181028-12:51:07.676|56=CATSOS|10=039|8=FIX.4.2|9=58|35=0|34=757|49=CITIFFT|52=20181028-12:51:38.666|56=CATSOS|10=043|8=FIX.4.2|9=58|35=0|34=758|49=CITIFFT|52=20181028-12:52:08.667|56=CATSOS|10=043|8=FIX.4.2|9=58|35=0|34=759|49=CITIFFT|52=20181028-12:52:38.669|56=CATSOS|10=049|8=FIX.4.2|9=58|35=0|34=760|49=CITIFFT|52=20181028-12:53:08.668|56=CATSOS|10=038|8=FIX.4.2|9=58|35=0|34=761|49=CITIFFT|52=20181028-12:53:38.689|56=CATSOS|10=045|8=FIX.4.2|9=58|35=0|34=762|49=CITIFFT|52=20181028-12:54:09.667|56=CATSOS|10=041|8=FIX.4.2|9=58|35=0|34=763|49=CITIFFT|52=20181028-12:54:39.667|56=CATSOS|10=045|8=FIX.4.2|9=191|35=S|34=764|49=CITIFFT|52=20181028-12:54:48.633|56=CATSOS|22=4|48=DE0005140008|55=BAADERBK|107=DE0005140008|131=NewQuoteID|132=123.56|133=134.56|134=10|135=12|167=OPT|200=205012|205=31|231=1|10=177|8=FIX.4.2|9=191|35=S|34=765|49=CITIFFT|52=20181028-12:55:03.416|56=CATSOS|22=4|48=DE0005140008|55=BAADERBK|107=DE0005140008|131=NewQuoteID|132=123.56|133=134.56|134=10|135=12|167=OPT|200=205012|205=31|231=1|10=169|8=FIX.4.2|9=58|35=0|34=766|49=CITIFFT|52=20181028-12:55:33.667|56=CATSOS|10=043|8=FIX.4.2|9=191|35=S|34=767|49=CITIFFT|52=20181028-12:55:46.895|56=CATSOS|22=4|48=DE0005140008|55=BAADERBK|107=DE0005140008|131=NewQuoteID|132=123.56|133=134.56|134=10|135=12|167=OPT|200=205012|205=31|231=1|10=189|8=FIX.4.2|9=58|35=0|34=768|49=CITIFFT|52=20181028-12:56:17.667|56=CATSOS|10=048|8=FIX.4.2|9=58|35=0|34=769|49=CITIFFT|52=20181028-12:56:47.666|56=CATSOS|10=051|8=FIX.4.2|9=58|35=0|34=770|49=CITIFFT|52=20181028-12:57:17.676|56=CATSOS|10=042|8=FIX.4.2|9=58|35=0|34=771|49=CITIFFT|52=20181028-12:57:47.667|56=CATSOS|10=046|8=FIX.4.2|9=191|35=S|34=772|49=CITIFFT|52=20181028-12:58:03.400|56=CATSOS|22=4|48=DE0005140008|55=BAADERBK|107=DE0005140008|131=NewQuoteID|132=123.56|133=134.56|134=10|135=12|167=OPT|200=205012|205=31|231=1|10=163|8=FIX.4.2|9=58|35=0|34=773|49=CITIFFT|52=20181028-12:58:33.666|56=CATSOS|10=043|8=FIX.4.2|9=58|35=0|34=774|49=CITIFFT|52=20181028-12:59:03.668|56=CATSOS|10=044|8=FIX.4.2|9=58|35=0|34=775|49=CITIFFT|52=20181028-12:59:33.669|56=CATSOS|10=049|8=FIX.4.2|9=58|35=0|34=776|49=CITIFFT|52=20181028-13:00:03.666|56=CATSOS|10=031|8=FIX.4.2|9=58|35=0|34=777|49=CITIFFT|52=20181028-13:00:33.665|56=CATSOS|10=034|8=FIX.4.2|9=58|35=0|34=778|49=CITIFFT|52=20181028-13:01:03.679|56=CATSOS|10=038|8=FIX.4.2|9=58|35=0|34=779|49=CITIFFT|52=20181028-13:01:33.680|56=CATSOS|10=034|8=FIX.4.2|9=191|35=S|34=780|49=CITIFFT|52=20181028-13:01:44.306|56=CATSOS|22=4|48=DE0005140008|55=BAADERBK|107=DE0005140008|131=NewQuoteID|132=123.56|133=134.56|134=10|135=12|167=OPT|200=205012|205=31|231=1|10=161|8=FIX.4.2|9=58|35=0|34=781|49=CITIFFT|52=20181028-13:02:14.679|56=CATSOS|10=035|8=FIX.4.2|9=191|35=S|34=782|49=CITIFFT|52=20181028-13:02:25.937|56=CATSOS|22=4|48=DE0005140008|55=BAADERBK|107=DE0005140008|131=NewQuoteID|132=123.56|133=134.56|134=10|135=12|167=OPT|200=205012|205=31|231=1|10=173|8=FIX.4.2|9=58|35=0|34=783|49=CITIFFT|52=20181028-13:02:56.666|56=CATSOS|10=039|8=FIX.4.2|9=58|35=0|34=784|49=CITIFFT|52=20181028-13:03:26.665|56=CATSOS|10=037|8=FIX.4.2|9=58|35=0|34=785|49=CITIFFT|52=20181028-13:03:56.677|56=CATSOS|10=044|8=FIX.4.2|9=58|35=0|34=786|49=CITIFFT|52=20181028-13:04:27.677|56=CATSOS|10=044|8=FIX.4.2|9=90|35=0|34=787|49=CITIFFT|52=20181028-13:04:27.686|56=CATSOS|112=Appia-20181028-13:05:21.653|10=066|8=FIX.4.2|9=58|35=0|34=788|49=CITIFFT|52=20181028-13:04:57.692|56=CATSOS|10=046|8=FIX.4.2|9=58|35=0|34=789|49=CITIFFT|52=20181028-13:05:27.692|56=CATSOS|10=045|8=FIX.4.2|9=58|35=0|34=790|49=CITIFFT|52=20181028-13:05:57.692|56=CATSOS|10=040|8=FIX.4.2|9=58|35=0|34=791|49=CITIFFT|52=20181028-13:06:27.692|56=CATSOS|10=039|8=FIX.4.2|9=58|35=0|34=792|49=CITIFFT|52=20181028-13:06:57.691|56=CATSOS|10=042|8=FIX.4.2|9=58|35=0|34=793|49=CITIFFT|52=20181028-13:07:27.685|56=CATSOS|10=044|8=FIX.4.2|9=58|35=0|34=794|49=CITIFFT|52=20181028-13:07:57.689|56=CATSOS|10=052|8=FIX.4.2|9=58|35=0|34=795|49=CITIFFT|52=20181028-13:08:27.692|56=CATSOS|10=045|8=FIX.4.2|9=58|35=0|34=796|49=CITIFFT|52=20181028-13:08:57.688|56=CATSOS|10=054|8=FIX.4.2|9=58|35=0|34=797|49=CITIFFT|52=20181028-13:09:27.692|56=CATSOS|10=048|8=FIX.4.2|9=58|35=0|34=798|49=CITIFFT|52=20181028-13:09:57.693|56=CATSOS|10=053|8=FIX.4.2|9=58|35=0|34=799|49=CITIFFT|52=20181028-13:10:27.691|56=CATSOS|10=041|8=FIX.4.2|9=58|35=0|34=800|49=CITIFFT|52=20181028-13:10:57.692|56=CATSOS|10=028|8=FIX.4.2|9=58|35=0|34=801|49=CITIFFT|52=20181028-13:11:27.692|56=CATSOS|10=027|8=FIX.4.2|9=58|35=0|34=802|49=CITIFFT|52=20181028-13:11:57.693|56=CATSOS|10=032|8=FIX.4.2|9=58|35=0|34=803|49=CITIFFT|52=20181028-13:12:27.693|56=CATSOS|10=031|8=FIX.4.2|9=58|35=0|34=804|49=CITIFFT|52=20181028-13:12:57.694|56=CATSOS|10=036|8=FIX.4.2|9=58|35=0|34=805|49=CITIFFT|52=20181028-13:13:27.692|56=CATSOS|10=033|8=FIX.4.2|9=58|35=0|34=806|49=CITIFFT|52=20181028-13:13:57.695|56=CATSOS|10=040|8=FIX.4.2|9=58|35=0|34=807|49=CITIFFT|52=20181028-13:14:27.693|56=CATSOS|10=037|8=FIX.4.2|9=58|35=0|34=808|49=CITIFFT|52=20181028-13:14:57.685|56=CATSOS|10=042|8=FIX.4.2|9=58|35=0|34=809|49=CITIFFT|52=20181028-13:15:27.677|56=CATSOS|10=042|8=FIX.4.2|9=58|35=0|34=810|49=CITIFFT|52=20181028-13:15:57.679|56=CATSOS|10=039|8=FIX.4.2|9=58|35=0|34=811|49=CITIFFT|52=20181028-13:16:27.691|56=CATSOS|10=032|8=FIX.4.2|9=58|35=0|34=812|49=CITIFFT|52=20181028-13:16:57.692|56=CATSOS|10=037|8=FIX.4.2|9=58|35=0|34=813|49=CITIFFT|52=20181028-13:17:27.692|56=CATSOS|10=036|8=FIX.4.2|9=58|35=0|34=814|49=CITIFFT|52=20181028-13:17:57.693|56=CATSOS|10=041|8=FIX.4.2|9=58|35=0|34=815|49=CITIFFT|52=20181028-13:18:27.691|56=CATSOS|10=038|8=FIX.4.2|9=58|35=0|34=816|49=CITIFFT|52=20181028-13:18:57.692|56=CATSOS|10=043|8=FIX.4.2|9=58|35=0|34=817|49=CITIFFT|52=20181028-13:19:27.691|56=CATSOS|10=041|8=FIX.4.2|9=58|35=0|34=818|49=CITIFFT|52=20181028-13:19:57.692|56=CATSOS|10=046|8=FIX.4.2|9=58|35=0|34=819|49=CITIFFT|52=20181028-13:20:27.693|56=CATSOS|10=037|8=FIX.4.2|9=58|35=0|34=820|49=CITIFFT|52=20181028-13:20:57.693|56=CATSOS|10=032|8=FIX.4.2|9=58|35=0|34=821|49=CITIFFT|52=20181028-13:21:27.692|56=CATSOS|10=030|8=FIX.4.2|9=58|35=0|34=822|49=CITIFFT|52=20181028-13:21:57.693|56=CATSOS|10=035|8=FIX.4.2|9=58|35=0|34=823|49=CITIFFT|52=20181028-13:22:27.693|56=CATSOS|10=034|8=FIX.4.2|9=58|35=0|34=824|49=CITIFFT|52=20181028-13:22:57.692|56=CATSOS|10=037|8=FIX.4.2|9=58|35=0|34=825|49=CITIFFT|52=20181028-13:23:27.693|56=CATSOS|10=037|8=FIX.4.2|9=58|35=0|34=826|49=CITIFFT|52=20181028-13:23:57.692|56=CATSOS|10=040|8=FIX.4.2|9=58|35=0|34=827|49=CITIFFT|52=20181028-13:24:27.694|56=CATSOS|10=041|8=FIX.4.2|9=58|35=0|34=828|49=CITIFFT|52=20181028-13:24:57.694|56=CATSOS|10=045|8=FIX.4.2|9=58|35=0|34=829|49=CITIFFT|52=20181028-13:25:27.694|56=CATSOS|10=044|8=FIX.4.2|9=58|35=0|34=830|49=CITIFFT|52=20181028-13:25:57.695|56=CATSOS|10=040|8=FIX.4.2|9=58|35=0|34=831|49=CITIFFT|52=20181028-13:26:27.695|56=CATSOS|10=039|8=FIX.4.2|9=58|35=0|34=832|49=CITIFFT|52=20181028-13:26:57.695|56=CATSOS|10=043|8=FIX.4.2|9=58|35=0|34=833|49=CITIFFT|52=20181028-13:27:27.697|56=CATSOS|10=044|8=FIX.4.2|9=58|35=0|34=834|49=CITIFFT|52=20181028-13:27:57.695|56=CATSOS|10=046|8=FIX.4.2|9=58|35=0|34=835|49=CITIFFT|52=20181028-13:28:27.695|56=CATSOS|10=045|8=FIX.4.2|9=58|35=0|34=836|49=CITIFFT|52=20181028-13:28:57.695|56=CATSOS|10=049|8=FIX.4.2|9=58|35=0|34=837|49=CITIFFT|52=20181028-13:29:27.695|56=CATSOS|10=048|8=FIX.4.2|9=58|35=0|34=838|49=CITIFFT|52=20181028-13:29:57.697|56=CATSOS|10=054|8=FIX.4.2|9=58|35=0|34=839|49=CITIFFT|52=20181028-13:30:27.696|56=CATSOS|10=043|8=FIX.4.2|9=58|35=0|34=840|49=CITIFFT|52=20181028-13:30:57.695|56=CATSOS|10=037|8=FIX.4.2|9=58|35=0|34=841|49=CITIFFT|52=20181028-13:31:27.695|56=CATSOS|10=036|8=FIX.4.2|9=58|35=0|34=842|49=CITIFFT|52=20181028-13:31:57.698|56=CATSOS|10=043|8=FIX.4.2|9=58|35=0|34=843|49=CITIFFT|52=20181028-13:32:27.694|56=CATSOS|10=038|8=FIX.4.2|9=58|35=0|34=844|49=CITIFFT|52=20181028-13:32:57.694|56=CATSOS|10=042|8=FIX.4.2|9=191|35=S|34=845|49=CITIFFT|52=20181028-13:33:24.800|56=CATSOS|22=4|48=DE0005140008|55=BAADERBK|107=DE0005140008|131=NewQuoteID|132=123.56|133=134.56|134=10|135=12|167=OPT|200=205012|205=31|231=1|10=165|8=FIX.4.2|9=58|35=0|34=846|49=CITIFFT|52=20181028-13:33:55.664|56=CATSOS|10=040|8=FIX.4.2|9=58|35=0|34=847|49=CITIFFT|52=20181028-13:34:25.680|56=CATSOS|10=037|8=FIX.4.2|9=58|35=0|34=848|49=CITIFFT|52=20181028-13:34:56.664|56=CATSOS|10=044|8=FIX.4.2|9=58|35=0|34=849|49=CITIFFT|52=20181028-13:35:26.673|56=CATSOS|10=043|8=FIX.4.2|9=58|35=0|34=850|49=CITIFFT|52=20181028-13:35:56.675|56=CATSOS|10=040|8=FIX.4.2|9=58|35=0|34=851|49=CITIFFT|52=20181028-13:36:27.669|56=CATSOS|10=043|8=FIX.4.2|9=58|35=0|34=852|49=CITIFFT|52=20181028-13:36:57.680|56=CATSOS|10=040|8=FIX.4.2|9=58|35=0|34=853|49=CITIFFT|52=20181028-13:37:27.675|56=CATSOS|10=043|8=FIX.4.2|9=58|35=0|34=854|49=CITIFFT|52=20181028-13:37:57.677|56=CATSOS|10=049|8=FIX.4.2|9=58|35=0|34=855|49=CITIFFT|52=20181028-13:38:28.675|56=CATSOS|10=047|8=FIX.4.2|9=58|35=0|34=856|49=CITIFFT|52=20181028-13:38:58.677|56=CATSOS|10=053|8=FIX.4.2|9=58|35=0|34=857|49=CITIFFT|52=20181028-13:39:28.684|56=CATSOS|10=050|8=FIX.4.2|9=58|35=0|34=858|49=CITIFFT|52=20181028-13:39:59.665|56=CATSOS|10=054|8=FIX.4.2|9=58|35=0|34=859|49=CITIFFT|52=20181028-13:40:29.665|56=CATSOS|10=044|8=FIX.4.2|9=191|35=S|34=860|49=CITIFFT|52=20181028-13:40:56.684|56=CATSOS|22=4|48=DE0005140008|55=BAADERBK|107=DE0005140008|131=NewQuoteID|132=123.56|133=134.56|134=10|135=12|167=OPT|200=205012|205=31|231=1|10=175|8=FIX.4.2|9=58|35=0|34=861|49=CITIFFT|52=20181028-13:41:27.667|56=CATSOS|10=038|8=FIX.4.2|9=191|35=S|34=862|49=CITIFFT|52=20181028-13:41:49.013|56=CATSOS|22=4|48=DE0005140008|55=BAADERBK|107=DE0005140008|131=NewQuoteID|132=123.56|133=134.56|134=10|135=12|167=OPT|200=205012|205=31|231=1|10=166|8=FIX.4.2|9=70|35=A|34=863|49=CITIFFT|52=20181028-13:42:27.989|56=CATSOS|98=0|108=30|10=084|8=FIX.4.2|9=58|35=0|34=864|49=CITIFFT|52=20181028-13:42:57.981|56=CATSOS|10=044|8=FIX.4.2|9=58|35=0|34=865|49=CITIFFT|52=20181028-13:43:27.984|56=CATSOS|10=046|8=FIX.4.2|9=58|35=0|34=866|49=CITIFFT|52=20181028-13:43:57.994|56=CATSOS|10=051|8=FIX.4.2|9=58|35=0|34=867|49=CITIFFT|52=20181028-13:44:28.008|56=CATSOS|10=037|8=FIX.4.2|9=58|35=0|34=868|49=CITIFFT|52=20181028-13:44:58.007|56=CATSOS|10=040|8=FIX.4.2|9=58|35=0|34=869|49=CITIFFT|52=20181028-13:45:28.006|56=CATSOS|10=038|8=FIX.4.2|9=58|35=0|34=870|49=CITIFFT|52=20181028-13:45:58.006|56=CATSOS|10=033|8=FIX.4.2|9=58|35=0|34=871|49=CITIFFT|52=20181028-13:46:28.006|56=CATSOS|10=032|8=FIX.4.2|9=58|35=0|34=872|49=CITIFFT|52=20181028-13:46:58.006|56=CATSOS|10=036|8=FIX.4.2|9=58|35=0|34=873|49=CITIFFT|52=20181028-13:47:28.005|56=CATSOS|10=034|8=FIX.4.2|9=58|35=0|34=874|49=CITIFFT|52=20181028-13:47:58.006|56=CATSOS|10=039|8=FIX.4.2|9=58|35=0|34=875|49=CITIFFT|52=20181028-13:48:28.007|56=CATSOS|10=039|8=FIX.4.2|9=58|35=0|34=876|49=CITIFFT|52=20181028-13:48:58.006|56=CATSOS|10=042|8=FIX.4.2|9=58|35=0|34=877|49=CITIFFT|52=20181028-13:49:28.008|56=CATSOS|10=043|8=FIX.4.2|9=58|35=0|34=878|49=CITIFFT|52=20181028-13:49:58.016|56=CATSOS|10=046|8=FIX.4.2|9=58|35=0|34=879|49=CITIFFT|52=20181028-13:50:28.990|56=CATSOS|10=047|8=FIX.4.2|9=58|35=0|34=880|49=CITIFFT|52=20181028-13:50:59.054|56=CATSOS|10=034|8=FIX.4.2|9=191|35=S|34=881|49=CITIFFT|52=20181028-13:51:29.300|56=CATSOS|22=4|48=DE0005140008|55=BAADERBK|107=DE0005140008|131=NewQuoteID|132=123.56|133=134.56|134=10|135=12|167=OPT|200=205012|205=31|231=1|10=165|8=FIX.4.2|9=58|35=0|34=882|49=CITIFFT|52=20181028-13:51:59.988|56=CATSOS|10=053|8=FIX.4.2|9=58|35=0|34=883|49=CITIFFT|52=20181028-13:52:30.977|56=CATSOS|10=042|8=FIX.4.2|9=58|35=0|34=884|49=CITIFFT|52=20181028-13:53:00.983|56=CATSOS|10=038|8=FIX.4.2|9=58|35=0|34=885|49=CITIFFT|52=20181028-13:53:30.990|56=CATSOS|10=040|8=FIX.4.2|9=58|35=0|34=886|49=CITIFFT|52=20181028-13:54:01.976|56=CATSOS|10=044|8=FIX.4.2|9=58|35=0|34=887|49=CITIFFT|52=20181028-13:54:31.982|56=CATSOS|10=045|8=FIX.4.2|9=58|35=0|34=888|49=CITIFFT|52=20181028-13:55:01.990|56=CATSOS|10=043|8=FIX.4.2|9=58|35=0|34=889|49=CITIFFT|52=20181028-13:55:32.992|56=CATSOS|10=050|8=FIX.4.2|9=90|35=0|34=890|49=CITIFFT|52=20181028-13:55:33.007|56=CATSOS|112=Appia-20181028-13:56:27.011|10=051|8=FIX.4.2|9=58|35=0|34=891|49=CITIFFT|52=20181028-13:56:03.007|56=CATSOS|10=029|8=FIX.4.2|9=58|35=0|34=892|49=CITIFFT|52=20181028-13:56:33.009|56=CATSOS|10=035|8=FIX.4.2|9=58|35=0|34=893|49=CITIFFT|52=20181028-13:57:03.005|56=CATSOS|10=030|8=FIX.4.2|9=58|35=0|34=894|49=CITIFFT|52=20181028-13:57:33.004|56=CATSOS|10=033|8=FIX.4.2|9=58|35=0|34=895|49=CITIFFT|52=20181028-13:58:03.006|56=CATSOS|10=034|8=FIX.4.2|9=58|35=0|34=896|49=CITIFFT|52=20181028-13:58:33.013|56=CATSOS|10=036|8=FIX.4.2|9=58|35=0|34=897|49=CITIFFT|52=20181028-13:59:03.005|56=CATSOS|10=036|8=FIX.4.2|9=58|35=0|34=898|49=CITIFFT|52=20181028-13:59:33.013|56=CATSOS|10=039|8=FIX.4.2|9=58|35=0|34=899|49=CITIFFT|52=20181028-14:00:03.007|56=CATSOS|10=027|8=FIX.4.2|9=58|35=0|34=900|49=CITIFFT|52=20181028-14:00:33.025|56=CATSOS|10=013|8=FIX.4.2|9=58|35=0|34=901|49=CITIFFT|52=20181028-14:01:03.984|56=CATSOS|10=026|8=FIX.4.2|9=58|35=0|34=902|49=CITIFFT|52=20181028-14:01:33.983|56=CATSOS|10=029|8=FIX.4.2|9=58|35=0|34=903|49=CITIFFT|52=20181028-14:02:03.992|56=CATSOS|10=028|8=FIX.4.2|9=58|35=0|34=904|49=CITIFFT|52=20181028-14:02:33.984|56=CATSOS|10=033|8=FIX.4.2|9=58|35=0|34=905|49=CITIFFT|52=20181028-14:03:03.983|56=CATSOS|10=031|8=FIX.4.2|9=58|35=0|34=906|49=CITIFFT|52=20181028-14:03:33.984|56=CATSOS|10=036|8=FIX.4.2|9=58|35=0|34=907|49=CITIFFT|52=20181028-14:04:03.987|56=CATSOS|10=038|8=FIX.4.2|9=58|35=0|34=908|49=CITIFFT|52=20181028-14:04:33.983|56=CATSOS|10=038|8=FIX.4.2|9=58|35=0|34=909|49=CITIFFT|52=20181028-14:05:03.984|56=CATSOS|10=038|8=FIX.4.2|9=58|35=0|34=910|49=CITIFFT|52=20181028-14:05:34.989|56=CATSOS|10=039|8=FIX.4.2|9=90|35=0|34=911|49=CITIFFT|52=20181028-14:05:35.012|56=CATSOS|112=Appia-20181028-14:06:29.013|10=039|8=FIX.4.2|9=58|35=0|34=912|49=CITIFFT|52=20181028-14:06:05.985|56=CATSOS|10=036|8=FIX.4.2|9=58|35=0|34=913|49=CITIFFT|52=20181028-14:06:35.987|56=CATSOS|10=042|8=FIX.4.2|9=58|35=0|34=914|49=CITIFFT|52=20181028-14:07:05.995|56=CATSOS|10=040|8=FIX.4.2|9=58|35=0|34=915|49=CITIFFT|52=20181028-14:07:36.992|56=CATSOS|10=042|8=FIX.4.2|9=58|35=0|34=916|49=CITIFFT|52=20181028-14:08:07.987|56=CATSOS|10=046|8=FIX.4.2|9=58|35=0|34=917|49=CITIFFT|52=20181028-14:08:37.982|56=CATSOS|10=045|8=FIX.4.2|9=58|35=0|34=918|49=CITIFFT|52=20181028-14:09:07.994|56=CATSOS|10=047|8=FIX.4.2|9=58|35=0|34=919|49=CITIFFT|52=20181028-14:09:37.994|56=CATSOS|10=051|8=FIX.4.2|9=58|35=0|34=920|49=CITIFFT|52=20181028-14:10:07.987|56=CATSOS|10=034|8=FIX.4.2|9=58|35=0|34=921|49=CITIFFT|52=20181028-14:10:37.982|56=CATSOS|10=033|8=FIX.4.2|9=58|35=0|34=922|49=CITIFFT|52=20181028-14:11:07.994|56=CATSOS|10=035|8=FIX.4.2|9=58|35=0|34=923|49=CITIFFT|52=20181028-14:11:38.983|56=CATSOS|10=038|8=FIX.4.2|9=58|35=0|34=924|49=CITIFFT|52=20181028-14:12:08.985|56=CATSOS|10=039|8=FIX.4.2|9=58|35=0|34=925|49=CITIFFT|52=20181028-14:12:38.993|56=CATSOS|10=042|8=FIX.4.2|9=58|35=0|34=926|49=CITIFFT|52=20181028-14:13:09.986|56=CATSOS|10=044|8=FIX.4.2|9=58|35=0|34=927|49=CITIFFT|52=20181028-14:13:39.992|56=CATSOS|10=045|8=FIX.4.2|9=58|35=0|34=928|49=CITIFFT|52=20181028-14:14:09.994|56=CATSOS|10=046|8=FIX.4.2|9=58|35=0|34=929|49=CITIFFT|52=20181028-14:14:40.978|56=CATSOS|10=044|8=FIX.4.2|9=58|35=0|34=930|49=CITIFFT|52=20181028-14:15:10.982|56=CATSOS|10=029|8=FIX.4.2|9=58|35=0|34=931|49=CITIFFT|52=20181028-14:15:40.983|56=CATSOS|10=034|8=FIX.4.2|9=58|35=0|34=932|49=CITIFFT|52=20181028-14:16:10.982|56=CATSOS|10=032|8=FIX.4.2|9=58|35=0|34=933|49=CITIFFT|52=20181028-14:16:40.993|56=CATSOS|10=038|8=FIX.4.2|9=58|35=0|34=934|49=CITIFFT|52=20181028-14:17:11.992|56=CATSOS|10=037|8=FIX.4.2|9=90|35=0|34=935|49=CITIFFT|52=20181028-14:17:12.008|56=CATSOS|112=Appia-20181028-14:18:06.032|10=047|8=FIX.4.2|9=58|35=0|34=936|49=CITIFFT|52=20181028-14:17:42.009|56=CATSOS|10=032|8=FIX.4.2|9=58|35=0|34=937|49=CITIFFT|52=20181028-14:18:12.013|56=CATSOS|10=026|8=FIX.4.2|9=58|35=0|34=938|49=CITIFFT|52=20181028-14:18:42.009|56=CATSOS|10=035|8=FIX.4.2|9=58|35=0|34=939|49=CITIFFT|52=20181028-14:19:12.013|56=CATSOS|10=029|8=FIX.4.2|9=58|35=0|34=940|49=CITIFFT|52=20181028-14:19:42.011|56=CATSOS|10=022|8=FIX.4.2|9=58|35=0|34=941|49=CITIFFT|52=20181028-14:20:12.010|56=CATSOS|10=011|8=FIX.4.2|9=58|35=0|34=942|49=CITIFFT|52=20181028-14:20:42.010|56=CATSOS|10=015|8=FIX.4.2|9=58|35=0|34=943|49=CITIFFT|52=20181028-14:21:12.012|56=CATSOS|10=016|8=FIX.4.2|9=58|35=0|34=944|49=CITIFFT|52=20181028-14:21:42.010|56=CATSOS|10=018|8=FIX.4.2|9=58|35=0|34=945|49=CITIFFT|52=20181028-14:22:12.010|56=CATSOS|10=017|8=FIX.4.2|9=58|35=0|34=946|49=CITIFFT|52=20181028-14:22:42.010|56=CATSOS|10=021|8=FIX.4.2|9=58|35=0|34=947|49=CITIFFT|52=20181028-14:23:12.019|56=CATSOS|10=029|8=FIX.4.2|9=58|35=0|34=948|49=CITIFFT|52=20181028-14:23:42.011|56=CATSOS|10=025|8=FIX.4.2|9=58|35=0|34=949|49=CITIFFT|52=20181028-14:24:12.011|56=CATSOS|10=024|8=FIX.4.2|9=58|35=0|34=950|49=CITIFFT|52=20181028-14:24:42.011|56=CATSOS|10=019|8=FIX.4.2|9=58|35=0|34=951|49=CITIFFT|52=20181028-14:25:12.010|56=CATSOS|10=017|8=FIX.4.2|9=58|35=0|34=952|49=CITIFFT|52=20181028-14:25:42.013|56=CATSOS|10=024|8=FIX.4.2|9=58|35=0|34=953|49=CITIFFT|52=20181028-14:26:12.014|56=CATSOS|10=024|8=FIX.4.2|9=58|35=0|34=954|49=CITIFFT|52=20181028-14:26:42.011|56=CATSOS|10=025|8=FI