8=FIX.4.2|9=67|35=A|34=1|49=BAADER|52=20181027-11:53:22.164|56=CATSOS|98=0|108=30|10=107|8=FIX.4.2|9=127|35=R|34=2|49=BAADER|52=20181027-11:53:23.151|56=CATSOS|22=4|38=123.45|48=DE0005140008|55=MM1|131=HackathonStuttgart-1234|146=1|10=009|8=FIX.4.2|9=55|35=0|34=3|49=BAADER|52=20181027-11:53:53.175|56=CATSOS|10=070|8=FIX.4.2|9=55|35=0|34=4|49=BAADER|52=20181027-11:54:23.176|56=CATSOS|10=070|8=FIX.4.2|9=55|35=0|34=5|49=BAADER|52=20181027-11:54:53.178|56=CATSOS|10=076|8=FIX.4.2|9=55|35=0|34=6|49=BAADER|52=20181027-11:55:23.172|56=CATSOS|10=069|8=FIX.4.2|9=55|35=0|34=7|49=BAADER|52=20181027-11:55:53.170|56=CATSOS|10=071|8=FIX.4.2|9=55|35=0|34=8|49=BAADER|52=20181027-11:56:23.169|56=CATSOS|10=078|8=FIX.4.2|9=67|35=A|34=9|49=BAADER|52=20181027-12:12:42.188|56=CATSOS|98=0|108=30|10=119|8=FIX.4.2|9=128|35=R|34=10|49=BAADER|52=20181027-12:12:43.150|56=CATSOS|22=4|38=123.45|48=DE0005140008|55=MM1|131=HackathonStuttgart-1234|146=1|10=054|8=FIX.4.2|9=56|35=0|34=11|49=BAADER|52=20181027-12:13:13.174|56=CATSOS|10=110|8=FIX.4.2|9=68|35=A|34=12|49=BAADER|52=20181027-12:23:26.409|56=CATSOS|98=0|108=30|10=162|8=FIX.4.2|9=142|35=R|34=13|49=BAADER|52=20181027-12:23:27.432|56=CATSOS|22=4|38=123.45|48=DE0005140008|55=CITIDE|128=CITIDE|131=HackathonStuttgart-1234|146=1|10=174|8=FIX.4.2|9=56|35=0|34=14|49=BAADER|52=20181027-12:23:57.455|56=CATSOS|10=124|8=FIX.4.2|9=56|35=0|34=15|49=BAADER|52=20181027-12:24:27.452|56=CATSOS|10=120|8=FIX.4.2|9=56|35=0|34=16|49=BAADER|52=20181027-12:24:57.452|56=CATSOS|10=124|8=FIX.4.2|9=56|35=0|34=17|49=BAADER|52=20181027-12:25:27.452|56=CATSOS|10=123|8=FIX.4.2|9=56|35=0|34=18|49=BAADER|52=20181027-12:25:57.451|56=CATSOS|10=126|8=FIX.4.2|9=56|35=0|34=19|49=BAADER|52=20181027-12:26:27.453|56=CATSOS|10=127|8=FIX.4.2|9=56|35=0|34=20|49=BAADER|52=20181027-12:26:57.451|56=CATSOS|10=120|8=FIX.4.2|9=56|35=0|34=21|49=BAADER|52=20181027-12:27:27.452|56=CATSOS|10=120|8=FIX.4.2|9=56|35=0|34=22|49=BAADER|52=20181027-12:27:57.449|56=CATSOS|10=130|8=FIX.4.2|9=56|35=0|34=23|49=BAADER|52=20181027-12:28:27.452|56=CATSOS|10=123|8=FIX.4.2|9=56|35=0|34=24|49=BAADER|52=20181027-12:28:57.451|56=CATSOS|10=126|8=FIX.4.2|9=56|35=0|34=25|49=BAADER|52=20181027-12:29:27.452|56=CATSOS|10=126|8=FIX.4.2|9=56|35=0|34=26|49=BAADER|52=20181027-12:29:57.451|56=CATSOS|10=129|8=FIX.4.2|9=56|35=0|34=27|49=BAADER|52=20181027-12:30:27.449|56=CATSOS|10=126|8=FIX.4.2|9=68|35=A|34=28|49=BAADER|52=20181027-12:30:45.139|56=CATSOS|98=0|108=30|10=168|8=FIX.4.2|9=139|35=R|34=29|49=BAADER|52=20181027-12:30:46.153|56=CATSOS|22=4|38=123|48=DE0005140008|55=CITIDE|128=CITIDE|131=HackathonStuttgart-1234|146=1|10=035|8=FIX.4.2|9=56|35=0|34=30|49=BAADER|52=20181027-12:31:16.177|56=CATSOS|10=117|8=FIX.4.2|9=68|35=A|34=31|49=BAADER|52=20181027-12:32:32.766|56=CATSOS|98=0|108=30|10=166|8=FIX.4.2|9=139|35=R|34=32|49=BAADER|52=20181027-12:32:33.768|56=CATSOS|22=4|38=123|48=DE0005140008|55=CITIDE|128=CITIDE|131=HackathonStuttgart-1234|146=1|10=039|8=FIX.4.2|9=56|35=0|34=33|49=BAADER|52=20181027-12:33:03.789|56=CATSOS|10=127|8=FIX.4.2|9=68|35=A|34=34|49=BAADER|52=20181027-12:39:29.869|56=CATSOS|98=0|108=30|10=186|8=FIX.4.2|9=68|35=A|34=35|49=BAADER|52=20181027-12:40:41.941|56=CATSOS|98=0|108=30|10=164|8=FIX.4.2|9=139|35=R|34=36|49=BAADER|52=20181027-12:40:42.930|56=CATSOS|22=4|38=123|48=DE0005140008|55=CITIDE|128=CITIDE|131=HackathonStuttgart-1234|146=1|10=033|8=FIX.4.2|9=56|35=0|34=37|49=BAADER|52=20181027-12:41:12.929|56=CATSOS|10=126|8=FIX.4.2|9=56|35=0|34=38|49=BAADER|52=20181027-12:41:42.923|56=CATSOS|10=124|8=FIX.4.2|9=56|35=0|34=39|49=BAADER|52=20181027-12:42:12.929|56=CATSOS|10=129|8=FIX.4.2|9=68|35=A|34=40|49=BAADER|52=20181027-12:45:26.810|56=CATSOS|98=0|108=30|10=163|8=FIX.4.2|9=139|35=R|34=41|49=BAADER|52=20181027-12:45:27.807|56=CATSOS|22=4|38=123|48=DE0005140008|55=CITIDE|128=CITIDE|131=HackathonStuttgart-1234|146=1|10=040|8=FIX.4.2|9=56|35=0|34=42|49=BAADER|52=20181027-12:45:57.825|56=CATSOS|10=130|8=FIX.4.2|9=68|35=A|34=43|49=BAADER|52=20181027-12:46:09.380|56=CATSOS|98=0|108=30|10=170|8=FIX.4.2|9=128|35=R|34=44|49=BAADER|52=20181027-12:46:10.393|56=CATSOS|22=4|38=123|48=DE0005140008|55=CITIDE|131=HackathonStuttgart-1234|146=1|10=151|8=FIX.4.2|9=56|35=0|34=45|49=BAADER|52=20181027-12:46:40.413|56=CATSOS|10=119|8=FIX.4.2|9=68|35=A|34=46|49=BAADER|52=20181027-12:49:20.899|56=CATSOS|98=0|108=30|10=184|8=FIX.4.2|9=130|35=R|34=47|49=BAADER|52=20181027-12:49:21.872|56=CATSOS|22=4|38=123|48=DE0005140008|55=BAADERBK|131=HackathonStuttgart-1234|146=1|10=020|8=FIX.4.2|9=56|35=0|34=48|49=BAADER|52=20181027-12:49:51.897|56=CATSOS|10=143|8=FIX.4.2|9=56|35=0|34=49|49=BAADER|52=20181027-12:50:21.895|56=CATSOS|10=131|8=FIX.4.2|9=56|35=0|34=50|49=BAADER|52=20181027-12:50:51.895|56=CATSOS|10=126|8=FIX.4.2|9=68|35=A|34=51|49=BAADER|52=20181027-12:51:10.009|56=CATSOS|98=0|108=30|10=155|8=FIX.4.2|9=56|35=0|34=52|49=BAADER|52=20181027-12:51:40.155|56=CATSOS|10=116|8=FIX.4.2|9=68|35=A|34=53|49=BAADER|52=20181027-12:53:32.518|56=CATSOS|98=0|108=30|10=168|8=FIX.4.2|9=130|35=R|34=54|49=BAADER|52=20181027-12:53:33.511|56=CATSOS|22=4|38=123|48=DE0005140008|55=BAADERBK|131=HackathonStuttgart-1234|146=1|10=006|8=FIX.4.2|9=56|35=0|34=55|49=BAADER|52=20181027-12:54:03.548|56=CATSOS|10=127|8=FIX.4.2|9=56|35=0|34=56|49=BAADER|52=20181027-12:54:33.550|56=CATSOS|10=124|8=FIX.4.2|9=56|35=0|34=57|49=BAADER|52=20181027-12:55:03.545|56=CATSOS|10=127|8=FIX.4.2|9=56|35=0|34=58|49=BAADER|52=20181027-12:55:33.548|56=CATSOS|10=134|8=FIX.4.2|9=56|35=0|34=59|49=BAADER|52=20181027-12:56:04.487|56=CATSOS|10=136|8=FIX.4.2|9=56|35=0|34=60|49=BAADER|52=20181027-12:56:34.483|56=CATSOS|10=127|8=FIX.4.2|9=56|35=0|34=61|49=BAADER|52=20181027-12:57:04.491|56=CATSOS|10=125|8=FIX.4.2|9=56|35=0|34=62|49=BAADER|52=20181027-12:57:34.483|56=CATSOS|10=130|8=FIX.4.2|9=56|35=0|34=63|49=BAADER|52=20181027-12:58:04.478|56=CATSOS|10=133|8=FIX.4.2|9=56|35=0|34=64|49=BAADER|52=20181027-12:58:34.486|56=CATSOS|10=136|8=FIX.4.2|9=56|35=0|34=65|49=BAADER|52=20181027-12:59:04.492|56=CATSOS|10=132|8=FIX.4.2|9=56|35=0|34=66|49=BAADER|52=20181027-12:59:35.482|56=CATSOS|10=136|8=FIX.4.2|9=56|35=0|34=67|49=BAADER|52=20181027-13:00:05.480|56=CATSOS|10=119|8=FIX.4.2|9=56|35=0|34=68|49=BAADER|52=20181027-13:00:35.484|56=CATSOS|10=127|8=FIX.4.2|9=56|35=0|34=69|49=BAADER|52=20181027-13:01:05.490|56=CATSOS|10=123|8=FIX.4.2|9=56|35=0|34=70|49=BAADER|52=20181027-13:01:35.487|56=CATSOS|10=124|8=FIX.4.2|9=56|35=0|34=71|49=BAADER|52=20181027-13:02:05.485|56=CATSOS|10=121|8=FIX.4.2|9=56|35=0|34=72|49=BAADER|52=20181027-13:02:35.486|56=CATSOS|10=126|8=FIX.4.2|9=56|35=0|34=73|49=BAADER|52=20181027-13:03:05.491|56=CATSOS|10=121|8=FIX.4.2|9=68|35=A|34=74|49=BAADER|52=20181027-13:10:06.636|56=CATSOS|98=0|108=30|10=167|8=FIX.4.2|9=130|35=R|34=75|49=BAADER|52=20181027-13:10:07.634|56=CATSOS|22=4|38=123|48=DE0005140008|55=BAADERBK|131=HackathonStuttgart-1234|146=1|10=010|8=FIX.4.2|9=56|35=0|34=76|49=BAADER|52=20181027-13:10:37.654|56=CATSOS|10=128|8=FIX.4.2|9=68|35=A|34=77|49=BAADER|52=20181027-13:11:11.402|56=CATSOS|98=0|108=30|10=158|8=FIX.4.2|9=130|35=R|34=78|49=BAADER|52=20181027-13:11:12.394|56=CATSOS|22=4|38=123|48=DE0005140008|55=BAADERBK|131=HackathonStuttgart-1234|146=1|10=013|8=FIX.4.2|9=56|35=0|34=79|49=BAADER|52=20181027-13:11:42.413|56=CATSOS|10=121|8=FIX.4.2|9=56|35=0|34=80|49=BAADER|52=20181027-13:12:12.412|56=CATSOS|10=110|8=FIX.4.2|9=56|35=0|34=81|49=BAADER|52=20181027-13:12:42.422|56=CATSOS|10=115|8=FIX.4.2|9=56|35=0|34=82|49=BAADER|52=20181027-13:13:12.418|56=CATSOS|10=119|8=FIX.4.2|9=56|35=0|34=83|49=BAADER|52=20181027-13:13:42.414|56=CATSOS|10=119|8=FIX.4.2|9=56|35=0|34=84|49=BAADER|52=20181027-13:14:12.413|56=CATSOS|10=117|8=FIX.4.2|9=56|35=0|34=85|49=BAADER|52=20181027-13:14:42.415|56=CATSOS|10=123|8=FIX.4.2|9=56|35=0|34=86|49=BAADER|52=20181027-13:15:12.411|56=CATSOS|10=118|8=FIX.4.2|9=56|35=0|34=87|49=BAADER|52=20181027-13:15:42.419|56=CATSOS|10=130|8=FIX.4.2|9=56|35=0|34=88|49=BAADER|52=20181027-13:16:12.410|56=CATSOS|10=120|8=FIX.4.2|9=56|35=0|34=89|49=BAADER|52=20181027-13:16:42.409|56=CATSOS|10=132|8=FIX.4.2|9=56|35=0|34=90|49=BAADER|52=20181027-13:17:12.414|56=CATSOS|10=118|8=FIX.4.2|9=56|35=0|34=91|49=BAADER|52=20181027-13:17:42.411|56=CATSOS|10=119|8=FIX.4.2|9=56|35=0|34=92|49=BAADER|52=20181027-13:18:12.412|56=CATSOS|10=119|8=FIX.4.2|9=56|35=0|34=93|49=BAADER|52=20181027-13:18:42.414|56=CATSOS|10=125|8=FIX.4.2|9=56|35=0|34=94|49=BAADER|52=20181027-13:19:12.413|56=CATSOS|10=123|8=FIX.4.2|9=56|35=0|34=95|49=BAADER|52=20181027-13:19:42.410|56=CATSOS|10=124|8=FIX.4.2|9=56|35=0|34=96|49=BAADER|52=20181027-13:20:12.416|56=CATSOS|10=120|8=FIX.4.2|9=56|35=0|34=97|49=BAADER|52=20181027-13:20:42.410|56=CATSOS|10=118|8=FIX.4.2|9=56|35=0|34=98|49=BAADER|52=20181027-13:21:12.409|56=CATSOS|10=125|8=FIX.4.2|9=56|35=0|34=99|49=BAADER|52=20181027-13:21:42.409|56=CATSOS|10=129|8=FIX.4.2|9=57|35=0|34=100|49=BAADER|52=20181027-13:22:12.413|56=CATSOS|10=154|8=FIX.4.2|9=57|35=0|34=101|49=BAADER|52=20181027-13:22:42.409|56=CATSOS|10=163|8=FIX.4.2|9=57|35=0|34=102|49=BAADER|52=20181027-13:23:12.412|56=CATSOS|10=156|8=FIX.4.2|9=57|35=0|34=103|49=BAADER|52=20181027-13:23:42.409|56=CATSOS|10=166|8=FIX.4.2|9=57|35=0|34=104|49=BAADER|52=20181027-13:24:12.420|56=CATSOS|10=158|8=FIX.4.2|9=57|35=0|34=105|49=BAADER|52=20181027-13:24:43.345|56=CATSOS|10=169|8=FIX.4.2|9=57|35=0|34=106|49=BAADER|52=20181027-13:25:13.349|56=CATSOS|10=172|8=FIX.4.2|9=69|35=A|34=107|49=BAADER|52=20181027-13:26:38.444|56=CATSOS|98=0|108=30|10=222|8=FIX.4.2|9=57|35=0|34=108|49=BAADER|52=20181027-13:27:08.602|56=CATSOS|10=172|8=FIX.4.2|9=57|35=0|34=109|49=BAADER|52=20181027-13:27:38.599|56=CATSOS|10=191|8=FIX.4.2|9=57|35=0|34=110|49=BAADER|52=20181027-13:28:08.612|56=CATSOS|10=167|8=FIX.4.2|9=57|35=0|34=111|49=BAADER|52=20181027-13:28:38.610|56=CATSOS|10=169|8=FIX.4.2|9=69|35=A|34=112|49=BAADER|52=20181027-13:30:36.524|56=CATSOS|98=0|108=30|10=210|8=FIX.4.2|9=57|35=0|34=113|49=BAADER|52=20181027-13:31:06.616|56=CATSOS|10=166|8=FIX.4.2|9=69|35=A|34=114|49=BAADER|52=20181027-13:31:28.295|56=CATSOS|98=0|108=30|10=219|8=FIX.4.2|9=131|35=R|34=115|49=BAADER|52=20181027-13:31:29.259|56=CATSOS|22=4|38=123|48=DE0005140008|55=BAADERBK|131=HackathonStuttgart-1234|146=1|10=064|8=FIX.4.2|9=57|35=0|34=116|49=BAADER|52=20181027-13:31:59.279|56=CATSOS|10=182|8=FIX.4.2|9=57|35=0|34=117|49=BAADER|52=20181027-13:32:29.279|56=CATSOS|10=181|8=FIX.4.2|9=69|35=A|34=118|49=BAADER|52=20181027-13:42:17.263|56=CATSOS|98=0|108=30|10=218|8=FIX.4.2|9=57|35=0|34=119|49=BAADER|52=20181027-13:42:47.413|56=CATSOS|10=174|8=FIX.4.2|9=69|35=A|34=120|49=BAADER|52=20181027-13:43:16.980|56=CATSOS|98=0|108=30|10=217|8=FIX.4.2|9=99|35=R|34=121|49=BAADER|52=20181027-13:43:17.953|56=CATSOS|66=123456|68=1|73=1|18=1|11=OrderID1|67=1|10=121|8=FIX.4.2|9=57|35=0|34=122|49=BAADER|52=20181027-13:43:48.936|56=CATSOS|10=180|8=FIX.4.2|9=69|35=A|34=123|49=BAADER|52=20181027-13:44:55.205|56=CATSOS|98=0|108=30|10=214|8=FIX.4.2|9=89|35=R|34=124|49=BAADER|52=20181027-13:44:56.183|56=CATSOS|68=1|73=1|18=1|11=OrderID1|67=1|10=155|8=FIX.4.2|9=69|35=A|34=125|49=BAADER|52=20181027-13:45:30.216|56=CATSOS|98=0|108=30|10=212|8=FIX.4.2|9=79|35=R|34=126|49=BAADER|52=20181027-13:45:31.191|56=CATSOS|18=1|11=OrderID1|67=1|10=223|8=FIX.4.2|9=57|35=0|34=127|49=BAADER|52=20181027-13:46:01.216|56=CATSOS|10=168|8=FIX.4.2|9=57|35=0|34=128|49=BAADER|52=20181027-13:46:31.214|56=CATSOS|10=170|8=FIX.4.2|9=57|35=0|34=129|49=BAADER|52=20181027-13:47:01.216|56=CATSOS|10=171|8=FIX.4.2|9=57|35=0|34=130|49=BAADER|52=20181027-13:47:31.221|56=CATSOS|10=162|8=FIX.4.2|9=69|35=A|34=131|49=BAADER|52=20181027-13:47:52.871|56=CATSOS|98=0|108=30|10=222|8=FIX.4.2|9=102|35=R|34=132|49=BAADER|52=20181027-13:47:53.830|56=CATSOS|18=1|22=4|38=123|48=DE0005140008|55=BAADERBK|10=221|8=FIX.4.2|9=57|35=0|34=133|49=BAADER|52=20181027-13:48:23.849|56=CATSOS|10=183|8=FIX.4.2|9=57|35=0|34=134|49=BAADER|52=20181027-13:48:53.851|56=CATSOS|10=180|8=FIX.4.2|9=57|35=0|34=135|49=BAADER|52=20181027-13:49:23.847|56=CATSOS|10=184|8=FIX.4.2|9=69|35=A|34=136|49=BAADER|52=20181027-13:50:05.042|56=CATSOS|98=0|108=30|10=209|8=FIX.4.2|9=102|35=R|34=137|49=BAADER|52=20181027-13:50:05.998|56=CATSOS|18=1|22=4|38=123|48=DE0005140008|55=BAADERBK|10=232|8=FIX.4.2|9=69|35=A|34=138|49=BAADER|52=20181027-14:02:08.252|56=CATSOS|98=0|108=30|10=215|8=FIX.4.2|9=101|35=R|34=139|49=BAADER|52=20181027-14:02:09.230|56=CATSOS|1=1|22=4|38=123|48=DE0005140008|55=BAADERBK|10=158|8=FIX.4.2|9=57|35=0|34=140|49=BAADER|52=20181027-14:02:39.250|56=CATSOS|10=165|8=FIX.4.2|9=57|35=0|34=141|49=BAADER|52=20181027-14:03:09.247|56=CATSOS|10=170|8=FIX.4.2|9=57|35=0|34=142|49=BAADER|52=20181027-14:03:39.247|56=CATSOS|10=174|8=FIX.4.2|9=69|35=A|34=143|49=BAADER|52=20181027-14:04:18.857|56=CATSOS|98=0|108=30|10=225|8=FIX.4.2|9=103|35=R|34=144|49=BAADER|52=20181027-14:04:19.827|56=CATSOS|146=1|55=BAADERBK|22=4|38=123|48=DE0005140008|10=021|8=FIX.4.2|9=57|35=0|34=145|49=BAADER|52=20181027-14:04:49.887|56=CATSOS|10=189|8=FIX.4.2|9=69|35=A|34=146|49=BAADER|52=20181027-14:05:39.671|56=CATSOS|98=0|108=30|10=226|8=FIX.4.2|9=57|35=0|34=147|49=BAADER|52=20181027-14:06:09.795|56=CATSOS|10=187|8=FIX.4.2|9=57|35=0|34=148|49=BAADER|52=20181027-14:06:39.789|56=CATSOS|10=194|8=FIX.4.2|9=69|35=A|34=149|49=BAADER|52=20181027-14:07:20.477|56=CATSOS|98=0|108=30|10=225|8=FIX.4.2|9=69|35=A|34=150|49=BAADER|52=20181027-14:07:47.886|56=CATSOS|98=0|108=30|10=230|8=FIX.4.2|9=69|35=A|34=151|49=BAADER|52=20181027-14:23:39.869|56=CATSOS|98=0|108=30|10=231|8=FIX.4.2|9=69|35=A|34=152|49=BAADER|52=20181027-14:24:14.685|56=CATSOS|98=0|108=30|10=222|8=FIX.4.2|9=103|35=R|34=153|49=BAADER|52=20181027-14:24:17.756|56=CATSOS|146=1|55=BAADERBK|22=4|38=123|48=DE0005140008|10=022|8=FIX.4.2|9=57|35=0|34=154|49=BAADER|52=20181027-14:24:47.780|56=CATSOS|10=181|8=FIX.4.2|9=69|35=A|34=155|49=BAADER|52=20181027-14:25:08.447|56=CATSOS|98=0|108=30|10=225|8=FIX.4.2|9=103|35=R|34=156|49=BAADER|52=20181027-14:25:11.492|56=CATSOS|146=1|55=BAADERBK|22=4|38=123|48=DE0005140008|10=017|8=FIX.4.2|9=57|35=0|34=157|49=BAADER|52=20181027-14:25:41.515|56=CATSOS|10=175|8=FIX.4.2|9=57|35=0|34=158|49=BAADER|52=20181027-14:26:11.515|56=CATSOS|10=174|8=FIX.4.2|9=57|35=0|34=159|49=BAADER|52=20181027-14:26:41.518|56=CATSOS|10=181|8=FIX.4.2|9=57|35=0|34=160|49=BAADER|52=20181027-14:27:11.515|56=CATSOS|10=168|