8=FIX.4.2|9=67|35=A|34=1|49=BAADER|52=20181027-11:53:22.164|56=CATSOS|98=0|108=30|10=107|8=FIX.4.2|9=127|35=R|34=2|49=BAADER|52=20181027-11:53:23.151|56=CATSOS|22=4|38=123.45|48=DE0005140008|55=MM1|131=HackathonStuttgart-1234|146=1|10=009|8=FIX.4.2|9=55|35=0|34=3|49=BAADER|52=20181027-11:53:53.175|56=CATSOS|10=070|8=FIX.4.2|9=55|35=0|34=4|49=BAADER|52=20181027-11:54:23.176|56=CATSOS|10=070|8=FIX.4.2|9=55|35=0|34=5|49=BAADER|52=20181027-11:54:53.178|56=CATSOS|10=076|8=FIX.4.2|9=55|35=0|34=6|49=BAADER|52=20181027-11:55:23.172|56=CATSOS|10=069|8=FIX.4.2|9=55|35=0|34=7|49=BAADER|52=20181027-11:55:53.170|56=CATSOS|10=071|8=FIX.4.2|9=55|35=0|34=8|49=BAADER|52=20181027-11:56:23.169|56=CATSOS|10=078|8=FIX.4.2|9=67|35=A|34=9|49=BAADER|52=20181027-12:12:42.188|56=CATSOS|98=0|108=30|10=119|8=FIX.4.2|9=128|35=R|34=10|49=BAADER|52=20181027-12:12:43.150|56=CATSOS|22=4|38=123.45|48=DE0005140008|55=MM1|131=HackathonStuttgart-1234|146=1|10=054|8=FIX.4.2|9=56|35=0|34=11|49=BAADER|52=20181027-12:13:13.174|56=CATSOS|10=110|8=FIX.4.2|9=68|35=A|34=12|49=BAADER|52=20181027-12:23:26.409|56=CATSOS|98=0|108=30|10=162|8=FIX.4.2|9=142|35=R|34=13|49=BAADER|52=20181027-12:23:27.432|56=CATSOS|22=4|38=123.45|48=DE0005140008|55=CITIDE|128=CITIDE|131=HackathonStuttgart-1234|146=1|10=174|8=FIX.4.2|9=56|35=0|34=14|49=BAADER|52=20181027-12:23:57.455|56=CATSOS|10=124|8=FIX.4.2|9=56|35=0|34=15|49=BAADER|52=20181027-12:24:27.452|56=CATSOS|10=120|8=FIX.4.2|9=56|35=0|34=16|49=BAADER|52=20181027-12:24:57.452|56=CATSOS|10=124|8=FIX.4.2|9=56|35=0|34=17|49=BAADER|52=20181027-12:25:27.452|56=CATSOS|10=123|8=FIX.4.2|9=56|35=0|34=18|49=BAADER|52=20181027-12:25:57.451|56=CATSOS|10=126|8=FIX.4.2|9=56|35=0|34=19|49=BAADER|52=20181027-12:26:27.453|56=CATSOS|10=127|8=FIX.4.2|9=56|35=0|34=20|49=BAADER|52=20181027-12:26:57.451|56=CATSOS|10=120|8=FIX.4.2|9=56|35=0|34=21|49=BAADER|52=20181027-12:27:27.452|56=CATSOS|10=120|8=FIX.4.2|9=56|35=0|34=22|49=BAADER|52=20181027-12:27:57.449|56=CATSOS|10=130|8=FIX.4.2|9=56|35=0|34=23|49=BAADER|52=20181027-12:28:27.452|56=CATSOS|10=123|8=FIX.4.2|9=56|35=0|34=24|49=BAADER|52=20181027-12:28:57.451|56=CATSOS|10=126|8=FIX.4.2|9=56|35=0|34=25|49=BAADER|52=20181027-12:29:27.452|56=CATSOS|10=126|8=FIX.4.2|9=56|35=0|34=26|49=BAADER|52=20181027-12:29:57.451|56=CATSOS|10=129|8=FIX.4.2|9=56|35=0|34=27|49=BAADER|52=20181027-12:30:27.449|56=CATSOS|10=126|8=FIX.4.2|9=68|35=A|34=28|49=BAADER|52=20181027-12:30:45.139|56=CATSOS|98=0|108=30|10=168|8=FIX.4.2|9=139|35=R|34=29|49=BAADER|52=20181027-12:30:46.153|56=CATSOS|22=4|38=123|48=DE0005140008|55=CITIDE|128=CITIDE|131=HackathonStuttgart-1234|146=1|10=035|8=FIX.4.2|9=56|35=0|34=30|49=BAADER|52=20181027-12:31:16.177|56=CATSOS|10=117|8=FIX.4.2|9=68|35=A|34=31|49=BAADER|52=20181027-12:32:32.766|56=CATSOS|98=0|108=30|10=166|8=FIX.4.2|9=139|35=R|34=32|49=BAADER|52=20181027-12:32:33.768|56=CATSOS|22=4|38=123|48=DE0005140008|55=CITIDE|128=CITIDE|131=HackathonStuttgart-1234|146=1|10=039|8=FIX.4.2|9=56|35=0|34=33|49=BAADER|52=20181027-12:33:03.789|56=CATSOS|10=127|8=FIX.4.2|9=68|35=A|34=34|49=BAADER|52=20181027-12:39:29.869|56=CATSOS|98=0|108=30|10=186|8=FIX.4.2|9=68|35=A|34=35|49=BAADER|52=20181027-12:40:41.941|56=CATSOS|98=0|108=30|10=164|8=FIX.4.2|9=139|35=R|34=36|49=BAADER|52=20181027-12:40:42.930|56=CATSOS|22=4|38=123|48=DE0005140008|55=CITIDE|128=CITIDE|131=HackathonStuttgart-1234|146=1|10=033|8=FIX.4.2|9=56|35=0|34=37|49=BAADER|52=20181027-12:41:12.929|56=CATSOS|10=126|8=FIX.4.2|9=56|35=0|34=38|49=BAADER|52=20181027-12:41:42.923|56=CATSOS|10=124|8=FIX.4.2|9=56|35=0|34=39|49=BAADER|52=20181027-12:42:12.929|56=CATSOS|10=129|8=FIX.4.2|9=68|35=A|34=40|49=BAADER|52=20181027-12:45:26.810|56=CATSOS|98=0|108=30|10=163|8=FIX.4.2|9=139|35=R|34=41|49=BAADER|52=20181027-12:45:27.807|56=CATSOS|22=4|38=123|48=DE0005140008|55=CITIDE|128=CITIDE|131=HackathonStuttgart-1234|146=1|10=040|8=FIX.4.2|9=56|35=0|34=42|49=BAADER|52=20181027-12:45:57.825|56=CATSOS|10=130|8=FIX.4.2|9=68|35=A|34=43|49=BAADER|52=20181027-12:46:09.380|56=CATSOS|98=0|108=30|10=170|8=FIX.4.2|9=128|35=R|34=44|49=BAADER|52=20181027-12:46:10.393|56=CATSOS|22=4|38=123|48=DE0005140008|55=CITIDE|131=HackathonStuttgart-1234|146=1|10=151|8=FIX.4.2|9=56|35=0|34=45|49=BAADER|52=20181027-12:46:40.413|56=CATSOS|10=119|8=FIX.4.2|9=68|35=A|34=46|49=BAADER|52=20181027-12:49:20.899|56=CATSOS|98=0|108=30|10=184|8=FIX.4.2|9=130|35=R|34=47|49=BAADER|52=20181027-12:49:21.872|56=CATSOS|22=4|38=123|48=DE0005140008|55=BAADERBK|131=HackathonStuttgart-1234|146=1|10=020|8=FIX.4.2|9=56|35=0|34=48|49=BAADER|52=20181027-12:49:51.897|56=CATSOS|10=143|8=FIX.4.2|9=56|35=0|34=49|49=BAADER|52=20181027-12:50:21.895|56=CATSOS|10=131|8=FIX.4.2|9=56|35=0|34=50|49=BAADER|52=20181027-12:50:51.895|56=CATSOS|10=126|8=FIX.4.2|9=68|35=A|34=51|49=BAADER|52=20181027-12:51:10.009|56=CATSOS|98=0|108=30|10=155|8=FIX.4.2|9=56|35=0|34=52|49=BAADER|52=20181027-12:51:40.155|56=CATSOS|10=116|8=FIX.4.2|9=68|35=A|34=53|49=BAADER|52=20181027-12:53:32.518|56=CATSOS|98=0|108=30|10=168|8=FIX.4.2|9=130|35=R|34=54|49=BAADER|52=20181027-12:53:33.511|56=CATSOS|22=4|38=123|48=DE0005140008|55=BAADERBK|131=HackathonStuttgart-1234|146=1|10=006|8=FIX.4.2|9=56|35=0|34=55|49=BAADER|52=20181027-12:54:03.548|56=CATSOS|10=127|8=FIX.4.2|9=56|35=0|34=56|49=BAADER|52=20181027-12:54:33.550|56=CATSOS|10=124|8=FIX.4.2|9=56|35=0|34=57|49=BAADER|52=20181027-12:55:03.545|56=CATSOS|10=127|8=FIX.4.2|9=56|35=0|34=58|49=BAADER|52=20181027-12:55:33.548|56=CATSOS|10=134|8=FIX.4.2|9=56|35=0|34=59|49=BAADER|52=20181027-12:56:04.487|56=CATSOS|10=136|8=FIX.4.2|9=56|35=0|34=60|49=BAADER|52=20181027-12:56:34.483|56=CATSOS|10=127|8=FIX.4.2|9=56|35=0|34=61|49=BAADER|52=20181027-12:57:04.491|56=CATSOS|10=125|8=FIX.4.2|9=56|35=0|34=62|49=BAADER|52=20181027-12:57:34.483|56=CATSOS|10=130|8=FIX.4.2|9=56|35=0|34=63|49=BAADER|52=20181027-12:58:04.478|56=CATSOS|10=133|8=FIX.4.2|9=56|35=0|34=64|49=BAADER|52=20181027-12:58:34.486|56=CATSOS|10=136|8=FIX.4.2|9=56|35=0|34=65|49=BAADER|52=20181027-12:59:04.492|56=CATSOS|10=132|8=FIX.4.2|9=56|35=0|34=66|49=BAADER|52=20181027-12:59:35.482|56=CATSOS|10=136|8=FIX.4.2|9=56|35=0|34=67|49=BAADER|52=20181027-13:00:05.480|56=CATSOS|10=119|8=FIX.4.2|9=56|35=0|34=68|49=BAADER|52=20181027-13:00:35.484|56=CATSOS|10=127|8=FIX.4.2|9=56|35=0|34=69|49=BAADER|52=20181027-13:01:05.490|56=CATSOS|10=123|8=FIX.4.2|9=56|35=0|34=70|49=BAADER|52=20181027-13:01:35.487|56=CATSOS|10=124|8=FIX.4.2|9=56|35=0|34=71|49=BAADER|52=20181027-13:02:05.485|56=CATSOS|10=121|8=FIX.4.2|9=56|35=0|34=72|49=BAADER|52=20181027-13:02:35.486|56=CATSOS|10=126|8=FIX.4.2|9=56|35=0|34=73|49=BAADER|52=20181027-13:03:05.491|56=CATSOS|10=121|8=FIX.4.2|9=68|35=A|34=74|49=BAADER|52=20181027-13:10:06.636|56=CATSOS|98=0|108=30|10=167|8=FIX.4.2|9=130|35=R|34=75|49=BAADER|52=20181027-13:10:07.634|56=CATSOS|22=4|38=123|48=DE0005140008|55=BAADERBK|131=HackathonStuttgart-1234|146=1|10=010|8=FIX.4.2|9=56|35=0|34=76|49=BAADER|52=20181027-13:10:37.654|56=CATSOS|10=128|8=FIX.4.2|9=68|35=A|34=77|49=BAADER|52=20181027-13:11:11.402|56=CATSOS|98=0|108=30|10=158|8=FIX.4.2|9=130|35=R|34=78|49=BAADER|52=20181027-13:11:12.394|56=CATSOS|22=4|38=123|48=DE0005140008|55=BAADERBK|131=HackathonStuttgart-1234|146=1|10=013|8=FIX.4.2|9=56|35=0|34=79|49=BAADER|52=20181027-13:11:42.413|56=CATSOS|10=121|8=FIX.4.2|9=56|35=0|34=80|49=BAADER|52=20181027-13:12:12.412|56=CATSOS|10=110|8=FIX.4.2|9=56|35=0|34=81|49=BAADER|52=20181027-13:12:42.422|56=CATSOS|10=115|8=FIX.4.2|9=56|35=0|34=82|49=BAADER|52=20181027-13:13:12.418|56=CATSOS|10=119|8=FIX.4.2|9=56|35=0|34=83|49=BAADER|52=20181027-13:13:42.414|56=CATSOS|10=119|8=FIX.4.2|9=56|35=0|34=84|49=BAADER|52=20181027-13:14:12.413|56=CATSOS|10=117|8=FIX.4.2|9=56|35=0|34=85|49=BAADER|52=20181027-13:14:42.415|56=CATSOS|10=123|8=FIX.4.2|9=56|35=0|34=86|49=BAADER|52=20181027-13:15:12.411|56=CATSOS|10=118|8=FIX.4.2|9=56|35=0|34=87|49=BAADER|52=20181027-13:15:42.419|56=CATSOS|10=130|8=FIX.4.2|9=56|35=0|34=88|49=BAADER|52=20181027-13:16:12.410|56=CATSOS|10=120|8=FIX.4.2|9=56|35=0|34=89|49=BAADER|52=20181027-13:16:42.409|56=CATSOS|10=132|8=FIX.4.2|9=56|35=0|34=90|49=BAADER|52=20181027-13:17:12.414|56=CATSOS|10=118|8=FIX.4.2|9=56|35=0|34=91|49=BAADER|52=20181027-13:17:42.411|56=CATSOS|10=119|8=FIX.4.2|9=56|35=0|34=92|49=BAADER|52=20181027-13:18:12.412|56=CATSOS|10=119|8=FIX.4.2|9=56|35=0|34=93|49=BAADER|52=20181027-13:18:42.414|56=CATSOS|10=125|8=FIX.4.2|9=56|35=0|34=94|49=BAADER|52=20181027-13:19:12.413|56=CATSOS|10=123|8=FIX.4.2|9=56|35=0|34=95|49=BAADER|52=20181027-13:19:42.410|56=CATSOS|10=124|8=FIX.4.2|9=56|35=0|34=96|49=BAADER|52=20181027-13:20:12.416|56=CATSOS|10=120|8=FIX.4.2|9=56|35=0|34=97|49=BAADER|52=20181027-13:20:42.410|56=CATSOS|10=118|8=FIX.4.2|9=56|35=0|34=98|49=BAADER|52=20181027-13:21:12.409|56=CATSOS|10=125|8=FIX.4.2|9=56|35=0|34=99|49=BAADER|52=20181027-13:21:42.409|56=CATSOS|10=129|8=FIX.4.2|9=57|35=0|34=100|49=BAADER|52=20181027-13:22:12.413|56=CATSOS|10=154|8=FIX.4.2|9=57|35=0|34=101|49=BAADER|52=20181027-13:22:42.409|56=CATSOS|10=163|8=FIX.4.2|9=57|35=0|34=102|49=BAADER|52=20181027-13:23:12.412|56=CATSOS|10=156|8=FIX.4.2|9=57|35=0|34=103|49=BAADER|52=20181027-13:23:42.409|56=CATSOS|10=166|8=FIX.4.2|9=57|35=0|34=104|49=BAADER|52=20181027-13:24:12.420|56=CATSOS|10=158|8=FIX.4.2|9=57|35=0|34=105|49=BAADER|52=20181027-13:24:43.345|56=CATSOS|10=169|8=FIX.4.2|9=57|35=0|34=106|49=BAADER|52=20181027-13:25:13.349|56=CATSOS|10=172|8=FIX.4.2|9=69|35=A|34=107|49=BAADER|52=20181027-13:26:38.444|56=CATSOS|98=0|108=30|10=222|8=FIX.4.2|9=57|35=0|34=108|49=BAADER|52=20181027-13:27:08.602|56=CATSOS|10=172|8=FIX.4.2|9=57|35=0|34=109|49=BAADER|52=20181027-13:27:38.599|56=CATSOS|10=191|8=FIX.4.2|9=57|35=0|34=110|49=BAADER|52=20181027-13:28:08.612|56=CATSOS|10=167|8=FIX.4.2|9=57|35=0|34=111|49=BAADER|52=20181027-13:28:38.610|56=CATSOS|10=169|8=FIX.4.2|9=69|35=A|34=112|49=BAADER|52=20181027-13:30:36.524|56=CATSOS|98=0|108=30|10=210|8=FIX.4.2|9=57|35=0|34=113|49=BAADER|52=20181027-13:31:06.616|56=CATSOS|10=166|8=FIX.4.2|9=69|35=A|34=114|49=BAADER|52=20181027-13:31:28.295|56=CATSOS|98=0|108=30|10=219|8=FIX.4.2|9=131|35=R|34=115|49=BAADER|52=20181027-13:31:29.259|56=CATSOS|22=4|38=123|48=DE0005140008|55=BAADERBK|131=HackathonStuttgart-1234|146=1|10=064|8=FIX.4.2|9=57|35=0|34=116|49=BAADER|52=20181027-13:31:59.279|56=CATSOS|10=182|8=FIX.4.2|9=57|35=0|34=117|49=BAADER|52=20181027-13:32:29.279|56=CATSOS|10=181|8=FIX.4.2|9=69|35=A|34=118|49=BAADER|52=20181027-13:42:17.263|56=CATSOS|98=0|108=30|10=218|8=FIX.4.2|9=57|35=0|34=119|49=BAADER|52=20181027-13:42:47.413|56=CATSOS|10=174|8=FIX.4.2|9=69|35=A|34=120|49=BAADER|52=20181027-13:43:16.980|56=CATSOS|98=0|108=30|10=217|8=FIX.4.2|9=99|35=R|34=121|49=BAADER|52=20181027-13:43:17.953|56=CATSOS|66=123456|68=1|73=1|18=1|11=OrderID1|67=1|10=121|8=FIX.4.2|9=57|35=0|34=122|49=BAADER|52=20181027-13:43:48.936|56=CATSOS|10=180|8=FIX.4.2|9=69|35=A|34=123|49=BAADER|52=20181027-13:44:55.205|56=CATSOS|98=0|108=30|10=214|8=FIX.4.2|9=89|35=R|34=124|49=BAADER|52=20181027-13:44:56.183|56=CATSOS|68=1|73=1|18=1|11=OrderID1|67=1|10=155|8=FIX.4.2|9=69|35=A|34=125|49=BAADER|52=20181027-13:45:30.216|56=CATSOS|98=0|108=30|10=212|8=FIX.4.2|9=79|35=R|34=126|49=BAADER|52=20181027-13:45:31.191|56=CATSOS|18=1|11=OrderID1|67=1|10=223|8=FIX.4.2|9=57|35=0|34=127|49=BAADER|52=20181027-13:46:01.216|56=CATSOS|10=168|8=FIX.4.2|9=57|35=0|34=128|49=BAADER|52=20181027-13:46:31.214|56=CATSOS|10=170|8=FIX.4.2|9=57|35=0|34=129|49=BAADER|52=20181027-13:47:01.216|56=CATSOS|10=171|8=FIX.4.2|9=57|35=0|34=130|49=BAADER|52=20181027-13:47:31.221|56=CATSOS|10=162|8=FIX.4.2|9=69|35=A|34=131|49=BAADER|52=20181027-13:47:52.871|56=CATSOS|98=0|108=30|10=222|8=FIX.4.2|9=102|35=R|34=132|49=BAADER|52=20181027-13:47:53.830|56=CATSOS|18=1|22=4|38=123|48=DE0005140008|55=BAADERBK|10=221|8=FIX.4.2|9=57|35=0|34=133|49=BAADER|52=20181027-13:48:23.849|56=CATSOS|10=183|8=FIX.4.2|9=57|35=0|34=134|49=BAADER|52=20181027-13:48:53.851|56=CATSOS|10=180|8=FIX.4.2|9=57|35=0|34=135|49=BAADER|52=20181027-13:49:23.847|56=CATSOS|10=184|8=FIX.4.2|9=69|35=A|34=136|49=BAADER|52=20181027-13:50:05.042|56=CATSOS|98=0|108=30|10=209|8=FIX.4.2|9=102|35=R|34=137|49=BAADER|52=20181027-13:50:05.998|56=CATSOS|18=1|22=4|38=123|48=DE0005140008|55=BAADERBK|10=232|8=FIX.4.2|9=69|35=A|34=138|49=BAADER|52=20181027-14:02:08.252|56=CATSOS|98=0|108=30|10=215|8=FIX.4.2|9=101|35=R|34=139|49=BAADER|52=20181027-14:02:09.230|56=CATSOS|1=1|22=4|38=123|48=DE0005140008|55=BAADERBK|10=158|8=FIX.4.2|9=57|35=0|34=140|49=BAADER|52=20181027-14:02:39.250|56=CATSOS|10=165|8=FIX.4.2|9=57|35=0|34=141|49=BAADER|52=20181027-14:03:09.247|56=CATSOS|10=170|8=FIX.4.2|9=57|35=0|34=142|49=BAADER|52=20181027-14:03:39.247|56=CATSOS|10=174|8=FIX.4.2|9=69|35=A|34=143|49=BAADER|52=20181027-14:04:18.857|56=CATSOS|98=0|108=30|10=225|8=FIX.4.2|9=103|35=R|34=144|49=BAADER|52=20181027-14:04:19.827|56=CATSOS|146=1|55=BAADERBK|22=4|38=123|48=DE0005140008|10=021|8=FIX.4.2|9=57|35=0|34=145|49=BAADER|52=20181027-14:04:49.887|56=CATSOS|10=189|8=FIX.4.2|9=69|35=A|34=146|49=BAADER|52=20181027-14:05:39.671|56=CATSOS|98=0|108=30|10=226|8=FIX.4.2|9=57|35=0|34=147|49=BAADER|52=20181027-14:06:09.795|56=CATSOS|10=187|8=FIX.4.2|9=57|35=0|34=148|49=BAADER|52=20181027-14:06:39.789|56=CATSOS|10=194|8=FIX.4.2|9=69|35=A|34=149|49=BAADER|52=20181027-14:07:20.477|56=CATSOS|98=0|108=30|10=225|8=FIX.4.2|9=69|35=A|34=150|49=BAADER|52=20181027-14:07:47.886|56=CATSOS|98=0|108=30|10=230|8=FIX.4.2|9=69|35=A|34=151|49=BAADER|52=20181027-14:23:39.869|56=CATSOS|98=0|108=30|10=231|8=FIX.4.2|9=69|35=A|34=152|49=BAADER|52=20181027-14:24:14.685|56=CATSOS|98=0|108=30|10=222|8=FIX.4.2|9=103|35=R|34=153|49=BAADER|52=20181027-14:24:17.756|56=CATSOS|146=1|55=BAADERBK|22=4|38=123|48=DE0005140008|10=022|8=FIX.4.2|9=57|35=0|34=154|49=BAADER|52=20181027-14:24:47.780|56=CATSOS|10=181|8=FIX.4.2|9=69|35=A|34=155|49=BAADER|52=20181027-14:25:08.447|56=CATSOS|98=0|108=30|10=225|8=FIX.4.2|9=103|35=R|34=156|49=BAADER|52=20181027-14:25:11.492|56=CATSOS|146=1|55=BAADERBK|22=4|38=123|48=DE0005140008|10=017|8=FIX.4.2|9=57|35=0|34=157|49=BAADER|52=20181027-14:25:41.515|56=CATSOS|10=175|8=FIX.4.2|9=57|35=0|34=158|49=BAADER|52=20181027-14:26:11.515|56=CATSOS|10=174|8=FIX.4.2|9=57|35=0|34=159|49=BAADER|52=20181027-14:26:41.518|56=CATSOS|10=181|8=FIX.4.2|9=57|35=0|34=160|49=BAADER|52=20181027-14:27:11.515|56=CATSOS|10=168|8=FIX.4.2|9=69|35=A|34=161|49=BAADER|52=20181027-14:51:58.173|56=CATSOS|98=0|108=30|10=222|8=FIX.4.2|9=69|35=A|34=162|49=BAADER|52=20181027-14:52:26.322|56=CATSOS|98=0|108=30|10=215|8=FIX.4.2|9=103|35=R|34=163|49=BAADER|52=20181027-14:52:29.389|56=CATSOS|146=1|55=BAADERBK|22=4|38=123|48=DE0005140008|10=029|8=FIX.4.2|9=69|35=A|34=164|49=BAADER|52=20181027-14:54:05.091|56=CATSOS|98=0|108=30|10=219|8=FIX.4.2|9=111|35=R|34=165|49=BAADER|52=20181027-14:54:08.160|56=CATSOS|146=1|55=BAADERBK|22=4|38=123|48=DE0005140008|167=OPT|10=223|8=FIX.4.2|9=57|35=0|34=166|49=BAADER|52=20181027-14:54:38.184|56=CATSOS|10=185|8=FIX.4.2|9=57|35=0|34=167|49=BAADER|52=20181027-14:55:08.183|56=CATSOS|10=183|8=FIX.4.2|9=57|35=0|34=168|49=BAADER|52=20181027-14:55:38.184|56=CATSOS|10=188|8=FIX.4.2|9=57|35=0|34=169|49=BAADER|52=20181027-14:56:08.187|56=CATSOS|10=190|8=FIX.4.2|9=57|35=0|34=170|49=BAADER|52=20181027-14:56:38.184|56=CATSOS|10=182|8=FIX.4.2|9=57|35=0|34=171|49=BAADER|52=20181027-14:57:08.185|56=CATSOS|10=182|8=FIX.4.2|9=57|35=0|34=172|49=BAADER|52=20181027-14:57:38.189|56=CATSOS|10=190|8=FIX.4.2|9=69|35=A|34=173|49=BAADER|52=20181027-14:59:18.130|56=CATSOS|98=0|108=30|10=222|8=FIX.4.2|9=111|35=R|34=174|49=BAADER|52=20181027-14:59:21.163|56=CATSOS|146=1|55=BAADERBK|22=4|38=123|48=DE0005140008|167=OPT|10=226|8=FIX.4.2|9=57|35=0|34=175|49=BAADER|52=20181027-14:59:51.202|56=CATSOS|10=176|8=FIX.4.2|9=57|35=0|34=176|49=BAADER|52=20181027-15:00:21.203|56=CATSOS|10=162|8=FIX.4.2|9=57|35=0|34=177|49=BAADER|52=20181027-15:00:51.200|56=CATSOS|10=163|8=FIX.4.2|9=57|35=0|34=178|49=BAADER|52=20181027-15:01:21.201|56=CATSOS|10=163|8=FIX.4.2|9=57|35=0|34=179|49=BAADER|52=20181027-15:01:51.204|56=CATSOS|10=170|8=FIX.4.2|9=69|35=A|34=180|49=BAADER|52=20181027-15:02:30.692|56=CATSOS|98=0|108=30|10=216|8=FIX.4.2|9=139|35=R|34=181|49=BAADER|52=20181027-15:02:33.711|56=CATSOS|131=HackathonStuttgart-1234|146=1|55=BAADERBK|22=4|38=123|48=DE0005140008|167=OPT|10=014|8=FIX.4.2|9=57|35=0|34=182|49=BAADER|52=20181027-15:03:03.736|56=CATSOS|10=173|8=FIX.4.2|9=69|35=A|34=183|49=BAADER|52=20181027-15:03:36.744|56=CATSOS|98=0|108=30|10=224|8=FIX.4.2|9=139|35=R|34=184|49=BAADER|52=20181027-15:03:39.818|56=CATSOS|131=HackathonStuttgart-1234|146=1|55=BAADERBK|22=4|38=123|48=DE0005140008|167=OPT|10=032|8=FIX.4.2|9=57|35=0|34=185|49=BAADER|52=20181027-15:04:09.839|56=CATSOS|10=187|8=FIX.4.2|9=57|35=0|34=186|49=BAADER|52=20181027-15:04:39.841|56=CATSOS|10=184|8=FIX.4.2|9=57|35=0|34=187|49=BAADER|52=20181027-15:05:09.842|56=CATSOS|10=184|8=FIX.4.2|9=57|35=0|34=188|49=BAADER|52=20181027-15:05:39.842|56=CATSOS|10=188|8=FIX.4.2|9=57|35=0|34=189|49=BAADER|52=20181027-15:06:09.841|56=CATSOS|10=186|8=FIX.4.2|9=69|35=A|34=190|49=BAADER|52=20181027-15:19:59.669|56=CATSOS|98=0|108=30|10=240|8=FIX.4.2|9=150|35=R|34=191|49=BAADER|52=20181027-15:20:02.727|56=CATSOS|128=CITIDE|131=HackathonStuttgart-1234|146=1|55=BAADERBK|22=4|38=123|48=DE0005140008|167=OPT|10=150|8=FIX.4.2|9=57|35=0|34=192|49=BAADER|52=20181027-15:20:32.896|56=CATSOS|10=182|8=FIX.4.2|9=57|35=0|34=193|49=BAADER|52=20181027-15:21:02.896|56=CATSOS|10=181|8=FIX.4.2|9=57|35=0|34=194|49=BAADER|52=20181027-15:21:32.898|56=CATSOS|10=187|8=FIX.4.2|9=57|35=0|34=195|49=BAADER|52=20181027-15:22:02.896|56=CATSOS|10=184|8=FIX.4.2|9=57|35=0|34=196|49=BAADER|52=20181027-15:22:32.897|56=CATSOS|10=189|8=FIX.4.2|9=57|35=0|34=197|49=BAADER|52=20181027-15:23:02.898|56=CATSOS|10=189|8=FIX.4.2|9=57|35=0|34=198|49=BAADER|52=20181027-15:23:33.621|56=CATSOS|10=178|8=FIX.4.2|9=57|35=0|34=199|49=BAADER|52=20181027-15:24:03.618|56=CATSOS|10=183|8=FIX.4.2|9=57|35=0|34=200|49=BAADER|52=20181027-15:24:33.621|56=CATSOS|10=163|8=FIX.4.2|9=57|35=0|34=201|49=BAADER|52=20181027-15:25:03.633|56=CATSOS|10=165|8=FIX.4.2|9=57|35=0|34=202|49=BAADER|52=20181027-15:25:33.631|56=CATSOS|10=167|8=FIX.4.2|9=57|35=0|34=203|49=BAADER|52=20181027-15:26:04.617|56=CATSOS|10=171|8=FIX.4.2|9=57|35=0|34=204|49=BAADER|52=20181027-15:26:34.612|56=CATSOS|10=170|8=FIX.4.2|9=57|35=0|34=205|49=BAADER|52=20181027-15:27:04.616|56=CATSOS|10=173|8=FIX.4.2|9=66|35=1|34=206|49=BAADER|52=20181027-15:27:10.616|56=CATSOS|112=TEST|10=190|8=FIX.4.2|9=69|35=A|34=207|49=BAADER|52=20181027-15:28:11.901|56=CATSOS|98=0|108=30|10=216|8=FIX.4.2|9=68|35=2|34=208|49=BAADER|52=20181027-15:28:14.521|56=CATSOS|7=205|16=0|10=146|8=FIX.4.2|9=57|35=0|34=209|49=BAADER|52=20181027-15:28:44.631|56=CATSOS|10=179|8=FIX.4.2|9=57|35=0|34=210|49=BAADER|52=20181027-15:29:14.632|56=CATSOS|10=170|8=FIX.4.2|9=66|35=1|34=211|49=BAADER|52=20181027-15:29:32.626|56=CATSOS|112=TEST|10=193|8=FIX.4.2|9=57|35=0|34=212|49=BAADER|52=20181027-15:30:02.628|56=CATSOS|10=166|8=FIX.4.2|9=57|35=0|34=213|49=BAADER|52=20181027-15:30:32.624|56=CATSOS|10=166|8=FIX.4.2|9=57|35=0|34=214|49=BAADER|52=20181027-15:31:02.630|56=CATSOS|10=162|8=FIX.4.2|9=57|35=0|34=215|49=BAADER|52=20181027-15:31:32.623|56=CATSOS|10=168|8=FIX.4.2|9=57|35=0|34=216|49=BAADER|52=20181027-15:32:02.619|56=CATSOS|10=172|8=FIX.4.2|9=57|35=0|34=217|49=BAADER|52=20181027-15:32:32.629|56=CATSOS|10=177|8=FIX.4.2|9=57|35=0|34=218|49=BAADER|52=20181027-15:33:03.273|56=CATSOS|10=172|8=FIX.4.2|9=57|35=0|34=219|49=BAADER|52=20181027-15:33:33.275|56=CATSOS|10=178|8=FIX.4.2|9=57|35=0|34=220|49=BAADER|52=20181027-15:34:03.276|56=CATSOS|10=169|8=FIX.4.2|9=57|35=0|34=221|49=BAADER|52=20181027-15:34:33.276|56=CATSOS|10=173|8=FIX.4.2|9=57|35=0|34=222|49=BAADER|52=20181027-15:35:03.275|56=CATSOS|10=171|8=FIX.4.2|9=57|35=0|34=223|49=BAADER|52=20181027-15:35:33.273|56=CATSOS|10=173|8=FIX.4.2|9=69|35=A|34=224|49=BAADER|52=20181027-15:35:43.314|56=CATSOS|98=0|108=30|10=216|8=FIX.4.2|9=150|35=R|34=225|49=BAADER|52=20181027-15:35:46.368|56=CATSOS|128=CITIDE|131=HackathonStuttgart-1234|146=1|55=BAADERBK|22=4|38=123|48=DE0005140008|167=OPT|10=163|8=FIX.4.2|9=57|35=0|34=226|49=BAADER|52=20181027-15:36:17.267|56=CATSOS|10=182|8=FIX.4.2|9=57|35=0|34=227|49=BAADER|52=20181027-15:36:47.277|56=CATSOS|10=187|8=FIX.4.2|9=57|35=0|34=228|49=BAADER|52=20181027-15:37:17.274|56=CATSOS|10=183|8=FIX.4.2|9=69|35=A|34=229|49=BAADER|52=20181027-15:44:21.634|56=CATSOS|98=0|108=30|10=222|8=FIX.4.2|9=150|35=R|34=230|49=BAADER|52=20181027-15:44:24.663|56=CATSOS|128=CITIDE|131=HackathonStuttgart-1234|146=1|55=BAADERBK|22=4|38=123|48=DE0005140008|167=OPT|10=153|8=FIX.4.2|9=57|35=0|34=231|49=BAADER|52=20181027-15:44:55.595|56=CATSOS|10=183|8=FIX.4.2|9=69|35=A|34=232|49=BAADER|52=20181027-16:08:29.874|56=CATSOS|98=0|108=30|10=231|8=FIX.4.2|9=150|35=R|34=233|49=BAADER|52=20181027-16:08:32.894|56=CATSOS|128=CITIDE|131=HackathonStuttgart-1234|146=1|55=BAADERBK|22=4|38=123|48=DE0005140008|167=OPT|10=162|8=FIX.4.2|9=57|35=0|34=234|49=BAADER|52=20181027-16:09:03.843|56=CATSOS|10=177|8=FIX.4.2|9=69|35=A|34=235|49=BAADER|52=20181027-16:11:15.126|56=CATSOS|98=0|108=30|10=213|8=FIX.4.2|9=150|35=R|34=236|49=BAADER|52=20181027-16:11:18.183|56=CATSOS|128=CITIDE|131=HackathonStuttgart-1234|146=1|55=BAADERBK|22=4|38=123|48=DE0005140008|167=OPT|10=154|8=FIX.4.2|9=57|35=0|34=237|49=BAADER|52=20181027-16:11:49.119|56=CATSOS|10=179|8=FIX.4.2|9=69|35=A|34=238|49=BAADER|52=20181027-16:13:42.118|56=CATSOS|98=0|108=30|10=219|8=FIX.4.2|9=150|35=R|34=239|49=BAADER|52=20181027-16:13:45.103|56=CATSOS|128=CITIDE|131=HackathonStuttgart-1234|146=1|55=BAADERBK|22=4|38=123|48=DE0005140008|167=OPT|10=151|8=FIX.4.2|9=57|35=0|34=240|49=BAADER|52=20181027-16:14:16.061|56=CATSOS|10=166|8=FIX.4.2|9=57|35=0|34=241|49=BAADER|52=20181027-16:14:46.063|56=CATSOS|10=172|8=FIX.4.2|9=69|35=A|34=242|49=BAADER|52=20181027-16:15:13.296|56=CATSOS|98=0|108=30|10=221|8=FIX.4.2|9=150|35=R|34=243|49=BAADER|52=20181027-16:15:16.321|56=CATSOS|128=CITIDE|131=HackathonStuttgart-1234|146=1|55=BAADERBK|22=4|38=123|48=DE0005140008|167=OPT|10=148|8=FIX.4.2|9=57|35=0|34=244|49=BAADER|52=20181027-16:15:47.279|56=CATSOS|10=186|8=FIX.4.2|9=57|35=0|34=245|49=BAADER|52=20181027-16:16:17.283|56=CATSOS|10=180|8=FIX.4.2|9=69|35=A|34=246|49=BAADER|52=20181027-16:17:15.867|56=CATSOS|98=0|108=30|10=233|8=FIX.4.2|9=153|35=R|34=247|49=BAADER|52=20181027-16:17:18.916|56=CATSOS|128=CITIDE|131=HackStuttgart1540657038914|146=1|55=BAADERBK|22=4|38=123|48=DE0005140008|167=OPT|10=061|8=FIX.4.2|9=57|35=0|34=248|49=BAADER|52=20181027-16:17:49.867|56=CATSOS|10=197|8=FIX.4.2|9=57|35=0|34=249|49=BAADER|52=20181027-16:18:19.865|56=CATSOS|10=194|8=FIX.4.2|9=57|35=0|34=250|49=BAADER|52=20181027-16:18:49.861|56=CATSOS|10=185|8=FIX.4.2|9=69|35=A|34=251|49=BAADER|52=20181027-16:19:07.148|56=CATSOS|98=0|108=30|10=224|8=FIX.4.2|9=153|35=R|34=252|49=BAADER|52=20181027-16:19:10.227|56=CATSOS|128=CITIDE|131=HackStuttgart1540657150225|146=1|55=BAADERBK|22=4|38=123|48=DE0005140008|167=OPT|10=036|8=FIX.4.2|9=57|35=0|34=253|49=BAADER|52=20181027-16:19:41.151|56=CATSOS|10=173|8=FIX.4.2|9=57|35=0|34=254|49=BAADER|52=20181027-16:20:12.141|56=CATSOS|10=163|8=FIX.4.2|9=69|35=A|34=255|49=BAADER|52=20181027-16:20:23.336|56=CATSOS|98=0|108=30|10=217|8=FIX.4.2|9=153|35=R|34=256|49=BAADER|52=20181027-16:20:26.398|56=CATSOS|128=CITIDE|131=HackStuttgart1540657226396|146=1|55=BAADERBK|22=4|38=123|48=DE0005140008|167=OPT|10=061|8=FIX.4.2|9=57|35=0|34=257|49=BAADER|52=20181027-16:20:57.311|56=CATSOS|10=174|8=FIX.4.2|9=57|35=0|34=258|49=BAADER|52=20181027-16:21:27.319|56=CATSOS|10=181|8=FIX.4.2|9=69|35=A|34=259|49=BAADER|52=20181027-16:23:48.564|56=CATSOS|98=0|108=30|10=234|8=FIX.4.2|9=153|35=R|34=260|49=BAADER|52=20181027-16:23:51.618|56=CATSOS|128=CITIDE|131=HackStuttgart1540657431616|146=1|55=BAADERBK|22=4|38=123|48=DE0005140008|167=OPT|10=045|8=FIX.4.2|9=69|35=A|34=261|49=BAADER|52=20181027-16:29:35.225|56=CATSOS|98=0|108=30|10=223|8=FIX.4.2|9=153|35=R|34=262|49=BAADER|52=20181027-16:29:38.259|56=CATSOS|128=CITIDE|131=HackStuttgart1540657778255|146=1|55=BAADERBK|22=4|38=123|48=DE0005140008|167=OPT|10=072|8=FIX.4.2|9=57|35=0|34=263|49=BAADER|52=20181027-16:30:09.185|56=CATSOS|10=178|8=FIX.4.2|9=57|35=0|34=264|49=BAADER|52=20181027-16:30:39.190|56=CATSOS|10=178|8=FIX.4.2|9=57|35=0|34=265|49=BAADER|52=20181027-16:31:09.197|56=CATSOS|10=184|8=FIX.4.2|9=57|35=0|34=266|49=BAADER|52=20181027-16:31:39.193|56=CATSOS|10=184|8=FIX.4.2|9=57|35=0|34=267|49=BAADER|52=20181027-16:32:09.200|56=CATSOS|10=172|8=FIX.4.2|9=57|35=0|34=268|49=BAADER|52=20181027-16:32:39.196|56=CATSOS|10=190|8=FIX.4.2|9=69|35=A|34=269|49=BAADER|52=20181027-16:39:25.012|56=CATSOS|98=0|108=30|10=225|8=FIX.4.2|9=153|35=R|34=270|49=BAADER|52=20181027-16:39:28.062|56=CATSOS|128=CITIDE|131=HackStuttgart1540658368054|146=1|55=BAADERBK|22=4|38=123|48=DE0005140008|167=OPT|10=056|8=FIX.4.2|9=57|35=0|34=271|49=BAADER|52=20181027-16:39:58.972|56=CATSOS|10=194|8=FIX.4.2|9=69|35=A|34=272|49=BAADER|52=20181027-16:55:17.215|56=CATSOS|98=0|108=30|10=223|8=FIX.4.2|9=153|35=R|34=273|49=BAADER|52=20181027-16:55:20.244|56=CATSOS|128=CITIDE|131=HackStuttgart1540659320242|146=1|55=BAADERBK|22=4|38=123|48=DE0005140008|167=OPT|10=039|8=FIX.4.2|9=57|35=0|34=274|49=BAADER|52=20181027-16:55:51.161|56=CATSOS|10=178|8=FIX.4.2|9=69|35=A|34=275|49=BAADER|52=20181027-16:56:24.975|56=CATSOS|98=0|108=30|10=238|8=FIX.4.2|9=153|35=R|34=276|49=BAADER|52=20181027-16:56:28.015|56=CATSOS|128=CITIDE|131=HackStuttgart1540659388014|146=1|55=BAADERBK|22=4|38=123|48=DE0005140008|167=OPT|10=058|8=FIX.4.2|9=69|35=A|34=277|49=BAADER|52=20181027-16:57:44.891|56=CATSOS|98=0|108=30|10=240|8=FIX.4.2|9=153|35=R|34=278|49=BAADER|52=20181027-16:57:47.934|56=CATSOS|128=CITIDE|131=HackStuttgart1540659467932|146=1|55=BAADERBK|22=4|38=123|48=DE0005140008|167=OPT|10=079|8=FIX.4.2|9=57|35=0|34=279|49=BAADER|52=20181027-16:58:18.861|56=CATSOS|10=196|8=FIX.4.2|9=69|35=A|34=280|49=BAADER|52=20181027-16:58:27.402|56=CATSOS|98=0|108=30|10=224|8=FIX.4.2|9=153|35=R|34=281|49=BAADER|52=20181027-16:58:30.454|56=CATSOS|128=CITIDE|131=HackStuttgart1540659510448|146=1|55=BAADERBK|22=4|38=123|48=DE0005140008|167=OPT|10=054|8=FIX.4.2|9=57|35=0|34=282|49=BAADER|52=20181027-16:59:01.351|56=CATSOS|10=177|8=FIX.4.2|9=57|35=0|34=283|49=BAADER|52=20181027-16:59:31.351|56=CATSOS|10=181|8=FIX.4.2|9=69|35=A|34=284|49=BAADER|52=20181027-16:59:48.835|56=CATSOS|98=0|108=30|10=242|8=FIX.4.2|9=153|35=R|34=285|49=BAADER|52=20181027-16:59:51.911|56=CATSOS|128=CITIDE|131=HackStuttgart1540659591905|146=1|55=BAADERBK|22=4|38=123|48=DE0005140008|167=OPT|10=067|8=FIX.4.2|9=69|35=A|34=286|49=BAADER|52=20181027-17:08:35.224|56=CATSOS|98=0|108=30|10=227|8=FIX.4.2|9=68|35=2|34=287|49=BAADER|52=20181027-17:08:35.311|56=CATSOS|7=276|16=0|10=161|8=FIX.4.2|9=153|35=R|34=288|49=BAADER|52=20181027-17:08:38.294|56=CATSOS|128=CITIDE|131=HackStuttgart1540660118294|146=1|55=BAADERBK|22=4|38=123|48=DE0005140008|167=OPT|10=062|8=FIX.4.2|9=57|35=0|34=289|49=BAADER|52=20181027-17:09:09.181|56=CATSOS|10=189|8=FIX.4.2|9=57|35=0|34=290|49=BAADER|52=20181027-17:09:39.192|56=CATSOS|10=186|8=FIX.4.2|9=57|35=0|34=291|49=BAADER|52=20181027-17:10:10.181|56=CATSOS|10=166|8=FIX.4.2|9=57|35=0|34=292|49=BAADER|52=20181027-17:10:40.181|56=CATSOS|10=170|8=FIX.4.2|9=57|35=0|34=293|49=BAADER|52=20181027-17:11:10.190|56=CATSOS|10=169|8=FIX.4.2|9=57|35=0|34=294|49=BAADER|52=20181027-17:11:40.181|56=CATSOS|10=173|8=FIX.4.2|9=57|35=0|34=295|49=BAADER|52=20181027-17:12:10.181|56=CATSOS|10=172|8=FIX.4.2|9=57|35=0|34=296|49=BAADER|52=20181027-17:12:40.180|56=CATSOS|10=175|8=FIX.4.2|9=57|35=0|34=297|49=BAADER|52=20181027-17:13:10.191|56=CATSOS|10=176|8=FIX.4.2|9=57|35=0|34=298|49=BAADER|52=20181027-17:13:40.184|56=CATSOS|10=182|8=FIX.4.2|9=69|35=A|34=299|49=BAADER|52=20181027-17:13:44.281|56=CATSOS|98=0|108=30|10=230|8=FIX.4.2|9=69|35=A|34=300|49=BAADER|52=20181027-17:14:06.931|56=CATSOS|98=0|108=30|10=214|8=FIX.4.2|9=153|35=R|34=301|49=BAADER|52=20181027-17:14:09.993|56=CATSOS|128=CITIDE|131=HackStuttgart1540660449991|146=1|55=BAADERBK|22=4|38=123|48=DE0005140008|167=OPT|10=060|8=FIX.4.2|9=69|35=A|34=302|49=BAADER|52=20181027-17:24:08.085|56=CATSOS|98=0|108=30|10=219|8=FIX.4.2|9=153|35=R|34=303|49=BAADER|52=20181027-17:24:09.067|56=CATSOS|128=CITIDE|131=HackStuttgart1540661049064|146=1|55=BAADERBK|22=4|38=123|48=DE0005140008|167=OPT|10=043|8=FIX.4.2|9=57|35=0|34=304|49=BAADER|52=20181027-17:24:39.061|56=CATSOS|10=174|8=FIX.4.2|9=57|35=0|34=305|49=BAADER|52=20181027-17:25:09.061|56=CATSOS|10=173|8=FIX.4.2|9=57|35=0|34=306|49=BAADER|52=20181027-17:25:39.062|56=CATSOS|10=178|8=FIX.4.2|9=57|35=0|34=307|49=BAADER|52=20181027-17:26:09.061|56=CATSOS|10=176|8=FIX.4.2|9=69|35=A|34=308|49=BAADER|52=20181027-17:56:45.958|56=CATSOS|98=0|108=30|10=240|8=FIX.4.2|9=153|35=R|34=309|49=BAADER|52=20181027-17:56:46.949|56=CATSOS|128=CITIDE|131=HackStuttgart1540663006949|146=1|55=BAADERBK|22=4|38=123|48=DE0005140008|167=OPT|10=071|8=FIX.4.2|9=69|35=A|34=310|49=BAADER|52=20181027-17:57:26.098|56=CATSOS|98=0|108=30|10=228|8=FIX.4.2|9=153|35=R|34=311|49=BAADER|52=20181027-17:57:29.148|56=CATSOS|128=CITIDE|131=HackStuttgart1540663049148|146=1|55=BAADERBK|22=4|38=123|48=DE0005140008|167=OPT|10=055|8=FIX.4.2|9=57|35=0|34=312|49=BAADER|52=20181027-17:58:00.078|56=CATSOS|10=176|8=FIX.4.2|9=69|35=A|34=313|49=BAADER|52=20181027-17:58:13.041|56=CATSOS|98=0|108=30|10=216|8=FIX.4.2|9=153|35=R|34=314|49=BAADER|52=20181027-17:58:16.108|56=CATSOS|128=CITIDE|131=HackStuttgart1540663096108|146=1|55=BAADERBK|22=4|38=123|48=DE0005140008|167=OPT|10=049|8=FIX.4.2|9=57|35=0|34=315|49=BAADER|52=20181027-17:58:46.998|56=CATSOS|10=200|8=FIX.4.2|9=69|35=A|34=316|49=BAADER|52=20181027-18:00:25.812|56=CATSOS|98=0|108=30|10=216|8=FIX.4.2|9=153|35=R|34=317|49=BAADER|52=20181027-18:00:28.821|56=CATSOS|128=CITIDE|131=HackStuttgart1540663228819|146=1|55=BAADERBK|22=4|38=123|48=DE0005140008|167=OPT|10=051|8=FIX.4.2|9=57|35=0|34=318|49=BAADER|52=20181027-18:00:59.758|56=CATSOS|10=189|8=FIX.4.2|9=57|35=0|34=319|49=BAADER|52=20181027-18:01:29.758|56=CATSOS|10=188|8=FIX.4.2|9=57|35=0|34=320|49=BAADER|52=20181027-18:01:59.768|56=CATSOS|10=184|8=FIX.4.2|9=69|35=A|34=321|49=BAADER|52=20181027-18:03:03.851|56=CATSOS|98=0|108=30|10=214|8=FIX.4.2|9=153|35=R|34=322|49=BAADER|52=20181027-18:03:06.898|56=CATSOS|128=CITIDE|131=HackStuttgart1540663386892|146=1|55=BAADERBK|22=4|38=123|48=DE0005140008|167=OPT|10=066|8=FIX.4.2|9=69|35=A|34=323|49=BAADER|52=20181027-18:03:42.266|56=CATSOS|98=0|108=30|10=219|8=FIX.4.2|9=68|35=2|34=324|49=BAADER|52=20181027-18:03:42.348|56=CATSOS|7=310|16=0|10=146|8=FIX.4.2|9=153|35=R|34=325|49=BAADER|52=20181027-18:03:45.307|56=CATSOS|128=CITIDE|131=HackStuttgart1540663425299|146=1|55=BAADERBK|22=4|38=123|48=DE0005140008|167=OPT|10=052|8=FIX.4.2|9=57|35=0|34=326|49=BAADER|52=20181027-18:04:16.208|56=CATSOS|10=175|8=FIX.4.2|9=69|35=A|34=327|49=BAADER|52=20181027-18:05:42.028|56=CATSOS|98=0|108=30|10=221|8=FIX.4.2|9=153|35=R|34=328|49=BAADER|52=20181027-18:05:45.078|56=CATSOS|128=CITIDE|131=HackStuttgart1540663545070|146=1|55=BAADERBK|22=4|38=123|48=DE0005140008|167=OPT|10=052|8=FIX.4.2|9=69|35=A|34=329|49=BAADER|52=20181027-18:06:47.638|56=CATSOS|98=0|108=30|10=236|8=FIX.4.2|9=153|35=R|34=330|49=BAADER|52=20181027-18:06:50.718|56=CATSOS|128=CITIDE|131=HackStuttgart1540663610718|146=1|55=BAADERBK|22=4|38=123|48=DE0005140008|167=OPT|10=045|8=FIX.4.2|9=69|35=A|34=331|49=BAADER|52=20181027-18:08:15.078|56=CATSOS|98=0|108=30|10=224|8=FIX.4.2|9=153|35=R|34=332|49=BAADER|52=20181027-18:08:18.121|56=CATSOS|128=CITIDE|131=HackStuttgart1540663698119|146=1|55=BAADERBK|22=4|38=123|48=DE0005140008|167=OPT|10=052|8=FIX.4.2|9=69|35=A|34=333|49=BAADER|52=20181027-18:09:45.118|56=CATSOS|98=0|108=30|10=225|8=FIX.4.2|9=153|35=R|34=334|49=BAADER|52=20181027-18:09:48.191|56=CATSOS|128=CITIDE|131=HackStuttgart1540663788191|146=1|55=BAADERBK|22=4|38=123|48=DE0005140008|167=OPT|10=065|8=FIX.4.2|9=57|35=0|34=335|49=BAADER|52=20181027-18:10:19.081|56=CATSOS|10=174|8=FIX.4.2|9=57|35=0|34=336|49=BAADER|52=20181027-18:10:50.067|56=CATSOS|10=174|8=FIX.4.2|9=69|35=A|34=337|49=BAADER|52=20181027-18:15:55.457|56=CATSOS|98=0|108=30|10=233|8=FIX.4.2|9=153|35=R|34=338|49=BAADER|52=20181027-18:15:58.581|56=CATSOS|128=CITIDE|131=HackStuttgart1540664158581|146=1|55=BAADERBK|22=4|38=123|48=DE0005140008|167=OPT|10=065|8=FIX.4.2|9=69|35=A|34=339|49=BAADER|52=20181027-18:16:54.681|56=CATSOS|98=0|108=30|10=234|8=FIX.4.2|9=68|35=2|34=340|49=BAADER|52=20181027-18:16:54.781|56=CATSOS|7=324|16=0|10=157|8=FIX.4.2|9=153|35=R|34=341|49=BAADER|52=20181027-18:16:57.762|56=CATSOS|128=CITIDE|131=HackStuttgart1540664217760|146=1|55=BAADERBK|22=4|38=123|48=DE0005140008|167=OPT|10=055|8=FIX.4.2|9=57|35=0|34=342|49=BAADER|52=20181027-18:17:28.637|56=CATSOS|10=186|8=FIX.4.2|9=69|35=A|34=343|49=BAADER|52=20181027-18:33:30.103|56=CATSOS|98=0|108=30|10=211|8=FIX.4.2|9=68|35=2|34=344|49=BAADER|52=20181027-18:33:30.185|56=CATSOS|7=328|16=0|10=156|8=FIX.4.2|9=153|35=R|34=345|49=BAADER|52=20181027-18:33:33.173|56=CATSOS|128=CITIDE|131=HackStuttgart1540665213169|146=1|55=BAADERBK|22=4|38=123|48=DE0005140008|167=OPT|10=048|8=FIX.4.2|9=57|35=0|34=346|49=BAADER|52=20181027-18:34:04.076|56=CATSOS|10=180|8=FIX.4.2|9=69|35=A|34=347|49=BAADER|52=20181027-18:36:13.343|56=CATSOS|98=0|108=30|10=225|8=FIX.4.2|9=153|35=R|34=348|49=BAADER|52=20181027-18:36:16.414|56=CATSOS|128=CITIDE|131=HackStuttgart1540665376411|146=1|55=BAADERBK|22=4|38=123|48=DE0005140008|167=OPT|10=053|8=FIX.4.2|9=57|35=0|34=349|49=BAADER|52=20181027-18:36:47.317|56=CATSOS|10=190|8=FIX.4.2|9=57|35=0|34=350|49=BAADER|52=20181027-18:37:17.329|56=CATSOS|10=183|8=FIX.4.2|9=69|35=A|34=351|49=BAADER|52=20181027-18:37:51.071|56=CATSOS|98=0|108=30|10=221|8=FIX.4.2|9=153|35=R|34=352|49=BAADER|52=20181027-18:37:54.179|56=CATSOS|128=CITIDE|131=HackStuttgart1540665474172|146=1|55=BAADERBK|22=4|38=123|48=DE0005140008|167=OPT|10=062|8=FIX.4.2|9=57|35=0|34=353|49=BAADER|52=20181027-18:38:25.059|56=CATSOS|10=186|8=FIX.4.2|9=69|35=A|34=354|49=BAADER|52=20181027-18:38:51.589|56=CATSOS|98=0|108=30|10=239|8=FIX.4.2|9=153|35=R|34=355|49=BAADER|52=20181027-18:38:57.729|56=CATSOS|128=CITIDE|131=HackStuttgart1540665534699|146=1|55=BAADERBK|22=4|38=123|48=DE0005140008|167=OPT|10=081|8=FIX.4.2|9=69|35=A|34=356|49=BAADER|52=20181027-18:39:11.321|56=CATSOS|98=0|108=30|10=222|8=FIX.4.2|9=153|35=R|34=357|49=BAADER|52=20181027-18:39:17.419|56=CATSOS|128=CITIDE|131=HackStuttgart1540665554412|146=1|55=BAADERBK|22=4|38=123|48=DE0005140008|167=OPT|10=061|8=FIX.4.2|9=69|35=A|34=358|49=BAADER|52=20181027-19:17:08.331|56=CATSOS|98=0|108=30|10=228|8=FIX.4.2|9=68|35=2|34=359|49=BAADER|52=20181027-19:17:08.427|56=CATSOS|7=343|16=0|10=166|8=FIX.4.2|9=153|35=R|34=360|49=BAADER|52=20181027-19:17:14.417|56=CATSOS|128=CITIDE|131=HackStuttgart1540667831417|146=1|55=BAADERBK|22=4|38=123|48=DE0005140008|167=OPT|10=052|8=FIX.4.2|9=57|35=0|34=361|49=BAADER|52=20181027-19:17:45.270|56=CATSOS|10=180|8=FIX.4.2|9=57|35=0|34=362|49=BAADER|52=20181027-19:18:15.290|56=CATSOS|10=181|8=FIX.4.2|9=57|35=0|34=363|49=BAADER|52=20181027-19:18:46.287|56=CATSOS|10=192|8=FIX.4.2|9=57|35=0|34=364|49=BAADER|52=20181027-19:19:17.267|56=CATSOS|10=190|8=FIX.4.2|9=57|35=0|34=365|49=BAADER|52=20181027-19:19:47.277|56=CATSOS|10=195|8=FIX.4.2|9=69|35=A|34=366|49=BAADER|52=20181027-19:34:07.507|56=CATSOS|98=0|108=30|10=230|8=FIX.4.2|9=68|35=2|34=367|49=BAADER|52=20181027-19:34:07.584|56=CATSOS|7=350|16=0|10=165|8=FIX.4.2|9=153|35=R|34=368|49=BAADER|52=20181027-19:34:13.624|56=CATSOS|128=CITIDE|131=HackStuttgart1540668850614|146=1|55=BAADERBK|22=4|38=123|48=DE0005140008|167=OPT|10=059|8=FIX.4.2|9=69|35=A|34=369|49=BAADER|52=20181027-19:43:06.747|56=CATSOS|98=0|108=30|10=238|8=FIX.4.2|9=68|35=2|34=370|49=BAADER|52=20181027-19:43:06.837|56=CATSOS|7=353|16=0|10=162|8=FIX.4.2|9=153|35=R|34=371|49=BAADER|52=20181027-19:43:12.807|56=CATSOS|128=CITIDE|131=HackStuttgart1540669389804|146=1|55=BAADERBK|22=4|38=123|48=DE0005140008|167=OPT|10=064|8=FIX.4.2|9=69|35=A|34=372|49=BAADER|52=20181027-19:46:40.153|56=CATSOS|98=0|108=30|10=224|8=FIX.4.2|9=68|35=2|34=373|49=BAADER|52=20181027-19:46:40.238|56=CATSOS|7=358|16=0|10=166|8=FIX.4.2|9=153|35=R|34=374|49=BAADER|52=20181027-19:46:46.228|56=CATSOS|128=CITIDE|131=HackStuttgart1540669603225|146=1|55=BAADERBK|22=4|38=123|48=DE0005140008|167=OPT|10=060|