8=FIX.4.2|9=68|35=A|34=1|49=CITIFFT|52=20181027-10:10:33.714|56=CATSOS|98=0|108=30|10=209|8=FIX.4.2|9=113|35=D|34=2|49=CITIFFT|52=20181027-10:10:34.802|56=CATSOS|11=342|21=1|40=1|54=1|55=6758.T|60=20181027-12:10:34.795|10=116|8=FIX.4.2|9=56|35=0|34=3|49=CITIFFT|52=20181027-10:11:04.828|56=CATSOS|10=171|8=FIX.4.2|9=56|35=0|34=4|49=CITIFFT|52=20181027-10:11:34.827|56=CATSOS|10=174|8=FIX.4.2|9=56|35=0|34=5|49=CITIFFT|52=20181027-10:12:04.827|56=CATSOS|10=173|8=FIX.4.2|9=56|35=0|34=6|49=CITIFFT|52=20181027-10:12:34.827|56=CATSOS|10=177|8=FIX.4.2|9=56|35=0|34=7|49=CITIFFT|52=20181027-10:13:04.825|56=CATSOS|10=174|8=FIX.4.2|9=56|35=0|34=8|49=CITIFFT|52=20181027-10:13:34.834|56=CATSOS|10=178|8=FIX.4.2|9=56|35=0|34=9|49=CITIFFT|52=20181027-10:14:05.690|56=CATSOS|10=178|8=FIX.4.2|9=57|35=0|34=10|49=CITIFFT|52=20181027-10:14:35.690|56=CATSOS|10=222|8=FIX.4.2|9=57|35=0|34=11|49=CITIFFT|52=20181027-10:15:05.693|56=CATSOS|10=224|8=FIX.4.2|9=57|35=0|34=12|49=CITIFFT|52=20181027-10:15:35.700|56=CATSOS|10=217|8=FIX.4.2|9=57|35=0|34=13|49=CITIFFT|52=20181027-10:16:05.702|56=CATSOS|10=218|8=FIX.4.2|9=57|35=0|34=14|49=CITIFFT|52=20181027-10:16:36.690|56=CATSOS|10=229|8=FIX.4.2|9=57|35=0|34=15|49=CITIFFT|52=20181027-10:17:06.690|56=CATSOS|10=228|8=FIX.4.2|9=57|35=0|34=16|49=CITIFFT|52=20181027-10:17:36.690|56=CATSOS|10=232|8=FIX.4.2|9=57|35=0|34=17|49=CITIFFT|52=20181027-10:18:06.690|56=CATSOS|10=231|8=FIX.4.2|9=57|35=0|34=18|49=CITIFFT|52=20181027-10:18:36.689|56=CATSOS|10=243|8=FIX.4.2|9=57|35=0|34=19|49=CITIFFT|52=20181027-10:19:06.703|56=CATSOS|10=229|8=FIX.4.2|9=57|35=0|34=20|49=CITIFFT|52=20181027-10:19:37.693|56=CATSOS|10=233|8=FIX.4.2|9=57|35=0|34=21|49=CITIFFT|52=20181027-10:20:07.709|56=CATSOS|10=221|8=FIX.4.2|9=57|35=0|34=22|49=CITIFFT|52=20181027-10:20:38.689|56=CATSOS|10=233|8=FIX.4.2|9=57|35=0|34=23|49=CITIFFT|52=20181027-10:21:08.703|56=CATSOS|10=219|8=FIX.4.2|9=57|35=0|34=24|49=CITIFFT|52=20181027-10:21:38.713|56=CATSOS|10=224|8=FIX.4.2|9=57|35=0|34=25|49=CITIFFT|52=20181027-10:22:09.689|56=CATSOS|10=236|8=FIX.4.2|9=57|35=0|34=26|49=CITIFFT|52=20181027-10:22:39.703|56=CATSOS|10=227|8=FIX.4.2|9=57|35=0|34=27|49=CITIFFT|52=20181027-10:23:10.690|56=CATSOS|10=223|8=FIX.4.2|9=57|35=0|34=28|49=CITIFFT|52=20181027-10:23:40.693|56=CATSOS|10=230|8=FIX.4.2|9=57|35=0|34=29|49=CITIFFT|52=20181027-10:24:10.703|56=CATSOS|10=221|8=FIX.4.2|9=57|35=0|34=30|49=CITIFFT|52=20181027-10:24:40.700|56=CATSOS|10=213|8=FIX.4.2|9=57|35=0|34=31|49=CITIFFT|52=20181027-10:25:11.689|56=CATSOS|10=229|8=FIX.4.2|9=57|35=0|34=32|49=CITIFFT|52=20181027-10:25:41.691|56=CATSOS|10=226|8=FIX.4.2|9=57|35=0|34=33|49=CITIFFT|52=20181027-10:26:11.689|56=CATSOS|10=232|8=FIX.4.2|9=57|35=0|34=34|49=CITIFFT|52=20181027-10:26:41.699|56=CATSOS|10=237|8=FIX.4.2|9=57|35=0|34=35|49=CITIFFT|52=20181027-10:27:12.689|56=CATSOS|10=236|8=FIX.4.2|9=57|35=0|34=36|49=CITIFFT|52=20181027-10:27:42.687|56=CATSOS|10=238|8=FIX.4.2|9=57|35=0|34=37|49=CITIFFT|52=20181027-10:28:12.699|56=CATSOS|10=240|8=FIX.4.2|9=57|35=0|34=38|49=CITIFFT|52=20181027-10:28:42.691|56=CATSOS|10=236|8=FIX.4.2|9=57|35=0|34=39|49=CITIFFT|52=20181027-10:29:12.702|56=CATSOS|10=228|8=FIX.4.2|9=57|35=0|34=40|49=CITIFFT|52=20181027-10:29:43.689|56=CATSOS|10=238|8=FIX.4.2|9=57|35=0|34=41|49=CITIFFT|52=20181027-10:30:13.698|56=CATSOS|10=228|8=FIX.4.2|9=57|35=0|34=42|49=CITIFFT|52=20181027-10:30:43.702|56=CATSOS|10=218|8=FIX.4.2|9=57|35=0|34=43|49=CITIFFT|52=20181027-10:31:13.698|56=CATSOS|10=231|8=FIX.4.2|9=57|35=0|34=44|49=CITIFFT|52=20181027-10:31:43.692|56=CATSOS|10=229|8=FIX.4.2|9=57|35=0|34=45|49=CITIFFT|52=20181027-10:32:13.689|56=CATSOS|10=234|8=FIX.4.2|9=57|35=0|34=46|49=CITIFFT|52=20181027-10:32:43.699|56=CATSOS|10=239|8=FIX.4.2|9=57|35=0|34=47|49=CITIFFT|52=20181027-10:33:14.689|56=CATSOS|10=238|8=FIX.4.2|9=57|35=0|34=48|49=CITIFFT|52=20181027-10:33:44.699|56=CATSOS|10=243|8=FIX.4.2|9=57|35=0|34=49|49=CITIFFT|52=20181027-10:34:15.689|56=CATSOS|10=242|8=FIX.4.2|9=57|35=0|34=50|49=CITIFFT|52=20181027-10:34:45.689|56=CATSOS|10=237|8=FIX.4.2|9=57|35=0|34=51|49=CITIFFT|52=20181027-10:35:15.698|56=CATSOS|10=236|8=FIX.4.2|9=57|35=0|34=52|49=CITIFFT|52=20181027-10:35:45.699|56=CATSOS|10=241|8=FIX.4.2|9=57|35=0|34=53|49=CITIFFT|52=20181027-10:36:15.699|56=CATSOS|10=240|8=FIX.4.2|9=57|35=0|34=54|49=CITIFFT|52=20181027-10:36:46.689|56=CATSOS|10=244|8=FIX.4.2|9=57|35=0|34=55|49=CITIFFT|52=20181027-10:37:16.699|56=CATSOS|10=244|8=FIX.4.2|9=57|35=0|34=56|49=CITIFFT|52=20181027-10:37:46.698|56=CATSOS|10=247|8=FIX.4.2|9=57|35=0|34=57|49=CITIFFT|52=20181027-10:38:17.699|56=CATSOS|10=248|8=FIX.4.2|9=57|35=0|34=58|49=CITIFFT|52=20181027-10:38:47.697|56=CATSOS|10=250|8=FIX.4.2|9=57|35=0|34=59|49=CITIFFT|52=20181027-10:39:17.699|56=CATSOS|10=251|8=FIX.4.2|9=57|35=0|34=60|49=CITIFFT|52=20181027-10:39:48.691|56=CATSOS|10=239|8=FIX.4.2|9=57|35=0|34=61|49=CITIFFT|52=20181027-10:40:18.703|56=CATSOS|10=223|8=FIX.4.2|9=57|35=0|34=62|49=CITIFFT|52=20181027-10:40:49.691|56=CATSOS|10=234|8=FIX.4.2|9=57|35=0|34=63|49=CITIFFT|52=20181027-10:41:19.700|56=CATSOS|10=224|8=FIX.4.2|9=57|35=0|34=64|49=CITIFFT|52=20181027-10:41:50.692|56=CATSOS|10=230|8=FIX.4.2|9=57|35=0|34=65|49=CITIFFT|52=20181027-10:42:20.698|56=CATSOS|10=235|8=FIX.4.2|9=69|35=A|34=66|49=CITIFFT|52=20181027-10:56:43.168|56=CATSOS|98=0|108=30|10=027|8=FIX.4.2|9=129|35=R|34=67|49=CITIFFT|52=20181027-10:56:44.178|56=CATSOS|22=4|38=123.45|48=DE0005140008|55=MM1|131=HackathonStuttgart-1234|146=1|10=190|8=FIX.4.2|9=129|35=R|34=68|49=CITIFFT|52=20181027-10:56:49.219|56=CATSOS|22=4|38=123.45|48=DE0005140008|55=MM1|131=HackathonStuttgart-1234|146=1|10=192|8=FIX.4.2|9=57|35=0|34=69|49=CITIFFT|52=20181027-10:57:19.243|56=CATSOS|10=239|8=FIX.4.2|9=69|35=A|34=70|49=CITIFFT|52=20181027-11:05:37.011|56=CATSOS|98=0|108=30|10=007|8=FIX.4.2|9=69|35=A|34=71|49=CITIFFT|52=20181027-11:06:06.987|56=CATSOS|98=0|108=30|10=027|8=FIX.4.2|9=69|35=A|34=72|49=CITIFFT|52=20181027-11:07:27.617|56=CATSOS|98=0|108=30|10=022|8=FIX.4.2|9=69|35=A|34=73|49=CITIFFT|52=20181027-11:08:37.622|56=CATSOS|98=0|108=30|10=021|8=FIX.4.2|9=69|35=A|34=74|49=CITIFFT|52=20181027-11:09:07.611|56=CATSOS|98=0|108=30|10=018|8=FIX.4.2|9=69|35=A|34=75|49=CITIFFT|52=20181027-11:09:59.013|56=CATSOS|98=0|108=30|10=022|8=FIX.4.2|9=69|35=A|34=76|49=CITIFFT|52=20181027-11:12:01.101|56=CATSOS|98=0|108=30|10=002|8=FIX.4.2|9=69|35=A|34=77|49=CITIFFT|52=20181027-11:12:31.075|56=CATSOS|98=0|108=30|10=016|8=FIX.4.2|9=69|35=A|34=78|49=CITIFFT|52=20181027-11:23:43.784|56=CATSOS|98=0|108=30|10=029|8=FIX.4.2|9=69|35=A|34=79|49=CITIFFT|52=20181027-11:24:13.754|56=CATSOS|98=0|108=30|10=025|8=FIX.4.2|9=69|35=A|34=80|49=CITIFFT|52=20181027-11:24:43.756|56=CATSOS|98=0|108=30|10=022|69|35=A|34=81|49=CITIFFT|52=20181027-11:24:17.510|56=CATSOS|98=0|108=30|10=012|8=FIX.4.2|9=57|35=5|34=82|49=CITIFFT|52=20181027-11:24:17.538|56=CATSOS|10=239|8=FIX.4.2|9=69|35=A|34=83|49=CITIFFT|52=20181027-11:24:47.511|56=CATSOS|98=0|108=30|10=018|8=FIX.4.2|9=57|35=5|34=84|49=CITIFFT|52=20181027-11:24:47.541|56=CATSOS|10=238|8=FIX.4.2|9=69|35=A|34=85|49=CITIFFT|52=20181027-11:28:07.505|56=CATSOS|98=0|108=30|10=023|8=FIX.4.2|9=69|35=A|34=86|49=CITIFFT|52=20181027-11:28:51.517|56=CATSOS|98=0|108=30|10=026|8=FIX.4.2|9=69|35=A|34=87|49=CITIFFT|52=20181027-11:29:21.495|56=CATSOS|98=0|108=30|10=030|8=FIX.4.2|9=69|35=A|34=88|49=CITIFFT|52=20181027-11:30:17.687|56=CATSOS|98=0|108=30|10=031|8=FIX.4.2|9=69|35=A|34=89|49=CITIFFT|52=20181027-11:35:58.836|56=CATSOS|98=0|108=30|10=038|8=FIX.4.2|9=69|35=A|34=90|49=CITIFFT|52=20181027-11:40:49.232|56=CATSOS|98=0|108=30|10=016|8=FIX.4.2|9=69|35=A|34=91|49=CITIFFT|52=20181027-11:41:31.965|56=CATSOS|98=0|108=30|10=022|8=FIX.4.2|9=69|35=A|34=92|49=CITIFFT|52=20181027-11:51:43.621|56=CATSOS|98=0|108=30|10=016|8=FIX.4.2|9=107|35=5|34=93|49=CITIFFT|52=20181027-11:51:43.803|56=CATSOS|58=MsgSeqNum too low, expecting 70 but received 1|10=227|8=FIX.4.2|9=69|35=A|34=94|49=CITIFFT|52=20181027-12:39:31.912|56=CATSOS|98=0|108=30|10=025|8=FIX.4.2|9=107|35=5|34=95|49=CITIFFT|52=20181027-12:39:31.929|56=CATSOS|58=MsgSeqNum too low, expecting 70 but received 1|10=242|8=FIX.4.2|9=69|35=A|34=96|49=CITIFFT|52=20181027-12:51:12.025|56=CATSOS|98=0|108=30|10=015|8=FIX.4.2|9=107|35=5|34=97|49=CITIFFT|52=20181027-12:51:12.052|56=CATSOS|58=MsgSeqNum too low, expecting 70 but received 3|10=226|8=FIX.4.2|9=69|35=A|34=98|49=CITIFFT|52=20181027-12:51:42.025|56=CATSOS|98=0|108=30|10=020|8=FIX.4.2|9=107|35=5|34=99|49=CITIFFT|52=20181027-12:51:42.036|56=CATSOS|58=MsgSeqNum too low, expecting 70 but received 5|10=235|8=FIX.4.2|9=70|35=A|34=100|49=CITIFFT|52=20181027-14:05:41.713|56=CATSOS|98=0|108=30|10=048|8=FIX.4.2|9=108|35=5|34=101|49=CITIFFT|52=20181027-14:05:41.735|56=CATSOS|58=MsgSeqNum too low, expecting 70 but received 7|10=020|8=FIX.4.2|9=70|35=A|34=102|49=CITIFFT|52=20181027-14:06:11.707|56=CATSOS|98=0|108=30|10=051|8=FIX.4.2|9=108|35=5|34=103|49=CITIFFT|52=20181027-14:06:11.728|56=CATSOS|58=MsgSeqNum too low, expecting 70 but received 9|10=024|8=FIX.4.2|9=70|35=A|34=104|49=CITIFFT|52=20181027-14:06:41.714|56=CATSOS|98=0|108=30|10=054|8=FIX.4.2|9=109|35=5|34=105|49=CITIFFT|52=20181027-14:06:41.733|56=CATSOS|58=MsgSeqNum too low, expecting 70 but received 11|10=067|8=FIX.4.2|9=70|35=A|34=106|49=CITIFFT|52=20181027-14:07:22.507|56=CATSOS|98=0|108=30|10=056|8=FIX.4.2|9=109|35=5|34=107|49=CITIFFT|52=20181027-14:07:22.542|56=CATSOS|58=MsgSeqNum too low, expecting 70 but received 13|10=069|8=FIX.4.2|9=70|35=A|34=108|49=CITIFFT|52=20181027-14:08:11.735|56=CATSOS|98=0|108=30|10=060|8=FIX.4.2|9=109|35=5|34=109|49=CITIFFT|52=20181027-14:08:11.895|56=CATSOS|58=MsgSeqNum too low, expecting 70 but received 15|10=083|8=FIX.4.2|9=70|35=A|34=110|49=CITIFFT|52=20181027-14:08:41.707|56=CATSOS|98=0|108=30|10=055|8=FIX.4.2|9=109|35=5|34=111|49=CITIFFT|52=20181027-14:08:41.736|56=CATSOS|58=MsgSeqNum too low, expecting 70 but received 17|10=075|8=FIX.4.2|9=70|35=A|34=112|49=CITIFFT|52=20181027-14:10:16.678|56=CATSOS|98=0|108=30|10=059|8=FIX.4.2|9=109|35=5|34=113|49=CITIFFT|52=20181027-14:10:16.803|56=CATSOS|58=MsgSeqNum too low, expecting 70 but received 19|10=069|8=FIX.4.2|9=70|35=A|34=114|49=CITIFFT|52=20181027-14:10:43.367|56=CATSOS|98=0|108=30|10=056|8=FIX.4.2|9=109|35=5|34=115|49=CITIFFT|52=20181027-14:10:43.525|56=CATSOS|58=MsgSeqNum too low, expecting 70 but received 21|10=065|8=FIX.4.2|9=70|35=A|34=116|49=CITIFFT|52=20181027-14:18:18.132|56=CATSOS|98=0|108=30|10=058|8=FIX.4.2|9=58|35=0|34=117|49=CITIFFT|52=20181027-14:18:48.397|56=CATSOS|10=039|8=FIX.4.2|9=70|35=A|34=118|49=CITIFFT|52=20181027-14:23:16.678|56=CATSOS|98=0|108=30|10=069|8=FIX.4.2|9=70|35=A|34=119|49=CITIFFT|52=20181027-14:23:41.906|56=CATSOS|98=0|108=30|10=062|8=FIX.4.2|9=70|35=A|34=120|49=CITIFFT|52=20181027-14:24:16.751|56=CATSOS|98=0|108=30|10=055|8=FIX.4.2|9=58|35=0|34=121|49=CITIFFT|52=20181027-14:24:46.759|56=CATSOS|10=031|8=FIX.4.2|9=70|35=A|34=122|49=CITIFFT|52=20181027-14:25:10.474|56=CATSOS|98=0|108=30|10=054|8=FIX.4.2|9=58|35=0|34=123|49=CITIFFT|52=20181027-14:25:40.466|56=CATSOS|10=023|8=FIX.4.2|9=58|35=0|34=124|49=CITIFFT|52=20181027-14:26:10.465|56=CATSOS|10=021|8=FIX.4.2|9=58|35=0|34=125|49=CITIFFT|52=20181027-14:26:40.472|56=CATSOS|10=023|8=FIX.4.2|9=58|35=0|34=126|49=CITIFFT|52=20181027-14:27:10.477|56=CATSOS|10=027|