8=FIX.4.2|9=67|35=A|34=1|49=client|52=20181027-10:04:17.812|56=server|98=0|108=30|10=020|8=FIX.4.2|9=67|35=A|34=2|49=client|52=20181027-10:04:47.792|56=server|98=0|108=30|10=031|8=FIX.4.2|9=67|35=A|34=3|49=client|52=20181027-10:06:31.521|56=server|98=0|108=30|10=017|8=FIX.4.2|9=67|35=A|34=4|49=client|52=20181027-10:07:01.514|56=server|98=0|108=30|10=018|