8=FIX.4.2|9=67|35=A|34=1|49=BAADER|52=20181027-18:31:11.480|56=CATSOS|98=0|108=30|10=109|8=FIX.4.2|9=55|35=5|34=2|49=BAADER|52=20181027-18:31:11.556|56=CATSOS|10=074|8=FIX.4.2|9=67|35=A|34=3|49=BAADER|52=20181027-18:32:33.717|56=CATSOS|98=0|108=30|10=119|8=FIX.4.2|9=55|35=5|34=4|49=BAADER|52=20181027-18:32:33.881|56=CATSOS|10=082|8=FIX.4.2|9=67|35=A|34=5|49=BAADER|52=20181027-18:33:03.689|56=CATSOS|98=0|108=30|10=127|8=FIX.4.2|9=55|35=5|34=6|49=BAADER|52=20181027-18:33:03.711|56=CATSOS|10=074|8=FIX.4.2|9=67|35=A|34=7|49=BAADER|52=20181027-19:33:13.028|56=CATSOS|98=0|108=30|10=118|8=FIX.4.2|9=55|35=5|34=8|49=BAADER|52=20181027-19:33:13.124|56=CATSOS|10=076|8=FIX.4.2|9=67|35=A|34=9|49=BAADER|52=20181027-19:33:42.974|56=CATSOS|98=0|108=30|10=132|8=FIX.4.2|9=56|35=5|34=10|49=BAADER|52=20181027-19:33:42.994|56=CATSOS|10=135|8=FIX.4.2|9=68|35=A|34=11|49=BAADER|52=20181027-19:36:50.354|56=CATSOS|98=0|108=30|10=168|8=FIX.4.2|9=56|35=5|34=12|49=BAADER|52=20181027-19:36:50.437|56=CATSOS|10=131|8=FIX.4.2|9=68|35=A|34=13|49=BAADER|52=20181027-19:37:20.335|56=CATSOS|98=0|108=30|10=167|8=FIX.4.2|9=56|35=5|34=14|49=BAADER|52=20181027-19:37:20.354|56=CATSOS|10=129|8=FIX.4.2|9=68|35=A|34=15|49=BAADER|52=20181027-19:42:21.964|56=CATSOS|98=0|108=30|10=174|8=FIX.4.2|9=56|35=5|34=16|49=BAADER|52=20181027-19:42:22.049|56=CATSOS|10=130|8=FIX.4.2|9=68|35=A|34=17|49=BAADER|52=20181027-19:43:36.469|56=CATSOS|98=0|108=30|10=183|8=FIX.4.2|9=56|35=5|34=18|49=BAADER|52=20181027-19:43:36.567|56=CATSOS|10=143|8=FIX.4.2|9=68|35=A|34=19|49=BAADER|52=20181027-19:47:06.670|56=CATSOS|98=0|108=30|10=180|8=FIX.4.2|9=56|35=5|34=375|49=BAADER|52=20181027-19:47:06.758|56=CATSOS|10=139|